{
  "_format": "hh-sol-artifact-1",
  "contractName": "NpngGame",
  "sourceName": "contracts/NpngGame.sol",
  "abi": [
    {
      "inputs": [],
      "stateMutability": "nonpayable",
      "type": "constructor"
    },
    {
      "anonymous": false,
      "inputs": [
        {
          "indexed": true,
          "internalType": "address",
          "name": "previousOwner",
          "type": "address"
        },
        {
          "indexed": true,
          "internalType": "address",
          "name": "newOwner",
          "type": "address"
        }
      ],
      "name": "OwnershipTransferred",
      "type": "event"
    },
    {
      "anonymous": false,
      "inputs": [
        {
          "indexed": false,
          "internalType": "address",
          "name": "account",
          "type": "address"
        }
      ],
      "name": "Paused",
      "type": "event"
    },
    {
      "anonymous": false,
      "inputs": [
        {
          "indexed": false,
          "internalType": "address",
          "name": "account",
          "type": "address"
        }
      ],
      "name": "Unpaused",
      "type": "event"
    },
    {
      "inputs": [
        {
          "internalType": "uint256",
          "name": "_newFrequence",
          "type": "uint256"
        }
      ],
      "name": "changeGameFrequence",
      "outputs": [],
      "stateMutability": "nonpayable",
      "type": "function"
    },
    {
      "inputs": [
        {
          "internalType": "address",
          "name": "_newRecorderAddress",
          "type": "address"
        }
      ],
      "name": "changeRecorder",
      "outputs": [],
      "stateMutability": "nonpayable",
      "type": "function"
    },
    {
      "inputs": [
        {
          "internalType": "uint256",
          "name": "_idContest",
          "type": "uint256"
        },
        {
          "internalType": "address",
          "name": "_player",
          "type": "address"
        }
      ],
      "name": "getContestRank",
      "outputs": [
        {
          "internalType": "uint256",
          "name": "",
          "type": "uint256"
        }
      ],
      "stateMutability": "view",
      "type": "function"
    },
    {
      "inputs": [],
      "name": "getEndOfContest",
      "outputs": [
        {
          "internalType": "uint256",
          "name": "",
          "type": "uint256"
        }
      ],
      "stateMutability": "view",
      "type": "function"
    },
    {
      "inputs": [],
      "name": "getIdContest",
      "outputs": [
        {
          "internalType": "uint256",
          "name": "",
          "type": "uint256"
        }
      ],
      "stateMutability": "view",
      "type": "function"
    },
    {
      "inputs": [
        {
          "internalType": "address",
          "name": "_account",
          "type": "address"
        },
        {
          "internalType": "uint256",
          "name": "_idContest",
          "type": "uint256"
        }
      ],
      "name": "getPlayerStatus",
      "outputs": [
        {
          "components": [
            {
              "internalType": "bool",
              "name": "requested",
              "type": "bool"
            },
            {
              "internalType": "bool",
              "name": "played",
              "type": "bool"
            },
            {
              "internalType": "bool",
              "name": "claimed",
              "type": "bool"
            }
          ],
          "internalType": "struct NpngGame.RequestPlaying",
          "name": "",
          "type": "tuple"
        }
      ],
      "stateMutability": "view",
      "type": "function"
    },
    {
      "inputs": [],
      "name": "getWinnersDeposit",
      "outputs": [
        {
          "internalType": "uint256",
          "name": "",
          "type": "uint256"
        }
      ],
      "stateMutability": "view",
      "type": "function"
    },
    {
      "inputs": [
        {
          "internalType": "uint256",
          "name": "",
          "type": "uint256"
        }
      ],
      "name": "numberOfPlayersPerContest",
      "outputs": [
        {
          "internalType": "uint256",
          "name": "",
          "type": "uint256"
        }
      ],
      "stateMutability": "view",
      "type": "function"
    },
    {
      "inputs": [],
      "name": "owner",
      "outputs": [
        {
          "internalType": "address",
          "name": "",
          "type": "address"
        }
      ],
      "stateMutability": "view",
      "type": "function"
    },
    {
      "inputs": [],
      "name": "pause",
      "outputs": [],
      "stateMutability": "nonpayable",
      "type": "function"
    },
    {
      "inputs": [],
      "name": "paused",
      "outputs": [
        {
          "internalType": "bool",
          "name": "",
          "type": "bool"
        }
      ],
      "stateMutability": "view",
      "type": "function"
    },
    {
      "inputs": [],
      "name": "renounceOwnership",
      "outputs": [],
      "stateMutability": "nonpayable",
      "type": "function"
    },
    {
      "inputs": [
        {
          "internalType": "address",
          "name": "newOwner",
          "type": "address"
        }
      ],
      "name": "transferOwnership",
      "outputs": [],
      "stateMutability": "nonpayable",
      "type": "function"
    },
    {
      "inputs": [],
      "name": "unpause",
      "outputs": [],
      "stateMutability": "nonpayable",
      "type": "function"
    }
  ],
  "bytecode": "0x608060405234801561001057600080fd5b5060008060006101000a81548160ff02191690831515021790555061004761003c6100a760201b60201c565b6100af60201b60201c565b426007819055506001600681905550610e1060048190555061dead600860006101000a81548173ffffffffffffffffffffffffffffffffffffffff021916908373ffffffffffffffffffffffffffffffffffffffff160217905550610174565b600033905090565b60008060019054906101000a900473ffffffffffffffffffffffffffffffffffffffff16905081600060016101000a81548173ffffffffffffffffffffffffffffffffffffffff021916908373ffffffffffffffffffffffffffffffffffffffff1602179055508173ffffffffffffffffffffffffffffffffffffffff168173ffffffffffffffffffffffffffffffffffffffff167f8be0079c531659141344cd1fd0a4f28419497f9722a3daafe3b4186f6b6457e060405160405180910390a35050565b610fbd806101836000396000f3fe608060405234801561001057600080fd5b50600436106100ea5760003560e01c8063c85785d61161008c578063e864d00011610066578063e864d00014610201578063e9d699901461021f578063f2fbee3f1461024f578063f2fde38b1461026b576100ea565b8063c85785d614610197578063cad7ebce146101b5578063e064613e146101e5576100ea565b8063715018a6116100c8578063715018a6146101355780638456cb591461013f5780638da5cb5b14610149578063b2e85b6714610167576100ea565b806312b946bc146100ef5780633f4ba83a1461010d5780635c975abb14610117575b600080fd5b6100f7610287565b6040516101049190610a76565b60405180910390f35b6101156102a3565b005b61011f6102b5565b60405161012c9190610aac565b60405180910390f35b61013d6102cb565b005b6101476102df565b005b6101516102f1565b60405161015e9190610b08565b60405180910390f35b610181600480360381019061017c9190610b80565b61031a565b60405161018e9190610c11565b60405180910390f35b61019f6103d6565b6040516101ac9190610a76565b60405180910390f35b6101cf60048036038101906101ca9190610c2c565b6103e0565b6040516101dc9190610a76565b60405180910390f35b6101ff60048036038101906101fa9190610c6c565b6105a9565b005b6102096105f5565b6040516102169190610a76565b60405180910390f35b61023960048036038101906102349190610c99565b6106e7565b6040516102469190610a76565b60405180910390f35b61026960048036038101906102649190610c99565b6106ff565b005b61028560048036038101906102809190610c6c565b610711565b005b60008060045460075461029a9190610cf5565b90508091505090565b6102ab610794565b6102b3610812565b565b60008060009054906101000a900460ff16905090565b6102d3610794565b6102dd6000610874565b565b6102e7610794565b6102ef610939565b565b60008060019054906101000a900473ffffffffffffffffffffffffffffffffffffffff16905090565b610322610a36565b600360008473ffffffffffffffffffffffffffffffffffffffff1673ffffffffffffffffffffffffffffffffffffffff16815260200190815260200160002060008381526020019081526020016000206040518060600160405290816000820160009054906101000a900460ff161515151581526020016000820160019054906101000a900460ff161515151581526020016000820160029054906101000a900460ff161515151581525050905092915050565b6000600654905090565b6000806000806001905060005b60018054905081101561050b576001818154811061040e5761040d610d29565b5b9060005260206000209060040201600001548714801561049e57506001818154811061043d5761043c610d29565b5b906000526020600020906004020160010160009054906101000a900473ffffffffffffffffffffffffffffffffffffffff1673ffffffffffffffffffffffffffffffffffffffff168673ffffffffffffffffffffffffffffffffffffffff16145b156104d357809350600181815481106104ba576104b9610d29565b5b906000526020600020906004020160020154925061050b565b6001805490506001826104e69190610cf5565b036104f85760009450505050506105a3565b808061050390610d58565b9150506103ed565b5060005b60018054905081101561059b57600181815481106105305761052f610d29565b5b9060005260206000209060040201600001548714801561057457506001818154811061055f5761055e610d29565b5b90600052602060002090600402016002015483115b1561058857818061058490610d58565b9250505b808061059390610d58565b91505061050f565b508093505050505b92915050565b6105b1610794565b80600860006101000a81548173ffffffffffffffffffffffffffffffffffffffff021916908373ffffffffffffffffffffffffffffffffffffffff16021790555050565b6000806000905060005b6001805490508110156106df57600181815481106106205761061f610d29565b5b9060005260206000209060040201600001546006541480156106935750600a6106906006546001848154811061065957610658610d29565b5b906000526020600020906004020160010160009054906101000a900473ffffffffffffffffffffffffffffffffffffffff166103e0565b11155b156106cc57600181815481106106ac576106ab610d29565b5b906000526020600020906004020160030154826106c99190610cf5565b91505b80806106d790610d58565b9150506105ff565b508091505090565b60026020528060005260406000206000915090505481565b610707610794565b8060048190555050565b610719610794565b600073ffffffffffffffffffffffffffffffffffffffff168173ffffffffffffffffffffffffffffffffffffffff1603610788576040517f08c379a000000000000000000000000000000000000000000000000000000000815260040161077f90610e23565b60405180910390fd5b61079181610874565b50565b61079c61099b565b73ffffffffffffffffffffffffffffffffffffffff166107ba6102f1565b73ffffffffffffffffffffffffffffffffffffffff1614610810576040517f08c379a000000000000000000000000000000000000000000000000000000000815260040161080790610e8f565b60405180910390fd5b565b61081a6109a3565b60008060006101000a81548160ff0219169083151502179055507f5db9ee0a495bf2e6ff9c91a7834c1ba4fdd244a5e8aa4e537bd38aeae4b073aa61085d61099b565b60405161086a9190610b08565b60405180910390a1565b60008060019054906101000a900473ffffffffffffffffffffffffffffffffffffffff16905081600060016101000a81548173ffffffffffffffffffffffffffffffffffffffff021916908373ffffffffffffffffffffffffffffffffffffffff1602179055508173ffffffffffffffffffffffffffffffffffffffff168173ffffffffffffffffffffffffffffffffffffffff167f8be0079c531659141344cd1fd0a4f28419497f9722a3daafe3b4186f6b6457e060405160405180910390a35050565b6109416109ec565b60016000806101000a81548160ff0219169083151502179055507f62e78cea01bee320cd4e420270b5ea74000d11b0c9f74754ebdbfc544b05a25861098461099b565b6040516109919190610b08565b60405180910390a1565b600033905090565b6109ab6102b5565b6109ea576040517f08c379a00000000000000000000000000000000000000000000000000000000081526004016109e190610efb565b60405180910390fd5b565b6109f46102b5565b15610a34576040517f08c379a0000000000000000000000000000000000000000000000000000000008152600401610a2b90610f67565b60405180910390fd5b565b60405180606001604052806000151581526020016000151581526020016000151581525090565b6000819050919050565b610a7081610a5d565b82525050565b6000602082019050610a8b6000830184610a67565b92915050565b60008115159050919050565b610aa681610a91565b82525050565b6000602082019050610ac16000830184610a9d565b92915050565b600073ffffffffffffffffffffffffffffffffffffffff82169050919050565b6000610af282610ac7565b9050919050565b610b0281610ae7565b82525050565b6000602082019050610b1d6000830184610af9565b92915050565b600080fd5b610b3181610ae7565b8114610b3c57600080fd5b50565b600081359050610b4e81610b28565b92915050565b610b5d81610a5d565b8114610b6857600080fd5b50565b600081359050610b7a81610b54565b92915050565b60008060408385031215610b9757610b96610b23565b5b6000610ba585828601610b3f565b9250506020610bb685828601610b6b565b9150509250929050565b610bc981610a91565b82525050565b606082016000820151610be56000850182610bc0565b506020820151610bf86020850182610bc0565b506040820151610c0b6040850182610bc0565b50505050565b6000606082019050610c266000830184610bcf565b92915050565b60008060408385031215610c4357610c42610b23565b5b6000610c5185828601610b6b565b9250506020610c6285828601610b3f565b9150509250929050565b600060208284031215610c8257610c81610b23565b5b6000610c9084828501610b3f565b91505092915050565b600060208284031215610caf57610cae610b23565b5b6000610cbd84828501610b6b565b91505092915050565b7f4e487b7100000000000000000000000000000000000000000000000000000000600052601160045260246000fd5b6000610d0082610a5d565b9150610d0b83610a5d565b9250828201905080821115610d2357610d22610cc6565b5b92915050565b7f4e487b7100000000000000000000000000000000000000000000000000000000600052603260045260246000fd5b6000610d6382610a5d565b91507fffffffffffffffffffffffffffffffffffffffffffffffffffffffffffffffff8203610d9557610d94610cc6565b5b600182019050919050565b600082825260208201905092915050565b7f4f776e61626c653a206e6577206f776e657220697320746865207a65726f206160008201527f6464726573730000000000000000000000000000000000000000000000000000602082015250565b6000610e0d602683610da0565b9150610e1882610db1565b604082019050919050565b60006020820190508181036000830152610e3c81610e00565b9050919050565b7f4f776e61626c653a2063616c6c6572206973206e6f7420746865206f776e6572600082015250565b6000610e79602083610da0565b9150610e8482610e43565b602082019050919050565b60006020820190508181036000830152610ea881610e6c565b9050919050565b7f5061757361626c653a206e6f7420706175736564000000000000000000000000600082015250565b6000610ee5601483610da0565b9150610ef082610eaf565b602082019050919050565b60006020820190508181036000830152610f1481610ed8565b9050919050565b7f5061757361626c653a2070617573656400000000000000000000000000000000600082015250565b6000610f51601083610da0565b9150610f5c82610f1b565b602082019050919050565b60006020820190508181036000830152610f8081610f44565b905091905056fea26469706673582212208a1b895cda976a7119048c564cb3a23fe215486da65fa6a0d3f1f09480098c4d64736f6c63430008110033",
  "linkReferences": {},
  "deployedLinkReferences": {}
}