{
  "_format": "hh-sol-artifact-1",
  "contractName": "NpngGame",
  "sourceName": "contracts/NpngGame.sol",
  "abi": [
    {
      "inputs": [],
      "stateMutability": "nonpayable",
      "type": "constructor"
    },
    {
      "anonymous": false,
      "inputs": [
        {
          "indexed": true,
          "internalType": "address",
          "name": "previousOwner",
          "type": "address"
        },
        {
          "indexed": true,
          "internalType": "address",
          "name": "newOwner",
          "type": "address"
        }
      ],
      "name": "OwnershipTransferred",
      "type": "event"
    },
    {
      "inputs": [
        {
          "internalType": "uint256",
          "name": "_newFrequence",
          "type": "uint256"
        }
      ],
      "name": "changeGameFrequence",
      "outputs": [],
      "stateMutability": "nonpayable",
      "type": "function"
    },
    {
      "inputs": [
        {
          "internalType": "uint256",
          "name": "_idContest",
          "type": "uint256"
        },
        {
          "internalType": "address",
          "name": "_player",
          "type": "address"
        }
      ],
      "name": "checkPlayerRank",
      "outputs": [
        {
          "internalType": "uint256",
          "name": "",
          "type": "uint256"
        }
      ],
      "stateMutability": "view",
      "type": "function"
    },
    {
      "inputs": [
        {
          "internalType": "uint256",
          "name": "",
          "type": "uint256"
        }
      ],
      "name": "contestsResult",
      "outputs": [
        {
          "internalType": "uint256",
          "name": "idContest",
          "type": "uint256"
        },
        {
          "internalType": "address",
          "name": "player",
          "type": "address"
        },
        {
          "internalType": "uint256",
          "name": "score",
          "type": "uint256"
        }
      ],
      "stateMutability": "view",
      "type": "function"
    },
    {
      "inputs": [],
      "name": "getCurrentIdContest",
      "outputs": [
        {
          "internalType": "uint256",
          "name": "",
          "type": "uint256"
        }
      ],
      "stateMutability": "view",
      "type": "function"
    },
    {
      "inputs": [],
      "name": "getGameFrequence",
      "outputs": [
        {
          "internalType": "uint256",
          "name": "",
          "type": "uint256"
        }
      ],
      "stateMutability": "view",
      "type": "function"
    },
    {
      "inputs": [],
      "name": "getScore",
      "outputs": [
        {
          "components": [
            {
              "internalType": "uint256",
              "name": "idContest",
              "type": "uint256"
            },
            {
              "internalType": "address",
              "name": "player",
              "type": "address"
            },
            {
              "internalType": "uint256",
              "name": "score",
              "type": "uint256"
            }
          ],
          "internalType": "struct NpngGame.ContestsResult[]",
          "name": "",
          "type": "tuple[]"
        }
      ],
      "stateMutability": "view",
      "type": "function"
    },
    {
      "inputs": [
        {
          "internalType": "uint256",
          "name": "_idContest",
          "type": "uint256"
        }
      ],
      "name": "getTopPlayers",
      "outputs": [
        {
          "components": [
            {
              "internalType": "uint256",
              "name": "idContest",
              "type": "uint256"
            },
            {
              "internalType": "address",
              "name": "player",
              "type": "address"
            },
            {
              "internalType": "uint256",
              "name": "score",
              "type": "uint256"
            }
          ],
          "internalType": "struct NpngGame.ContestsResult[10]",
          "name": "",
          "type": "tuple[10]"
        }
      ],
      "stateMutability": "view",
      "type": "function"
    },
    {
      "inputs": [
        {
          "internalType": "uint256",
          "name": "",
          "type": "uint256"
        }
      ],
      "name": "numberOfPlayersPerContest",
      "outputs": [
        {
          "internalType": "uint256",
          "name": "",
          "type": "uint256"
        }
      ],
      "stateMutability": "view",
      "type": "function"
    },
    {
      "inputs": [],
      "name": "owner",
      "outputs": [
        {
          "internalType": "address",
          "name": "",
          "type": "address"
        }
      ],
      "stateMutability": "view",
      "type": "function"
    },
    {
      "inputs": [],
      "name": "renounceOwnership",
      "outputs": [],
      "stateMutability": "nonpayable",
      "type": "function"
    },
    {
      "inputs": [
        {
          "internalType": "address",
          "name": "player",
          "type": "address"
        },
        {
          "internalType": "uint256",
          "name": "score",
          "type": "uint256"
        }
      ],
      "name": "saveScore",
      "outputs": [],
      "stateMutability": "nonpayable",
      "type": "function"
    },
    {
      "inputs": [
        {
          "internalType": "address",
          "name": "newOwner",
          "type": "address"
        }
      ],
      "name": "transferOwnership",
      "outputs": [],
      "stateMutability": "nonpayable",
      "type": "function"
    },
    {
      "inputs": [],
      "name": "updateIdContest",
      "outputs": [],
      "stateMutability": "nonpayable",
      "type": "function"
    }
  ],
  "bytecode": "0x608060405234801561001057600080fd5b5061002d61002261005460201b60201c565b61005c60201b60201c565b42600681905550600654600781905550600160058190555062015180600481905550610120565b600033905090565b60008060009054906101000a900473ffffffffffffffffffffffffffffffffffffffff169050816000806101000a81548173ffffffffffffffffffffffffffffffffffffffff021916908373ffffffffffffffffffffffffffffffffffffffff1602179055508173ffffffffffffffffffffffffffffffffffffffff168173ffffffffffffffffffffffffffffffffffffffff167f8be0079c531659141344cd1fd0a4f28419497f9722a3daafe3b4186f6b6457e060405160405180910390a35050565b6116228061012f6000396000f3fe608060405234801561001057600080fd5b50600436106100cf5760003560e01c80638c6ba47b1161008c578063ba3c006711610066578063ba3c0067146101de578063e9d699901461020e578063f2fbee3f1461023e578063f2fde38b1461025a576100cf565b80638c6ba47b146101725780638da5cb5b146101a2578063afd82067146101c0576100cf565b806305e81bda146100d45780631b922c09146100f257806363072aab14610124578063695a651714610142578063715018a61461015e578063771baacb14610168575b600080fd5b6100dc610276565b6040516100e99190610fb9565b60405180910390f35b61010c60048036038101906101079190611005565b610280565b60405161011b93929190611073565b60405180910390f35b61012c6102da565b6040516101399190610fb9565b60405180910390f35b61015c600480360381019061015791906110d6565b6102e4565b005b6101666103ee565b005b610170610402565b005b61018c60048036038101906101879190611116565b610454565b6040516101999190610fb9565b60405180910390f35b6101aa6104f0565b6040516101b79190611156565b60405180910390f35b6101c8610519565b6040516101d59190611280565b60405180910390f35b6101f860048036038101906101f39190611005565b6105e2565b6040516102059190611326565b60405180910390f35b61022860048036038101906102239190611005565b610d44565b6040516102359190610fb9565b60405180910390f35b61025860048036038101906102539190611005565b610d5c565b005b610274600480360381019061026f9190611342565b610d6e565b005b6000600454905090565b6001818154811061029057600080fd5b90600052602060002090600302016000915090508060000154908060010160009054906101000a900473ffffffffffffffffffffffffffffffffffffffff16908060020154905083565b6000600554905090565b6102ec610df1565b6102f4610402565b6001604051806060016040528060055481526020018473ffffffffffffffffffffffffffffffffffffffff1681526020018381525090806001815401808255809150506001900390600052602060002090600302016000909190919091506000820151816000015560208201518160010160006101000a81548173ffffffffffffffffffffffffffffffffffffffff021916908373ffffffffffffffffffffffffffffffffffffffff1602179055506040820151816002015550506001600260006005548152602001908152602001600020546103d1919061139e565b600260006005548152602001908152602001600020819055505050565b6103f6610df1565b6104006000610e6f565b565b600042905060006004546007548361041a91906113d2565b6104249190611435565b90506000811115610450578060056000828254610441919061139e565b92505081905550816007819055505b5050565b600080610460846105e2565b90506000805b600a8110156104e4578281600a811061048257610481611466565b5b60200201516020015173ffffffffffffffffffffffffffffffffffffffff168573ffffffffffffffffffffffffffffffffffffffff16036104d1576001816104ca919061139e565b91506104e4565b80806104dc90611495565b915050610466565b50809250505092915050565b60008060009054906101000a900473ffffffffffffffffffffffffffffffffffffffff16905090565b60606001805480602002602001604051908101604052809291908181526020016000905b828210156105d95783829060005260206000209060030201604051806060016040529081600082015481526020016001820160009054906101000a900473ffffffffffffffffffffffffffffffffffffffff1673ffffffffffffffffffffffffffffffffffffffff1673ffffffffffffffffffffffffffffffffffffffff1681526020016002820154815250508152602001906001019061053d565b50505050905090565b6105ea610f3b565b6105f2610f3b565b60005b600a81101561066057604051806060016040528085815260200161dead73ffffffffffffffffffffffffffffffffffffffff16815260200160008152508282600a811061064557610644611466565b5b6020020181905250808061065890611495565b9150506105f5565b5060005b600a811015610d3a576000826009600a811061068357610682611466565b5b6020020151905060005b600180549050811015610d095785600182815481106106af576106ae611466565b5b90600052602060002090600302016000015414801561075b5750836000600a81106106dd576106dc611466565b5b60200201516020015173ffffffffffffffffffffffffffffffffffffffff16600182815481106107105761070f611466565b5b906000526020600020906003020160010160009054906101000a900473ffffffffffffffffffffffffffffffffffffffff1673ffffffffffffffffffffffffffffffffffffffff1614155b80156107f45750836001600a811061077657610775611466565b5b60200201516020015173ffffffffffffffffffffffffffffffffffffffff16600182815481106107a9576107a8611466565b5b906000526020600020906003020160010160009054906101000a900473ffffffffffffffffffffffffffffffffffffffff1673ffffffffffffffffffffffffffffffffffffffff1614155b801561088d5750836002600a811061080f5761080e611466565b5b60200201516020015173ffffffffffffffffffffffffffffffffffffffff166001828154811061084257610841611466565b5b906000526020600020906003020160010160009054906101000a900473ffffffffffffffffffffffffffffffffffffffff1673ffffffffffffffffffffffffffffffffffffffff1614155b80156109265750836003600a81106108a8576108a7611466565b5b60200201516020015173ffffffffffffffffffffffffffffffffffffffff16600182815481106108db576108da611466565b5b906000526020600020906003020160010160009054906101000a900473ffffffffffffffffffffffffffffffffffffffff1673ffffffffffffffffffffffffffffffffffffffff1614155b80156109bf5750836004600a811061094157610940611466565b5b60200201516020015173ffffffffffffffffffffffffffffffffffffffff166001828154811061097457610973611466565b5b906000526020600020906003020160010160009054906101000a900473ffffffffffffffffffffffffffffffffffffffff1673ffffffffffffffffffffffffffffffffffffffff1614155b8015610a585750836005600a81106109da576109d9611466565b5b60200201516020015173ffffffffffffffffffffffffffffffffffffffff1660018281548110610a0d57610a0c611466565b5b906000526020600020906003020160010160009054906101000a900473ffffffffffffffffffffffffffffffffffffffff1673ffffffffffffffffffffffffffffffffffffffff1614155b8015610af15750836006600a8110610a7357610a72611466565b5b60200201516020015173ffffffffffffffffffffffffffffffffffffffff1660018281548110610aa657610aa5611466565b5b906000526020600020906003020160010160009054906101000a900473ffffffffffffffffffffffffffffffffffffffff1673ffffffffffffffffffffffffffffffffffffffff1614155b8015610b8a5750836007600a8110610b0c57610b0b611466565b5b60200201516020015173ffffffffffffffffffffffffffffffffffffffff1660018281548110610b3f57610b3e611466565b5b906000526020600020906003020160010160009054906101000a900473ffffffffffffffffffffffffffffffffffffffff1673ffffffffffffffffffffffffffffffffffffffff1614155b8015610c235750836008600a8110610ba557610ba4611466565b5b60200201516020015173ffffffffffffffffffffffffffffffffffffffff1660018281548110610bd857610bd7611466565b5b906000526020600020906003020160010160009054906101000a900473ffffffffffffffffffffffffffffffffffffffff1673ffffffffffffffffffffffffffffffffffffffff1614155b8015610c575750816040015160018281548110610c4357610c42611466565b5b906000526020600020906003020160020154115b15610cf65760018181548110610c7057610c6f611466565b5b9060005260206000209060030201604051806060016040529081600082015481526020016001820160009054906101000a900473ffffffffffffffffffffffffffffffffffffffff1673ffffffffffffffffffffffffffffffffffffffff1673ffffffffffffffffffffffffffffffffffffffff16815260200160028201548152505091505b8080610d0190611495565b91505061068d565b50808383600a8110610d1e57610d1d611466565b5b6020020181905250508080610d3290611495565b915050610664565b5080915050919050565b60026020528060005260406000206000915090505481565b610d64610df1565b8060048190555050565b610d76610df1565b600073ffffffffffffffffffffffffffffffffffffffff168173ffffffffffffffffffffffffffffffffffffffff1603610de5576040517f08c379a0000000000000000000000000000000000000000000000000000000008152600401610ddc90611560565b60405180910390fd5b610dee81610e6f565b50565b610df9610f33565b73ffffffffffffffffffffffffffffffffffffffff16610e176104f0565b73ffffffffffffffffffffffffffffffffffffffff1614610e6d576040517f08c379a0000000000000000000000000000000000000000000000000000000008152600401610e64906115cc565b60405180910390fd5b565b60008060009054906101000a900473ffffffffffffffffffffffffffffffffffffffff169050816000806101000a81548173ffffffffffffffffffffffffffffffffffffffff021916908373ffffffffffffffffffffffffffffffffffffffff1602179055508173ffffffffffffffffffffffffffffffffffffffff168173ffffffffffffffffffffffffffffffffffffffff167f8be0079c531659141344cd1fd0a4f28419497f9722a3daafe3b4186f6b6457e060405160405180910390a35050565b600033905090565b604051806101400160405280600a905b610f53610f69565b815260200190600190039081610f4b5790505090565b604051806060016040528060008152602001600073ffffffffffffffffffffffffffffffffffffffff168152602001600081525090565b6000819050919050565b610fb381610fa0565b82525050565b6000602082019050610fce6000830184610faa565b92915050565b600080fd5b610fe281610fa0565b8114610fed57600080fd5b50565b600081359050610fff81610fd9565b92915050565b60006020828403121561101b5761101a610fd4565b5b600061102984828501610ff0565b91505092915050565b600073ffffffffffffffffffffffffffffffffffffffff82169050919050565b600061105d82611032565b9050919050565b61106d81611052565b82525050565b60006060820190506110886000830186610faa565b6110956020830185611064565b6110a26040830184610faa565b949350505050565b6110b381611052565b81146110be57600080fd5b50565b6000813590506110d0816110aa565b92915050565b600080604083850312156110ed576110ec610fd4565b5b60006110fb858286016110c1565b925050602061110c85828601610ff0565b9150509250929050565b6000806040838503121561112d5761112c610fd4565b5b600061113b85828601610ff0565b925050602061114c858286016110c1565b9150509250929050565b600060208201905061116b6000830184611064565b92915050565b600081519050919050565b600082825260208201905092915050565b6000819050602082019050919050565b6111a681610fa0565b82525050565b6111b581611052565b82525050565b6060820160008201516111d1600085018261119d565b5060208201516111e460208501826111ac565b5060408201516111f7604085018261119d565b50505050565b600061120983836111bb565b60608301905092915050565b6000602082019050919050565b600061122d82611171565b611237818561117c565b93506112428361118d565b8060005b8381101561127357815161125a88826111fd565b975061126583611215565b925050600181019050611246565b5085935050505092915050565b6000602082019050818103600083015261129a8184611222565b905092915050565b6000600a9050919050565b600081905092915050565b6000819050919050565b6000602082019050919050565b6112d8816112a2565b6112e281846112ad565b92506112ed826112b8565b8060005b8381101561131e57815161130587826111fd565b9650611310836112c2565b9250506001810190506112f1565b505050505050565b60006103c08201905061133c60008301846112cf565b92915050565b60006020828403121561135857611357610fd4565b5b6000611366848285016110c1565b91505092915050565b7f4e487b7100000000000000000000000000000000000000000000000000000000600052601160045260246000fd5b60006113a982610fa0565b91506113b483610fa0565b92508282019050808211156113cc576113cb61136f565b5b92915050565b60006113dd82610fa0565b91506113e883610fa0565b9250828203905081811115611400576113ff61136f565b5b92915050565b7f4e487b7100000000000000000000000000000000000000000000000000000000600052601260045260246000fd5b600061144082610fa0565b915061144b83610fa0565b92508261145b5761145a611406565b5b828204905092915050565b7f4e487b7100000000000000000000000000000000000000000000000000000000600052603260045260246000fd5b60006114a082610fa0565b91507fffffffffffffffffffffffffffffffffffffffffffffffffffffffffffffffff82036114d2576114d161136f565b5b600182019050919050565b600082825260208201905092915050565b7f4f776e61626c653a206e6577206f776e657220697320746865207a65726f206160008201527f6464726573730000000000000000000000000000000000000000000000000000602082015250565b600061154a6026836114dd565b9150611555826114ee565b604082019050919050565b600060208201905081810360008301526115798161153d565b9050919050565b7f4f776e61626c653a2063616c6c6572206973206e6f7420746865206f776e6572600082015250565b60006115b66020836114dd565b91506115c182611580565b602082019050919050565b600060208201905081810360008301526115e5816115a9565b905091905056fea26469706673582212202eb08d142fca95a6ed01796a489fa528b2937b118c986e8fbbe19430cc888fac64736f6c63430008110033",
  "linkReferences": {},
  "deployedLinkReferences": {}
}