{
  "_format": "hh-sol-artifact-1",
  "contractName": "NpngGame",
  "sourceName": "contracts/NpngGame.sol",
  "abi": [
    {
      "inputs": [],
      "stateMutability": "nonpayable",
      "type": "constructor"
    },
    {
      "anonymous": false,
      "inputs": [
        {
          "indexed": true,
          "internalType": "address",
          "name": "previousOwner",
          "type": "address"
        },
        {
          "indexed": true,
          "internalType": "address",
          "name": "newOwner",
          "type": "address"
        }
      ],
      "name": "OwnershipTransferred",
      "type": "event"
    },
    {
      "anonymous": false,
      "inputs": [
        {
          "indexed": false,
          "internalType": "address",
          "name": "account",
          "type": "address"
        }
      ],
      "name": "Paused",
      "type": "event"
    },
    {
      "anonymous": false,
      "inputs": [
        {
          "indexed": false,
          "internalType": "address",
          "name": "account",
          "type": "address"
        }
      ],
      "name": "Unpaused",
      "type": "event"
    },
    {
      "inputs": [
        {
          "internalType": "uint256",
          "name": "_newFrequence",
          "type": "uint256"
        }
      ],
      "name": "changeGameFrequence",
      "outputs": [],
      "stateMutability": "nonpayable",
      "type": "function"
    },
    {
      "inputs": [
        {
          "internalType": "address",
          "name": "_newRecorderAddress",
          "type": "address"
        }
      ],
      "name": "changeRecorder",
      "outputs": [],
      "stateMutability": "nonpayable",
      "type": "function"
    },
    {
      "inputs": [
        {
          "internalType": "uint256",
          "name": "_idContest",
          "type": "uint256"
        },
        {
          "internalType": "address",
          "name": "_player",
          "type": "address"
        }
      ],
      "name": "getContestRank",
      "outputs": [
        {
          "internalType": "uint256",
          "name": "",
          "type": "uint256"
        }
      ],
      "stateMutability": "view",
      "type": "function"
    },
    {
      "inputs": [],
      "name": "getEndOfContest",
      "outputs": [
        {
          "internalType": "uint256",
          "name": "",
          "type": "uint256"
        }
      ],
      "stateMutability": "view",
      "type": "function"
    },
    {
      "inputs": [],
      "name": "getIdContest",
      "outputs": [
        {
          "internalType": "uint256",
          "name": "",
          "type": "uint256"
        }
      ],
      "stateMutability": "view",
      "type": "function"
    },
    {
      "inputs": [
        {
          "internalType": "address",
          "name": "_account",
          "type": "address"
        },
        {
          "internalType": "uint256",
          "name": "_idContest",
          "type": "uint256"
        }
      ],
      "name": "getPlayerStatus",
      "outputs": [
        {
          "components": [
            {
              "internalType": "bool",
              "name": "requested",
              "type": "bool"
            },
            {
              "internalType": "bool",
              "name": "played",
              "type": "bool"
            },
            {
              "internalType": "bool",
              "name": "claimed",
              "type": "bool"
            }
          ],
          "internalType": "struct NpngGame.RequestPlaying",
          "name": "",
          "type": "tuple"
        }
      ],
      "stateMutability": "view",
      "type": "function"
    },
    {
      "inputs": [
        {
          "internalType": "uint256",
          "name": "_idContest",
          "type": "uint256"
        }
      ],
      "name": "getWinnersDeposit",
      "outputs": [
        {
          "internalType": "uint256",
          "name": "",
          "type": "uint256"
        }
      ],
      "stateMutability": "view",
      "type": "function"
    },
    {
      "inputs": [
        {
          "internalType": "uint256",
          "name": "",
          "type": "uint256"
        }
      ],
      "name": "numberOfPlayersPerContest",
      "outputs": [
        {
          "internalType": "uint256",
          "name": "",
          "type": "uint256"
        }
      ],
      "stateMutability": "view",
      "type": "function"
    },
    {
      "inputs": [],
      "name": "owner",
      "outputs": [
        {
          "internalType": "address",
          "name": "",
          "type": "address"
        }
      ],
      "stateMutability": "view",
      "type": "function"
    },
    {
      "inputs": [],
      "name": "pause",
      "outputs": [],
      "stateMutability": "nonpayable",
      "type": "function"
    },
    {
      "inputs": [],
      "name": "paused",
      "outputs": [
        {
          "internalType": "bool",
          "name": "",
          "type": "bool"
        }
      ],
      "stateMutability": "view",
      "type": "function"
    },
    {
      "inputs": [],
      "name": "renounceOwnership",
      "outputs": [],
      "stateMutability": "nonpayable",
      "type": "function"
    },
    {
      "inputs": [
        {
          "internalType": "address",
          "name": "newOwner",
          "type": "address"
        }
      ],
      "name": "transferOwnership",
      "outputs": [],
      "stateMutability": "nonpayable",
      "type": "function"
    },
    {
      "inputs": [],
      "name": "unpause",
      "outputs": [],
      "stateMutability": "nonpayable",
      "type": "function"
    }
  ],
  "bytecode": "0x608060405234801561001057600080fd5b5060008060006101000a81548160ff02191690831515021790555061004761003c6100a760201b60201c565b6100af60201b60201c565b426007819055506001600681905550610e1060048190555061dead600860006101000a81548173ffffffffffffffffffffffffffffffffffffffff021916908373ffffffffffffffffffffffffffffffffffffffff160217905550610174565b600033905090565b60008060019054906101000a900473ffffffffffffffffffffffffffffffffffffffff16905081600060016101000a81548173ffffffffffffffffffffffffffffffffffffffff021916908373ffffffffffffffffffffffffffffffffffffffff1602179055508173ffffffffffffffffffffffffffffffffffffffff168173ffffffffffffffffffffffffffffffffffffffff167f8be0079c531659141344cd1fd0a4f28419497f9722a3daafe3b4186f6b6457e060405160405180910390a35050565b610fcd806101836000396000f3fe608060405234801561001057600080fd5b50600436106100ea5760003560e01c8063b2e85b671161008c578063e064613e11610066578063e064613e14610215578063e9d6999014610231578063f2fbee3f14610261578063f2fde38b1461027d576100ea565b8063b2e85b6714610197578063c85785d6146101c7578063cad7ebce146101e5576100ea565b8063715018a6116100c8578063715018a6146101355780638456cb591461013f5780638da5cb5b14610149578063b00d9c0414610167576100ea565b806312b946bc146100ef5780633f4ba83a1461010d5780635c975abb14610117575b600080fd5b6100f7610299565b6040516101049190610a86565b60405180910390f35b6101156102b5565b005b61011f6102c7565b60405161012c9190610abc565b60405180910390f35b61013d6102dd565b005b6101476102f1565b005b610151610303565b60405161015e9190610b18565b60405180910390f35b610181600480360381019061017c9190610b64565b61032c565b60405161018e9190610a86565b60405180910390f35b6101b160048036038101906101ac9190610bbd565b61041c565b6040516101be9190610c4e565b60405180910390f35b6101cf6104d8565b6040516101dc9190610a86565b60405180910390f35b6101ff60048036038101906101fa9190610c69565b6104e2565b60405161020c9190610a86565b60405180910390f35b61022f600480360381019061022a9190610ca9565b6106ab565b005b61024b60048036038101906102469190610b64565b6106f7565b6040516102589190610a86565b60405180910390f35b61027b60048036038101906102769190610b64565b61070f565b005b61029760048036038101906102929190610ca9565b610721565b005b6000806004546007546102ac9190610d05565b90508091505090565b6102bd6107a4565b6102c5610822565b565b60008060009054906101000a900460ff16905090565b6102e56107a4565b6102ef6000610884565b565b6102f96107a4565b610301610949565b565b60008060019054906101000a900473ffffffffffffffffffffffffffffffffffffffff16905090565b6000806000905060005b600180549050811015610412576001818154811061035757610356610d39565b5b906000526020600020906004020160000154841480156103c65750600a6103c3856001848154811061038c5761038b610d39565b5b906000526020600020906004020160010160009054906101000a900473ffffffffffffffffffffffffffffffffffffffff166104e2565b11155b156103ff57600181815481106103df576103de610d39565b5b906000526020600020906004020160030154826103fc9190610d05565b91505b808061040a90610d68565b915050610336565b5080915050919050565b610424610a46565b600360008473ffffffffffffffffffffffffffffffffffffffff1673ffffffffffffffffffffffffffffffffffffffff16815260200190815260200160002060008381526020019081526020016000206040518060600160405290816000820160009054906101000a900460ff161515151581526020016000820160019054906101000a900460ff161515151581526020016000820160029054906101000a900460ff161515151581525050905092915050565b6000600654905090565b6000806000806001905060005b60018054905081101561060d57600181815481106105105761050f610d39565b5b906000526020600020906004020160000154871480156105a057506001818154811061053f5761053e610d39565b5b906000526020600020906004020160010160009054906101000a900473ffffffffffffffffffffffffffffffffffffffff1673ffffffffffffffffffffffffffffffffffffffff168673ffffffffffffffffffffffffffffffffffffffff16145b156105d557809350600181815481106105bc576105bb610d39565b5b906000526020600020906004020160020154925061060d565b6001805490506001826105e89190610d05565b036105fa5760009450505050506106a5565b808061060590610d68565b9150506104ef565b5060005b60018054905081101561069d576001818154811061063257610631610d39565b5b9060005260206000209060040201600001548714801561067657506001818154811061066157610660610d39565b5b90600052602060002090600402016002015483115b1561068a57818061068690610d68565b9250505b808061069590610d68565b915050610611565b508093505050505b92915050565b6106b36107a4565b80600860006101000a81548173ffffffffffffffffffffffffffffffffffffffff021916908373ffffffffffffffffffffffffffffffffffffffff16021790555050565b60026020528060005260406000206000915090505481565b6107176107a4565b8060048190555050565b6107296107a4565b600073ffffffffffffffffffffffffffffffffffffffff168173ffffffffffffffffffffffffffffffffffffffff1603610798576040517f08c379a000000000000000000000000000000000000000000000000000000000815260040161078f90610e33565b60405180910390fd5b6107a181610884565b50565b6107ac6109ab565b73ffffffffffffffffffffffffffffffffffffffff166107ca610303565b73ffffffffffffffffffffffffffffffffffffffff1614610820576040517f08c379a000000000000000000000000000000000000000000000000000000000815260040161081790610e9f565b60405180910390fd5b565b61082a6109b3565b60008060006101000a81548160ff0219169083151502179055507f5db9ee0a495bf2e6ff9c91a7834c1ba4fdd244a5e8aa4e537bd38aeae4b073aa61086d6109ab565b60405161087a9190610b18565b60405180910390a1565b60008060019054906101000a900473ffffffffffffffffffffffffffffffffffffffff16905081600060016101000a81548173ffffffffffffffffffffffffffffffffffffffff021916908373ffffffffffffffffffffffffffffffffffffffff1602179055508173ffffffffffffffffffffffffffffffffffffffff168173ffffffffffffffffffffffffffffffffffffffff167f8be0079c531659141344cd1fd0a4f28419497f9722a3daafe3b4186f6b6457e060405160405180910390a35050565b6109516109fc565b60016000806101000a81548160ff0219169083151502179055507f62e78cea01bee320cd4e420270b5ea74000d11b0c9f74754ebdbfc544b05a2586109946109ab565b6040516109a19190610b18565b60405180910390a1565b600033905090565b6109bb6102c7565b6109fa576040517f08c379a00000000000000000000000000000000000000000000000000000000081526004016109f190610f0b565b60405180910390fd5b565b610a046102c7565b15610a44576040517f08c379a0000000000000000000000000000000000000000000000000000000008152600401610a3b90610f77565b60405180910390fd5b565b60405180606001604052806000151581526020016000151581526020016000151581525090565b6000819050919050565b610a8081610a6d565b82525050565b6000602082019050610a9b6000830184610a77565b92915050565b60008115159050919050565b610ab681610aa1565b82525050565b6000602082019050610ad16000830184610aad565b92915050565b600073ffffffffffffffffffffffffffffffffffffffff82169050919050565b6000610b0282610ad7565b9050919050565b610b1281610af7565b82525050565b6000602082019050610b2d6000830184610b09565b92915050565b600080fd5b610b4181610a6d565b8114610b4c57600080fd5b50565b600081359050610b5e81610b38565b92915050565b600060208284031215610b7a57610b79610b33565b5b6000610b8884828501610b4f565b91505092915050565b610b9a81610af7565b8114610ba557600080fd5b50565b600081359050610bb781610b91565b92915050565b60008060408385031215610bd457610bd3610b33565b5b6000610be285828601610ba8565b9250506020610bf385828601610b4f565b9150509250929050565b610c0681610aa1565b82525050565b606082016000820151610c226000850182610bfd565b506020820151610c356020850182610bfd565b506040820151610c486040850182610bfd565b50505050565b6000606082019050610c636000830184610c0c565b92915050565b60008060408385031215610c8057610c7f610b33565b5b6000610c8e85828601610b4f565b9250506020610c9f85828601610ba8565b9150509250929050565b600060208284031215610cbf57610cbe610b33565b5b6000610ccd84828501610ba8565b91505092915050565b7f4e487b7100000000000000000000000000000000000000000000000000000000600052601160045260246000fd5b6000610d1082610a6d565b9150610d1b83610a6d565b9250828201905080821115610d3357610d32610cd6565b5b92915050565b7f4e487b7100000000000000000000000000000000000000000000000000000000600052603260045260246000fd5b6000610d7382610a6d565b91507fffffffffffffffffffffffffffffffffffffffffffffffffffffffffffffffff8203610da557610da4610cd6565b5b600182019050919050565b600082825260208201905092915050565b7f4f776e61626c653a206e6577206f776e657220697320746865207a65726f206160008201527f6464726573730000000000000000000000000000000000000000000000000000602082015250565b6000610e1d602683610db0565b9150610e2882610dc1565b604082019050919050565b60006020820190508181036000830152610e4c81610e10565b9050919050565b7f4f776e61626c653a2063616c6c6572206973206e6f7420746865206f776e6572600082015250565b6000610e89602083610db0565b9150610e9482610e53565b602082019050919050565b60006020820190508181036000830152610eb881610e7c565b9050919050565b7f5061757361626c653a206e6f7420706175736564000000000000000000000000600082015250565b6000610ef5601483610db0565b9150610f0082610ebf565b602082019050919050565b60006020820190508181036000830152610f2481610ee8565b9050919050565b7f5061757361626c653a2070617573656400000000000000000000000000000000600082015250565b6000610f61601083610db0565b9150610f6c82610f2b565b602082019050919050565b60006020820190508181036000830152610f9081610f54565b905091905056fea2646970667358221220a64da6df482b1bb9dc4151f5956f7d104ec3d846c5288e8ff24c81ed9aab9a5a64736f6c63430008110033",
  "linkReferences": {},
  "deployedLinkReferences": {}
}