{
  "_format": "hh-sol-artifact-1",
  "contractName": "NpngGame",
  "sourceName": "contracts/NpngGame.sol",
  "abi": [
    {
      "inputs": [],
      "stateMutability": "nonpayable",
      "type": "constructor"
    },
    {
      "anonymous": false,
      "inputs": [
        {
          "indexed": true,
          "internalType": "address",
          "name": "previousOwner",
          "type": "address"
        },
        {
          "indexed": true,
          "internalType": "address",
          "name": "newOwner",
          "type": "address"
        }
      ],
      "name": "OwnershipTransferred",
      "type": "event"
    },
    {
      "anonymous": false,
      "inputs": [
        {
          "indexed": false,
          "internalType": "address",
          "name": "account",
          "type": "address"
        }
      ],
      "name": "Paused",
      "type": "event"
    },
    {
      "anonymous": false,
      "inputs": [
        {
          "indexed": false,
          "internalType": "address",
          "name": "account",
          "type": "address"
        }
      ],
      "name": "Unpaused",
      "type": "event"
    },
    {
      "inputs": [
        {
          "internalType": "uint256",
          "name": "_newFrequence",
          "type": "uint256"
        }
      ],
      "name": "changeGameFrequence",
      "outputs": [],
      "stateMutability": "nonpayable",
      "type": "function"
    },
    {
      "inputs": [
        {
          "internalType": "address",
          "name": "_newRecorderAddress",
          "type": "address"
        }
      ],
      "name": "changeRecorder",
      "outputs": [],
      "stateMutability": "nonpayable",
      "type": "function"
    },
    {
      "inputs": [
        {
          "internalType": "address",
          "name": "_player",
          "type": "address"
        }
      ],
      "name": "getAccountTable",
      "outputs": [
        {
          "components": [
            {
              "internalType": "uint256",
              "name": "idContest",
              "type": "uint256"
            },
            {
              "internalType": "uint256",
              "name": "rank",
              "type": "uint256"
            },
            {
              "internalType": "uint256",
              "name": "participant",
              "type": "uint256"
            }
          ],
          "internalType": "struct NpngGame.AccountTable[10]",
          "name": "",
          "type": "tuple[10]"
        }
      ],
      "stateMutability": "view",
      "type": "function"
    },
    {
      "inputs": [
        {
          "internalType": "uint256",
          "name": "_idContest",
          "type": "uint256"
        },
        {
          "internalType": "address",
          "name": "_player",
          "type": "address"
        }
      ],
      "name": "getContestRank",
      "outputs": [
        {
          "internalType": "uint256",
          "name": "",
          "type": "uint256"
        }
      ],
      "stateMutability": "view",
      "type": "function"
    },
    {
      "inputs": [],
      "name": "getContestsResult",
      "outputs": [
        {
          "components": [
            {
              "internalType": "uint256",
              "name": "idContest",
              "type": "uint256"
            },
            {
              "internalType": "address",
              "name": "player",
              "type": "address"
            },
            {
              "internalType": "uint256",
              "name": "score",
              "type": "uint256"
            },
            {
              "internalType": "uint256",
              "name": "balancePlayer",
              "type": "uint256"
            }
          ],
          "internalType": "struct NpngGame.ContestsResult[]",
          "name": "",
          "type": "tuple[]"
        }
      ],
      "stateMutability": "view",
      "type": "function"
    },
    {
      "inputs": [],
      "name": "getEndOfContest",
      "outputs": [
        {
          "internalType": "uint256",
          "name": "",
          "type": "uint256"
        }
      ],
      "stateMutability": "view",
      "type": "function"
    },
    {
      "inputs": [],
      "name": "getIdContest",
      "outputs": [
        {
          "internalType": "uint256",
          "name": "",
          "type": "uint256"
        }
      ],
      "stateMutability": "view",
      "type": "function"
    },
    {
      "inputs": [
        {
          "internalType": "address",
          "name": "_player",
          "type": "address"
        }
      ],
      "name": "getLast10ContestsRank",
      "outputs": [
        {
          "components": [
            {
              "internalType": "uint256",
              "name": "idContest",
              "type": "uint256"
            },
            {
              "internalType": "uint256",
              "name": "rank",
              "type": "uint256"
            }
          ],
          "internalType": "struct NpngGame.RankPerContest[10]",
          "name": "",
          "type": "tuple[10]"
        }
      ],
      "stateMutability": "view",
      "type": "function"
    },
    {
      "inputs": [],
      "name": "getListNbPlayers10LastContests",
      "outputs": [
        {
          "components": [
            {
              "internalType": "uint256",
              "name": "idContest",
              "type": "uint256"
            },
            {
              "internalType": "uint256",
              "name": "nbPlayers",
              "type": "uint256"
            }
          ],
          "internalType": "struct NpngGame.ListNbPlayersPerContest[10]",
          "name": "",
          "type": "tuple[10]"
        }
      ],
      "stateMutability": "view",
      "type": "function"
    },
    {
      "inputs": [],
      "name": "getListScores",
      "outputs": [
        {
          "components": [
            {
              "internalType": "uint256",
              "name": "idContest",
              "type": "uint256"
            },
            {
              "internalType": "address",
              "name": "player",
              "type": "address"
            },
            {
              "internalType": "uint256",
              "name": "score",
              "type": "uint256"
            },
            {
              "internalType": "uint256",
              "name": "balancePlayer",
              "type": "uint256"
            }
          ],
          "internalType": "struct NpngGame.ContestsResult[]",
          "name": "",
          "type": "tuple[]"
        }
      ],
      "stateMutability": "view",
      "type": "function"
    },
    {
      "inputs": [],
      "name": "getWinnersDeposit",
      "outputs": [
        {
          "internalType": "uint256",
          "name": "",
          "type": "uint256"
        }
      ],
      "stateMutability": "view",
      "type": "function"
    },
    {
      "inputs": [
        {
          "internalType": "uint256",
          "name": "",
          "type": "uint256"
        }
      ],
      "name": "numberOfPlayersPerContest",
      "outputs": [
        {
          "internalType": "uint256",
          "name": "",
          "type": "uint256"
        }
      ],
      "stateMutability": "view",
      "type": "function"
    },
    {
      "inputs": [],
      "name": "owner",
      "outputs": [
        {
          "internalType": "address",
          "name": "",
          "type": "address"
        }
      ],
      "stateMutability": "view",
      "type": "function"
    },
    {
      "inputs": [],
      "name": "pause",
      "outputs": [],
      "stateMutability": "nonpayable",
      "type": "function"
    },
    {
      "inputs": [],
      "name": "paused",
      "outputs": [
        {
          "internalType": "bool",
          "name": "",
          "type": "bool"
        }
      ],
      "stateMutability": "view",
      "type": "function"
    },
    {
      "inputs": [],
      "name": "renounceOwnership",
      "outputs": [],
      "stateMutability": "nonpayable",
      "type": "function"
    },
    {
      "inputs": [
        {
          "internalType": "address",
          "name": "newOwner",
          "type": "address"
        }
      ],
      "name": "transferOwnership",
      "outputs": [],
      "stateMutability": "nonpayable",
      "type": "function"
    },
    {
      "inputs": [],
      "name": "unpause",
      "outputs": [],
      "stateMutability": "nonpayable",
      "type": "function"
    }
  ],
  "bytecode": "0x608060405234801561001057600080fd5b5060008060006101000a81548160ff02191690831515021790555061004761003c6100a760201b60201c565b6100af60201b60201c565b426007819055506001600681905550610e1060048190555061dead600860006101000a81548173ffffffffffffffffffffffffffffffffffffffff021916908373ffffffffffffffffffffffffffffffffffffffff160217905550610174565b600033905090565b60008060019054906101000a900473ffffffffffffffffffffffffffffffffffffffff16905081600060016101000a81548173ffffffffffffffffffffffffffffffffffffffff021916908373ffffffffffffffffffffffffffffffffffffffff1602179055508173ffffffffffffffffffffffffffffffffffffffff168173ffffffffffffffffffffffffffffffffffffffff167f8be0079c531659141344cd1fd0a4f28419497f9722a3daafe3b4186f6b6457e060405160405180910390a35050565b611807806101836000396000f3fe608060405234801561001057600080fd5b50600436106101165760003560e01c8063bb2922e6116100a2578063e064613e11610071578063e064613e1461029b578063e864d000146102b7578063e9d69990146102d5578063f2fbee3f14610305578063f2fde38b1461032157610116565b8063bb2922e6146101ff578063c85785d61461022f578063cad7ebce1461024d578063ddb01a521461027d57610116565b80635d494510116100e95780635d49451014610191578063715018a6146101af5780638456cb59146101b95780638da5cb5b146101c35780639ddd799e146101e157610116565b806312b946bc1461011b5780631613146b146101395780633f4ba83a146101695780635c975abb14610173575b600080fd5b61012361033d565b6040516101309190610f03565b60405180910390f35b610153600480360381019061014e9190610f81565b610359565b6040516101609190611088565b60405180910390f35b610171610409565b005b61017b61041b565b60405161018891906110bf565b60405180910390f35b610199610431565b6040516101a691906111a5565b60405180910390f35b6101b76104e9565b005b6101c16104fd565b005b6101cb61050f565b6040516101d891906111d0565b60405180910390f35b6101e9610538565b6040516101f691906112fe565b60405180910390f35b61021960048036038101906102149190610f81565b61060b565b60405161022691906113fe565b60405180910390f35b6102376106d8565b6040516102449190610f03565b60405180910390f35b61026760048036038101906102629190611446565b6106e2565b6040516102749190610f03565b60405180910390f35b6102856108ab565b60405161029291906112fe565b60405180910390f35b6102b560048036038101906102b09190610f81565b61097e565b005b6102bf6109ca565b6040516102cc9190610f03565b60405180910390f35b6102ef60048036038101906102ea9190611486565b610abc565b6040516102fc9190610f03565b60405180910390f35b61031f600480360381019061031a9190611486565b610ad4565b005b61033b60048036038101906103369190610f81565b610ae6565b005b60008060045460075461035091906114e2565b90508091505090565b610361610e0b565b610369610e0b565b600080600a6006541015610381576006549050610386565b600a90505b600060065490505b8160065461039c9190611516565b8111156103fd5760405180604001604052808281526020016103be83896106e2565b8152508484600a81106103d4576103d361154a565b5b602002018190525082806103e790611579565b93505080806103f5906115c1565b91505061038e565b50829350505050919050565b610411610b69565b610419610be7565b565b60008060009054906101000a900460ff16905090565b610439610e39565b610441610e39565b600080600a600654101561045957600654905061045e565b600a90505b600060065490505b816006546104749190611516565b8111156104df57604051806040016040528082815260200160026000848152602001908152602001600020548152508484600a81106104b6576104b561154a565b5b602002018190525082806104c990611579565b93505080806104d7906115c1565b915050610466565b5082935050505090565b6104f1610b69565b6104fb6000610c49565b565b610505610b69565b61050d610d0e565b565b60008060019054906101000a900473ffffffffffffffffffffffffffffffffffffffff16905090565b60606001805480602002602001604051908101604052809291908181526020016000905b828210156106025783829060005260206000209060040201604051806080016040529081600082015481526020016001820160009054906101000a900473ffffffffffffffffffffffffffffffffffffffff1673ffffffffffffffffffffffffffffffffffffffff1673ffffffffffffffffffffffffffffffffffffffff168152602001600282015481526020016003820154815250508152602001906001019061055c565b50505050905090565b610613610e67565b61061b610e67565b60008060009050600a600654101561063757600654915061063c565b600a91505b600060065490505b826006546106529190611516565b8111156106cc57604051806060016040528082815260200161067483896106e2565b815260200160026000848152602001908152602001600020548152508483600a81106106a3576106a261154a565b5b602002018190525081806106b690611579565b92505080806106c4906115c1565b915050610644565b50829350505050919050565b6000600654905090565b6000806000806001905060005b60018054905081101561080d57600181815481106107105761070f61154a565b5b906000526020600020906004020160000154871480156107a057506001818154811061073f5761073e61154a565b5b906000526020600020906004020160010160009054906101000a900473ffffffffffffffffffffffffffffffffffffffff1673ffffffffffffffffffffffffffffffffffffffff168673ffffffffffffffffffffffffffffffffffffffff16145b156107d557809350600181815481106107bc576107bb61154a565b5b906000526020600020906004020160020154925061080d565b6001805490506001826107e891906114e2565b036107fa5760009450505050506108a5565b808061080590611579565b9150506106ef565b5060005b60018054905081101561089d57600181815481106108325761083161154a565b5b906000526020600020906004020160000154871480156108765750600181815481106108615761086061154a565b5b90600052602060002090600402016002015483115b1561088a57818061088690611579565b9250505b808061089590611579565b915050610811565b508093505050505b92915050565b60606001805480602002602001604051908101604052809291908181526020016000905b828210156109755783829060005260206000209060040201604051806080016040529081600082015481526020016001820160009054906101000a900473ffffffffffffffffffffffffffffffffffffffff1673ffffffffffffffffffffffffffffffffffffffff1673ffffffffffffffffffffffffffffffffffffffff16815260200160028201548152602001600382015481525050815260200190600101906108cf565b50505050905090565b610986610b69565b80600860006101000a81548173ffffffffffffffffffffffffffffffffffffffff021916908373ffffffffffffffffffffffffffffffffffffffff16021790555050565b6000806000905060005b600180549050811015610ab457600181815481106109f5576109f461154a565b5b906000526020600020906004020160000154600654148015610a685750600a610a6560065460018481548110610a2e57610a2d61154a565b5b906000526020600020906004020160010160009054906101000a900473ffffffffffffffffffffffffffffffffffffffff166106e2565b11155b15610aa15760018181548110610a8157610a8061154a565b5b90600052602060002090600402016003015482610a9e91906114e2565b91505b8080610aac90611579565b9150506109d4565b508091505090565b60026020528060005260406000206000915090505481565b610adc610b69565b8060048190555050565b610aee610b69565b600073ffffffffffffffffffffffffffffffffffffffff168173ffffffffffffffffffffffffffffffffffffffff1603610b5d576040517f08c379a0000000000000000000000000000000000000000000000000000000008152600401610b549061166d565b60405180910390fd5b610b6681610c49565b50565b610b71610d70565b73ffffffffffffffffffffffffffffffffffffffff16610b8f61050f565b73ffffffffffffffffffffffffffffffffffffffff1614610be5576040517f08c379a0000000000000000000000000000000000000000000000000000000008152600401610bdc906116d9565b60405180910390fd5b565b610bef610d78565b60008060006101000a81548160ff0219169083151502179055507f5db9ee0a495bf2e6ff9c91a7834c1ba4fdd244a5e8aa4e537bd38aeae4b073aa610c32610d70565b604051610c3f91906111d0565b60405180910390a1565b60008060019054906101000a900473ffffffffffffffffffffffffffffffffffffffff16905081600060016101000a81548173ffffffffffffffffffffffffffffffffffffffff021916908373ffffffffffffffffffffffffffffffffffffffff1602179055508173ffffffffffffffffffffffffffffffffffffffff168173ffffffffffffffffffffffffffffffffffffffff167f8be0079c531659141344cd1fd0a4f28419497f9722a3daafe3b4186f6b6457e060405160405180910390a35050565b610d16610dc1565b60016000806101000a81548160ff0219169083151502179055507f62e78cea01bee320cd4e420270b5ea74000d11b0c9f74754ebdbfc544b05a258610d59610d70565b604051610d6691906111d0565b60405180910390a1565b600033905090565b610d8061041b565b610dbf576040517f08c379a0000000000000000000000000000000000000000000000000000000008152600401610db690611745565b60405180910390fd5b565b610dc961041b565b15610e09576040517f08c379a0000000000000000000000000000000000000000000000000000000008152600401610e00906117b1565b60405180910390fd5b565b604051806101400160405280600a905b610e23610e95565b815260200190600190039081610e1b5790505090565b604051806101400160405280600a905b610e51610eaf565b815260200190600190039081610e495790505090565b604051806101400160405280600a905b610e7f610ec9565b815260200190600190039081610e775790505090565b604051806040016040528060008152602001600081525090565b604051806040016040528060008152602001600081525090565b60405180606001604052806000815260200160008152602001600081525090565b6000819050919050565b610efd81610eea565b82525050565b6000602082019050610f186000830184610ef4565b92915050565b600080fd5b600073ffffffffffffffffffffffffffffffffffffffff82169050919050565b6000610f4e82610f23565b9050919050565b610f5e81610f43565b8114610f6957600080fd5b50565b600081359050610f7b81610f55565b92915050565b600060208284031215610f9757610f96610f1e565b5b6000610fa584828501610f6c565b91505092915050565b6000600a9050919050565b600081905092915050565b6000819050919050565b610fd781610eea565b82525050565b604082016000820151610ff36000850182610fce565b5060208201516110066020850182610fce565b50505050565b60006110188383610fdd565b60408301905092915050565b6000602082019050919050565b61103a81610fae565b6110448184610fb9565b925061104f82610fc4565b8060005b83811015611080578151611067878261100c565b965061107283611024565b925050600181019050611053565b505050505050565b60006102808201905061109e6000830184611031565b92915050565b60008115159050919050565b6110b9816110a4565b82525050565b60006020820190506110d460008301846110b0565b92915050565b6000600a9050919050565b600081905092915050565b6000819050919050565b6040820160008201516111106000850182610fce565b5060208201516111236020850182610fce565b50505050565b600061113583836110fa565b60408301905092915050565b6000602082019050919050565b611157816110da565b61116181846110e5565b925061116c826110f0565b8060005b8381101561119d5781516111848782611129565b965061118f83611141565b925050600181019050611170565b505050505050565b6000610280820190506111bb600083018461114e565b92915050565b6111ca81610f43565b82525050565b60006020820190506111e560008301846111c1565b92915050565b600081519050919050565b600082825260208201905092915050565b6000819050602082019050919050565b61122081610f43565b82525050565b60808201600082015161123c6000850182610fce565b50602082015161124f6020850182611217565b5060408201516112626040850182610fce565b5060608201516112756060850182610fce565b50505050565b60006112878383611226565b60808301905092915050565b6000602082019050919050565b60006112ab826111eb565b6112b581856111f6565b93506112c083611207565b8060005b838110156112f15781516112d8888261127b565b97506112e383611293565b9250506001810190506112c4565b5085935050505092915050565b6000602082019050818103600083015261131881846112a0565b905092915050565b6000600a9050919050565b600081905092915050565b6000819050919050565b6060820160008201516113566000850182610fce565b5060208201516113696020850182610fce565b50604082015161137c6040850182610fce565b50505050565b600061138e8383611340565b60608301905092915050565b6000602082019050919050565b6113b081611320565b6113ba818461132b565b92506113c582611336565b8060005b838110156113f65781516113dd8782611382565b96506113e88361139a565b9250506001810190506113c9565b505050505050565b60006103c08201905061141460008301846113a7565b92915050565b61142381610eea565b811461142e57600080fd5b50565b6000813590506114408161141a565b92915050565b6000806040838503121561145d5761145c610f1e565b5b600061146b85828601611431565b925050602061147c85828601610f6c565b9150509250929050565b60006020828403121561149c5761149b610f1e565b5b60006114aa84828501611431565b91505092915050565b7f4e487b7100000000000000000000000000000000000000000000000000000000600052601160045260246000fd5b60006114ed82610eea565b91506114f883610eea565b92508282019050808211156115105761150f6114b3565b5b92915050565b600061152182610eea565b915061152c83610eea565b9250828203905081811115611544576115436114b3565b5b92915050565b7f4e487b7100000000000000000000000000000000000000000000000000000000600052603260045260246000fd5b600061158482610eea565b91507fffffffffffffffffffffffffffffffffffffffffffffffffffffffffffffffff82036115b6576115b56114b3565b5b600182019050919050565b60006115cc82610eea565b9150600082036115df576115de6114b3565b5b600182039050919050565b600082825260208201905092915050565b7f4f776e61626c653a206e6577206f776e657220697320746865207a65726f206160008201527f6464726573730000000000000000000000000000000000000000000000000000602082015250565b60006116576026836115ea565b9150611662826115fb565b604082019050919050565b600060208201905081810360008301526116868161164a565b9050919050565b7f4f776e61626c653a2063616c6c6572206973206e6f7420746865206f776e6572600082015250565b60006116c36020836115ea565b91506116ce8261168d565b602082019050919050565b600060208201905081810360008301526116f2816116b6565b9050919050565b7f5061757361626c653a206e6f7420706175736564000000000000000000000000600082015250565b600061172f6014836115ea565b915061173a826116f9565b602082019050919050565b6000602082019050818103600083015261175e81611722565b9050919050565b7f5061757361626c653a2070617573656400000000000000000000000000000000600082015250565b600061179b6010836115ea565b91506117a682611765565b602082019050919050565b600060208201905081810360008301526117ca8161178e565b905091905056fea264697066735822122051a59163aa3d533be79cd48f74374472eb10d6c3e753edc6a1730e85d2a39bcb64736f6c63430008110033",
  "linkReferences": {},
  "deployedLinkReferences": {}
}