{
  "_format": "hh-sol-artifact-1",
  "contractName": "NpngGame",
  "sourceName": "contracts/NpngGame.sol",
  "abi": [
    {
      "inputs": [],
      "stateMutability": "nonpayable",
      "type": "constructor"
    },
    {
      "anonymous": false,
      "inputs": [
        {
          "indexed": true,
          "internalType": "address",
          "name": "previousOwner",
          "type": "address"
        },
        {
          "indexed": true,
          "internalType": "address",
          "name": "newOwner",
          "type": "address"
        }
      ],
      "name": "OwnershipTransferred",
      "type": "event"
    },
    {
      "anonymous": false,
      "inputs": [
        {
          "indexed": false,
          "internalType": "address",
          "name": "account",
          "type": "address"
        }
      ],
      "name": "Paused",
      "type": "event"
    },
    {
      "anonymous": false,
      "inputs": [
        {
          "indexed": false,
          "internalType": "address",
          "name": "account",
          "type": "address"
        }
      ],
      "name": "Unpaused",
      "type": "event"
    },
    {
      "inputs": [
        {
          "internalType": "uint256",
          "name": "_newFrequence",
          "type": "uint256"
        }
      ],
      "name": "changeGameFrequence",
      "outputs": [],
      "stateMutability": "nonpayable",
      "type": "function"
    },
    {
      "inputs": [
        {
          "internalType": "address",
          "name": "_newRecorderAddress",
          "type": "address"
        }
      ],
      "name": "changeRecorder",
      "outputs": [],
      "stateMutability": "nonpayable",
      "type": "function"
    },
    {
      "inputs": [
        {
          "internalType": "uint256",
          "name": "_idContest",
          "type": "uint256"
        },
        {
          "internalType": "address",
          "name": "_player",
          "type": "address"
        }
      ],
      "name": "getContestRank",
      "outputs": [
        {
          "internalType": "uint256",
          "name": "",
          "type": "uint256"
        }
      ],
      "stateMutability": "view",
      "type": "function"
    },
    {
      "inputs": [],
      "name": "getEndOfContest",
      "outputs": [
        {
          "internalType": "uint256",
          "name": "",
          "type": "uint256"
        }
      ],
      "stateMutability": "view",
      "type": "function"
    },
    {
      "inputs": [],
      "name": "getIdContest",
      "outputs": [
        {
          "internalType": "uint256",
          "name": "",
          "type": "uint256"
        }
      ],
      "stateMutability": "view",
      "type": "function"
    },
    {
      "inputs": [
        {
          "internalType": "address",
          "name": "_player",
          "type": "address"
        }
      ],
      "name": "getLast10ContestsRank",
      "outputs": [
        {
          "components": [
            {
              "internalType": "uint256",
              "name": "idContest",
              "type": "uint256"
            },
            {
              "internalType": "uint256",
              "name": "rank",
              "type": "uint256"
            }
          ],
          "internalType": "struct NpngGame.RankPerContest[10]",
          "name": "",
          "type": "tuple[10]"
        }
      ],
      "stateMutability": "view",
      "type": "function"
    },
    {
      "inputs": [],
      "name": "getListNbPlayers10LastContests",
      "outputs": [
        {
          "components": [
            {
              "internalType": "uint256",
              "name": "idContest",
              "type": "uint256"
            },
            {
              "internalType": "uint256",
              "name": "nbPlayers",
              "type": "uint256"
            }
          ],
          "internalType": "struct NpngGame.ListNbPlayersPerContest[10]",
          "name": "",
          "type": "tuple[10]"
        }
      ],
      "stateMutability": "view",
      "type": "function"
    },
    {
      "inputs": [],
      "name": "getListScores",
      "outputs": [
        {
          "components": [
            {
              "internalType": "uint256",
              "name": "idContest",
              "type": "uint256"
            },
            {
              "internalType": "address",
              "name": "player",
              "type": "address"
            },
            {
              "internalType": "uint256",
              "name": "score",
              "type": "uint256"
            }
          ],
          "internalType": "struct NpngGame.ContestsResult[]",
          "name": "",
          "type": "tuple[]"
        }
      ],
      "stateMutability": "view",
      "type": "function"
    },
    {
      "inputs": [
        {
          "internalType": "uint256",
          "name": "",
          "type": "uint256"
        }
      ],
      "name": "numberOfPlayersPerContest",
      "outputs": [
        {
          "internalType": "uint256",
          "name": "",
          "type": "uint256"
        }
      ],
      "stateMutability": "view",
      "type": "function"
    },
    {
      "inputs": [],
      "name": "owner",
      "outputs": [
        {
          "internalType": "address",
          "name": "",
          "type": "address"
        }
      ],
      "stateMutability": "view",
      "type": "function"
    },
    {
      "inputs": [],
      "name": "pause",
      "outputs": [],
      "stateMutability": "nonpayable",
      "type": "function"
    },
    {
      "inputs": [],
      "name": "paused",
      "outputs": [
        {
          "internalType": "bool",
          "name": "",
          "type": "bool"
        }
      ],
      "stateMutability": "view",
      "type": "function"
    },
    {
      "inputs": [],
      "name": "renounceOwnership",
      "outputs": [],
      "stateMutability": "nonpayable",
      "type": "function"
    },
    {
      "inputs": [
        {
          "internalType": "address",
          "name": "_player",
          "type": "address"
        },
        {
          "internalType": "uint256",
          "name": "_score",
          "type": "uint256"
        }
      ],
      "name": "saveScore",
      "outputs": [],
      "stateMutability": "nonpayable",
      "type": "function"
    },
    {
      "inputs": [
        {
          "internalType": "address",
          "name": "newOwner",
          "type": "address"
        }
      ],
      "name": "transferOwnership",
      "outputs": [],
      "stateMutability": "nonpayable",
      "type": "function"
    },
    {
      "inputs": [],
      "name": "unpause",
      "outputs": [],
      "stateMutability": "nonpayable",
      "type": "function"
    }
  ],
  "bytecode": "0x608060405234801561001057600080fd5b5060008060006101000a81548160ff02191690831515021790555061004761003c6100a760201b60201c565b6100af60201b60201c565b426006819055506001600581905550610e1060048190555061dead600760006101000a81548173ffffffffffffffffffffffffffffffffffffffff021916908373ffffffffffffffffffffffffffffffffffffffff160217905550610174565b600033905090565b60008060019054906101000a900473ffffffffffffffffffffffffffffffffffffffff16905081600060016101000a81548173ffffffffffffffffffffffffffffffffffffffff021916908373ffffffffffffffffffffffffffffffffffffffff1602179055508173ffffffffffffffffffffffffffffffffffffffff168173ffffffffffffffffffffffffffffffffffffffff167f8be0079c531659141344cd1fd0a4f28419497f9722a3daafe3b4186f6b6457e060405160405180910390a35050565b61188d806101836000396000f3fe608060405234801561001057600080fd5b50600436106101005760003560e01c80638da5cb5b11610097578063e064613e11610066578063e064613e14610253578063e9d699901461026f578063f2fbee3f1461029f578063f2fde38b146102bb57610100565b80638da5cb5b146101c9578063c85785d6146101e7578063cad7ebce14610205578063ddb01a521461023557610100565b80635d494510116100d35780635d4945101461017b578063695a651714610199578063715018a6146101b55780638456cb59146101bf57610100565b806312b946bc146101055780631613146b146101235780633f4ba83a146101535780635c975abb1461015d575b600080fd5b61010d6102d7565b60405161011a9190610eec565b60405180910390f35b61013d60048036038101906101389190610f6a565b6102f3565b60405161014a9190611071565b60405180910390f35b61015b6103a3565b005b6101656103b5565b60405161017291906110a8565b60405180910390f35b6101836103cb565b604051610190919061118e565b60405180910390f35b6101b360048036038101906101ae91906111d6565b610483565b005b6101bd6107bd565b005b6101c76107d1565b005b6101d16107e3565b6040516101de9190611225565b60405180910390f35b6101ef61080c565b6040516101fc9190610eec565b60405180910390f35b61021f600480360381019061021a9190611240565b610816565b60405161022c9190610eec565b60405180910390f35b61023d6109df565b60405161024a9190611380565b60405180910390f35b61026d60048036038101906102689190610f6a565b610aa8565b005b610289600480360381019061028491906113a2565b610af4565b6040516102969190610eec565b60405180910390f35b6102b960048036038101906102b491906113a2565b610b0c565b005b6102d560048036038101906102d09190610f6a565b610b1e565b005b6000806004546006546102ea91906113fe565b90508091505090565b6102fb610e43565b610303610e43565b600080600a600554101561031b576005549050610320565b600a90505b600060055490505b816005546103369190611432565b8111156103975760405180604001604052808281526020016103588389610816565b8152508484600a811061036e5761036d611466565b5b6020020181905250828061038190611495565b935050808061038f906114dd565b915050610328565b50829350505050919050565b6103ab610ba1565b6103b3610c1f565b565b60008060009054906101000a900460ff16905090565b6103d3610e71565b6103db610e71565b600080600a60055410156103f35760055490506103f8565b600a90505b600060055490505b8160055461040e9190611432565b81111561047957604051806040016040528082815260200160026000848152602001908152602001600020548152508484600a81106104505761044f611466565b5b6020020181905250828061046390611495565b9350508080610471906114dd565b915050610400565b5082935050505090565b600760009054906101000a900473ffffffffffffffffffffffffffffffffffffffff1673ffffffffffffffffffffffffffffffffffffffff163373ffffffffffffffffffffffffffffffffffffffff1614610513576040517f08c379a000000000000000000000000000000000000000000000000000000000815260040161050a90611589565b60405180910390fd5b60011515600360008473ffffffffffffffffffffffffffffffffffffffff1673ffffffffffffffffffffffffffffffffffffffff1681526020019081526020016000206000600554815260200190815260200160002060000160009054906101000a900460ff161515146105bc576040517f08c379a00000000000000000000000000000000000000000000000000000000081526004016105b3906115f5565b60405180910390fd5b60001515600360008473ffffffffffffffffffffffffffffffffffffffff1673ffffffffffffffffffffffffffffffffffffffff1681526020019081526020016000206000600554815260200190815260200160002060000160019054906101000a900460ff16151514610665576040517f08c379a000000000000000000000000000000000000000000000000000000000815260040161065c90611661565b60405180910390fd5b6001604051806060016040528060055481526020018473ffffffffffffffffffffffffffffffffffffffff1681526020018381525090806001815401808255809150506001900390600052602060002090600302016000909190919091506000820151816000015560208201518160010160006101000a81548173ffffffffffffffffffffffffffffffffffffffff021916908373ffffffffffffffffffffffffffffffffffffffff1602179055506040820151816002015550506001600360008473ffffffffffffffffffffffffffffffffffffffff1673ffffffffffffffffffffffffffffffffffffffff1681526020019081526020016000206000600554815260200190815260200160002060000160016101000a81548160ff02191690831515021790555060026000600554815260200190815260200160002060008154809291906107b490611495565b91905055505050565b6107c5610ba1565b6107cf6000610c81565b565b6107d9610ba1565b6107e1610d46565b565b60008060019054906101000a900473ffffffffffffffffffffffffffffffffffffffff16905090565b6000600554905090565b6000806000806001905060005b600180549050811015610941576001818154811061084457610843611466565b5b906000526020600020906003020160000154871480156108d457506001818154811061087357610872611466565b5b906000526020600020906003020160010160009054906101000a900473ffffffffffffffffffffffffffffffffffffffff1673ffffffffffffffffffffffffffffffffffffffff168673ffffffffffffffffffffffffffffffffffffffff16145b1561090957809350600181815481106108f0576108ef611466565b5b9060005260206000209060030201600201549250610941565b60018054905060018261091c91906113fe565b0361092e5760009450505050506109d9565b808061093990611495565b915050610823565b5060005b6001805490508110156109d1576001818154811061096657610965611466565b5b906000526020600020906003020160000154871480156109aa57506001818154811061099557610994611466565b5b90600052602060002090600302016002015483115b156109be5781806109ba90611495565b9250505b80806109c990611495565b915050610945565b508093505050505b92915050565b60606001805480602002602001604051908101604052809291908181526020016000905b82821015610a9f5783829060005260206000209060030201604051806060016040529081600082015481526020016001820160009054906101000a900473ffffffffffffffffffffffffffffffffffffffff1673ffffffffffffffffffffffffffffffffffffffff1673ffffffffffffffffffffffffffffffffffffffff16815260200160028201548152505081526020019060010190610a03565b50505050905090565b610ab0610ba1565b80600760006101000a81548173ffffffffffffffffffffffffffffffffffffffff021916908373ffffffffffffffffffffffffffffffffffffffff16021790555050565b60026020528060005260406000206000915090505481565b610b14610ba1565b8060048190555050565b610b26610ba1565b600073ffffffffffffffffffffffffffffffffffffffff168173ffffffffffffffffffffffffffffffffffffffff1603610b95576040517f08c379a0000000000000000000000000000000000000000000000000000000008152600401610b8c906116f3565b60405180910390fd5b610b9e81610c81565b50565b610ba9610da8565b73ffffffffffffffffffffffffffffffffffffffff16610bc76107e3565b73ffffffffffffffffffffffffffffffffffffffff1614610c1d576040517f08c379a0000000000000000000000000000000000000000000000000000000008152600401610c149061175f565b60405180910390fd5b565b610c27610db0565b60008060006101000a81548160ff0219169083151502179055507f5db9ee0a495bf2e6ff9c91a7834c1ba4fdd244a5e8aa4e537bd38aeae4b073aa610c6a610da8565b604051610c779190611225565b60405180910390a1565b60008060019054906101000a900473ffffffffffffffffffffffffffffffffffffffff16905081600060016101000a81548173ffffffffffffffffffffffffffffffffffffffff021916908373ffffffffffffffffffffffffffffffffffffffff1602179055508173ffffffffffffffffffffffffffffffffffffffff168173ffffffffffffffffffffffffffffffffffffffff167f8be0079c531659141344cd1fd0a4f28419497f9722a3daafe3b4186f6b6457e060405160405180910390a35050565b610d4e610df9565b60016000806101000a81548160ff0219169083151502179055507f62e78cea01bee320cd4e420270b5ea74000d11b0c9f74754ebdbfc544b05a258610d91610da8565b604051610d9e9190611225565b60405180910390a1565b600033905090565b610db86103b5565b610df7576040517f08c379a0000000000000000000000000000000000000000000000000000000008152600401610dee906117cb565b60405180910390fd5b565b610e016103b5565b15610e41576040517f08c379a0000000000000000000000000000000000000000000000000000000008152600401610e3890611837565b60405180910390fd5b565b604051806101400160405280600a905b610e5b610e9f565b815260200190600190039081610e535790505090565b604051806101400160405280600a905b610e89610eb9565b815260200190600190039081610e815790505090565b604051806040016040528060008152602001600081525090565b604051806040016040528060008152602001600081525090565b6000819050919050565b610ee681610ed3565b82525050565b6000602082019050610f016000830184610edd565b92915050565b600080fd5b600073ffffffffffffffffffffffffffffffffffffffff82169050919050565b6000610f3782610f0c565b9050919050565b610f4781610f2c565b8114610f5257600080fd5b50565b600081359050610f6481610f3e565b92915050565b600060208284031215610f8057610f7f610f07565b5b6000610f8e84828501610f55565b91505092915050565b6000600a9050919050565b600081905092915050565b6000819050919050565b610fc081610ed3565b82525050565b604082016000820151610fdc6000850182610fb7565b506020820151610fef6020850182610fb7565b50505050565b60006110018383610fc6565b60408301905092915050565b6000602082019050919050565b61102381610f97565b61102d8184610fa2565b925061103882610fad565b8060005b838110156110695781516110508782610ff5565b965061105b8361100d565b92505060018101905061103c565b505050505050565b600061028082019050611087600083018461101a565b92915050565b60008115159050919050565b6110a28161108d565b82525050565b60006020820190506110bd6000830184611099565b92915050565b6000600a9050919050565b600081905092915050565b6000819050919050565b6040820160008201516110f96000850182610fb7565b50602082015161110c6020850182610fb7565b50505050565b600061111e83836110e3565b60408301905092915050565b6000602082019050919050565b611140816110c3565b61114a81846110ce565b9250611155826110d9565b8060005b8381101561118657815161116d8782611112565b96506111788361112a565b925050600181019050611159565b505050505050565b6000610280820190506111a46000830184611137565b92915050565b6111b381610ed3565b81146111be57600080fd5b50565b6000813590506111d0816111aa565b92915050565b600080604083850312156111ed576111ec610f07565b5b60006111fb85828601610f55565b925050602061120c858286016111c1565b9150509250929050565b61121f81610f2c565b82525050565b600060208201905061123a6000830184611216565b92915050565b6000806040838503121561125757611256610f07565b5b6000611265858286016111c1565b925050602061127685828601610f55565b9150509250929050565b600081519050919050565b600082825260208201905092915050565b6000819050602082019050919050565b6112b581610f2c565b82525050565b6060820160008201516112d16000850182610fb7565b5060208201516112e460208501826112ac565b5060408201516112f76040850182610fb7565b50505050565b600061130983836112bb565b60608301905092915050565b6000602082019050919050565b600061132d82611280565b611337818561128b565b93506113428361129c565b8060005b8381101561137357815161135a88826112fd565b975061136583611315565b925050600181019050611346565b5085935050505092915050565b6000602082019050818103600083015261139a8184611322565b905092915050565b6000602082840312156113b8576113b7610f07565b5b60006113c6848285016111c1565b91505092915050565b7f4e487b7100000000000000000000000000000000000000000000000000000000600052601160045260246000fd5b600061140982610ed3565b915061141483610ed3565b925082820190508082111561142c5761142b6113cf565b5b92915050565b600061143d82610ed3565b915061144883610ed3565b92508282039050818111156114605761145f6113cf565b5b92915050565b7f4e487b7100000000000000000000000000000000000000000000000000000000600052603260045260246000fd5b60006114a082610ed3565b91507fffffffffffffffffffffffffffffffffffffffffffffffffffffffffffffffff82036114d2576114d16113cf565b5b600182019050919050565b60006114e882610ed3565b9150600082036114fb576114fa6113cf565b5b600182039050919050565b600082825260208201905092915050565b7f596f7520617265206e6f7420616c6c6f77656420746f2073617665206120736360008201527f6f72652100000000000000000000000000000000000000000000000000000000602082015250565b6000611573602483611506565b915061157e82611517565b604082019050919050565b600060208201905081810360008301526115a281611566565b9050919050565b7f4e6f20726571756573742066726f6d20706c6179657200000000000000000000600082015250565b60006115df601683611506565b91506115ea826115a9565b602082019050919050565b6000602082019050818103600083015261160e816115d2565b9050919050565b7f506c6179657220616c726561647920706c617965640000000000000000000000600082015250565b600061164b601583611506565b915061165682611615565b602082019050919050565b6000602082019050818103600083015261167a8161163e565b9050919050565b7f4f776e61626c653a206e6577206f776e657220697320746865207a65726f206160008201527f6464726573730000000000000000000000000000000000000000000000000000602082015250565b60006116dd602683611506565b91506116e882611681565b604082019050919050565b6000602082019050818103600083015261170c816116d0565b9050919050565b7f4f776e61626c653a2063616c6c6572206973206e6f7420746865206f776e6572600082015250565b6000611749602083611506565b915061175482611713565b602082019050919050565b600060208201905081810360008301526117788161173c565b9050919050565b7f5061757361626c653a206e6f7420706175736564000000000000000000000000600082015250565b60006117b5601483611506565b91506117c08261177f565b602082019050919050565b600060208201905081810360008301526117e4816117a8565b9050919050565b7f5061757361626c653a2070617573656400000000000000000000000000000000600082015250565b6000611821601083611506565b915061182c826117eb565b602082019050919050565b6000602082019050818103600083015261185081611814565b905091905056fea26469706673582212204a0b579f266100afa9fe625d18188228f84a0f4d0118eee0d673695005ded49b64736f6c63430008110033",
  "linkReferences": {},
  "deployedLinkReferences": {}
}