{
  "_format": "hh-sol-artifact-1",
  "contractName": "NpngGame",
  "sourceName": "contracts/NpngGame.sol",
  "abi": [
    {
      "inputs": [],
      "stateMutability": "nonpayable",
      "type": "constructor"
    },
    {
      "anonymous": false,
      "inputs": [
        {
          "indexed": true,
          "internalType": "address",
          "name": "previousOwner",
          "type": "address"
        },
        {
          "indexed": true,
          "internalType": "address",
          "name": "newOwner",
          "type": "address"
        }
      ],
      "name": "OwnershipTransferred",
      "type": "event"
    },
    {
      "anonymous": false,
      "inputs": [
        {
          "indexed": false,
          "internalType": "address",
          "name": "account",
          "type": "address"
        }
      ],
      "name": "Paused",
      "type": "event"
    },
    {
      "anonymous": false,
      "inputs": [
        {
          "indexed": false,
          "internalType": "address",
          "name": "account",
          "type": "address"
        }
      ],
      "name": "Unpaused",
      "type": "event"
    },
    {
      "inputs": [
        {
          "internalType": "uint256",
          "name": "_newFrequence",
          "type": "uint256"
        }
      ],
      "name": "changeGameFrequence",
      "outputs": [],
      "stateMutability": "nonpayable",
      "type": "function"
    },
    {
      "inputs": [
        {
          "internalType": "address",
          "name": "_newRecorderAddress",
          "type": "address"
        }
      ],
      "name": "changeRecorder",
      "outputs": [],
      "stateMutability": "nonpayable",
      "type": "function"
    },
    {
      "inputs": [
        {
          "internalType": "uint256",
          "name": "",
          "type": "uint256"
        }
      ],
      "name": "contestsResult",
      "outputs": [
        {
          "internalType": "uint256",
          "name": "idContest",
          "type": "uint256"
        },
        {
          "internalType": "address",
          "name": "player",
          "type": "address"
        },
        {
          "internalType": "uint256",
          "name": "score",
          "type": "uint256"
        }
      ],
      "stateMutability": "view",
      "type": "function"
    },
    {
      "inputs": [
        {
          "internalType": "uint256",
          "name": "_idContest",
          "type": "uint256"
        },
        {
          "internalType": "address",
          "name": "_player",
          "type": "address"
        }
      ],
      "name": "getContestRank",
      "outputs": [
        {
          "internalType": "uint256",
          "name": "",
          "type": "uint256"
        }
      ],
      "stateMutability": "view",
      "type": "function"
    },
    {
      "inputs": [],
      "name": "getEndOfContest",
      "outputs": [
        {
          "internalType": "uint256",
          "name": "",
          "type": "uint256"
        }
      ],
      "stateMutability": "view",
      "type": "function"
    },
    {
      "inputs": [],
      "name": "getIdContest",
      "outputs": [
        {
          "internalType": "uint256",
          "name": "",
          "type": "uint256"
        }
      ],
      "stateMutability": "view",
      "type": "function"
    },
    {
      "inputs": [
        {
          "internalType": "address",
          "name": "_player",
          "type": "address"
        }
      ],
      "name": "getLastContestsRank",
      "outputs": [
        {
          "components": [
            {
              "internalType": "uint256",
              "name": "idContest",
              "type": "uint256"
            },
            {
              "internalType": "uint256",
              "name": "rank",
              "type": "uint256"
            }
          ],
          "internalType": "struct NpngGame.RankPerContest[10]",
          "name": "",
          "type": "tuple[10]"
        }
      ],
      "stateMutability": "view",
      "type": "function"
    },
    {
      "inputs": [],
      "name": "getListNbPlayersPerContest",
      "outputs": [
        {
          "components": [
            {
              "internalType": "uint256",
              "name": "idContest",
              "type": "uint256"
            },
            {
              "internalType": "uint256",
              "name": "nbPlayers",
              "type": "uint256"
            }
          ],
          "internalType": "struct NpngGame.ListNbPlayersPerContest[10]",
          "name": "",
          "type": "tuple[10]"
        }
      ],
      "stateMutability": "view",
      "type": "function"
    },
    {
      "inputs": [],
      "name": "getListScores",
      "outputs": [
        {
          "components": [
            {
              "internalType": "uint256",
              "name": "idContest",
              "type": "uint256"
            },
            {
              "internalType": "address",
              "name": "player",
              "type": "address"
            },
            {
              "internalType": "uint256",
              "name": "score",
              "type": "uint256"
            }
          ],
          "internalType": "struct NpngGame.ContestsResult[]",
          "name": "",
          "type": "tuple[]"
        }
      ],
      "stateMutability": "view",
      "type": "function"
    },
    {
      "inputs": [
        {
          "internalType": "uint256",
          "name": "",
          "type": "uint256"
        }
      ],
      "name": "numberOfPlayersPerContest",
      "outputs": [
        {
          "internalType": "uint256",
          "name": "",
          "type": "uint256"
        }
      ],
      "stateMutability": "view",
      "type": "function"
    },
    {
      "inputs": [],
      "name": "owner",
      "outputs": [
        {
          "internalType": "address",
          "name": "",
          "type": "address"
        }
      ],
      "stateMutability": "view",
      "type": "function"
    },
    {
      "inputs": [],
      "name": "pause",
      "outputs": [],
      "stateMutability": "nonpayable",
      "type": "function"
    },
    {
      "inputs": [],
      "name": "paused",
      "outputs": [
        {
          "internalType": "bool",
          "name": "",
          "type": "bool"
        }
      ],
      "stateMutability": "view",
      "type": "function"
    },
    {
      "inputs": [],
      "name": "renounceOwnership",
      "outputs": [],
      "stateMutability": "nonpayable",
      "type": "function"
    },
    {
      "inputs": [
        {
          "internalType": "address",
          "name": "_player",
          "type": "address"
        },
        {
          "internalType": "uint256",
          "name": "_score",
          "type": "uint256"
        }
      ],
      "name": "saveScore",
      "outputs": [],
      "stateMutability": "nonpayable",
      "type": "function"
    },
    {
      "inputs": [
        {
          "internalType": "address",
          "name": "newOwner",
          "type": "address"
        }
      ],
      "name": "transferOwnership",
      "outputs": [],
      "stateMutability": "nonpayable",
      "type": "function"
    },
    {
      "inputs": [],
      "name": "unpause",
      "outputs": [],
      "stateMutability": "nonpayable",
      "type": "function"
    },
    {
      "inputs": [],
      "name": "updateIdContest",
      "outputs": [],
      "stateMutability": "nonpayable",
      "type": "function"
    }
  ],
  "bytecode": "0x608060405234801561001057600080fd5b5060008060006101000a81548160ff02191690831515021790555061004761003c6100ba60201b60201c565b6100c260201b60201c565b4260068190555060016005819055506201518060048190555073d9464d0f4bd1da4dda0dd998bc73ae2ec42418de600760006101000a81548173ffffffffffffffffffffffffffffffffffffffff021916908373ffffffffffffffffffffffffffffffffffffffff160217905550610187565b600033905090565b60008060019054906101000a900473ffffffffffffffffffffffffffffffffffffffff16905081600060016101000a81548173ffffffffffffffffffffffffffffffffffffffff021916908373ffffffffffffffffffffffffffffffffffffffff1602179055508173ffffffffffffffffffffffffffffffffffffffff168173ffffffffffffffffffffffffffffffffffffffff167f8be0079c531659141344cd1fd0a4f28419497f9722a3daafe3b4186f6b6457e060405160405180910390a35050565b6119b2806101966000396000f3fe608060405234801561001057600080fd5b50600436106101165760003560e01c80638da5cb5b116100a2578063ddb01a5211610071578063ddb01a5214610287578063e064613e146102a5578063e9d69990146102c1578063f2fbee3f146102f1578063f2fde38b1461030d57610116565b80638da5cb5b146101eb578063aada10d414610209578063c85785d614610239578063cad7ebce1461025757610116565b80635c975abb116100e95780635c975abb14610193578063695a6517146101b1578063715018a6146101cd578063771baacb146101d75780638456cb59146101e157610116565b806312b946bc1461011b5780631b922c09146101395780631df7b4301461016b5780633f4ba83a14610189575b600080fd5b610123610329565b6040516101309190610f7a565b60405180910390f35b610153600480360381019061014e9190610fc6565b610345565b60405161016293929190611034565b60405180910390f35b61017361039f565b6040516101809190611145565b60405180910390f35b61019161043d565b005b61019b61044f565b6040516101a8919061117c565b60405180910390f35b6101cb60048036038101906101c691906111c3565b610465565b005b6101d561079f565b005b6101df6107b3565b005b6101e9610805565b005b6101f3610817565b6040516102009190611203565b60405180910390f35b610223600480360381019061021e919061121e565b610840565b6040516102309190611316565b60405180910390f35b6102416108c6565b60405161024e9190610f7a565b60405180910390f35b610271600480360381019061026c9190611332565b6108d0565b60405161027e9190610f7a565b60405180910390f35b61028f610a6d565b60405161029c9190611472565b60405180910390f35b6102bf60048036038101906102ba919061121e565b610b36565b005b6102db60048036038101906102d69190610fc6565b610b82565b6040516102e89190610f7a565b60405180910390f35b61030b60048036038101906103069190610fc6565b610b9a565b005b6103276004803603810190610322919061121e565b610bac565b005b60008060045460065461033c91906114c3565b90508091505090565b6001818154811061035557600080fd5b90600052602060002090600302016000915090508060000154908060010160009054906101000a900473ffffffffffffffffffffffffffffffffffffffff16908060020154905083565b6103a7610ed1565b6103af610ed1565b60008060055490505b600a6005546103c791906114f7565b811115610434576040518060400160405280600554815260200160026000848152602001908152602001600020548152508383600a811061040b5761040a61152b565b5b6020020181905250818061041e9061155a565b925050808061042c906115a2565b9150506103b8565b50819250505090565b610445610c2f565b61044d610cad565b565b60008060009054906101000a900460ff16905090565b600760009054906101000a900473ffffffffffffffffffffffffffffffffffffffff1673ffffffffffffffffffffffffffffffffffffffff163373ffffffffffffffffffffffffffffffffffffffff16146104f5576040517f08c379a00000000000000000000000000000000000000000000000000000000081526004016104ec9061164e565b60405180910390fd5b60011515600360008473ffffffffffffffffffffffffffffffffffffffff1673ffffffffffffffffffffffffffffffffffffffff1681526020019081526020016000206000600554815260200190815260200160002060000160009054906101000a900460ff1615151461059e576040517f08c379a0000000000000000000000000000000000000000000000000000000008152600401610595906116ba565b60405180910390fd5b60001515600360008473ffffffffffffffffffffffffffffffffffffffff1673ffffffffffffffffffffffffffffffffffffffff1681526020019081526020016000206000600554815260200190815260200160002060000160019054906101000a900460ff16151514610647576040517f08c379a000000000000000000000000000000000000000000000000000000000815260040161063e90611726565b60405180910390fd5b6001604051806060016040528060055481526020018473ffffffffffffffffffffffffffffffffffffffff1681526020018381525090806001815401808255809150506001900390600052602060002090600302016000909190919091506000820151816000015560208201518160010160006101000a81548173ffffffffffffffffffffffffffffffffffffffff021916908373ffffffffffffffffffffffffffffffffffffffff1602179055506040820151816002015550506001600360008473ffffffffffffffffffffffffffffffffffffffff1673ffffffffffffffffffffffffffffffffffffffff1681526020019081526020016000206000600554815260200190815260200160002060000160016101000a81548160ff02191690831515021790555060026000600554815260200190815260200160002060008154809291906107969061155a565b91905055505050565b6107a7610c2f565b6107b16000610d0f565b565b60004290506000600454600654836107cb91906114f7565b6107d59190611775565b905060008111156108015780600560008282546107f291906114c3565b92505081905550816006819055505b5050565b61080d610c2f565b610815610dd4565b565b60008060019054906101000a900473ffffffffffffffffffffffffffffffffffffffff16905090565b610848610eff565b610850610eff565b60008060055490505b600a60055461086891906114f7565b8111156108bb57604051806040016040528082815260200161088a83886108d0565b8152508383600a81106108a05761089f61152b565b5b602002018190525080806108b3906115a2565b915050610859565b508192505050919050565b6000600554905090565b6000806000806001905060006001805490508110156109cf57600181815481106108fd576108fc61152b565b5b9060005260206000209060030201600001548714801561098d57506001818154811061092c5761092b61152b565b5b906000526020600020906003020160010160009054906101000a900473ffffffffffffffffffffffffffffffffffffffff1673ffffffffffffffffffffffffffffffffffffffff168673ffffffffffffffffffffffffffffffffffffffff16145b156109c257809350600181815481106109a9576109a861152b565b5b90600052602060002090600302016002015492506109cf565b6000945050505050610a67565b5060005b600180549050811015610a5f57600181815481106109f4576109f361152b565b5b90600052602060002090600302016000015487148015610a38575060018181548110610a2357610a2261152b565b5b90600052602060002090600302016002015483115b15610a4c578180610a489061155a565b9250505b8080610a579061155a565b9150506109d3565b508093505050505b92915050565b60606001805480602002602001604051908101604052809291908181526020016000905b82821015610b2d5783829060005260206000209060030201604051806060016040529081600082015481526020016001820160009054906101000a900473ffffffffffffffffffffffffffffffffffffffff1673ffffffffffffffffffffffffffffffffffffffff1673ffffffffffffffffffffffffffffffffffffffff16815260200160028201548152505081526020019060010190610a91565b50505050905090565b610b3e610c2f565b80600760006101000a81548173ffffffffffffffffffffffffffffffffffffffff021916908373ffffffffffffffffffffffffffffffffffffffff16021790555050565b60026020528060005260406000206000915090505481565b610ba2610c2f565b8060048190555050565b610bb4610c2f565b600073ffffffffffffffffffffffffffffffffffffffff168173ffffffffffffffffffffffffffffffffffffffff1603610c23576040517f08c379a0000000000000000000000000000000000000000000000000000000008152600401610c1a90611818565b60405180910390fd5b610c2c81610d0f565b50565b610c37610e36565b73ffffffffffffffffffffffffffffffffffffffff16610c55610817565b73ffffffffffffffffffffffffffffffffffffffff1614610cab576040517f08c379a0000000000000000000000000000000000000000000000000000000008152600401610ca290611884565b60405180910390fd5b565b610cb5610e3e565b60008060006101000a81548160ff0219169083151502179055507f5db9ee0a495bf2e6ff9c91a7834c1ba4fdd244a5e8aa4e537bd38aeae4b073aa610cf8610e36565b604051610d059190611203565b60405180910390a1565b60008060019054906101000a900473ffffffffffffffffffffffffffffffffffffffff16905081600060016101000a81548173ffffffffffffffffffffffffffffffffffffffff021916908373ffffffffffffffffffffffffffffffffffffffff1602179055508173ffffffffffffffffffffffffffffffffffffffff168173ffffffffffffffffffffffffffffffffffffffff167f8be0079c531659141344cd1fd0a4f28419497f9722a3daafe3b4186f6b6457e060405160405180910390a35050565b610ddc610e87565b60016000806101000a81548160ff0219169083151502179055507f62e78cea01bee320cd4e420270b5ea74000d11b0c9f74754ebdbfc544b05a258610e1f610e36565b604051610e2c9190611203565b60405180910390a1565b600033905090565b610e4661044f565b610e85576040517f08c379a0000000000000000000000000000000000000000000000000000000008152600401610e7c906118f0565b60405180910390fd5b565b610e8f61044f565b15610ecf576040517f08c379a0000000000000000000000000000000000000000000000000000000008152600401610ec69061195c565b60405180910390fd5b565b604051806101400160405280600a905b610ee9610f2d565b815260200190600190039081610ee15790505090565b604051806101400160405280600a905b610f17610f47565b815260200190600190039081610f0f5790505090565b604051806040016040528060008152602001600081525090565b604051806040016040528060008152602001600081525090565b6000819050919050565b610f7481610f61565b82525050565b6000602082019050610f8f6000830184610f6b565b92915050565b600080fd5b610fa381610f61565b8114610fae57600080fd5b50565b600081359050610fc081610f9a565b92915050565b600060208284031215610fdc57610fdb610f95565b5b6000610fea84828501610fb1565b91505092915050565b600073ffffffffffffffffffffffffffffffffffffffff82169050919050565b600061101e82610ff3565b9050919050565b61102e81611013565b82525050565b60006060820190506110496000830186610f6b565b6110566020830185611025565b6110636040830184610f6b565b949350505050565b6000600a9050919050565b600081905092915050565b6000819050919050565b61109481610f61565b82525050565b6040820160008201516110b0600085018261108b565b5060208201516110c3602085018261108b565b50505050565b60006110d5838361109a565b60408301905092915050565b6000602082019050919050565b6110f78161106b565b6111018184611076565b925061110c82611081565b8060005b8381101561113d57815161112487826110c9565b965061112f836110e1565b925050600181019050611110565b505050505050565b60006102808201905061115b60008301846110ee565b92915050565b60008115159050919050565b61117681611161565b82525050565b6000602082019050611191600083018461116d565b92915050565b6111a081611013565b81146111ab57600080fd5b50565b6000813590506111bd81611197565b92915050565b600080604083850312156111da576111d9610f95565b5b60006111e8858286016111ae565b92505060206111f985828601610fb1565b9150509250929050565b60006020820190506112186000830184611025565b92915050565b60006020828403121561123457611233610f95565b5b6000611242848285016111ae565b91505092915050565b6000600a9050919050565b600081905092915050565b6000819050919050565b604082016000820151611281600085018261108b565b506020820151611294602085018261108b565b50505050565b60006112a6838361126b565b60408301905092915050565b6000602082019050919050565b6112c88161124b565b6112d28184611256565b92506112dd82611261565b8060005b8381101561130e5781516112f5878261129a565b9650611300836112b2565b9250506001810190506112e1565b505050505050565b60006102808201905061132c60008301846112bf565b92915050565b6000806040838503121561134957611348610f95565b5b600061135785828601610fb1565b9250506020611368858286016111ae565b9150509250929050565b600081519050919050565b600082825260208201905092915050565b6000819050602082019050919050565b6113a781611013565b82525050565b6060820160008201516113c3600085018261108b565b5060208201516113d6602085018261139e565b5060408201516113e9604085018261108b565b50505050565b60006113fb83836113ad565b60608301905092915050565b6000602082019050919050565b600061141f82611372565b611429818561137d565b93506114348361138e565b8060005b8381101561146557815161144c88826113ef565b975061145783611407565b925050600181019050611438565b5085935050505092915050565b6000602082019050818103600083015261148c8184611414565b905092915050565b7f4e487b7100000000000000000000000000000000000000000000000000000000600052601160045260246000fd5b60006114ce82610f61565b91506114d983610f61565b92508282019050808211156114f1576114f0611494565b5b92915050565b600061150282610f61565b915061150d83610f61565b925082820390508181111561152557611524611494565b5b92915050565b7f4e487b7100000000000000000000000000000000000000000000000000000000600052603260045260246000fd5b600061156582610f61565b91507fffffffffffffffffffffffffffffffffffffffffffffffffffffffffffffffff820361159757611596611494565b5b600182019050919050565b60006115ad82610f61565b9150600082036115c0576115bf611494565b5b600182039050919050565b600082825260208201905092915050565b7f596f7520617265206e6f7420616c6c6f77656420746f2073617665206120736360008201527f6f72652100000000000000000000000000000000000000000000000000000000602082015250565b60006116386024836115cb565b9150611643826115dc565b604082019050919050565b600060208201905081810360008301526116678161162b565b9050919050565b7f4e6f20726571756573742066726f6d20706c6179657200000000000000000000600082015250565b60006116a46016836115cb565b91506116af8261166e565b602082019050919050565b600060208201905081810360008301526116d381611697565b9050919050565b7f506c6179657220616c726561647920706c617965640000000000000000000000600082015250565b60006117106015836115cb565b915061171b826116da565b602082019050919050565b6000602082019050818103600083015261173f81611703565b9050919050565b7f4e487b7100000000000000000000000000000000000000000000000000000000600052601260045260246000fd5b600061178082610f61565b915061178b83610f61565b92508261179b5761179a611746565b5b828204905092915050565b7f4f776e61626c653a206e6577206f776e657220697320746865207a65726f206160008201527f6464726573730000000000000000000000000000000000000000000000000000602082015250565b60006118026026836115cb565b915061180d826117a6565b604082019050919050565b60006020820190508181036000830152611831816117f5565b9050919050565b7f4f776e61626c653a2063616c6c6572206973206e6f7420746865206f776e6572600082015250565b600061186e6020836115cb565b915061187982611838565b602082019050919050565b6000602082019050818103600083015261189d81611861565b9050919050565b7f5061757361626c653a206e6f7420706175736564000000000000000000000000600082015250565b60006118da6014836115cb565b91506118e5826118a4565b602082019050919050565b60006020820190508181036000830152611909816118cd565b9050919050565b7f5061757361626c653a2070617573656400000000000000000000000000000000600082015250565b60006119466010836115cb565b915061195182611910565b602082019050919050565b6000602082019050818103600083015261197581611939565b905091905056fea2646970667358221220cdc8d50b58b0d0a91c85d6d3575a1b0c6aebc761eae6a29c4341339d8a3d057e64736f6c63430008110033",
  "linkReferences": {},
  "deployedLinkReferences": {}
}