{
  "_format": "hh-sol-artifact-1",
  "contractName": "NpngGame",
  "sourceName": "contracts/NpngGame.sol",
  "abi": [
    {
      "inputs": [],
      "stateMutability": "nonpayable",
      "type": "constructor"
    },
    {
      "anonymous": false,
      "inputs": [
        {
          "indexed": true,
          "internalType": "address",
          "name": "previousOwner",
          "type": "address"
        },
        {
          "indexed": true,
          "internalType": "address",
          "name": "newOwner",
          "type": "address"
        }
      ],
      "name": "OwnershipTransferred",
      "type": "event"
    },
    {
      "inputs": [
        {
          "internalType": "uint256",
          "name": "_newFrequence",
          "type": "uint256"
        }
      ],
      "name": "changeGameFrequence",
      "outputs": [],
      "stateMutability": "nonpayable",
      "type": "function"
    },
    {
      "inputs": [],
      "name": "checkGamePlayed",
      "outputs": [
        {
          "internalType": "bool",
          "name": "",
          "type": "bool"
        }
      ],
      "stateMutability": "view",
      "type": "function"
    },
    {
      "inputs": [
        {
          "internalType": "uint256",
          "name": "_idContest",
          "type": "uint256"
        },
        {
          "internalType": "address",
          "name": "_player",
          "type": "address"
        }
      ],
      "name": "checkPlayerRank",
      "outputs": [
        {
          "internalType": "uint256",
          "name": "",
          "type": "uint256"
        }
      ],
      "stateMutability": "view",
      "type": "function"
    },
    {
      "inputs": [
        {
          "internalType": "uint256",
          "name": "",
          "type": "uint256"
        }
      ],
      "name": "contestsResult",
      "outputs": [
        {
          "internalType": "uint256",
          "name": "idContest",
          "type": "uint256"
        },
        {
          "internalType": "address",
          "name": "player",
          "type": "address"
        },
        {
          "internalType": "uint256",
          "name": "score",
          "type": "uint256"
        }
      ],
      "stateMutability": "view",
      "type": "function"
    },
    {
      "inputs": [],
      "name": "getCurrentIdContest",
      "outputs": [
        {
          "internalType": "uint256",
          "name": "",
          "type": "uint256"
        }
      ],
      "stateMutability": "view",
      "type": "function"
    },
    {
      "inputs": [],
      "name": "getGameFrequence",
      "outputs": [
        {
          "internalType": "uint256",
          "name": "",
          "type": "uint256"
        }
      ],
      "stateMutability": "view",
      "type": "function"
    },
    {
      "inputs": [],
      "name": "getPlay",
      "outputs": [],
      "stateMutability": "nonpayable",
      "type": "function"
    },
    {
      "inputs": [],
      "name": "getScore",
      "outputs": [
        {
          "components": [
            {
              "internalType": "uint256",
              "name": "idContest",
              "type": "uint256"
            },
            {
              "internalType": "address",
              "name": "player",
              "type": "address"
            },
            {
              "internalType": "uint256",
              "name": "score",
              "type": "uint256"
            }
          ],
          "internalType": "struct NpngGame.ContestsResult[]",
          "name": "",
          "type": "tuple[]"
        }
      ],
      "stateMutability": "view",
      "type": "function"
    },
    {
      "inputs": [
        {
          "internalType": "uint256",
          "name": "_idContest",
          "type": "uint256"
        }
      ],
      "name": "getTopPlayers",
      "outputs": [
        {
          "components": [
            {
              "internalType": "uint256",
              "name": "idContest",
              "type": "uint256"
            },
            {
              "internalType": "address",
              "name": "player",
              "type": "address"
            },
            {
              "internalType": "uint256",
              "name": "score",
              "type": "uint256"
            }
          ],
          "internalType": "struct NpngGame.ContestsResult[10]",
          "name": "",
          "type": "tuple[10]"
        }
      ],
      "stateMutability": "view",
      "type": "function"
    },
    {
      "inputs": [
        {
          "internalType": "uint256",
          "name": "",
          "type": "uint256"
        }
      ],
      "name": "numberOfPlayersPerContest",
      "outputs": [
        {
          "internalType": "uint256",
          "name": "",
          "type": "uint256"
        }
      ],
      "stateMutability": "view",
      "type": "function"
    },
    {
      "inputs": [],
      "name": "owner",
      "outputs": [
        {
          "internalType": "address",
          "name": "",
          "type": "address"
        }
      ],
      "stateMutability": "view",
      "type": "function"
    },
    {
      "inputs": [],
      "name": "renounceOwnership",
      "outputs": [],
      "stateMutability": "nonpayable",
      "type": "function"
    },
    {
      "inputs": [
        {
          "internalType": "address",
          "name": "player",
          "type": "address"
        },
        {
          "internalType": "uint256",
          "name": "score",
          "type": "uint256"
        }
      ],
      "name": "saveScore",
      "outputs": [],
      "stateMutability": "nonpayable",
      "type": "function"
    },
    {
      "inputs": [
        {
          "internalType": "address",
          "name": "newOwner",
          "type": "address"
        }
      ],
      "name": "transferOwnership",
      "outputs": [],
      "stateMutability": "nonpayable",
      "type": "function"
    },
    {
      "inputs": [],
      "name": "updateIdContest",
      "outputs": [],
      "stateMutability": "nonpayable",
      "type": "function"
    }
  ],
  "bytecode": "0x608060405234801561001057600080fd5b5061002d61002261005460201b60201c565b61005c60201b60201c565b42600781905550600754600881905550600160068190555062015180600581905550610120565b600033905090565b60008060009054906101000a900473ffffffffffffffffffffffffffffffffffffffff169050816000806101000a81548173ffffffffffffffffffffffffffffffffffffffff021916908373ffffffffffffffffffffffffffffffffffffffff1602179055508173ffffffffffffffffffffffffffffffffffffffff168173ffffffffffffffffffffffffffffffffffffffff167f8be0079c531659141344cd1fd0a4f28419497f9722a3daafe3b4186f6b6457e060405160405180910390a35050565b61178c8061012f6000396000f3fe608060405234801561001057600080fd5b50600436106100f55760003560e01c8063771baacb11610097578063ba3c006711610066578063ba3c00671461022c578063e9d699901461025c578063f2fbee3f1461028c578063f2fde38b146102a8576100f5565b8063771baacb146101b65780638c6ba47b146101c05780638da5cb5b146101f0578063afd820671461020e576100f5565b80635f9943d3116100d35780635f9943d31461015457806363072aab14610172578063695a651714610190578063715018a6146101ac576100f5565b806305e81bda146100fa5780630bd5d284146101185780631b922c0914610122575b600080fd5b6101026102c4565b60405161010f91906110ed565b60405180910390f35b6101206102ce565b005b61013c60048036038101906101379190611139565b610343565b60405161014b939291906111a7565b60405180910390f35b61015c61039d565b60405161016991906111f9565b60405180910390f35b61017a61040e565b60405161018791906110ed565b60405180910390f35b6101aa60048036038101906101a59190611240565b610418565b005b6101b4610522565b005b6101be610536565b005b6101da60048036038101906101d59190611280565b610588565b6040516101e791906110ed565b60405180910390f35b6101f8610624565b60405161020591906112c0565b60405180910390f35b61021661064d565b60405161022391906113ea565b60405180910390f35b61024660048036038101906102419190611139565b610716565b6040516102539190611490565b60405180910390f35b61027660048036038101906102719190611139565b610e78565b60405161028391906110ed565b60405180910390f35b6102a660048036038101906102a19190611139565b610e90565b005b6102c260048036038101906102bd91906114ac565b610ea2565b005b6000600554905090565b6102d6610536565b6001600260003373ffffffffffffffffffffffffffffffffffffffff1673ffffffffffffffffffffffffffffffffffffffff1681526020019081526020016000206000600654815260200190815260200160002060006101000a81548160ff021916908315150217905550565b6001818154811061035357600080fd5b90600052602060002090600302016000915090508060000154908060010160009054906101000a900473ffffffffffffffffffffffffffffffffffffffff16908060020154905083565b6000806103a861040e565b9050600260003373ffffffffffffffffffffffffffffffffffffffff1673ffffffffffffffffffffffffffffffffffffffff168152602001908152602001600020600082815260200190815260200160002060009054906101000a900460ff1691505090565b6000600654905090565b610420610f25565b610428610536565b6001604051806060016040528060065481526020018473ffffffffffffffffffffffffffffffffffffffff1681526020018381525090806001815401808255809150506001900390600052602060002090600302016000909190919091506000820151816000015560208201518160010160006101000a81548173ffffffffffffffffffffffffffffffffffffffff021916908373ffffffffffffffffffffffffffffffffffffffff1602179055506040820151816002015550506001600360006006548152602001908152602001600020546105059190611508565b600360006006548152602001908152602001600020819055505050565b61052a610f25565b6105346000610fa3565b565b600042905060006005546008548361054e919061153c565b610558919061159f565b905060008111156105845780600660008282546105759190611508565b92505081905550816008819055505b5050565b60008061059484610716565b90506000805b600a811015610618578281600a81106105b6576105b56115d0565b5b60200201516020015173ffffffffffffffffffffffffffffffffffffffff168573ffffffffffffffffffffffffffffffffffffffff1603610605576001816105fe9190611508565b9150610618565b8080610610906115ff565b91505061059a565b50809250505092915050565b60008060009054906101000a900473ffffffffffffffffffffffffffffffffffffffff16905090565b60606001805480602002602001604051908101604052809291908181526020016000905b8282101561070d5783829060005260206000209060030201604051806060016040529081600082015481526020016001820160009054906101000a900473ffffffffffffffffffffffffffffffffffffffff1673ffffffffffffffffffffffffffffffffffffffff1673ffffffffffffffffffffffffffffffffffffffff16815260200160028201548152505081526020019060010190610671565b50505050905090565b61071e61106f565b61072661106f565b60005b600a81101561079457604051806060016040528085815260200161dead73ffffffffffffffffffffffffffffffffffffffff16815260200160008152508282600a8110610779576107786115d0565b5b6020020181905250808061078c906115ff565b915050610729565b5060005b600a811015610e6e576000826009600a81106107b7576107b66115d0565b5b6020020151905060005b600180549050811015610e3d5785600182815481106107e3576107e26115d0565b5b90600052602060002090600302016000015414801561088f5750836000600a8110610811576108106115d0565b5b60200201516020015173ffffffffffffffffffffffffffffffffffffffff1660018281548110610844576108436115d0565b5b906000526020600020906003020160010160009054906101000a900473ffffffffffffffffffffffffffffffffffffffff1673ffffffffffffffffffffffffffffffffffffffff1614155b80156109285750836001600a81106108aa576108a96115d0565b5b60200201516020015173ffffffffffffffffffffffffffffffffffffffff16600182815481106108dd576108dc6115d0565b5b906000526020600020906003020160010160009054906101000a900473ffffffffffffffffffffffffffffffffffffffff1673ffffffffffffffffffffffffffffffffffffffff1614155b80156109c15750836002600a8110610943576109426115d0565b5b60200201516020015173ffffffffffffffffffffffffffffffffffffffff1660018281548110610976576109756115d0565b5b906000526020600020906003020160010160009054906101000a900473ffffffffffffffffffffffffffffffffffffffff1673ffffffffffffffffffffffffffffffffffffffff1614155b8015610a5a5750836003600a81106109dc576109db6115d0565b5b60200201516020015173ffffffffffffffffffffffffffffffffffffffff1660018281548110610a0f57610a0e6115d0565b5b906000526020600020906003020160010160009054906101000a900473ffffffffffffffffffffffffffffffffffffffff1673ffffffffffffffffffffffffffffffffffffffff1614155b8015610af35750836004600a8110610a7557610a746115d0565b5b60200201516020015173ffffffffffffffffffffffffffffffffffffffff1660018281548110610aa857610aa76115d0565b5b906000526020600020906003020160010160009054906101000a900473ffffffffffffffffffffffffffffffffffffffff1673ffffffffffffffffffffffffffffffffffffffff1614155b8015610b8c5750836005600a8110610b0e57610b0d6115d0565b5b60200201516020015173ffffffffffffffffffffffffffffffffffffffff1660018281548110610b4157610b406115d0565b5b906000526020600020906003020160010160009054906101000a900473ffffffffffffffffffffffffffffffffffffffff1673ffffffffffffffffffffffffffffffffffffffff1614155b8015610c255750836006600a8110610ba757610ba66115d0565b5b60200201516020015173ffffffffffffffffffffffffffffffffffffffff1660018281548110610bda57610bd96115d0565b5b906000526020600020906003020160010160009054906101000a900473ffffffffffffffffffffffffffffffffffffffff1673ffffffffffffffffffffffffffffffffffffffff1614155b8015610cbe5750836007600a8110610c4057610c3f6115d0565b5b60200201516020015173ffffffffffffffffffffffffffffffffffffffff1660018281548110610c7357610c726115d0565b5b906000526020600020906003020160010160009054906101000a900473ffffffffffffffffffffffffffffffffffffffff1673ffffffffffffffffffffffffffffffffffffffff1614155b8015610d575750836008600a8110610cd957610cd86115d0565b5b60200201516020015173ffffffffffffffffffffffffffffffffffffffff1660018281548110610d0c57610d0b6115d0565b5b906000526020600020906003020160010160009054906101000a900473ffffffffffffffffffffffffffffffffffffffff1673ffffffffffffffffffffffffffffffffffffffff1614155b8015610d8b5750816040015160018281548110610d7757610d766115d0565b5b906000526020600020906003020160020154115b15610e2a5760018181548110610da457610da36115d0565b5b9060005260206000209060030201604051806060016040529081600082015481526020016001820160009054906101000a900473ffffffffffffffffffffffffffffffffffffffff1673ffffffffffffffffffffffffffffffffffffffff1673ffffffffffffffffffffffffffffffffffffffff16815260200160028201548152505091505b8080610e35906115ff565b9150506107c1565b50808383600a8110610e5257610e516115d0565b5b6020020181905250508080610e66906115ff565b915050610798565b5080915050919050565b60036020528060005260406000206000915090505481565b610e98610f25565b8060058190555050565b610eaa610f25565b600073ffffffffffffffffffffffffffffffffffffffff168173ffffffffffffffffffffffffffffffffffffffff1603610f19576040517f08c379a0000000000000000000000000000000000000000000000000000000008152600401610f10906116ca565b60405180910390fd5b610f2281610fa3565b50565b610f2d611067565b73ffffffffffffffffffffffffffffffffffffffff16610f4b610624565b73ffffffffffffffffffffffffffffffffffffffff1614610fa1576040517f08c379a0000000000000000000000000000000000000000000000000000000008152600401610f9890611736565b60405180910390fd5b565b60008060009054906101000a900473ffffffffffffffffffffffffffffffffffffffff169050816000806101000a81548173ffffffffffffffffffffffffffffffffffffffff021916908373ffffffffffffffffffffffffffffffffffffffff1602179055508173ffffffffffffffffffffffffffffffffffffffff168173ffffffffffffffffffffffffffffffffffffffff167f8be0079c531659141344cd1fd0a4f28419497f9722a3daafe3b4186f6b6457e060405160405180910390a35050565b600033905090565b604051806101400160405280600a905b61108761109d565b81526020019060019003908161107f5790505090565b604051806060016040528060008152602001600073ffffffffffffffffffffffffffffffffffffffff168152602001600081525090565b6000819050919050565b6110e7816110d4565b82525050565b600060208201905061110260008301846110de565b92915050565b600080fd5b611116816110d4565b811461112157600080fd5b50565b6000813590506111338161110d565b92915050565b60006020828403121561114f5761114e611108565b5b600061115d84828501611124565b91505092915050565b600073ffffffffffffffffffffffffffffffffffffffff82169050919050565b600061119182611166565b9050919050565b6111a181611186565b82525050565b60006060820190506111bc60008301866110de565b6111c96020830185611198565b6111d660408301846110de565b949350505050565b60008115159050919050565b6111f3816111de565b82525050565b600060208201905061120e60008301846111ea565b92915050565b61121d81611186565b811461122857600080fd5b50565b60008135905061123a81611214565b92915050565b6000806040838503121561125757611256611108565b5b60006112658582860161122b565b925050602061127685828601611124565b9150509250929050565b6000806040838503121561129757611296611108565b5b60006112a585828601611124565b92505060206112b68582860161122b565b9150509250929050565b60006020820190506112d56000830184611198565b92915050565b600081519050919050565b600082825260208201905092915050565b6000819050602082019050919050565b611310816110d4565b82525050565b61131f81611186565b82525050565b60608201600082015161133b6000850182611307565b50602082015161134e6020850182611316565b5060408201516113616040850182611307565b50505050565b60006113738383611325565b60608301905092915050565b6000602082019050919050565b6000611397826112db565b6113a181856112e6565b93506113ac836112f7565b8060005b838110156113dd5781516113c48882611367565b97506113cf8361137f565b9250506001810190506113b0565b5085935050505092915050565b60006020820190508181036000830152611404818461138c565b905092915050565b6000600a9050919050565b600081905092915050565b6000819050919050565b6000602082019050919050565b6114428161140c565b61144c8184611417565b925061145782611422565b8060005b8381101561148857815161146f8782611367565b965061147a8361142c565b92505060018101905061145b565b505050505050565b60006103c0820190506114a66000830184611439565b92915050565b6000602082840312156114c2576114c1611108565b5b60006114d08482850161122b565b91505092915050565b7f4e487b7100000000000000000000000000000000000000000000000000000000600052601160045260246000fd5b6000611513826110d4565b915061151e836110d4565b9250828201905080821115611536576115356114d9565b5b92915050565b6000611547826110d4565b9150611552836110d4565b925082820390508181111561156a576115696114d9565b5b92915050565b7f4e487b7100000000000000000000000000000000000000000000000000000000600052601260045260246000fd5b60006115aa826110d4565b91506115b5836110d4565b9250826115c5576115c4611570565b5b828204905092915050565b7f4e487b7100000000000000000000000000000000000000000000000000000000600052603260045260246000fd5b600061160a826110d4565b91507fffffffffffffffffffffffffffffffffffffffffffffffffffffffffffffffff820361163c5761163b6114d9565b5b600182019050919050565b600082825260208201905092915050565b7f4f776e61626c653a206e6577206f776e657220697320746865207a65726f206160008201527f6464726573730000000000000000000000000000000000000000000000000000602082015250565b60006116b4602683611647565b91506116bf82611658565b604082019050919050565b600060208201905081810360008301526116e3816116a7565b9050919050565b7f4f776e61626c653a2063616c6c6572206973206e6f7420746865206f776e6572600082015250565b6000611720602083611647565b915061172b826116ea565b602082019050919050565b6000602082019050818103600083015261174f81611713565b905091905056fea2646970667358221220250d23a43e4da812022f3dfe9347dab3614d18330b4b358258499b23ea47b81b64736f6c63430008110033",
  "linkReferences": {},
  "deployedLinkReferences": {}
}