{
  "_format": "hh-sol-artifact-1",
  "contractName": "NpngGame",
  "sourceName": "contracts/NpngGame.sol",
  "abi": [
    {
      "inputs": [],
      "stateMutability": "nonpayable",
      "type": "constructor"
    },
    {
      "anonymous": false,
      "inputs": [
        {
          "indexed": true,
          "internalType": "address",
          "name": "previousOwner",
          "type": "address"
        },
        {
          "indexed": true,
          "internalType": "address",
          "name": "newOwner",
          "type": "address"
        }
      ],
      "name": "OwnershipTransferred",
      "type": "event"
    },
    {
      "anonymous": false,
      "inputs": [
        {
          "indexed": false,
          "internalType": "address",
          "name": "account",
          "type": "address"
        }
      ],
      "name": "Paused",
      "type": "event"
    },
    {
      "anonymous": false,
      "inputs": [
        {
          "indexed": false,
          "internalType": "address",
          "name": "account",
          "type": "address"
        }
      ],
      "name": "Unpaused",
      "type": "event"
    },
    {
      "inputs": [
        {
          "internalType": "uint256",
          "name": "_newFrequence",
          "type": "uint256"
        }
      ],
      "name": "changeGameFrequence",
      "outputs": [],
      "stateMutability": "nonpayable",
      "type": "function"
    },
    {
      "inputs": [
        {
          "internalType": "address",
          "name": "_newRecorderAddress",
          "type": "address"
        }
      ],
      "name": "changeRecorder",
      "outputs": [],
      "stateMutability": "nonpayable",
      "type": "function"
    },
    {
      "inputs": [
        {
          "internalType": "uint256",
          "name": "",
          "type": "uint256"
        }
      ],
      "name": "contestsResult",
      "outputs": [
        {
          "internalType": "uint256",
          "name": "idContest",
          "type": "uint256"
        },
        {
          "internalType": "address",
          "name": "player",
          "type": "address"
        },
        {
          "internalType": "uint256",
          "name": "score",
          "type": "uint256"
        }
      ],
      "stateMutability": "view",
      "type": "function"
    },
    {
      "inputs": [
        {
          "internalType": "uint256",
          "name": "_idContest",
          "type": "uint256"
        },
        {
          "internalType": "address",
          "name": "_player",
          "type": "address"
        }
      ],
      "name": "getContestRank",
      "outputs": [
        {
          "internalType": "uint256",
          "name": "",
          "type": "uint256"
        }
      ],
      "stateMutability": "view",
      "type": "function"
    },
    {
      "inputs": [],
      "name": "getEndOfContest",
      "outputs": [
        {
          "internalType": "uint256",
          "name": "",
          "type": "uint256"
        }
      ],
      "stateMutability": "view",
      "type": "function"
    },
    {
      "inputs": [],
      "name": "getIdContest",
      "outputs": [
        {
          "internalType": "uint256",
          "name": "",
          "type": "uint256"
        }
      ],
      "stateMutability": "view",
      "type": "function"
    },
    {
      "inputs": [],
      "name": "getListScores",
      "outputs": [
        {
          "components": [
            {
              "internalType": "uint256",
              "name": "idContest",
              "type": "uint256"
            },
            {
              "internalType": "address",
              "name": "player",
              "type": "address"
            },
            {
              "internalType": "uint256",
              "name": "score",
              "type": "uint256"
            }
          ],
          "internalType": "struct NpngGame.ContestsResult[]",
          "name": "",
          "type": "tuple[]"
        }
      ],
      "stateMutability": "view",
      "type": "function"
    },
    {
      "inputs": [
        {
          "internalType": "uint256",
          "name": "",
          "type": "uint256"
        }
      ],
      "name": "numberOfPlayersPerContest",
      "outputs": [
        {
          "internalType": "uint256",
          "name": "",
          "type": "uint256"
        }
      ],
      "stateMutability": "view",
      "type": "function"
    },
    {
      "inputs": [],
      "name": "owner",
      "outputs": [
        {
          "internalType": "address",
          "name": "",
          "type": "address"
        }
      ],
      "stateMutability": "view",
      "type": "function"
    },
    {
      "inputs": [],
      "name": "pause",
      "outputs": [],
      "stateMutability": "nonpayable",
      "type": "function"
    },
    {
      "inputs": [],
      "name": "paused",
      "outputs": [
        {
          "internalType": "bool",
          "name": "",
          "type": "bool"
        }
      ],
      "stateMutability": "view",
      "type": "function"
    },
    {
      "inputs": [],
      "name": "renounceOwnership",
      "outputs": [],
      "stateMutability": "nonpayable",
      "type": "function"
    },
    {
      "inputs": [
        {
          "internalType": "address",
          "name": "_player",
          "type": "address"
        },
        {
          "internalType": "uint256",
          "name": "_score",
          "type": "uint256"
        }
      ],
      "name": "saveScore",
      "outputs": [],
      "stateMutability": "nonpayable",
      "type": "function"
    },
    {
      "inputs": [
        {
          "internalType": "address",
          "name": "newOwner",
          "type": "address"
        }
      ],
      "name": "transferOwnership",
      "outputs": [],
      "stateMutability": "nonpayable",
      "type": "function"
    },
    {
      "inputs": [],
      "name": "unpause",
      "outputs": [],
      "stateMutability": "nonpayable",
      "type": "function"
    }
  ],
  "bytecode": "0x608060405234801561001057600080fd5b5060008060006101000a81548160ff02191690831515021790555061004761003c6100a560201b60201c565b6100ad60201b60201c565b42600681905550600160058190555061012c60048190555030600760006101000a81548173ffffffffffffffffffffffffffffffffffffffff021916908373ffffffffffffffffffffffffffffffffffffffff160217905550610172565b600033905090565b60008060019054906101000a900473ffffffffffffffffffffffffffffffffffffffff16905081600060016101000a81548173ffffffffffffffffffffffffffffffffffffffff021916908373ffffffffffffffffffffffffffffffffffffffff1602179055508173ffffffffffffffffffffffffffffffffffffffff168173ffffffffffffffffffffffffffffffffffffffff167f8be0079c531659141344cd1fd0a4f28419497f9722a3daafe3b4186f6b6457e060405160405180910390a35050565b6114ae806101816000396000f3fe608060405234801561001057600080fd5b50600436106100f55760003560e01c80638da5cb5b11610097578063e064613e11610066578063e064613e1461022c578063e9d6999014610248578063f2fbee3f14610278578063f2fde38b14610294576100f5565b80638da5cb5b146101a2578063c85785d6146101c0578063cad7ebce146101de578063ddb01a521461020e576100f5565b80635c975abb116100d35780635c975abb14610154578063695a651714610172578063715018a61461018e5780638456cb5914610198576100f5565b806312b946bc146100fa5780631b922c09146101185780633f4ba83a1461014a575b600080fd5b6101026102b0565b60405161010f9190610d01565b60405180910390f35b610132600480360381019061012d9190610d4d565b6102cc565b60405161014193929190610dbb565b60405180910390f35b610152610326565b005b61015c610338565b6040516101699190610e0d565b60405180910390f35b61018c60048036038101906101879190610e54565b61034e565b005b610196610688565b005b6101a061069c565b005b6101aa6106ae565b6040516101b79190610e94565b60405180910390f35b6101c86106d7565b6040516101d59190610d01565b60405180910390f35b6101f860048036038101906101f39190610eaf565b6106e1565b6040516102059190610d01565b60405180910390f35b610216610884565b6040516102239190610ffe565b60405180910390f35b61024660048036038101906102419190611020565b61094d565b005b610262600480360381019061025d9190610d4d565b610999565b60405161026f9190610d01565b60405180910390f35b610292600480360381019061028d9190610d4d565b6109b1565b005b6102ae60048036038101906102a99190611020565b6109c3565b005b6000806004546006546102c3919061107c565b90508091505090565b600181815481106102dc57600080fd5b90600052602060002090600302016000915090508060000154908060010160009054906101000a900473ffffffffffffffffffffffffffffffffffffffff16908060020154905083565b61032e610a46565b610336610ac4565b565b60008060009054906101000a900460ff16905090565b600760009054906101000a900473ffffffffffffffffffffffffffffffffffffffff1673ffffffffffffffffffffffffffffffffffffffff163373ffffffffffffffffffffffffffffffffffffffff16146103de576040517f08c379a00000000000000000000000000000000000000000000000000000000081526004016103d590611133565b60405180910390fd5b60011515600360008473ffffffffffffffffffffffffffffffffffffffff1673ffffffffffffffffffffffffffffffffffffffff1681526020019081526020016000206000600554815260200190815260200160002060000160009054906101000a900460ff16151514610487576040517f08c379a000000000000000000000000000000000000000000000000000000000815260040161047e9061119f565b60405180910390fd5b60001515600360008473ffffffffffffffffffffffffffffffffffffffff1673ffffffffffffffffffffffffffffffffffffffff1681526020019081526020016000206000600554815260200190815260200160002060000160019054906101000a900460ff16151514610530576040517f08c379a00000000000000000000000000000000000000000000000000000000081526004016105279061120b565b60405180910390fd5b6001604051806060016040528060055481526020018473ffffffffffffffffffffffffffffffffffffffff1681526020018381525090806001815401808255809150506001900390600052602060002090600302016000909190919091506000820151816000015560208201518160010160006101000a81548173ffffffffffffffffffffffffffffffffffffffff021916908373ffffffffffffffffffffffffffffffffffffffff1602179055506040820151816002015550506001600360008473ffffffffffffffffffffffffffffffffffffffff1673ffffffffffffffffffffffffffffffffffffffff1681526020019081526020016000206000600554815260200190815260200160002060000160016101000a81548160ff021916908315150217905550600260006005548152602001908152602001600020600081548092919061067f9061122b565b91905055505050565b610690610a46565b61069a6000610b26565b565b6106a4610a46565b6106ac610beb565b565b60008060019054906101000a900473ffffffffffffffffffffffffffffffffffffffff16905090565b6000600554905090565b6000806000806001905060005b6001805490508110156107e7576001818154811061070f5761070e611273565b5b9060005260206000209060030201600001548714801561079f57506001818154811061073e5761073d611273565b5b906000526020600020906003020160010160009054906101000a900473ffffffffffffffffffffffffffffffffffffffff1673ffffffffffffffffffffffffffffffffffffffff168673ffffffffffffffffffffffffffffffffffffffff16145b156107d457809350600181815481106107bb576107ba611273565b5b90600052602060002090600302016002015492506107e7565b80806107df9061122b565b9150506106ee565b5060005b600180549050811015610877576001818154811061080c5761080b611273565b5b9060005260206000209060030201600001548714801561085057506001818154811061083b5761083a611273565b5b90600052602060002090600302016002015483115b156108645781806108609061122b565b9250505b808061086f9061122b565b9150506107eb565b5080935050505092915050565b60606001805480602002602001604051908101604052809291908181526020016000905b828210156109445783829060005260206000209060030201604051806060016040529081600082015481526020016001820160009054906101000a900473ffffffffffffffffffffffffffffffffffffffff1673ffffffffffffffffffffffffffffffffffffffff1673ffffffffffffffffffffffffffffffffffffffff168152602001600282015481525050815260200190600101906108a8565b50505050905090565b610955610a46565b80600760006101000a81548173ffffffffffffffffffffffffffffffffffffffff021916908373ffffffffffffffffffffffffffffffffffffffff16021790555050565b60026020528060005260406000206000915090505481565b6109b9610a46565b8060048190555050565b6109cb610a46565b600073ffffffffffffffffffffffffffffffffffffffff168173ffffffffffffffffffffffffffffffffffffffff1603610a3a576040517f08c379a0000000000000000000000000000000000000000000000000000000008152600401610a3190611314565b60405180910390fd5b610a4381610b26565b50565b610a4e610c4d565b73ffffffffffffffffffffffffffffffffffffffff16610a6c6106ae565b73ffffffffffffffffffffffffffffffffffffffff1614610ac2576040517f08c379a0000000000000000000000000000000000000000000000000000000008152600401610ab990611380565b60405180910390fd5b565b610acc610c55565b60008060006101000a81548160ff0219169083151502179055507f5db9ee0a495bf2e6ff9c91a7834c1ba4fdd244a5e8aa4e537bd38aeae4b073aa610b0f610c4d565b604051610b1c9190610e94565b60405180910390a1565b60008060019054906101000a900473ffffffffffffffffffffffffffffffffffffffff16905081600060016101000a81548173ffffffffffffffffffffffffffffffffffffffff021916908373ffffffffffffffffffffffffffffffffffffffff1602179055508173ffffffffffffffffffffffffffffffffffffffff168173ffffffffffffffffffffffffffffffffffffffff167f8be0079c531659141344cd1fd0a4f28419497f9722a3daafe3b4186f6b6457e060405160405180910390a35050565b610bf3610c9e565b60016000806101000a81548160ff0219169083151502179055507f62e78cea01bee320cd4e420270b5ea74000d11b0c9f74754ebdbfc544b05a258610c36610c4d565b604051610c439190610e94565b60405180910390a1565b600033905090565b610c5d610338565b610c9c576040517f08c379a0000000000000000000000000000000000000000000000000000000008152600401610c93906113ec565b60405180910390fd5b565b610ca6610338565b15610ce6576040517f08c379a0000000000000000000000000000000000000000000000000000000008152600401610cdd90611458565b60405180910390fd5b565b6000819050919050565b610cfb81610ce8565b82525050565b6000602082019050610d166000830184610cf2565b92915050565b600080fd5b610d2a81610ce8565b8114610d3557600080fd5b50565b600081359050610d4781610d21565b92915050565b600060208284031215610d6357610d62610d1c565b5b6000610d7184828501610d38565b91505092915050565b600073ffffffffffffffffffffffffffffffffffffffff82169050919050565b6000610da582610d7a565b9050919050565b610db581610d9a565b82525050565b6000606082019050610dd06000830186610cf2565b610ddd6020830185610dac565b610dea6040830184610cf2565b949350505050565b60008115159050919050565b610e0781610df2565b82525050565b6000602082019050610e226000830184610dfe565b92915050565b610e3181610d9a565b8114610e3c57600080fd5b50565b600081359050610e4e81610e28565b92915050565b60008060408385031215610e6b57610e6a610d1c565b5b6000610e7985828601610e3f565b9250506020610e8a85828601610d38565b9150509250929050565b6000602082019050610ea96000830184610dac565b92915050565b60008060408385031215610ec657610ec5610d1c565b5b6000610ed485828601610d38565b9250506020610ee585828601610e3f565b9150509250929050565b600081519050919050565b600082825260208201905092915050565b6000819050602082019050919050565b610f2481610ce8565b82525050565b610f3381610d9a565b82525050565b606082016000820151610f4f6000850182610f1b565b506020820151610f626020850182610f2a565b506040820151610f756040850182610f1b565b50505050565b6000610f878383610f39565b60608301905092915050565b6000602082019050919050565b6000610fab82610eef565b610fb58185610efa565b9350610fc083610f0b565b8060005b83811015610ff1578151610fd88882610f7b565b9750610fe383610f93565b925050600181019050610fc4565b5085935050505092915050565b600060208201905081810360008301526110188184610fa0565b905092915050565b60006020828403121561103657611035610d1c565b5b600061104484828501610e3f565b91505092915050565b7f4e487b7100000000000000000000000000000000000000000000000000000000600052601160045260246000fd5b600061108782610ce8565b915061109283610ce8565b92508282019050808211156110aa576110a961104d565b5b92915050565b600082825260208201905092915050565b7f596f7520617265206e6f7420616c6c6f77656420746f2073617665206120736360008201527f6f72652100000000000000000000000000000000000000000000000000000000602082015250565b600061111d6024836110b0565b9150611128826110c1565b604082019050919050565b6000602082019050818103600083015261114c81611110565b9050919050565b7f4e6f20726571756573742066726f6d20706c6179657200000000000000000000600082015250565b60006111896016836110b0565b915061119482611153565b602082019050919050565b600060208201905081810360008301526111b88161117c565b9050919050565b7f506c6179657220616c726561647920706c617965640000000000000000000000600082015250565b60006111f56015836110b0565b9150611200826111bf565b602082019050919050565b60006020820190508181036000830152611224816111e8565b9050919050565b600061123682610ce8565b91507fffffffffffffffffffffffffffffffffffffffffffffffffffffffffffffffff82036112685761126761104d565b5b600182019050919050565b7f4e487b7100000000000000000000000000000000000000000000000000000000600052603260045260246000fd5b7f4f776e61626c653a206e6577206f776e657220697320746865207a65726f206160008201527f6464726573730000000000000000000000000000000000000000000000000000602082015250565b60006112fe6026836110b0565b9150611309826112a2565b604082019050919050565b6000602082019050818103600083015261132d816112f1565b9050919050565b7f4f776e61626c653a2063616c6c6572206973206e6f7420746865206f776e6572600082015250565b600061136a6020836110b0565b915061137582611334565b602082019050919050565b600060208201905081810360008301526113998161135d565b9050919050565b7f5061757361626c653a206e6f7420706175736564000000000000000000000000600082015250565b60006113d66014836110b0565b91506113e1826113a0565b602082019050919050565b60006020820190508181036000830152611405816113c9565b9050919050565b7f5061757361626c653a2070617573656400000000000000000000000000000000600082015250565b60006114426010836110b0565b915061144d8261140c565b602082019050919050565b6000602082019050818103600083015261147181611435565b905091905056fea2646970667358221220b525ec9ccbe62802df9277c8033b8926ba0741e2c605ab10cab4c88f8e40407264736f6c63430008110033",
  "linkReferences": {},
  "deployedLinkReferences": {}
}