{
  "_format": "hh-sol-artifact-1",
  "contractName": "NpngPool",
  "sourceName": "contracts/NpngPool.sol",
  "abi": [
    {
      "inputs": [],
      "stateMutability": "nonpayable",
      "type": "constructor"
    },
    {
      "anonymous": false,
      "inputs": [
        {
          "indexed": true,
          "internalType": "address",
          "name": "previousOwner",
          "type": "address"
        },
        {
          "indexed": true,
          "internalType": "address",
          "name": "newOwner",
          "type": "address"
        }
      ],
      "name": "OwnershipTransferred",
      "type": "event"
    },
    {
      "anonymous": false,
      "inputs": [
        {
          "indexed": false,
          "internalType": "address",
          "name": "account",
          "type": "address"
        }
      ],
      "name": "Paused",
      "type": "event"
    },
    {
      "anonymous": false,
      "inputs": [
        {
          "indexed": false,
          "internalType": "address",
          "name": "account",
          "type": "address"
        }
      ],
      "name": "Unpaused",
      "type": "event"
    },
    {
      "inputs": [
        {
          "internalType": "uint256",
          "name": "_newFrequence",
          "type": "uint256"
        }
      ],
      "name": "changeGameFrequence",
      "outputs": [],
      "stateMutability": "nonpayable",
      "type": "function"
    },
    {
      "inputs": [
        {
          "internalType": "address",
          "name": "_newAddress",
          "type": "address"
        }
      ],
      "name": "changeNpngTokenAddress",
      "outputs": [],
      "stateMutability": "nonpayable",
      "type": "function"
    },
    {
      "inputs": [
        {
          "internalType": "address",
          "name": "_newRecorderAddress",
          "type": "address"
        }
      ],
      "name": "changeRecorder",
      "outputs": [],
      "stateMutability": "nonpayable",
      "type": "function"
    },
    {
      "inputs": [],
      "name": "claim",
      "outputs": [],
      "stateMutability": "nonpayable",
      "type": "function"
    },
    {
      "inputs": [
        {
          "internalType": "uint256",
          "name": "_amount",
          "type": "uint256"
        }
      ],
      "name": "depositOnAave",
      "outputs": [],
      "stateMutability": "nonpayable",
      "type": "function"
    },
    {
      "inputs": [
        {
          "internalType": "address",
          "name": "_player",
          "type": "address"
        }
      ],
      "name": "getAccountTable",
      "outputs": [
        {
          "components": [
            {
              "internalType": "uint256",
              "name": "idContest",
              "type": "uint256"
            },
            {
              "internalType": "uint256",
              "name": "rank",
              "type": "uint256"
            },
            {
              "internalType": "uint256",
              "name": "participant",
              "type": "uint256"
            }
          ],
          "internalType": "struct NpngGame.AccountTable[10]",
          "name": "",
          "type": "tuple[10]"
        }
      ],
      "stateMutability": "view",
      "type": "function"
    },
    {
      "inputs": [
        {
          "internalType": "uint256",
          "name": "_idContest",
          "type": "uint256"
        },
        {
          "internalType": "address",
          "name": "_player",
          "type": "address"
        }
      ],
      "name": "getContestRank",
      "outputs": [
        {
          "internalType": "uint256",
          "name": "",
          "type": "uint256"
        }
      ],
      "stateMutability": "view",
      "type": "function"
    },
    {
      "inputs": [],
      "name": "getContestsResult",
      "outputs": [
        {
          "components": [
            {
              "internalType": "uint256",
              "name": "idContest",
              "type": "uint256"
            },
            {
              "internalType": "address",
              "name": "player",
              "type": "address"
            },
            {
              "internalType": "uint256",
              "name": "score",
              "type": "uint256"
            },
            {
              "internalType": "uint256",
              "name": "balancePlayer",
              "type": "uint256"
            }
          ],
          "internalType": "struct NpngGame.ContestsResult[]",
          "name": "",
          "type": "tuple[]"
        }
      ],
      "stateMutability": "view",
      "type": "function"
    },
    {
      "inputs": [],
      "name": "getCurrentContestClaimedRewards",
      "outputs": [
        {
          "internalType": "uint256",
          "name": "",
          "type": "uint256"
        }
      ],
      "stateMutability": "view",
      "type": "function"
    },
    {
      "inputs": [],
      "name": "getEndOfContest",
      "outputs": [
        {
          "internalType": "uint256",
          "name": "",
          "type": "uint256"
        }
      ],
      "stateMutability": "view",
      "type": "function"
    },
    {
      "inputs": [],
      "name": "getIdContest",
      "outputs": [
        {
          "internalType": "uint256",
          "name": "",
          "type": "uint256"
        }
      ],
      "stateMutability": "view",
      "type": "function"
    },
    {
      "inputs": [
        {
          "internalType": "address",
          "name": "_player",
          "type": "address"
        }
      ],
      "name": "getLast10ContestsRank",
      "outputs": [
        {
          "components": [
            {
              "internalType": "uint256",
              "name": "idContest",
              "type": "uint256"
            },
            {
              "internalType": "uint256",
              "name": "rank",
              "type": "uint256"
            }
          ],
          "internalType": "struct NpngGame.RankPerContest[10]",
          "name": "",
          "type": "tuple[10]"
        }
      ],
      "stateMutability": "view",
      "type": "function"
    },
    {
      "inputs": [],
      "name": "getListNbPlayers10LastContests",
      "outputs": [
        {
          "components": [
            {
              "internalType": "uint256",
              "name": "idContest",
              "type": "uint256"
            },
            {
              "internalType": "uint256",
              "name": "nbPlayers",
              "type": "uint256"
            }
          ],
          "internalType": "struct NpngGame.ListNbPlayersPerContest[10]",
          "name": "",
          "type": "tuple[10]"
        }
      ],
      "stateMutability": "view",
      "type": "function"
    },
    {
      "inputs": [],
      "name": "getListScores",
      "outputs": [
        {
          "components": [
            {
              "internalType": "uint256",
              "name": "idContest",
              "type": "uint256"
            },
            {
              "internalType": "address",
              "name": "player",
              "type": "address"
            },
            {
              "internalType": "uint256",
              "name": "score",
              "type": "uint256"
            },
            {
              "internalType": "uint256",
              "name": "balancePlayer",
              "type": "uint256"
            }
          ],
          "internalType": "struct NpngGame.ContestsResult[]",
          "name": "",
          "type": "tuple[]"
        }
      ],
      "stateMutability": "view",
      "type": "function"
    },
    {
      "inputs": [],
      "name": "getPendingRewards",
      "outputs": [
        {
          "internalType": "uint256",
          "name": "",
          "type": "uint256"
        }
      ],
      "stateMutability": "view",
      "type": "function"
    },
    {
      "inputs": [],
      "name": "getPlay",
      "outputs": [],
      "stateMutability": "nonpayable",
      "type": "function"
    },
    {
      "inputs": [],
      "name": "getPoolStatus",
      "outputs": [
        {
          "components": [
            {
              "internalType": "uint256",
              "name": "idContest",
              "type": "uint256"
            },
            {
              "internalType": "uint256",
              "name": "endContestPoolValue",
              "type": "uint256"
            },
            {
              "internalType": "uint256",
              "name": "endContestAavePoolValue",
              "type": "uint256"
            },
            {
              "internalType": "uint256",
              "name": "prizePool",
              "type": "uint256"
            },
            {
              "internalType": "uint256",
              "name": "cumulatedPoolPrizes",
              "type": "uint256"
            },
            {
              "internalType": "uint256",
              "name": "claimedRewards",
              "type": "uint256"
            },
            {
              "internalType": "uint256",
              "name": "winnersDeposit",
              "type": "uint256"
            }
          ],
          "internalType": "struct NpngPool.PoolStatus[]",
          "name": "",
          "type": "tuple[]"
        }
      ],
      "stateMutability": "view",
      "type": "function"
    },
    {
      "inputs": [
        {
          "internalType": "uint256",
          "name": "_idContest",
          "type": "uint256"
        },
        {
          "internalType": "address",
          "name": "_player",
          "type": "address"
        }
      ],
      "name": "getRewardsPerPlayer",
      "outputs": [
        {
          "internalType": "uint256",
          "name": "",
          "type": "uint256"
        }
      ],
      "stateMutability": "view",
      "type": "function"
    },
    {
      "inputs": [
        {
          "internalType": "address",
          "name": "_account",
          "type": "address"
        }
      ],
      "name": "getTotalClaimedRewards",
      "outputs": [
        {
          "internalType": "uint256",
          "name": "",
          "type": "uint256"
        }
      ],
      "stateMutability": "view",
      "type": "function"
    },
    {
      "inputs": [
        {
          "internalType": "address",
          "name": "_account",
          "type": "address"
        }
      ],
      "name": "getUserBalance",
      "outputs": [
        {
          "internalType": "uint256",
          "name": "",
          "type": "uint256"
        }
      ],
      "stateMutability": "view",
      "type": "function"
    },
    {
      "inputs": [],
      "name": "getWinnersDeposit",
      "outputs": [
        {
          "internalType": "uint256",
          "name": "",
          "type": "uint256"
        }
      ],
      "stateMutability": "view",
      "type": "function"
    },
    {
      "inputs": [],
      "name": "interestEarned",
      "outputs": [
        {
          "internalType": "uint256",
          "name": "",
          "type": "uint256"
        }
      ],
      "stateMutability": "view",
      "type": "function"
    },
    {
      "inputs": [
        {
          "internalType": "uint256",
          "name": "",
          "type": "uint256"
        }
      ],
      "name": "numberOfPlayersPerContest",
      "outputs": [
        {
          "internalType": "uint256",
          "name": "",
          "type": "uint256"
        }
      ],
      "stateMutability": "view",
      "type": "function"
    },
    {
      "inputs": [],
      "name": "owner",
      "outputs": [
        {
          "internalType": "address",
          "name": "",
          "type": "address"
        }
      ],
      "stateMutability": "view",
      "type": "function"
    },
    {
      "inputs": [],
      "name": "pause",
      "outputs": [],
      "stateMutability": "nonpayable",
      "type": "function"
    },
    {
      "inputs": [],
      "name": "paused",
      "outputs": [
        {
          "internalType": "bool",
          "name": "",
          "type": "bool"
        }
      ],
      "stateMutability": "view",
      "type": "function"
    },
    {
      "inputs": [],
      "name": "renounceOwnership",
      "outputs": [],
      "stateMutability": "nonpayable",
      "type": "function"
    },
    {
      "inputs": [
        {
          "internalType": "address",
          "name": "_player",
          "type": "address"
        },
        {
          "internalType": "uint256",
          "name": "_score",
          "type": "uint256"
        }
      ],
      "name": "saveScore",
      "outputs": [],
      "stateMutability": "nonpayable",
      "type": "function"
    },
    {
      "inputs": [
        {
          "internalType": "address",
          "name": "newOwner",
          "type": "address"
        }
      ],
      "name": "transferOwnership",
      "outputs": [],
      "stateMutability": "nonpayable",
      "type": "function"
    },
    {
      "inputs": [],
      "name": "unpause",
      "outputs": [],
      "stateMutability": "nonpayable",
      "type": "function"
    },
    {
      "inputs": [],
      "name": "updateContest",
      "outputs": [],
      "stateMutability": "nonpayable",
      "type": "function"
    },
    {
      "inputs": [
        {
          "internalType": "uint256",
          "name": "_amount",
          "type": "uint256"
        }
      ],
      "name": "withdraw",
      "outputs": [],
      "stateMutability": "nonpayable",
      "type": "function"
    }
  ],
  "bytecode": "0x60806040523480156200001157600080fd5b5060008060006101000a81548160ff0219169083151502179055506200004c62000040620002ae60201b60201c565b620002b660201b60201c565b426007819055506001600681905550610e1060048190555061dead600860006101000a81548173ffffffffffffffffffffffffffffffffffffffff021916908373ffffffffffffffffffffffffffffffffffffffff16021790555073a2025b15a1757311bfd68cb14eaefcc237af5b43601060006101000a81548173ffffffffffffffffffffffffffffffffffffffff021916908373ffffffffffffffffffffffffffffffffffffffff16021790555073368eedf3f56ad10b9bc57eed4dac65b26bb667f6601360006101000a81548173ffffffffffffffffffffffffffffffffffffffff021916908373ffffffffffffffffffffffffffffffffffffffff160217905550731ee669290939f8a8864497af3bc83728715265ff601160006101000a81548173ffffffffffffffffffffffffffffffffffffffff021916908373ffffffffffffffffffffffffffffffffffffffff160217905550738ad6d963600f5c45dabd5ff6faa04d51a6d549f0601260006101000a81548173ffffffffffffffffffffffffffffffffffffffff021916908373ffffffffffffffffffffffffffffffffffffffff16021790555060096040518060e0016040528060008152602001600081526020016000815260200160008152602001600081526020016000815260200160008152509080600181540180825580915050600190039060005260206000209060070201600090919091909150600082015181600001556020820151816001015560408201518160020155606082015181600301556080820151816004015560a0820151816005015560c0820151816006015550506200037b565b600033905090565b60008060019054906101000a900473ffffffffffffffffffffffffffffffffffffffff16905081600060016101000a81548173ffffffffffffffffffffffffffffffffffffffff021916908373ffffffffffffffffffffffffffffffffffffffff1602179055508173ffffffffffffffffffffffffffffffffffffffff168173ffffffffffffffffffffffffffffffffffffffff167f8be0079c531659141344cd1fd0a4f28419497f9722a3daafe3b4186f6b6457e060405160405180910390a35050565b613d68806200038b6000396000f3fe608060405234801561001057600080fd5b50600436106101f05760003560e01c80638456cb591161010f578063d9621f9e116100a2578063e9d6999011610071578063e9d6999014610529578063f2fbee3f14610559578063f2fde38b14610575578063fd8d190914610591576101f0565b8063d9621f9e146104b3578063ddb01a52146104d1578063e064613e146104ef578063e864d0001461050b576101f0565b8063b604e751116100de578063b604e75114610417578063bb2922e614610435578063c85785d614610465578063cad7ebce14610483576101f0565b80638456cb59146103a15780638da5cb5b146103ab5780639cfc8b8c146103c95780639ddd799e146103f9576101f0565b80634e499acd11610187578063695a651711610156578063695a651714610341578063715018a61461035d5780637f79496c146103675780638347f53614610385576101f0565b80634e499acd146102f15780634e71d92d146102fb5780635c975abb146103055780635d49451014610323576101f0565b80632e1a7d4d116101c35780632e1a7d4d1461027d578063374261ab146102995780633f4ba83a146102b757806347734892146102c1576101f0565b80630bd5d284146101f557806312b946bc146101ff5780631613146b1461021d5780631eadace91461024d575b600080fd5b6101fd6105ad565b005b610207610639565b60405161021491906129b5565b60405180910390f35b61023760048036038101906102329190612a33565b610655565b6040516102449190612b3a565b60405180910390f35b61026760048036038101906102629190612b82565b610705565b60405161027491906129b5565b60405180910390f35b61029760048036038101906102929190612bc2565b61091d565b005b6102a1610c84565b6040516102ae91906129b5565b60405180910390f35b6102bf610d34565b005b6102db60048036038101906102d69190612a33565b610d46565b6040516102e891906129b5565b60405180910390f35b6102f9610d8f565b005b610303611000565b005b61030d611203565b60405161031a9190612c0a565b60405180910390f35b61032b611219565b6040516103389190612cf0565b60405180910390f35b61035b60048036038101906103569190612d0c565b6112d1565b005b61036561165a565b005b61036f61166e565b60405161037c9190612e89565b60405180910390f35b61039f600480360381019061039a9190612a33565b611713565b005b6103a961175f565b005b6103b3611771565b6040516103c09190612eba565b60405180910390f35b6103e360048036038101906103de9190612a33565b61179a565b6040516103f091906129b5565b60405180910390f35b6104016117e3565b60405161040e9190612fe8565b60405180910390f35b61041f6118b6565b60405161042c91906129b5565b60405180910390f35b61044f600480360381019061044a9190612a33565b6118c0565b60405161045c91906130e8565b60405180910390f35b61046d61198d565b60405161047a91906129b5565b60405180910390f35b61049d60048036038101906104989190612b82565b611997565b6040516104aa91906129b5565b60405180910390f35b6104bb611b60565b6040516104c891906129b5565b60405180910390f35b6104d9611c23565b6040516104e69190612fe8565b60405180910390f35b61050960048036038101906105049190612a33565b611cf6565b005b610513611d42565b60405161052091906129b5565b60405180910390f35b610543600480360381019061053e9190612bc2565b611e34565b60405161055091906129b5565b60405180910390f35b610573600480360381019061056e9190612bc2565b611e4c565b005b61058f600480360381019061058a9190612a33565b611e5e565b005b6105ab60048036038101906105a69190612bc2565b611ee1565b005b6000600a60003373ffffffffffffffffffffffffffffffffffffffff1673ffffffffffffffffffffffffffffffffffffffff168152602001908152602001600020541161062f576040517f08c379a000000000000000000000000000000000000000000000000000000000815260040161062690613161565b60405180910390fd5b610637612459565b565b60008060045460075461064c91906131b0565b90508091505090565b61065d6128bd565b6106656128bd565b600080600a600654101561067d576006549050610682565b600a90505b600060065490505b8160065461069891906131e4565b8111156106f95760405180604001604052808281526020016106ba8389611997565b8152508484600a81106106d0576106cf613218565b5b602002018190525082806106e390613247565b93505080806106f19061328f565b91505061068a565b50829350505050919050565b6000826006541161074b576040517f08c379a000000000000000000000000000000000000000000000000000000000815260040161074290613304565b60405180910390fd5b6000806107588585611997565b9050600080600090505b60018054905081101561085857866001828154811061078457610783613218565b5b90600052602060002090600402016000015414801561081357508573ffffffffffffffffffffffffffffffffffffffff16600182815481106107c9576107c8613218565b5b906000526020600020906004020160010160009054906101000a900473ffffffffffffffffffffffffffffffffffffffff1673ffffffffffffffffffffffffffffffffffffffff16145b15610845576001818154811061082c5761082b613218565b5b9060005260206000209060040201600301549150610858565b808061085090613247565b915050610762565b50600a821161090c57662386f26fc10000600583606561087891906131e4565b6108829190613464565b6009888154811061089657610895613218565b5b906000526020600020906007020160060154620f4240846108b791906134af565b6108c19190613520565b600989815481106108d5576108d4613218565b5b9060005260206000209060070201600301546108f191906134af565b6108fb91906134af565b6109059190613520565b9250610911565b600092505b82935050505092915050565b80600a60003373ffffffffffffffffffffffffffffffffffffffff1673ffffffffffffffffffffffffffffffffffffffff16815260200190815260200160002054101561099f576040517f08c379a00000000000000000000000000000000000000000000000000000000081526004016109969061359d565b60405180910390fd5b6006546002600c60003373ffffffffffffffffffffffffffffffffffffffff1673ffffffffffffffffffffffffffffffffffffffff168152602001908152602001600020546109ee91906131b0565b1115610a2f576040517f08c379a0000000000000000000000000000000000000000000000000000000008152600401610a269061362f565b60405180910390fd5b601360009054906101000a900473ffffffffffffffffffffffffffffffffffffffff1673ffffffffffffffffffffffffffffffffffffffff166369328dec601060009054906101000a900473ffffffffffffffffffffffffffffffffffffffff1683306040518463ffffffff1660e01b8152600401610ab09392919061364f565b600060405180830381600087803b158015610aca57600080fd5b505af1158015610ade573d6000803e3d6000fd5b50505050601060009054906101000a900473ffffffffffffffffffffffffffffffffffffffff1673ffffffffffffffffffffffffffffffffffffffff1663a9059cbb33836040518363ffffffff1660e01b8152600401610b3f929190613686565b6020604051808303816000875af1158015610b5e573d6000803e3d6000fd5b505050506040513d601f19601f82011682018060405250810190610b8291906136db565b5080600a60003373ffffffffffffffffffffffffffffffffffffffff1673ffffffffffffffffffffffffffffffffffffffff1681526020019081526020016000206000828254610bd291906131e4565b9250508190555080600b6000828254610beb91906131e4565b92505081905550601260009054906101000a900473ffffffffffffffffffffffffffffffffffffffff1673ffffffffffffffffffffffffffffffffffffffff16639dc29fac33836040518363ffffffff1660e01b8152600401610c4f929190613686565b600060405180830381600087803b158015610c6957600080fd5b505af1158015610c7d573d6000803e3d6000fd5b5050505050565b6000600b54601160009054906101000a900473ffffffffffffffffffffffffffffffffffffffff1673ffffffffffffffffffffffffffffffffffffffff166370a08231306040518263ffffffff1660e01b8152600401610ce49190612eba565b602060405180830381865afa158015610d01573d6000803e3d6000fd5b505050506040513d601f19601f82011682018060405250810190610d25919061371d565b610d2f91906131e4565b905090565b610d3c61261b565b610d44612699565b565b6000600a60008373ffffffffffffffffffffffffffffffffffffffff1673ffffffffffffffffffffffffffffffffffffffff168152602001908152602001600020549050919050565b600454600754610d9f91906131b0565b421015610de1576040517f08c379a0000000000000000000000000000000000000000000000000000000008152600401610dd890613796565b60405180910390fd5b42600781905550600060096001600654610dfb91906131e4565b81548110610e0c57610e0b613218565b5b9060005260206000209060070201600401549050600060096001600654610e3391906131e4565b81548110610e4457610e43613218565b5b906000526020600020906007020160050154600e54610e6391906131b0565b90506000600e819055506000601160009054906101000a900473ffffffffffffffffffffffffffffffffffffffff1673ffffffffffffffffffffffffffffffffffffffff166370a08231306040518263ffffffff1660e01b8152600401610eca9190612eba565b602060405180830381865afa158015610ee7573d6000803e3d6000fd5b505050506040513d601f19601f82011682018060405250810190610f0b919061371d565b905060096040518060e001604052806006548152602001600b54815260200183815260200185600b5485610f3f91906131e4565b610f4991906131e4565b8152602001600b5484610f5c91906131e4565b8152602001848152602001610f6f611d42565b8152509080600181540180825580915050600190039060005260206000209060070201600090919091909150600082015181600001556020820151816001015560408201518160020155606082015181600301556080820151816004015560a0820151816005015560c08201518160060155505060066000815480929190610ff690613247565b9190505550505050565b600080600160065461101291906131e4565b90505b60008111156111215760011515600360003373ffffffffffffffffffffffffffffffffffffffff1673ffffffffffffffffffffffffffffffffffffffff168152602001908152602001600020600083815260200190815260200160002060000160029054906101000a900460ff1615150315611121576110958133610705565b826110a091906131b0565b91506001600360003373ffffffffffffffffffffffffffffffffffffffff1673ffffffffffffffffffffffffffffffffffffffff168152602001908152602001600020600083815260200190815260200160002060000160026101000a81548160ff02191690831515021790555080806111199061328f565b915050611015565b5080600a60003373ffffffffffffffffffffffffffffffffffffffff1673ffffffffffffffffffffffffffffffffffffffff168152602001908152602001600020600082825461117191906131b0565b9250508190555080600b600082825461118a91906131b0565b9250508190555080600e60008282546111a391906131b0565b9250508190555080600560003373ffffffffffffffffffffffffffffffffffffffff1673ffffffffffffffffffffffffffffffffffffffff16815260200190815260200160002060008282546111f991906131b0565b9250508190555050565b60008060009054906101000a900460ff16905090565b6112216128eb565b6112296128eb565b600080600a6006541015611241576006549050611246565b600a90505b600060065490505b8160065461125c91906131e4565b8111156112c757604051806040016040528082815260200160026000848152602001908152602001600020548152508484600a811061129e5761129d613218565b5b602002018190525082806112b190613247565b93505080806112bf9061328f565b91505061124e565b5082935050505090565b600860009054906101000a900473ffffffffffffffffffffffffffffffffffffffff1673ffffffffffffffffffffffffffffffffffffffff163373ffffffffffffffffffffffffffffffffffffffff1614611361576040517f08c379a000000000000000000000000000000000000000000000000000000000815260040161135890613828565b60405180910390fd5b60011515600360008473ffffffffffffffffffffffffffffffffffffffff1673ffffffffffffffffffffffffffffffffffffffff1681526020019081526020016000206000600654815260200190815260200160002060000160009054906101000a900460ff1615151461140a576040517f08c379a000000000000000000000000000000000000000000000000000000000815260040161140190613894565b60405180910390fd5b60001515600360008473ffffffffffffffffffffffffffffffffffffffff1673ffffffffffffffffffffffffffffffffffffffff1681526020019081526020016000206000600654815260200190815260200160002060000160019054906101000a900460ff161515146114b3576040517f08c379a00000000000000000000000000000000000000000000000000000000081526004016114aa90613900565b60405180910390fd5b6001604051806080016040528060065481526020018473ffffffffffffffffffffffffffffffffffffffff168152602001838152602001600a60008673ffffffffffffffffffffffffffffffffffffffff1673ffffffffffffffffffffffffffffffffffffffff1681526020019081526020016000205481525090806001815401808255809150506001900390600052602060002090600402016000909190919091506000820151816000015560208201518160010160006101000a81548173ffffffffffffffffffffffffffffffffffffffff021916908373ffffffffffffffffffffffffffffffffffffffff160217905550604082015181600201556060820151816003015550506001600360008473ffffffffffffffffffffffffffffffffffffffff1673ffffffffffffffffffffffffffffffffffffffff1681526020019081526020016000206000600654815260200190815260200160002060000160016101000a81548160ff021916908315150217905550600260006006548152602001908152602001600020600081548092919061165190613247565b91905055505050565b61166261261b565b61166c60006126fb565b565b60606009805480602002602001604051908101604052809291908181526020016000905b8282101561170a57838290600052602060002090600702016040518060e001604052908160008201548152602001600182015481526020016002820154815260200160038201548152602001600482015481526020016005820154815260200160068201548152505081526020019060010190611692565b50505050905090565b61171b61261b565b80601260006101000a81548173ffffffffffffffffffffffffffffffffffffffff021916908373ffffffffffffffffffffffffffffffffffffffff16021790555050565b61176761261b565b61176f6127c0565b565b60008060019054906101000a900473ffffffffffffffffffffffffffffffffffffffff16905090565b6000600560008373ffffffffffffffffffffffffffffffffffffffff1673ffffffffffffffffffffffffffffffffffffffff168152602001908152602001600020549050919050565b60606001805480602002602001604051908101604052809291908181526020016000905b828210156118ad5783829060005260206000209060040201604051806080016040529081600082015481526020016001820160009054906101000a900473ffffffffffffffffffffffffffffffffffffffff1673ffffffffffffffffffffffffffffffffffffffff1673ffffffffffffffffffffffffffffffffffffffff1681526020016002820154815260200160038201548152505081526020019060010190611807565b50505050905090565b6000600e54905090565b6118c8612919565b6118d0612919565b60008060009050600a60065410156118ec5760065491506118f1565b600a91505b600060065490505b8260065461190791906131e4565b8111156119815760405180606001604052808281526020016119298389611997565b815260200160026000848152602001908152602001600020548152508483600a811061195857611957613218565b5b6020020181905250818061196b90613247565b92505080806119799061328f565b9150506118f9565b50829350505050919050565b6000600654905090565b6000806000806001905060005b600180549050811015611ac257600181815481106119c5576119c4613218565b5b90600052602060002090600402016000015487148015611a555750600181815481106119f4576119f3613218565b5b906000526020600020906004020160010160009054906101000a900473ffffffffffffffffffffffffffffffffffffffff1673ffffffffffffffffffffffffffffffffffffffff168673ffffffffffffffffffffffffffffffffffffffff16145b15611a8a5780935060018181548110611a7157611a70613218565b5b9060005260206000209060040201600201549250611ac2565b600180549050600182611a9d91906131b0565b03611aaf576000945050505050611b5a565b8080611aba90613247565b9150506119a4565b5060005b600180549050811015611b525760018181548110611ae757611ae6613218565b5b90600052602060002090600402016000015487148015611b2b575060018181548110611b1657611b15613218565b5b90600052602060002090600402016002015483115b15611b3f578180611b3b90613247565b9250505b8080611b4a90613247565b915050611ac6565b508093505050505b92915050565b6000806000905060006001600654611b7891906131e4565b90505b6000811115611c1b5760011515600360003373ffffffffffffffffffffffffffffffffffffffff1673ffffffffffffffffffffffffffffffffffffffff168152602001908152602001600020600083815260200190815260200160002060000160029054906101000a900460ff1615150315611c1b57611bfb8133610705565b82611c0691906131b0565b91508080611c139061328f565b915050611b7b565b508091505090565b60606001805480602002602001604051908101604052809291908181526020016000905b82821015611ced5783829060005260206000209060040201604051806080016040529081600082015481526020016001820160009054906101000a900473ffffffffffffffffffffffffffffffffffffffff1673ffffffffffffffffffffffffffffffffffffffff1673ffffffffffffffffffffffffffffffffffffffff1681526020016002820154815260200160038201548152505081526020019060010190611c47565b50505050905090565b611cfe61261b565b80600860006101000a81548173ffffffffffffffffffffffffffffffffffffffff021916908373ffffffffffffffffffffffffffffffffffffffff16021790555050565b6000806000905060005b600180549050811015611e2c5760018181548110611d6d57611d6c613218565b5b906000526020600020906004020160000154600654148015611de05750600a611ddd60065460018481548110611da657611da5613218565b5b906000526020600020906004020160010160009054906101000a900473ffffffffffffffffffffffffffffffffffffffff16611997565b11155b15611e195760018181548110611df957611df8613218565b5b90600052602060002090600402016003015482611e1691906131b0565b91505b8080611e2490613247565b915050611d4c565b508091505090565b60026020528060005260406000206000915090505481565b611e5461261b565b8060048190555050565b611e6661261b565b600073ffffffffffffffffffffffffffffffffffffffff168173ffffffffffffffffffffffffffffffffffffffff1603611ed5576040517f08c379a0000000000000000000000000000000000000000000000000000000008152600401611ecc90613992565b60405180910390fd5b611ede816126fb565b50565b601060009054906101000a900473ffffffffffffffffffffffffffffffffffffffff1673ffffffffffffffffffffffffffffffffffffffff166370a08231336040518263ffffffff1660e01b8152600401611f3c9190612eba565b602060405180830381865afa158015611f59573d6000803e3d6000fd5b505050506040513d601f19601f82011682018060405250810190611f7d919061371d565b811115611fbf576040517f08c379a0000000000000000000000000000000000000000000000000000000008152600401611fb6906139fe565b60405180910390fd5b601060009054906101000a900473ffffffffffffffffffffffffffffffffffffffff1673ffffffffffffffffffffffffffffffffffffffff1663dd62ed3e33306040518363ffffffff1660e01b815260040161201c929190613a1e565b602060405180830381865afa158015612039573d6000803e3d6000fd5b505050506040513d601f19601f8201168201806040525081019061205d919061371d565b81111561209f576040517f08c379a000000000000000000000000000000000000000000000000000000000815260040161209690613a93565b60405180910390fd5b601060009054906101000a900473ffffffffffffffffffffffffffffffffffffffff1673ffffffffffffffffffffffffffffffffffffffff166323b872dd3330846040518463ffffffff1660e01b81526004016120fe93929190613ab3565b6020604051808303816000875af115801561211d573d6000803e3d6000fd5b505050506040513d601f19601f8201168201806040525081019061214191906136db565b50601060009054906101000a900473ffffffffffffffffffffffffffffffffffffffff1673ffffffffffffffffffffffffffffffffffffffff1663095ea7b3601360009054906101000a900473ffffffffffffffffffffffffffffffffffffffff16836040518363ffffffff1660e01b81526004016121c1929190613686565b6020604051808303816000875af11580156121e0573d6000803e3d6000fd5b505050506040513d601f19601f8201168201806040525081019061220491906136db565b50601360009054906101000a900473ffffffffffffffffffffffffffffffffffffffff1673ffffffffffffffffffffffffffffffffffffffff1663617ba037601060009054906101000a900473ffffffffffffffffffffffffffffffffffffffff16833060006040518563ffffffff1660e01b81526004016122899493929190613b3d565b600060405180830381600087803b1580156122a357600080fd5b505af11580156122b7573d6000803e3d6000fd5b5050505080600a60003373ffffffffffffffffffffffffffffffffffffffff1673ffffffffffffffffffffffffffffffffffffffff168152602001908152602001600020600082825461230a91906131b0565b9250508190555080600b600082825461232391906131b0565b92505081905550601260009054906101000a900473ffffffffffffffffffffffffffffffffffffffff1673ffffffffffffffffffffffffffffffffffffffff166340c10f1933836040518363ffffffff1660e01b8152600401612387929190613686565b600060405180830381600087803b1580156123a157600080fd5b505af11580156123b5573d6000803e3d6000fd5b50505050600654600c60003373ffffffffffffffffffffffffffffffffffffffff1673ffffffffffffffffffffffffffffffffffffffff1681526020019081526020016000208190555080600d60003373ffffffffffffffffffffffffffffffffffffffff1673ffffffffffffffffffffffffffffffffffffffff168152602001908152602001600020600060065481526020019081526020016000208190555050565b60001515600360003373ffffffffffffffffffffffffffffffffffffffff1673ffffffffffffffffffffffffffffffffffffffff1681526020019081526020016000206000600654815260200190815260200160002060000160009054906101000a900460ff16151514612502576040517f08c379a00000000000000000000000000000000000000000000000000000000081526004016124f990613bce565b60405180910390fd5b60001515600360003373ffffffffffffffffffffffffffffffffffffffff1673ffffffffffffffffffffffffffffffffffffffff1681526020019081526020016000206000600654815260200190815260200160002060000160019054906101000a900460ff161515146125ab576040517f08c379a00000000000000000000000000000000000000000000000000000000081526004016125a290613900565b60405180910390fd5b6001600360003373ffffffffffffffffffffffffffffffffffffffff1673ffffffffffffffffffffffffffffffffffffffff1681526020019081526020016000206000600654815260200190815260200160002060000160006101000a81548160ff021916908315150217905550565b612623612822565b73ffffffffffffffffffffffffffffffffffffffff16612641611771565b73ffffffffffffffffffffffffffffffffffffffff1614612697576040517f08c379a000000000000000000000000000000000000000000000000000000000815260040161268e90613c3a565b60405180910390fd5b565b6126a161282a565b60008060006101000a81548160ff0219169083151502179055507f5db9ee0a495bf2e6ff9c91a7834c1ba4fdd244a5e8aa4e537bd38aeae4b073aa6126e4612822565b6040516126f19190612eba565b60405180910390a1565b60008060019054906101000a900473ffffffffffffffffffffffffffffffffffffffff16905081600060016101000a81548173ffffffffffffffffffffffffffffffffffffffff021916908373ffffffffffffffffffffffffffffffffffffffff1602179055508173ffffffffffffffffffffffffffffffffffffffff168173ffffffffffffffffffffffffffffffffffffffff167f8be0079c531659141344cd1fd0a4f28419497f9722a3daafe3b4186f6b6457e060405160405180910390a35050565b6127c8612873565b60016000806101000a81548160ff0219169083151502179055507f62e78cea01bee320cd4e420270b5ea74000d11b0c9f74754ebdbfc544b05a25861280b612822565b6040516128189190612eba565b60405180910390a1565b600033905090565b612832611203565b612871576040517f08c379a000000000000000000000000000000000000000000000000000000000815260040161286890613ca6565b60405180910390fd5b565b61287b611203565b156128bb576040517f08c379a00000000000000000000000000000000000000000000000000000000081526004016128b290613d12565b60405180910390fd5b565b604051806101400160405280600a905b6128d5612947565b8152602001906001900390816128cd5790505090565b604051806101400160405280600a905b612903612961565b8152602001906001900390816128fb5790505090565b604051806101400160405280600a905b61293161297b565b8152602001906001900390816129295790505090565b604051806040016040528060008152602001600081525090565b604051806040016040528060008152602001600081525090565b60405180606001604052806000815260200160008152602001600081525090565b6000819050919050565b6129af8161299c565b82525050565b60006020820190506129ca60008301846129a6565b92915050565b600080fd5b600073ffffffffffffffffffffffffffffffffffffffff82169050919050565b6000612a00826129d5565b9050919050565b612a10816129f5565b8114612a1b57600080fd5b50565b600081359050612a2d81612a07565b92915050565b600060208284031215612a4957612a486129d0565b5b6000612a5784828501612a1e565b91505092915050565b6000600a9050919050565b600081905092915050565b6000819050919050565b612a898161299c565b82525050565b604082016000820151612aa56000850182612a80565b506020820151612ab86020850182612a80565b50505050565b6000612aca8383612a8f565b60408301905092915050565b6000602082019050919050565b612aec81612a60565b612af68184612a6b565b9250612b0182612a76565b8060005b83811015612b32578151612b198782612abe565b9650612b2483612ad6565b925050600181019050612b05565b505050505050565b600061028082019050612b506000830184612ae3565b92915050565b612b5f8161299c565b8114612b6a57600080fd5b50565b600081359050612b7c81612b56565b92915050565b60008060408385031215612b9957612b986129d0565b5b6000612ba785828601612b6d565b9250506020612bb885828601612a1e565b9150509250929050565b600060208284031215612bd857612bd76129d0565b5b6000612be684828501612b6d565b91505092915050565b60008115159050919050565b612c0481612bef565b82525050565b6000602082019050612c1f6000830184612bfb565b92915050565b6000600a9050919050565b600081905092915050565b6000819050919050565b604082016000820151612c5b6000850182612a80565b506020820151612c6e6020850182612a80565b50505050565b6000612c808383612c45565b60408301905092915050565b6000602082019050919050565b612ca281612c25565b612cac8184612c30565b9250612cb782612c3b565b8060005b83811015612ce8578151612ccf8782612c74565b9650612cda83612c8c565b925050600181019050612cbb565b505050505050565b600061028082019050612d066000830184612c99565b92915050565b60008060408385031215612d2357612d226129d0565b5b6000612d3185828601612a1e565b9250506020612d4285828601612b6d565b9150509250929050565b600081519050919050565b600082825260208201905092915050565b6000819050602082019050919050565b60e082016000820151612d8e6000850182612a80565b506020820151612da16020850182612a80565b506040820151612db46040850182612a80565b506060820151612dc76060850182612a80565b506080820151612dda6080850182612a80565b5060a0820151612ded60a0850182612a80565b5060c0820151612e0060c0850182612a80565b50505050565b6000612e128383612d78565b60e08301905092915050565b6000602082019050919050565b6000612e3682612d4c565b612e408185612d57565b9350612e4b83612d68565b8060005b83811015612e7c578151612e638882612e06565b9750612e6e83612e1e565b925050600181019050612e4f565b5085935050505092915050565b60006020820190508181036000830152612ea38184612e2b565b905092915050565b612eb4816129f5565b82525050565b6000602082019050612ecf6000830184612eab565b92915050565b600081519050919050565b600082825260208201905092915050565b6000819050602082019050919050565b612f0a816129f5565b82525050565b608082016000820151612f266000850182612a80565b506020820151612f396020850182612f01565b506040820151612f4c6040850182612a80565b506060820151612f5f6060850182612a80565b50505050565b6000612f718383612f10565b60808301905092915050565b6000602082019050919050565b6000612f9582612ed5565b612f9f8185612ee0565b9350612faa83612ef1565b8060005b83811015612fdb578151612fc28882612f65565b9750612fcd83612f7d565b925050600181019050612fae565b5085935050505092915050565b600060208201905081810360008301526130028184612f8a565b905092915050565b6000600a9050919050565b600081905092915050565b6000819050919050565b6060820160008201516130406000850182612a80565b5060208201516130536020850182612a80565b5060408201516130666040850182612a80565b50505050565b6000613078838361302a565b60608301905092915050565b6000602082019050919050565b61309a8161300a565b6130a48184613015565b92506130af82613020565b8060005b838110156130e05781516130c7878261306c565b96506130d283613084565b9250506001810190506130b3565b505050505050565b60006103c0820190506130fe6000830184613091565b92915050565b600082825260208201905092915050565b7f4e6f206465706f7369742c204e6f2047616d6521000000000000000000000000600082015250565b600061314b601483613104565b915061315682613115565b602082019050919050565b6000602082019050818103600083015261317a8161313e565b9050919050565b7f4e487b7100000000000000000000000000000000000000000000000000000000600052601160045260246000fd5b60006131bb8261299c565b91506131c68361299c565b92508282019050808211156131de576131dd613181565b5b92915050565b60006131ef8261299c565b91506131fa8361299c565b925082820390508181111561321257613211613181565b5b92915050565b7f4e487b7100000000000000000000000000000000000000000000000000000000600052603260045260246000fd5b60006132528261299c565b91507fffffffffffffffffffffffffffffffffffffffffffffffffffffffffffffffff820361328457613283613181565b5b600182019050919050565b600061329a8261299c565b9150600082036132ad576132ac613181565b5b600182039050919050565b7f4e6f7420706f737369626c65206f6e20756e636c6f73656420636f6e74657374600082015250565b60006132ee602083613104565b91506132f9826132b8565b602082019050919050565b6000602082019050818103600083015261331d816132e1565b9050919050565b60008160011c9050919050565b6000808291508390505b600185111561337b5780860481111561335757613356613181565b5b60018516156133665780820291505b808102905061337485613324565b945061333b565b94509492505050565b6000826133945760019050613450565b816133a25760009050613450565b81600181146133b857600281146133c2576133f1565b6001915050613450565b60ff8411156133d4576133d3613181565b5b8360020a9150848211156133eb576133ea613181565b5b50613450565b5060208310610133831016604e8410600b84101617156134265782820a90508381111561342157613420613181565b5b613450565b6134338484846001613331565b9250905081840481111561344a57613449613181565b5b81810290505b9392505050565b600060ff82169050919050565b600061346f8261299c565b915061347a83613457565b92506134a77fffffffffffffffffffffffffffffffffffffffffffffffffffffffffffffffff8484613384565b905092915050565b60006134ba8261299c565b91506134c58361299c565b92508282026134d38161299c565b915082820484148315176134ea576134e9613181565b5b5092915050565b7f4e487b7100000000000000000000000000000000000000000000000000000000600052601260045260246000fd5b600061352b8261299c565b91506135368361299c565b925082613546576135456134f1565b5b828204905092915050565b7f496e73756666696369656e742062616c616e6365000000000000000000000000600082015250565b6000613587601483613104565b915061359282613551565b602082019050919050565b600060208201905081810360008301526135b68161357a565b9050919050565b7f506c656173652077616974203220636f6e746573747320616674657220796f7560008201527f72206465706f73697420746f2077697464726177000000000000000000000000602082015250565b6000613619603483613104565b9150613624826135bd565b604082019050919050565b600060208201905081810360008301526136488161360c565b9050919050565b60006060820190506136646000830186612eab565b61367160208301856129a6565b61367e6040830184612eab565b949350505050565b600060408201905061369b6000830185612eab565b6136a860208301846129a6565b9392505050565b6136b881612bef565b81146136c357600080fd5b50565b6000815190506136d5816136af565b92915050565b6000602082840312156136f1576136f06129d0565b5b60006136ff848285016136c6565b91505092915050565b60008151905061371781612b56565b92915050565b600060208284031215613733576137326129d0565b5b600061374184828501613708565b91505092915050565b7f4e6f20636f6e7465737420757064617465210000000000000000000000000000600082015250565b6000613780601283613104565b915061378b8261374a565b602082019050919050565b600060208201905081810360008301526137af81613773565b9050919050565b7f596f7520617265206e6f7420616c6c6f77656420746f2073617665206120736360008201527f6f72652100000000000000000000000000000000000000000000000000000000602082015250565b6000613812602483613104565b915061381d826137b6565b604082019050919050565b6000602082019050818103600083015261384181613805565b9050919050565b7f4e6f20726571756573742066726f6d20706c6179657200000000000000000000600082015250565b600061387e601683613104565b915061388982613848565b602082019050919050565b600060208201905081810360008301526138ad81613871565b9050919050565b7f506c6179657220616c726561647920706c617965640000000000000000000000600082015250565b60006138ea601583613104565b91506138f5826138b4565b602082019050919050565b60006020820190508181036000830152613919816138dd565b9050919050565b7f4f776e61626c653a206e6577206f776e657220697320746865207a65726f206160008201527f6464726573730000000000000000000000000000000000000000000000000000602082015250565b600061397c602683613104565b915061398782613920565b604082019050919050565b600060208201905081810360008301526139ab8161396f565b9050919050565b7f496e737566666963656e7420616d6f756e74206f662055534443000000000000600082015250565b60006139e8601a83613104565b91506139f3826139b2565b602082019050919050565b60006020820190508181036000830152613a17816139db565b9050919050565b6000604082019050613a336000830185612eab565b613a406020830184612eab565b9392505050565b7f496e73756666696369656e7420616c6c6f776564205553444300000000000000600082015250565b6000613a7d601983613104565b9150613a8882613a47565b602082019050919050565b60006020820190508181036000830152613aac81613a70565b9050919050565b6000606082019050613ac86000830186612eab565b613ad56020830185612eab565b613ae260408301846129a6565b949350505050565b6000819050919050565b600061ffff82169050919050565b6000819050919050565b6000613b27613b22613b1d84613aea565b613b02565b613af4565b9050919050565b613b3781613b0c565b82525050565b6000608082019050613b526000830187612eab565b613b5f60208301866129a6565b613b6c6040830185612eab565b613b796060830184613b2e565b95945050505050565b7f596f7520616c7265616479207265717565737465640000000000000000000000600082015250565b6000613bb8601583613104565b9150613bc382613b82565b602082019050919050565b60006020820190508181036000830152613be781613bab565b9050919050565b7f4f776e61626c653a2063616c6c6572206973206e6f7420746865206f776e6572600082015250565b6000613c24602083613104565b9150613c2f82613bee565b602082019050919050565b60006020820190508181036000830152613c5381613c17565b9050919050565b7f5061757361626c653a206e6f7420706175736564000000000000000000000000600082015250565b6000613c90601483613104565b9150613c9b82613c5a565b602082019050919050565b60006020820190508181036000830152613cbf81613c83565b9050919050565b7f5061757361626c653a2070617573656400000000000000000000000000000000600082015250565b6000613cfc601083613104565b9150613d0782613cc6565b602082019050919050565b60006020820190508181036000830152613d2b81613cef565b905091905056fea2646970667358221220aee2ed3f842b56de454a51b1f0f791303a42c2b2ff80bcc78f0d10bf42348ca264736f6c63430008110033",
  "linkReferences": {},
  "deployedLinkReferences": {}
}