{
  "_format": "hh-sol-artifact-1",
  "contractName": "NpngPool",
  "sourceName": "contracts/NpngPool.sol",
  "abi": [
    {
      "inputs": [],
      "stateMutability": "nonpayable",
      "type": "constructor"
    },
    {
      "anonymous": false,
      "inputs": [
        {
          "indexed": true,
          "internalType": "address",
          "name": "previousOwner",
          "type": "address"
        },
        {
          "indexed": true,
          "internalType": "address",
          "name": "newOwner",
          "type": "address"
        }
      ],
      "name": "OwnershipTransferred",
      "type": "event"
    },
    {
      "anonymous": false,
      "inputs": [
        {
          "indexed": false,
          "internalType": "address",
          "name": "account",
          "type": "address"
        }
      ],
      "name": "Paused",
      "type": "event"
    },
    {
      "anonymous": false,
      "inputs": [
        {
          "indexed": false,
          "internalType": "address",
          "name": "account",
          "type": "address"
        }
      ],
      "name": "Unpaused",
      "type": "event"
    },
    {
      "inputs": [
        {
          "internalType": "uint256",
          "name": "_newFrequence",
          "type": "uint256"
        }
      ],
      "name": "changeGameFrequence",
      "outputs": [],
      "stateMutability": "nonpayable",
      "type": "function"
    },
    {
      "inputs": [
        {
          "internalType": "address",
          "name": "_newAddress",
          "type": "address"
        }
      ],
      "name": "changeNpngTokenAddress",
      "outputs": [],
      "stateMutability": "nonpayable",
      "type": "function"
    },
    {
      "inputs": [
        {
          "internalType": "address",
          "name": "_newRecorderAddress",
          "type": "address"
        }
      ],
      "name": "changeRecorder",
      "outputs": [],
      "stateMutability": "nonpayable",
      "type": "function"
    },
    {
      "inputs": [],
      "name": "claim",
      "outputs": [],
      "stateMutability": "nonpayable",
      "type": "function"
    },
    {
      "inputs": [
        {
          "internalType": "uint256",
          "name": "_amount",
          "type": "uint256"
        }
      ],
      "name": "depositOnAave",
      "outputs": [],
      "stateMutability": "nonpayable",
      "type": "function"
    },
    {
      "inputs": [
        {
          "internalType": "address",
          "name": "_player",
          "type": "address"
        }
      ],
      "name": "getAccountTable",
      "outputs": [
        {
          "components": [
            {
              "internalType": "uint256",
              "name": "idContest",
              "type": "uint256"
            },
            {
              "internalType": "uint256",
              "name": "rank",
              "type": "uint256"
            },
            {
              "internalType": "uint256",
              "name": "participant",
              "type": "uint256"
            },
            {
              "internalType": "uint256",
              "name": "prize",
              "type": "uint256"
            }
          ],
          "internalType": "struct NpngGame.AccountTable[10]",
          "name": "",
          "type": "tuple[10]"
        }
      ],
      "stateMutability": "view",
      "type": "function"
    },
    {
      "inputs": [
        {
          "internalType": "uint256",
          "name": "_idContest",
          "type": "uint256"
        },
        {
          "internalType": "address",
          "name": "_player",
          "type": "address"
        }
      ],
      "name": "getContestRank",
      "outputs": [
        {
          "internalType": "uint256",
          "name": "",
          "type": "uint256"
        }
      ],
      "stateMutability": "view",
      "type": "function"
    },
    {
      "inputs": [
        {
          "internalType": "uint256",
          "name": "_idContest",
          "type": "uint256"
        }
      ],
      "name": "getContestTable",
      "outputs": [
        {
          "components": [
            {
              "internalType": "uint256",
              "name": "rank",
              "type": "uint256"
            },
            {
              "internalType": "uint256",
              "name": "score",
              "type": "uint256"
            },
            {
              "internalType": "address",
              "name": "player",
              "type": "address"
            },
            {
              "internalType": "uint256",
              "name": "prize",
              "type": "uint256"
            }
          ],
          "internalType": "struct NpngGame.ContestTable[10]",
          "name": "",
          "type": "tuple[10]"
        }
      ],
      "stateMutability": "view",
      "type": "function"
    },
    {
      "inputs": [],
      "name": "getEndOfContest",
      "outputs": [
        {
          "internalType": "uint256",
          "name": "",
          "type": "uint256"
        }
      ],
      "stateMutability": "view",
      "type": "function"
    },
    {
      "inputs": [],
      "name": "getIdContest",
      "outputs": [
        {
          "internalType": "uint256",
          "name": "",
          "type": "uint256"
        }
      ],
      "stateMutability": "view",
      "type": "function"
    },
    {
      "inputs": [],
      "name": "getPlay",
      "outputs": [],
      "stateMutability": "nonpayable",
      "type": "function"
    },
    {
      "inputs": [
        {
          "internalType": "address",
          "name": "_player",
          "type": "address"
        },
        {
          "internalType": "uint256",
          "name": "_idContest",
          "type": "uint256"
        }
      ],
      "name": "getRewardPerPlayerPerContest",
      "outputs": [
        {
          "internalType": "uint256",
          "name": "",
          "type": "uint256"
        }
      ],
      "stateMutability": "view",
      "type": "function"
    },
    {
      "inputs": [
        {
          "internalType": "uint256",
          "name": "_idContest",
          "type": "uint256"
        },
        {
          "internalType": "uint256",
          "name": "_globalPrizePool",
          "type": "uint256"
        }
      ],
      "name": "getRewardsPerContest",
      "outputs": [
        {
          "internalType": "uint256",
          "name": "",
          "type": "uint256"
        }
      ],
      "stateMutability": "view",
      "type": "function"
    },
    {
      "inputs": [
        {
          "internalType": "address",
          "name": "_account",
          "type": "address"
        }
      ],
      "name": "getTotalClaimedRewards",
      "outputs": [
        {
          "internalType": "uint256",
          "name": "",
          "type": "uint256"
        }
      ],
      "stateMutability": "view",
      "type": "function"
    },
    {
      "inputs": [
        {
          "internalType": "address",
          "name": "_account",
          "type": "address"
        }
      ],
      "name": "getUserBalance",
      "outputs": [
        {
          "internalType": "uint256",
          "name": "",
          "type": "uint256"
        }
      ],
      "stateMutability": "view",
      "type": "function"
    },
    {
      "inputs": [
        {
          "internalType": "uint256",
          "name": "_idContest",
          "type": "uint256"
        }
      ],
      "name": "getWinnersInfo",
      "outputs": [
        {
          "components": [
            {
              "internalType": "address",
              "name": "player",
              "type": "address"
            },
            {
              "internalType": "uint256",
              "name": "score",
              "type": "uint256"
            },
            {
              "internalType": "uint256",
              "name": "balancePlayer",
              "type": "uint256"
            }
          ],
          "internalType": "struct NpngGame.ContestsResult[11]",
          "name": "",
          "type": "tuple[11]"
        }
      ],
      "stateMutability": "view",
      "type": "function"
    },
    {
      "inputs": [],
      "name": "owner",
      "outputs": [
        {
          "internalType": "address",
          "name": "",
          "type": "address"
        }
      ],
      "stateMutability": "view",
      "type": "function"
    },
    {
      "inputs": [],
      "name": "pause",
      "outputs": [],
      "stateMutability": "nonpayable",
      "type": "function"
    },
    {
      "inputs": [],
      "name": "paused",
      "outputs": [
        {
          "internalType": "bool",
          "name": "",
          "type": "bool"
        }
      ],
      "stateMutability": "view",
      "type": "function"
    },
    {
      "inputs": [],
      "name": "renounceOwnership",
      "outputs": [],
      "stateMutability": "nonpayable",
      "type": "function"
    },
    {
      "inputs": [
        {
          "internalType": "address",
          "name": "_player",
          "type": "address"
        },
        {
          "internalType": "uint256",
          "name": "_score",
          "type": "uint256"
        }
      ],
      "name": "saveScore",
      "outputs": [],
      "stateMutability": "nonpayable",
      "type": "function"
    },
    {
      "inputs": [
        {
          "internalType": "address",
          "name": "newOwner",
          "type": "address"
        }
      ],
      "name": "transferOwnership",
      "outputs": [],
      "stateMutability": "nonpayable",
      "type": "function"
    },
    {
      "inputs": [],
      "name": "unpause",
      "outputs": [],
      "stateMutability": "nonpayable",
      "type": "function"
    },
    {
      "inputs": [],
      "name": "updateContest",
      "outputs": [],
      "stateMutability": "nonpayable",
      "type": "function"
    },
    {
      "inputs": [
        {
          "internalType": "uint256",
          "name": "_amount",
          "type": "uint256"
        }
      ],
      "name": "withdraw",
      "outputs": [],
      "stateMutability": "nonpayable",
      "type": "function"
    }
  ],
  "bytecode": "0x60806040523480156200001157600080fd5b5060008060006101000a81548160ff0219169083151502179055506200004c620000406200025660201b60201c565b6200025e60201b60201c565b4260068190555060016005819055506201518060048190555061dead600760006101000a81548173ffffffffffffffffffffffffffffffffffffffff021916908373ffffffffffffffffffffffffffffffffffffffff16021790555073a2025b15a1757311bfd68cb14eaefcc237af5b43600f60006101000a81548173ffffffffffffffffffffffffffffffffffffffff021916908373ffffffffffffffffffffffffffffffffffffffff16021790555073368eedf3f56ad10b9bc57eed4dac65b26bb667f6601260006101000a81548173ffffffffffffffffffffffffffffffffffffffff021916908373ffffffffffffffffffffffffffffffffffffffff160217905550731ee669290939f8a8864497af3bc83728715265ff601060006101000a81548173ffffffffffffffffffffffffffffffffffffffff021916908373ffffffffffffffffffffffffffffffffffffffff160217905550738ad6d963600f5c45dabd5ff6faa04d51a6d549f0601160006101000a81548173ffffffffffffffffffffffffffffffffffffffff021916908373ffffffffffffffffffffffffffffffffffffffff1602179055506000600c6000808152602001908152602001600020600001819055506000600c6000808152602001908152602001600020600101819055506000600c60008081526020019081526020016000206002018190555062000323565b600033905090565b60008060019054906101000a900473ffffffffffffffffffffffffffffffffffffffff16905081600060016101000a81548173ffffffffffffffffffffffffffffffffffffffff021916908373ffffffffffffffffffffffffffffffffffffffff1602179055508173ffffffffffffffffffffffffffffffffffffffff168173ffffffffffffffffffffffffffffffffffffffff167f8be0079c531659141344cd1fd0a4f28419497f9722a3daafe3b4186f6b6457e060405160405180910390a35050565b613a5380620003336000396000f3fe608060405234801561001057600080fd5b50600436106101735760003560e01c80638456cb59116100de578063c85785d611610097578063f2fbee3f11610071578063f2fbee3f146103ec578063f2fde38b14610408578063fd1df60314610424578063fd8d19091461045457610173565b8063c85785d614610382578063cad7ebce146103a0578063e064613e146103d057610173565b80638456cb591461029a5780638da5cb5b146102a457806395d7573c146102c25780639cfc8b8c146102f2578063b56bae1114610322578063bb2922e61461035257610173565b80634e499acd116101305780634e499acd146102265780634e71d92d146102305780635c975abb1461023a578063695a651714610258578063715018a6146102745780638347f5361461027e57610173565b80630bd5d2841461017857806312b946bc146101825780632452a7e3146101a05780632e1a7d4d146101d05780633f4ba83a146101ec57806347734892146101f6575b600080fd5b610180610470565b005b61018a6104fc565b6040516101979190612873565b60405180910390f35b6101ba60048036038101906101b591906128bf565b610518565b6040516101c79190612a2d565b60405180910390f35b6101ea60048036038101906101e591906128bf565b610705565b005b6101f4610a6c565b005b610210600480360381019061020b9190612a75565b610a7e565b60405161021d9190612873565b60405180910390f35b61022e610ac7565b005b610238610d81565b005b61024261101a565b60405161024f9190612abd565b60405180910390f35b610272600480360381019061026d9190612ad8565b611030565b005b61027c6113ba565b005b61029860048036038101906102939190612a75565b6113ce565b005b6102a261141a565b005b6102ac61142c565b6040516102b99190612b27565b60405180910390f35b6102dc60048036038101906102d79190612b42565b611455565b6040516102e99190612873565b60405180910390f35b61030c60048036038101906103079190612a75565b611537565b6040516103199190612873565b60405180910390f35b61033c600480360381019061033791906128bf565b611580565b6040516103499190612c60565b60405180910390f35b61036c60048036038101906103679190612a75565b61185c565b6040516103799190612d6d565b60405180910390f35b61038a6119b5565b6040516103979190612873565b60405180910390f35b6103ba60048036038101906103b59190612d89565b6119bf565b6040516103c79190612873565b60405180910390f35b6103ea60048036038101906103e59190612a75565b611b8d565b005b610406600480360381019061040191906128bf565b611bd9565b005b610422600480360381019061041d9190612a75565b611beb565b005b61043e60048036038101906104399190612ad8565b611c6e565b60405161044b9190612873565b60405180910390f35b61046e600480360381019061046991906128bf565b611dae565b005b6000600860003373ffffffffffffffffffffffffffffffffffffffff1673ffffffffffffffffffffffffffffffffffffffff16815260200190815260200160002054116104f2576040517f08c379a00000000000000000000000000000000000000000000000000000000081526004016104e990612e26565b60405180910390fd5b6104fa6122cf565b565b60008060045460065461050f9190612e75565b90508091505090565b610520612733565b610528612733565b600061053384611580565b90506000816000600b811061054b5761054a612ea9565b5b602002015160400151905060005b600a8110156106f95760006001826105719190612e75565b9050808583600a811061058757610586612ea9565b5b602002015160000181815250508381600b81106105a7576105a6612ea9565b5b6020020151602001518583600a81106105c3576105c2612ea9565b5b602002015160200181815250508381600b81106105e3576105e2612ea9565b5b6020020151600001518583600a81106105ff576105fe612ea9565b5b60200201516040019073ffffffffffffffffffffffffffffffffffffffff16908173ffffffffffffffffffffffffffffffffffffffff1681525050662386f26fc1000060058360656106519190612ed8565b61065b919061304c565b84620f42408785600b811061067357610672612ea9565b5b602002015160400151600c60008d81526020019081526020016000206001015461069d9190613097565b6106a79190613097565b6106b19190613108565b6106bb9190613097565b6106c59190613108565b8583600a81106106d8576106d7612ea9565b5b602002015160600181815250505080806106f190613139565b915050610559565b50829350505050919050565b80600860003373ffffffffffffffffffffffffffffffffffffffff1673ffffffffffffffffffffffffffffffffffffffff168152602001908152602001600020541015610787576040517f08c379a000000000000000000000000000000000000000000000000000000000815260040161077e906131cd565b60405180910390fd5b6005546002600b60003373ffffffffffffffffffffffffffffffffffffffff1673ffffffffffffffffffffffffffffffffffffffff168152602001908152602001600020546107d69190612e75565b1115610817576040517f08c379a000000000000000000000000000000000000000000000000000000000815260040161080e9061325f565b60405180910390fd5b601260009054906101000a900473ffffffffffffffffffffffffffffffffffffffff1673ffffffffffffffffffffffffffffffffffffffff166369328dec600f60009054906101000a900473ffffffffffffffffffffffffffffffffffffffff1683306040518463ffffffff1660e01b81526004016108989392919061327f565b600060405180830381600087803b1580156108b257600080fd5b505af11580156108c6573d6000803e3d6000fd5b50505050600f60009054906101000a900473ffffffffffffffffffffffffffffffffffffffff1673ffffffffffffffffffffffffffffffffffffffff1663a9059cbb33836040518363ffffffff1660e01b81526004016109279291906132b6565b6020604051808303816000875af1158015610946573d6000803e3d6000fd5b505050506040513d601f19601f8201168201806040525081019061096a919061330b565b5080600860003373ffffffffffffffffffffffffffffffffffffffff1673ffffffffffffffffffffffffffffffffffffffff16815260200190815260200160002060008282546109ba9190612ed8565b9250508190555080600a60008282546109d39190612e75565b92505081905550601160009054906101000a900473ffffffffffffffffffffffffffffffffffffffff1673ffffffffffffffffffffffffffffffffffffffff16639dc29fac33836040518363ffffffff1660e01b8152600401610a379291906132b6565b600060405180830381600087803b158015610a5157600080fd5b505af1158015610a65573d6000803e3d6000fd5b5050505050565b610a74612491565b610a7c61250f565b565b6000600860008373ffffffffffffffffffffffffffffffffffffffff1673ffffffffffffffffffffffffffffffffffffffff168152602001908152602001600020549050919050565b600760009054906101000a900473ffffffffffffffffffffffffffffffffffffffff1673ffffffffffffffffffffffffffffffffffffffff163373ffffffffffffffffffffffffffffffffffffffff1614610b57576040517f08c379a0000000000000000000000000000000000000000000000000000000008152600401610b4e906133aa565b60405180910390fd5b600454600654610b679190612e75565b421015610ba9576040517f08c379a0000000000000000000000000000000000000000000000000000000008152600401610ba090613416565b60405180910390fd5b426006819055506000600c60006001600554610bc59190612ed8565b815260200190815260200160002060020154600a54600954600c60006001600554610bf09190612ed8565b815260200190815260200160002060000154610c0c9190612e75565b610c169190612ed8565b610c209190612e75565b90506000601060009054906101000a900473ffffffffffffffffffffffffffffffffffffffff1673ffffffffffffffffffffffffffffffffffffffff166370a08231306040518263ffffffff1660e01b8152600401610c7f9190612b27565b602060405180830381865afa158015610c9c573d6000803e3d6000fd5b505050506040513d601f19601f82011682018060405250810190610cc0919061344b565b905060008282610cd09190612ed8565b90506000610ce060055483611455565b905083600c600060055481526020019081526020016000206000018190555081600c600060055481526020019081526020016000206001018190555080600c600060055481526020019081526020016000206002018190555080600d600060055481526020019081526020016000208190555060006009819055506000600a8190555060056000815480929190610d7690613139565b919050555050505050565b600080806001600554610d949190612ed8565b90505b6000811115610ed05760011515600360003373ffffffffffffffffffffffffffffffffffffffff1673ffffffffffffffffffffffffffffffffffffffff168152602001908152602001600020600083815260200190815260200160002060000160029054906101000a900460ff1615150315610ed057610e173382611c6e565b91508183610e259190612e75565b925081600d60008381526020019081526020016000206000828254610e4a9190612ed8565b925050819055506001600360003373ffffffffffffffffffffffffffffffffffffffff1673ffffffffffffffffffffffffffffffffffffffff168152602001908152602001600020600083815260200190815260200160002060000160026101000a81548160ff0219169083151502179055508080610ec890613478565b915050610d97565b5060008211156110165781600860003373ffffffffffffffffffffffffffffffffffffffff1673ffffffffffffffffffffffffffffffffffffffff1681526020019081526020016000206000828254610f299190612e75565b9250508190555081600e60003373ffffffffffffffffffffffffffffffffffffffff1673ffffffffffffffffffffffffffffffffffffffff1681526020019081526020016000206000828254610f7f9190612e75565b92505081905550601160009054906101000a900473ffffffffffffffffffffffffffffffffffffffff1673ffffffffffffffffffffffffffffffffffffffff166340c10f1933846040518363ffffffff1660e01b8152600401610fe39291906132b6565b600060405180830381600087803b158015610ffd57600080fd5b505af1158015611011573d6000803e3d6000fd5b505050505b5050565b60008060009054906101000a900460ff16905090565b600760009054906101000a900473ffffffffffffffffffffffffffffffffffffffff1673ffffffffffffffffffffffffffffffffffffffff163373ffffffffffffffffffffffffffffffffffffffff16146110c0576040517f08c379a00000000000000000000000000000000000000000000000000000000081526004016110b790613513565b60405180910390fd5b60011515600360008473ffffffffffffffffffffffffffffffffffffffff1673ffffffffffffffffffffffffffffffffffffffff1681526020019081526020016000206000600554815260200190815260200160002060000160009054906101000a900460ff16151514611169576040517f08c379a00000000000000000000000000000000000000000000000000000000081526004016111609061357f565b60405180910390fd5b60001515600360008473ffffffffffffffffffffffffffffffffffffffff1673ffffffffffffffffffffffffffffffffffffffff1681526020019081526020016000206000600554815260200190815260200160002060000160019054906101000a900460ff16151514611212576040517f08c379a0000000000000000000000000000000000000000000000000000000008152600401611209906135eb565b60405180910390fd5b60016000600554815260200190815260200160002060405180606001604052808473ffffffffffffffffffffffffffffffffffffffff168152602001838152602001600860008673ffffffffffffffffffffffffffffffffffffffff1673ffffffffffffffffffffffffffffffffffffffff16815260200190815260200160002054815250908060018154018082558091505060019003906000526020600020906003020160009091909190915060008201518160000160006101000a81548173ffffffffffffffffffffffffffffffffffffffff021916908373ffffffffffffffffffffffffffffffffffffffff160217905550602082015181600101556040820151816002015550506001600360008473ffffffffffffffffffffffffffffffffffffffff1673ffffffffffffffffffffffffffffffffffffffff1681526020019081526020016000206000600554815260200190815260200160002060000160016101000a81548160ff02191690831515021790555060026000600554815260200190815260200160002060008154809291906113b190613139565b91905055505050565b6113c2612491565b6113cc6000612571565b565b6113d6612491565b80601160006101000a81548173ffffffffffffffffffffffffffffffffffffffff021916908373ffffffffffffffffffffffffffffffffffffffff16021790555050565b611422612491565b61142a612636565b565b60008060019054906101000a900473ffffffffffffffffffffffffffffffffffffffff16905090565b60008061146184611580565b90506000816000600b811061147957611478612ea9565b5b6020020151604001519050600080600190505b600b81101561152a57662386f26fc1000060058260656114ac9190612ed8565b6114b6919061304c565b84620f42408785600b81106114ce576114cd612ea9565b5b6020020151604001518a6114e29190613097565b6114ec9190613097565b6114f69190613108565b6115009190613097565b61150a9190613108565b826115159190612e75565b9150808061152290613139565b91505061148c565b5080935050505092915050565b6000600e60008373ffffffffffffffffffffffffffffffffffffffff1673ffffffffffffffffffffffffffffffffffffffff168152602001908152602001600020549050919050565b611588612761565b60008060009050611597612761565b60005b600160008781526020019081526020016000208054905081101561182e576001600087815260200190815260200160002081815481106115dd576115dc612ea9565b5b906000526020600020906003020160010154935060006001905060005b60016000898152602001908152602001600020805490508110156116785760016000898152602001908152602001600020818154811061163d5761163c612ea9565b5b90600052602060002090600302016001015486101561166557818061166190613139565b9250505b808061167090613139565b9150506115fa565b50600b81101561181a576001600088815260200190815260200160002082815481106116a7576116a6612ea9565b5b906000526020600020906003020160020154846116c49190612e75565b93506001600088815260200190815260200160002082815481106116eb576116ea612ea9565b5b906000526020600020906003020160000160009054906101000a900473ffffffffffffffffffffffffffffffffffffffff168382600b81106117305761172f612ea9565b5b60200201516000019073ffffffffffffffffffffffffffffffffffffffff16908173ffffffffffffffffffffffffffffffffffffffff16815250506001600088815260200190815260200160002082815481106117905761178f612ea9565b5b9060005260206000209060030201600101548382600b81106117b5576117b4612ea9565b5b602002015160200181815250506001600088815260200190815260200160002082815481106117e7576117e6612ea9565b5b9060005260206000209060030201600201548382600b811061180c5761180b612ea9565b5b602002015160400181815250505b50808061182690613139565b91505061159a565b5081816000600b811061184457611843612ea9565b5b60200201516040018181525050809350505050919050565b61186461278f565b61186c61278f565b60008060009050600060016005546118849190612ed8565b90506000600a8210156118995781935061189e565b600a93505b60008290505b84836118b09190612ed8565b8111156119a7576118c181896119bf565b91506000821180156118d35750600b82105b15611935576040518060800160405280828152602001838152602001600260008481526020019081526020016000205481526020016119128a84611c6e565b8152508685600a811061192857611927612ea9565b5b6020020181905250611986565b60405180608001604052808281526020018381526020016002600084815260200190815260200160002054815260200160008152508685600a811061197d5761197c612ea9565b5b60200201819052505b838061199190613139565b945050808061199f90613478565b9150506118a4565b508495505050505050919050565b6000600554905090565b6000806000806001905060005b6001600088815260200190815260200160002080549050811015611afd57600160008881526020019081526020016000208181548110611a0f57611a0e612ea9565b5b906000526020600020906003020160000160009054906101000a900473ffffffffffffffffffffffffffffffffffffffff1673ffffffffffffffffffffffffffffffffffffffff168673ffffffffffffffffffffffffffffffffffffffff1603611ab457809350600160008881526020019081526020016000208181548110611a9b57611a9a612ea9565b5b9060005260206000209060030201600101549250611afd565b6001600088815260200190815260200160002080549050600182611ad89190612e75565b03611aea576000945050505050611b87565b8080611af590613139565b9150506119cc565b5060005b6001600088815260200190815260200160002080549050811015611b7f57600160008881526020019081526020016000208181548110611b4457611b43612ea9565b5b906000526020600020906003020160010154831115611b6c578180611b6890613139565b9250505b8080611b7790613139565b915050611b01565b508093505050505b92915050565b611b95612491565b80600760006101000a81548173ffffffffffffffffffffffffffffffffffffffff021916908373ffffffffffffffffffffffffffffffffffffffff16021790555050565b611be1612491565b8060048190555050565b611bf3612491565b600073ffffffffffffffffffffffffffffffffffffffff168173ffffffffffffffffffffffffffffffffffffffff1603611c62576040517f08c379a0000000000000000000000000000000000000000000000000000000008152600401611c599061367d565b60405180910390fd5b611c6b81612571565b50565b600080611c7a83611580565b90506000816000600b8110611c9257611c91612ea9565b5b6020020151604001519050600080600190505b600b811015611da1578381600b8110611cc157611cc0612ea9565b5b60200201516000015173ffffffffffffffffffffffffffffffffffffffff168773ffffffffffffffffffffffffffffffffffffffff1603611d8e57662386f26fc100006005826065611d139190612ed8565b611d1d919061304c565b84620f42408785600b8110611d3557611d34612ea9565b5b602002015160400151600c60008c815260200190815260200160002060010154611d5f9190613097565b611d699190613097565b611d739190613108565b611d7d9190613097565b611d879190613108565b9150611da1565b8080611d9990613139565b915050611ca5565b5080935050505092915050565b600f60009054906101000a900473ffffffffffffffffffffffffffffffffffffffff1673ffffffffffffffffffffffffffffffffffffffff166370a08231336040518263ffffffff1660e01b8152600401611e099190612b27565b602060405180830381865afa158015611e26573d6000803e3d6000fd5b505050506040513d601f19601f82011682018060405250810190611e4a919061344b565b811115611e8c576040517f08c379a0000000000000000000000000000000000000000000000000000000008152600401611e83906136e9565b60405180910390fd5b600f60009054906101000a900473ffffffffffffffffffffffffffffffffffffffff1673ffffffffffffffffffffffffffffffffffffffff1663dd62ed3e33306040518363ffffffff1660e01b8152600401611ee9929190613709565b602060405180830381865afa158015611f06573d6000803e3d6000fd5b505050506040513d601f19601f82011682018060405250810190611f2a919061344b565b811115611f6c576040517f08c379a0000000000000000000000000000000000000000000000000000000008152600401611f639061377e565b60405180910390fd5b600f60009054906101000a900473ffffffffffffffffffffffffffffffffffffffff1673ffffffffffffffffffffffffffffffffffffffff166323b872dd3330846040518463ffffffff1660e01b8152600401611fcb9392919061379e565b6020604051808303816000875af1158015611fea573d6000803e3d6000fd5b505050506040513d601f19601f8201168201806040525081019061200e919061330b565b50600f60009054906101000a900473ffffffffffffffffffffffffffffffffffffffff1673ffffffffffffffffffffffffffffffffffffffff1663095ea7b3601260009054906101000a900473ffffffffffffffffffffffffffffffffffffffff16836040518363ffffffff1660e01b815260040161208e9291906132b6565b6020604051808303816000875af11580156120ad573d6000803e3d6000fd5b505050506040513d601f19601f820116820180604052508101906120d1919061330b565b50601260009054906101000a900473ffffffffffffffffffffffffffffffffffffffff1673ffffffffffffffffffffffffffffffffffffffff1663617ba037600f60009054906101000a900473ffffffffffffffffffffffffffffffffffffffff16833060006040518563ffffffff1660e01b81526004016121569493929190613828565b600060405180830381600087803b15801561217057600080fd5b505af1158015612184573d6000803e3d6000fd5b5050505080600860003373ffffffffffffffffffffffffffffffffffffffff1673ffffffffffffffffffffffffffffffffffffffff16815260200190815260200160002060008282546121d79190612e75565b9250508190555080600960008282546121f09190612e75565b92505081905550601160009054906101000a900473ffffffffffffffffffffffffffffffffffffffff1673ffffffffffffffffffffffffffffffffffffffff166340c10f1933836040518363ffffffff1660e01b81526004016122549291906132b6565b600060405180830381600087803b15801561226e57600080fd5b505af1158015612282573d6000803e3d6000fd5b50505050600554600b60003373ffffffffffffffffffffffffffffffffffffffff1673ffffffffffffffffffffffffffffffffffffffff1681526020019081526020016000208190555050565b60001515600360003373ffffffffffffffffffffffffffffffffffffffff1673ffffffffffffffffffffffffffffffffffffffff1681526020019081526020016000206000600554815260200190815260200160002060000160009054906101000a900460ff16151514612378576040517f08c379a000000000000000000000000000000000000000000000000000000000815260040161236f906138b9565b60405180910390fd5b60001515600360003373ffffffffffffffffffffffffffffffffffffffff1673ffffffffffffffffffffffffffffffffffffffff1681526020019081526020016000206000600554815260200190815260200160002060000160019054906101000a900460ff16151514612421576040517f08c379a0000000000000000000000000000000000000000000000000000000008152600401612418906135eb565b60405180910390fd5b6001600360003373ffffffffffffffffffffffffffffffffffffffff1673ffffffffffffffffffffffffffffffffffffffff1681526020019081526020016000206000600554815260200190815260200160002060000160006101000a81548160ff021916908315150217905550565b612499612698565b73ffffffffffffffffffffffffffffffffffffffff166124b761142c565b73ffffffffffffffffffffffffffffffffffffffff161461250d576040517f08c379a000000000000000000000000000000000000000000000000000000000815260040161250490613925565b60405180910390fd5b565b6125176126a0565b60008060006101000a81548160ff0219169083151502179055507f5db9ee0a495bf2e6ff9c91a7834c1ba4fdd244a5e8aa4e537bd38aeae4b073aa61255a612698565b6040516125679190612b27565b60405180910390a1565b60008060019054906101000a900473ffffffffffffffffffffffffffffffffffffffff16905081600060016101000a81548173ffffffffffffffffffffffffffffffffffffffff021916908373ffffffffffffffffffffffffffffffffffffffff1602179055508173ffffffffffffffffffffffffffffffffffffffff168173ffffffffffffffffffffffffffffffffffffffff167f8be0079c531659141344cd1fd0a4f28419497f9722a3daafe3b4186f6b6457e060405160405180910390a35050565b61263e6126e9565b60016000806101000a81548160ff0219169083151502179055507f62e78cea01bee320cd4e420270b5ea74000d11b0c9f74754ebdbfc544b05a258612681612698565b60405161268e9190612b27565b60405180910390a1565b600033905090565b6126a861101a565b6126e7576040517f08c379a00000000000000000000000000000000000000000000000000000000081526004016126de90613991565b60405180910390fd5b565b6126f161101a565b15612731576040517f08c379a0000000000000000000000000000000000000000000000000000000008152600401612728906139fd565b60405180910390fd5b565b604051806101400160405280600a905b61274b6127bd565b8152602001906001900390816127435790505090565b604051806101600160405280600b905b6127796127fb565b8152602001906001900390816127715790505090565b604051806101400160405280600a905b6127a7612832565b81526020019060019003908161279f5790505090565b60405180608001604052806000815260200160008152602001600073ffffffffffffffffffffffffffffffffffffffff168152602001600081525090565b6040518060600160405280600073ffffffffffffffffffffffffffffffffffffffff16815260200160008152602001600081525090565b6040518060800160405280600081526020016000815260200160008152602001600081525090565b6000819050919050565b61286d8161285a565b82525050565b60006020820190506128886000830184612864565b92915050565b600080fd5b61289c8161285a565b81146128a757600080fd5b50565b6000813590506128b981612893565b92915050565b6000602082840312156128d5576128d461288e565b5b60006128e3848285016128aa565b91505092915050565b6000600a9050919050565b600081905092915050565b6000819050919050565b6129158161285a565b82525050565b600073ffffffffffffffffffffffffffffffffffffffff82169050919050565b60006129468261291b565b9050919050565b6129568161293b565b82525050565b608082016000820151612972600085018261290c565b506020820151612985602085018261290c565b506040820151612998604085018261294d565b5060608201516129ab606085018261290c565b50505050565b60006129bd838361295c565b60808301905092915050565b6000602082019050919050565b6129df816128ec565b6129e981846128f7565b92506129f482612902565b8060005b83811015612a25578151612a0c87826129b1565b9650612a17836129c9565b9250506001810190506129f8565b505050505050565b600061050082019050612a4360008301846129d6565b92915050565b612a528161293b565b8114612a5d57600080fd5b50565b600081359050612a6f81612a49565b92915050565b600060208284031215612a8b57612a8a61288e565b5b6000612a9984828501612a60565b91505092915050565b60008115159050919050565b612ab781612aa2565b82525050565b6000602082019050612ad26000830184612aae565b92915050565b60008060408385031215612aef57612aee61288e565b5b6000612afd85828601612a60565b9250506020612b0e858286016128aa565b9150509250929050565b612b218161293b565b82525050565b6000602082019050612b3c6000830184612b18565b92915050565b60008060408385031215612b5957612b5861288e565b5b6000612b67858286016128aa565b9250506020612b78858286016128aa565b9150509250929050565b6000600b9050919050565b600081905092915050565b6000819050919050565b606082016000820151612bb8600085018261294d565b506020820151612bcb602085018261290c565b506040820151612bde604085018261290c565b50505050565b6000612bf08383612ba2565b60608301905092915050565b6000602082019050919050565b612c1281612b82565b612c1c8184612b8d565b9250612c2782612b98565b8060005b83811015612c58578151612c3f8782612be4565b9650612c4a83612bfc565b925050600181019050612c2b565b505050505050565b600061042082019050612c766000830184612c09565b92915050565b6000600a9050919050565b600081905092915050565b6000819050919050565b608082016000820151612cb2600085018261290c565b506020820151612cc5602085018261290c565b506040820151612cd8604085018261290c565b506060820151612ceb606085018261290c565b50505050565b6000612cfd8383612c9c565b60808301905092915050565b6000602082019050919050565b612d1f81612c7c565b612d298184612c87565b9250612d3482612c92565b8060005b83811015612d65578151612d4c8782612cf1565b9650612d5783612d09565b925050600181019050612d38565b505050505050565b600061050082019050612d836000830184612d16565b92915050565b60008060408385031215612da057612d9f61288e565b5b6000612dae858286016128aa565b9250506020612dbf85828601612a60565b9150509250929050565b600082825260208201905092915050565b7f4e6f206465706f7369742c204e6f2047616d6521000000000000000000000000600082015250565b6000612e10601483612dc9565b9150612e1b82612dda565b602082019050919050565b60006020820190508181036000830152612e3f81612e03565b9050919050565b7f4e487b7100000000000000000000000000000000000000000000000000000000600052601160045260246000fd5b6000612e808261285a565b9150612e8b8361285a565b9250828201905080821115612ea357612ea2612e46565b5b92915050565b7f4e487b7100000000000000000000000000000000000000000000000000000000600052603260045260246000fd5b6000612ee38261285a565b9150612eee8361285a565b9250828203905081811115612f0657612f05612e46565b5b92915050565b60008160011c9050919050565b6000808291508390505b6001851115612f6357808604811115612f3f57612f3e612e46565b5b6001851615612f4e5780820291505b8081029050612f5c85612f0c565b9450612f23565b94509492505050565b600082612f7c5760019050613038565b81612f8a5760009050613038565b8160018114612fa05760028114612faa57612fd9565b6001915050613038565b60ff841115612fbc57612fbb612e46565b5b8360020a915084821115612fd357612fd2612e46565b5b50613038565b5060208310610133831016604e8410600b841016171561300e5782820a90508381111561300957613008612e46565b5b613038565b61301b8484846001612f19565b9250905081840481111561303257613031612e46565b5b81810290505b9392505050565b600060ff82169050919050565b60006130578261285a565b91506130628361303f565b925061308f7fffffffffffffffffffffffffffffffffffffffffffffffffffffffffffffffff8484612f6c565b905092915050565b60006130a28261285a565b91506130ad8361285a565b92508282026130bb8161285a565b915082820484148315176130d2576130d1612e46565b5b5092915050565b7f4e487b7100000000000000000000000000000000000000000000000000000000600052601260045260246000fd5b60006131138261285a565b915061311e8361285a565b92508261312e5761312d6130d9565b5b828204905092915050565b60006131448261285a565b91507fffffffffffffffffffffffffffffffffffffffffffffffffffffffffffffffff820361317657613175612e46565b5b600182019050919050565b7f496e73756666696369656e742062616c616e6365000000000000000000000000600082015250565b60006131b7601483612dc9565b91506131c282613181565b602082019050919050565b600060208201905081810360008301526131e6816131aa565b9050919050565b7f506c656173652077616974203220636f6e746573747320616674657220796f7560008201527f72206465706f73697420746f2077697464726177000000000000000000000000602082015250565b6000613249603483612dc9565b9150613254826131ed565b604082019050919050565b600060208201905081810360008301526132788161323c565b9050919050565b60006060820190506132946000830186612b18565b6132a16020830185612864565b6132ae6040830184612b18565b949350505050565b60006040820190506132cb6000830185612b18565b6132d86020830184612864565b9392505050565b6132e881612aa2565b81146132f357600080fd5b50565b600081519050613305816132df565b92915050565b6000602082840312156133215761332061288e565b5b600061332f848285016132f6565b91505092915050565b7f596f7520617265206e6f7420616c6c6f77656420746f2075706461746520636f60008201527f6e74657374210000000000000000000000000000000000000000000000000000602082015250565b6000613394602683612dc9565b915061339f82613338565b604082019050919050565b600060208201905081810360008301526133c381613387565b9050919050565b7f4e6f20636f6e7465737420757064617465210000000000000000000000000000600082015250565b6000613400601283612dc9565b915061340b826133ca565b602082019050919050565b6000602082019050818103600083015261342f816133f3565b9050919050565b60008151905061344581612893565b92915050565b6000602082840312156134615761346061288e565b5b600061346f84828501613436565b91505092915050565b60006134838261285a565b91506000820361349657613495612e46565b5b600182039050919050565b7f596f7520617265206e6f7420616c6c6f77656420746f2073617665206120736360008201527f6f72652100000000000000000000000000000000000000000000000000000000602082015250565b60006134fd602483612dc9565b9150613508826134a1565b604082019050919050565b6000602082019050818103600083015261352c816134f0565b9050919050565b7f4e6f20726571756573742066726f6d20706c6179657200000000000000000000600082015250565b6000613569601683612dc9565b915061357482613533565b602082019050919050565b600060208201905081810360008301526135988161355c565b9050919050565b7f506c6179657220616c726561647920706c617965640000000000000000000000600082015250565b60006135d5601583612dc9565b91506135e08261359f565b602082019050919050565b60006020820190508181036000830152613604816135c8565b9050919050565b7f4f776e61626c653a206e6577206f776e657220697320746865207a65726f206160008201527f6464726573730000000000000000000000000000000000000000000000000000602082015250565b6000613667602683612dc9565b91506136728261360b565b604082019050919050565b600060208201905081810360008301526136968161365a565b9050919050565b7f496e737566666963656e7420616d6f756e74206f662055534443000000000000600082015250565b60006136d3601a83612dc9565b91506136de8261369d565b602082019050919050565b60006020820190508181036000830152613702816136c6565b9050919050565b600060408201905061371e6000830185612b18565b61372b6020830184612b18565b9392505050565b7f496e73756666696369656e7420616c6c6f776564205553444300000000000000600082015250565b6000613768601983612dc9565b915061377382613732565b602082019050919050565b600060208201905081810360008301526137978161375b565b9050919050565b60006060820190506137b36000830186612b18565b6137c06020830185612b18565b6137cd6040830184612864565b949350505050565b6000819050919050565b600061ffff82169050919050565b6000819050919050565b600061381261380d613808846137d5565b6137ed565b6137df565b9050919050565b613822816137f7565b82525050565b600060808201905061383d6000830187612b18565b61384a6020830186612864565b6138576040830185612b18565b6138646060830184613819565b95945050505050565b7f596f7520616c7265616479207265717565737465640000000000000000000000600082015250565b60006138a3601583612dc9565b91506138ae8261386d565b602082019050919050565b600060208201905081810360008301526138d281613896565b9050919050565b7f4f776e61626c653a2063616c6c6572206973206e6f7420746865206f776e6572600082015250565b600061390f602083612dc9565b915061391a826138d9565b602082019050919050565b6000602082019050818103600083015261393e81613902565b9050919050565b7f5061757361626c653a206e6f7420706175736564000000000000000000000000600082015250565b600061397b601483612dc9565b915061398682613945565b602082019050919050565b600060208201905081810360008301526139aa8161396e565b9050919050565b7f5061757361626c653a2070617573656400000000000000000000000000000000600082015250565b60006139e7601083612dc9565b91506139f2826139b1565b602082019050919050565b60006020820190508181036000830152613a16816139da565b905091905056fea2646970667358221220b408c2cea9a923222e9fc04063082dddda98015558a5f9b918fd052aa8df7d7664736f6c63430008110033",
  "linkReferences": {},
  "deployedLinkReferences": {}
}