{
  "_format": "hh-sol-artifact-1",
  "contractName": "NpngPool",
  "sourceName": "contracts/NpngPool.sol",
  "abi": [
    {
      "inputs": [],
      "stateMutability": "nonpayable",
      "type": "constructor"
    },
    {
      "anonymous": false,
      "inputs": [
        {
          "indexed": true,
          "internalType": "address",
          "name": "previousOwner",
          "type": "address"
        },
        {
          "indexed": true,
          "internalType": "address",
          "name": "newOwner",
          "type": "address"
        }
      ],
      "name": "OwnershipTransferred",
      "type": "event"
    },
    {
      "anonymous": false,
      "inputs": [
        {
          "indexed": false,
          "internalType": "address",
          "name": "account",
          "type": "address"
        }
      ],
      "name": "Paused",
      "type": "event"
    },
    {
      "anonymous": false,
      "inputs": [
        {
          "indexed": false,
          "internalType": "address",
          "name": "account",
          "type": "address"
        }
      ],
      "name": "Unpaused",
      "type": "event"
    },
    {
      "inputs": [
        {
          "internalType": "uint256",
          "name": "_newFrequence",
          "type": "uint256"
        }
      ],
      "name": "changeGameFrequence",
      "outputs": [],
      "stateMutability": "nonpayable",
      "type": "function"
    },
    {
      "inputs": [
        {
          "internalType": "address",
          "name": "_newAddress",
          "type": "address"
        }
      ],
      "name": "changeNpngTokenAddress",
      "outputs": [],
      "stateMutability": "nonpayable",
      "type": "function"
    },
    {
      "inputs": [
        {
          "internalType": "address",
          "name": "_newRecorderAddress",
          "type": "address"
        }
      ],
      "name": "changeRecorder",
      "outputs": [],
      "stateMutability": "nonpayable",
      "type": "function"
    },
    {
      "inputs": [],
      "name": "claim",
      "outputs": [],
      "stateMutability": "nonpayable",
      "type": "function"
    },
    {
      "inputs": [
        {
          "internalType": "uint256",
          "name": "_amount",
          "type": "uint256"
        }
      ],
      "name": "depositOnAave",
      "outputs": [],
      "stateMutability": "nonpayable",
      "type": "function"
    },
    {
      "inputs": [
        {
          "internalType": "address",
          "name": "_player",
          "type": "address"
        }
      ],
      "name": "getAccountTable",
      "outputs": [
        {
          "components": [
            {
              "internalType": "uint256",
              "name": "idContest",
              "type": "uint256"
            },
            {
              "internalType": "uint256",
              "name": "rank",
              "type": "uint256"
            },
            {
              "internalType": "uint256",
              "name": "participant",
              "type": "uint256"
            },
            {
              "internalType": "uint256",
              "name": "prize",
              "type": "uint256"
            }
          ],
          "internalType": "struct NpngGame.AccountTable[10]",
          "name": "",
          "type": "tuple[10]"
        }
      ],
      "stateMutability": "view",
      "type": "function"
    },
    {
      "inputs": [
        {
          "internalType": "address",
          "name": "_player",
          "type": "address"
        }
      ],
      "name": "getContestPlayerStatus",
      "outputs": [
        {
          "components": [
            {
              "internalType": "bool",
              "name": "requested",
              "type": "bool"
            },
            {
              "internalType": "bool",
              "name": "played",
              "type": "bool"
            },
            {
              "internalType": "bool",
              "name": "claimed",
              "type": "bool"
            }
          ],
          "internalType": "struct NpngGame.RequestPlaying",
          "name": "",
          "type": "tuple"
        }
      ],
      "stateMutability": "view",
      "type": "function"
    },
    {
      "inputs": [
        {
          "internalType": "uint256",
          "name": "_idContest",
          "type": "uint256"
        },
        {
          "internalType": "address",
          "name": "_player",
          "type": "address"
        }
      ],
      "name": "getContestRank",
      "outputs": [
        {
          "internalType": "uint256",
          "name": "",
          "type": "uint256"
        }
      ],
      "stateMutability": "view",
      "type": "function"
    },
    {
      "inputs": [
        {
          "internalType": "uint256",
          "name": "_idContest",
          "type": "uint256"
        }
      ],
      "name": "getContestRewards",
      "outputs": [
        {
          "internalType": "uint256",
          "name": "",
          "type": "uint256"
        }
      ],
      "stateMutability": "view",
      "type": "function"
    },
    {
      "inputs": [
        {
          "internalType": "uint256",
          "name": "_idContest",
          "type": "uint256"
        }
      ],
      "name": "getContestTable",
      "outputs": [
        {
          "components": [
            {
              "internalType": "uint256",
              "name": "rank",
              "type": "uint256"
            },
            {
              "internalType": "uint256",
              "name": "score",
              "type": "uint256"
            },
            {
              "internalType": "address",
              "name": "player",
              "type": "address"
            },
            {
              "internalType": "uint256",
              "name": "prize",
              "type": "uint256"
            }
          ],
          "internalType": "struct NpngPool.ContestTable[10]",
          "name": "",
          "type": "tuple[10]"
        }
      ],
      "stateMutability": "view",
      "type": "function"
    },
    {
      "inputs": [],
      "name": "getEndOfContest",
      "outputs": [
        {
          "internalType": "uint256",
          "name": "",
          "type": "uint256"
        }
      ],
      "stateMutability": "view",
      "type": "function"
    },
    {
      "inputs": [],
      "name": "getGlobalPrizePool",
      "outputs": [
        {
          "internalType": "uint256",
          "name": "",
          "type": "uint256"
        }
      ],
      "stateMutability": "view",
      "type": "function"
    },
    {
      "inputs": [],
      "name": "getIdContest",
      "outputs": [
        {
          "internalType": "uint256",
          "name": "",
          "type": "uint256"
        }
      ],
      "stateMutability": "view",
      "type": "function"
    },
    {
      "inputs": [
        {
          "internalType": "address",
          "name": "_account",
          "type": "address"
        }
      ],
      "name": "getPendingRewards",
      "outputs": [
        {
          "internalType": "uint256",
          "name": "",
          "type": "uint256"
        }
      ],
      "stateMutability": "view",
      "type": "function"
    },
    {
      "inputs": [],
      "name": "getPlay",
      "outputs": [],
      "stateMutability": "nonpayable",
      "type": "function"
    },
    {
      "inputs": [
        {
          "internalType": "address",
          "name": "_account",
          "type": "address"
        },
        {
          "internalType": "uint256",
          "name": "_idContest",
          "type": "uint256"
        }
      ],
      "name": "getPlayerStatus",
      "outputs": [
        {
          "components": [
            {
              "internalType": "bool",
              "name": "requested",
              "type": "bool"
            },
            {
              "internalType": "bool",
              "name": "played",
              "type": "bool"
            },
            {
              "internalType": "bool",
              "name": "claimed",
              "type": "bool"
            }
          ],
          "internalType": "struct NpngGame.RequestPlaying",
          "name": "",
          "type": "tuple"
        }
      ],
      "stateMutability": "view",
      "type": "function"
    },
    {
      "inputs": [],
      "name": "getPoolStatus",
      "outputs": [
        {
          "components": [
            {
              "internalType": "uint256",
              "name": "idContest",
              "type": "uint256"
            },
            {
              "internalType": "uint256",
              "name": "endContestPoolValue",
              "type": "uint256"
            },
            {
              "internalType": "uint256",
              "name": "contestRewards",
              "type": "uint256"
            }
          ],
          "internalType": "struct NpngPool.PoolStatus[]",
          "name": "",
          "type": "tuple[]"
        }
      ],
      "stateMutability": "view",
      "type": "function"
    },
    {
      "inputs": [
        {
          "internalType": "uint256",
          "name": "_idContest",
          "type": "uint256"
        },
        {
          "internalType": "address",
          "name": "_player",
          "type": "address"
        }
      ],
      "name": "getRewardsPerPlayer",
      "outputs": [
        {
          "internalType": "uint256",
          "name": "",
          "type": "uint256"
        }
      ],
      "stateMutability": "view",
      "type": "function"
    },
    {
      "inputs": [
        {
          "internalType": "address",
          "name": "_account",
          "type": "address"
        }
      ],
      "name": "getTotalClaimedRewards",
      "outputs": [
        {
          "internalType": "uint256",
          "name": "",
          "type": "uint256"
        }
      ],
      "stateMutability": "view",
      "type": "function"
    },
    {
      "inputs": [
        {
          "internalType": "address",
          "name": "_account",
          "type": "address"
        }
      ],
      "name": "getUserBalance",
      "outputs": [
        {
          "internalType": "uint256",
          "name": "",
          "type": "uint256"
        }
      ],
      "stateMutability": "view",
      "type": "function"
    },
    {
      "inputs": [
        {
          "internalType": "uint256",
          "name": "_idContest",
          "type": "uint256"
        }
      ],
      "name": "getWinnersDeposit",
      "outputs": [
        {
          "internalType": "uint256",
          "name": "",
          "type": "uint256"
        }
      ],
      "stateMutability": "view",
      "type": "function"
    },
    {
      "inputs": [
        {
          "internalType": "uint256",
          "name": "",
          "type": "uint256"
        }
      ],
      "name": "numberOfPlayersPerContest",
      "outputs": [
        {
          "internalType": "uint256",
          "name": "",
          "type": "uint256"
        }
      ],
      "stateMutability": "view",
      "type": "function"
    },
    {
      "inputs": [],
      "name": "owner",
      "outputs": [
        {
          "internalType": "address",
          "name": "",
          "type": "address"
        }
      ],
      "stateMutability": "view",
      "type": "function"
    },
    {
      "inputs": [],
      "name": "pause",
      "outputs": [],
      "stateMutability": "nonpayable",
      "type": "function"
    },
    {
      "inputs": [],
      "name": "paused",
      "outputs": [
        {
          "internalType": "bool",
          "name": "",
          "type": "bool"
        }
      ],
      "stateMutability": "view",
      "type": "function"
    },
    {
      "inputs": [],
      "name": "renounceOwnership",
      "outputs": [],
      "stateMutability": "nonpayable",
      "type": "function"
    },
    {
      "inputs": [
        {
          "internalType": "address",
          "name": "_player",
          "type": "address"
        },
        {
          "internalType": "uint256",
          "name": "_score",
          "type": "uint256"
        }
      ],
      "name": "saveScore",
      "outputs": [],
      "stateMutability": "nonpayable",
      "type": "function"
    },
    {
      "inputs": [
        {
          "internalType": "address",
          "name": "newOwner",
          "type": "address"
        }
      ],
      "name": "transferOwnership",
      "outputs": [],
      "stateMutability": "nonpayable",
      "type": "function"
    },
    {
      "inputs": [],
      "name": "unpause",
      "outputs": [],
      "stateMutability": "nonpayable",
      "type": "function"
    },
    {
      "inputs": [],
      "name": "updateContest",
      "outputs": [],
      "stateMutability": "nonpayable",
      "type": "function"
    },
    {
      "inputs": [
        {
          "internalType": "uint256",
          "name": "_amount",
          "type": "uint256"
        }
      ],
      "name": "withdraw",
      "outputs": [],
      "stateMutability": "nonpayable",
      "type": "function"
    }
  ],
  "bytecode": "0x60806040523480156200001157600080fd5b5060008060006101000a81548160ff0219169083151502179055506200004c620000406200026a60201b60201c565b6200027260201b60201c565b426007819055506001600681905550610e1060048190555061dead600860006101000a81548173ffffffffffffffffffffffffffffffffffffffff021916908373ffffffffffffffffffffffffffffffffffffffff16021790555073a2025b15a1757311bfd68cb14eaefcc237af5b43600f60006101000a81548173ffffffffffffffffffffffffffffffffffffffff021916908373ffffffffffffffffffffffffffffffffffffffff16021790555073368eedf3f56ad10b9bc57eed4dac65b26bb667f6601260006101000a81548173ffffffffffffffffffffffffffffffffffffffff021916908373ffffffffffffffffffffffffffffffffffffffff160217905550731ee669290939f8a8864497af3bc83728715265ff601060006101000a81548173ffffffffffffffffffffffffffffffffffffffff021916908373ffffffffffffffffffffffffffffffffffffffff160217905550738ad6d963600f5c45dabd5ff6faa04d51a6d549f0601160006101000a81548173ffffffffffffffffffffffffffffffffffffffff021916908373ffffffffffffffffffffffffffffffffffffffff16021790555060096040518060600160405280600081526020016000815260200160008152509080600181540180825580915050600190039060005260206000209060030201600090919091909150600082015181600001556020820151816001015560408201518160020155505062000337565b600033905090565b60008060019054906101000a900473ffffffffffffffffffffffffffffffffffffffff16905081600060016101000a81548173ffffffffffffffffffffffffffffffffffffffff021916908373ffffffffffffffffffffffffffffffffffffffff1602179055508173ffffffffffffffffffffffffffffffffffffffff168173ffffffffffffffffffffffffffffffffffffffff167f8be0079c531659141344cd1fd0a4f28419497f9722a3daafe3b4186f6b6457e060405160405180910390a35050565b613f5c80620003476000396000f3fe608060405234801561001057600080fd5b50600436106101e55760003560e01c80638347f5361161010f578063c85785d6116100a2578063f2fbee3f11610071578063f2fbee3f1461055a578063f2fde38b14610576578063f6ed201714610592578063fd8d1909146105c2576101e5565b8063c85785d6146104c0578063cad7ebce146104de578063e064613e1461050e578063e9d699901461052a576101e5565b8063b00d9c04116100de578063b00d9c0414610412578063b2e85b6714610442578063b4ace15814610472578063bb2922e614610490576101e5565b80638347f5361461039e5780638456cb59146103ba5780638da5cb5b146103c45780639cfc8b8c146103e2576101e5565b806347734892116101875780635c975abb116101565780635c975abb1461033c578063695a65171461035a578063715018a6146103765780637f79496c14610380576101e5565b806347734892146102c85780634e499acd146102f85780634e71d92d14610302578063529ffdff1461030c576101e5565b80632452a7e3116101c35780632452a7e3146102425780632d75acbc146102725780632e1a7d4d146102a25780633f4ba83a146102be576101e5565b80630bd5d284146101ea57806312b946bc146101f45780631eadace914610212575b600080fd5b6101f26105de565b005b6101fc61066a565b6040516102099190612cf1565b60405180910390f35b61022c60048036038101906102279190612d9b565b610686565b6040516102399190612cf1565b60405180910390f35b61025c60048036038101906102579190612ddb565b61081f565b6040516102699190612f17565b60405180910390f35b61028c60048036038101906102879190612ddb565b610a0e565b6040516102999190612cf1565b60405180910390f35b6102bc60048036038101906102b79190612ddb565b610a77565b005b6102c6610dde565b005b6102e260048036038101906102dd9190612f33565b610df0565b6040516102ef9190612cf1565b60405180910390f35b610300610e39565b005b61030a611008565b005b61032660048036038101906103219190612f33565b6112a1565b6040516103339190612fbd565b60405180910390f35b6103446113ec565b6040516103519190612fe7565b60405180910390f35b610374600480360381019061036f9190613002565b611402565b005b61037e61178b565b005b61038861179f565b6040516103959190613133565b60405180910390f35b6103b860048036038101906103b39190612f33565b61181c565b005b6103c2611868565b005b6103cc61187a565b6040516103d99190613164565b60405180910390f35b6103fc60048036038101906103f79190612f33565b6118a3565b6040516104099190612cf1565b60405180910390f35b61042c60048036038101906104279190612ddb565b6118ec565b6040516104399190612cf1565b60405180910390f35b61045c60048036038101906104579190613002565b6119dc565b6040516104699190612fbd565b60405180910390f35b61047a611a98565b6040516104879190612cf1565b60405180910390f35b6104aa60048036038101906104a59190612f33565b611bdc565b6040516104b79190613270565b60405180910390f35b6104c8611cc4565b6040516104d59190612cf1565b60405180910390f35b6104f860048036038101906104f39190612d9b565b611cce565b6040516105059190612cf1565b60405180910390f35b61052860048036038101906105239190612f33565b611e97565b005b610544600480360381019061053f9190612ddb565b611ee3565b6040516105519190612cf1565b60405180910390f35b610574600480360381019061056f9190612ddb565b611efb565b005b610590600480360381019061058b9190612f33565b611f0d565b005b6105ac60048036038101906105a79190612f33565b611f90565b6040516105b99190612cf1565b60405180910390f35b6105dc60048036038101906105d79190612ddb565b612055565b005b6000600a60003373ffffffffffffffffffffffffffffffffffffffff1673ffffffffffffffffffffffffffffffffffffffff1681526020019081526020016000205411610660576040517f08c379a0000000000000000000000000000000000000000000000000000000008152600401610657906132e9565b60405180910390fd5b610668612576565b565b60008060045460075461067d9190613338565b90508091505090565b60008060006106958585611cce565b9050600080600090505b6001805490508110156107955786600182815481106106c1576106c061336c565b5b90600052602060002090600402016000015414801561075057508573ffffffffffffffffffffffffffffffffffffffff16600182815481106107065761070561336c565b5b906000526020600020906004020160010160009054906101000a900473ffffffffffffffffffffffffffffffffffffffff1673ffffffffffffffffffffffffffffffffffffffff16145b1561078257600181815481106107695761076861336c565b5b9060005260206000209060040201600301549150610795565b808061078d9061339b565b91505061069f565b50600a821161080e57662386f26fc1000060058360656107b591906133e3565b6107bf9190613557565b6107c8886118ec565b620f4240846107d791906135a2565b6107e19190613613565b6107e9611a98565b6107f391906135a2565b6107fd91906135a2565b6108079190613613565b9250610813565b600092505b82935050505092915050565b610827612bef565b61082f612bef565b600080600090505b600180549050811015610a0357600181815481106108585761085761336c565b5b90600052602060002090600402016000015485036109f0576108bf85600183815481106108885761088761336c565b5b906000526020600020906004020160010160009054906101000a900473ffffffffffffffffffffffffffffffffffffffff16611cce565b9150600082141580156108d35750600a8211155b156109ef576040518060800160405280838152602001600183815481106108fd576108fc61336c565b5b9060005260206000209060040201600201548152602001600183815481106109285761092761336c565b5b906000526020600020906004020160010160009054906101000a900473ffffffffffffffffffffffffffffffffffffffff1673ffffffffffffffffffffffffffffffffffffffff1681526020016109c4876001858154811061098d5761098c61336c565b5b906000526020600020906004020160010160009054906101000a900473ffffffffffffffffffffffffffffffffffffffff16610686565b815250836001846109d591906133e3565b600a81106109e6576109e561336c565b5b60200201819052505b5b80806109fb9061339b565b915050610837565b508192505050919050565b600080610a19612bef565b610a228461081f565b905060005b600a811015610a6c578181600a8110610a4357610a4261336c565b5b60200201516060015183610a579190613338565b92508080610a649061339b565b915050610a27565b508192505050919050565b80600a60003373ffffffffffffffffffffffffffffffffffffffff1673ffffffffffffffffffffffffffffffffffffffff168152602001908152602001600020541015610af9576040517f08c379a0000000000000000000000000000000000000000000000000000000008152600401610af090613690565b60405180910390fd5b6006546002600d60003373ffffffffffffffffffffffffffffffffffffffff1673ffffffffffffffffffffffffffffffffffffffff16815260200190815260200160002054610b489190613338565b1115610b89576040517f08c379a0000000000000000000000000000000000000000000000000000000008152600401610b8090613722565b60405180910390fd5b601260009054906101000a900473ffffffffffffffffffffffffffffffffffffffff1673ffffffffffffffffffffffffffffffffffffffff166369328dec600f60009054906101000a900473ffffffffffffffffffffffffffffffffffffffff1683306040518463ffffffff1660e01b8152600401610c0a93929190613742565b600060405180830381600087803b158015610c2457600080fd5b505af1158015610c38573d6000803e3d6000fd5b50505050600f60009054906101000a900473ffffffffffffffffffffffffffffffffffffffff1673ffffffffffffffffffffffffffffffffffffffff1663a9059cbb33836040518363ffffffff1660e01b8152600401610c99929190613779565b6020604051808303816000875af1158015610cb8573d6000803e3d6000fd5b505050506040513d601f19601f82011682018060405250810190610cdc91906137ce565b5080600a60003373ffffffffffffffffffffffffffffffffffffffff1673ffffffffffffffffffffffffffffffffffffffff1681526020019081526020016000206000828254610d2c91906133e3565b9250508190555080600c6000828254610d459190613338565b92505081905550601160009054906101000a900473ffffffffffffffffffffffffffffffffffffffff1673ffffffffffffffffffffffffffffffffffffffff16639dc29fac33836040518363ffffffff1660e01b8152600401610da9929190613779565b600060405180830381600087803b158015610dc357600080fd5b505af1158015610dd7573d6000803e3d6000fd5b5050505050565b610de6612738565b610dee6127b6565b565b6000600a60008373ffffffffffffffffffffffffffffffffffffffff1673ffffffffffffffffffffffffffffffffffffffff168152602001908152602001600020549050919050565b600454600754610e499190613338565b421015610e8b576040517f08c379a0000000000000000000000000000000000000000000000000000000008152600401610e8290613847565b60405180910390fd5b42600781905550600060096001600654610ea591906133e3565b81548110610eb657610eb561336c565b5b906000526020600020906003020160020154600c54600b5460096001600654610edf91906133e3565b81548110610ef057610eef61336c565b5b906000526020600020906003020160010154610f0c9190613338565b610f1691906133e3565b610f209190613338565b9050600960405180606001604052806006548152602001838152602001610f48600654610a0e565b815250908060018154018082558091505060019003906000526020600020906003020160009091909190915060008201518160000155602082015181600101556040820151816002015550506000600b819055506000600c81905550600960065481548110610fba57610fb961336c565b5b906000526020600020906003020160020154600e600060065481526020019081526020016000208190555060066000815480929190610ff89061339b565b9190505550611005612818565b50565b60008080600160065461101b91906133e3565b90505b60008111156111575760011515600360003373ffffffffffffffffffffffffffffffffffffffff1673ffffffffffffffffffffffffffffffffffffffff168152602001908152602001600020600083815260200190815260200160002060000160029054906101000a900460ff16151503156111575761109e8133610686565b915081836110ac9190613338565b925081600e600083815260200190815260200160002060008282546110d191906133e3565b925050819055506001600360003373ffffffffffffffffffffffffffffffffffffffff1673ffffffffffffffffffffffffffffffffffffffff168152602001908152602001600020600083815260200190815260200160002060000160026101000a81548160ff021916908315150217905550808061114f90613867565b91505061101e565b50600182111561129d5781600a60003373ffffffffffffffffffffffffffffffffffffffff1673ffffffffffffffffffffffffffffffffffffffff16815260200190815260200160002060008282546111b09190613338565b9250508190555081600560003373ffffffffffffffffffffffffffffffffffffffff1673ffffffffffffffffffffffffffffffffffffffff16815260200190815260200160002060008282546112069190613338565b92505081905550601160009054906101000a900473ffffffffffffffffffffffffffffffffffffffff1673ffffffffffffffffffffffffffffffffffffffff166340c10f1933846040518363ffffffff1660e01b815260040161126a929190613779565b600060405180830381600087803b15801561128457600080fd5b505af1158015611298573d6000803e3d6000fd5b505050505b5050565b6112a9612c1d565b6000600a60008473ffffffffffffffffffffffffffffffffffffffff1673ffffffffffffffffffffffffffffffffffffffff168152602001908152602001600020541161132b576040517f08c379a0000000000000000000000000000000000000000000000000000000008152600401611322906138dc565b60405180910390fd5b611333612c1d565b600360008473ffffffffffffffffffffffffffffffffffffffff1673ffffffffffffffffffffffffffffffffffffffff168152602001908152602001600020600060065481526020019081526020016000206040518060600160405290816000820160009054906101000a900460ff161515151581526020016000820160019054906101000a900460ff161515151581526020016000820160029054906101000a900460ff161515151581525050905080915050919050565b60008060009054906101000a900460ff16905090565b600860009054906101000a900473ffffffffffffffffffffffffffffffffffffffff1673ffffffffffffffffffffffffffffffffffffffff163373ffffffffffffffffffffffffffffffffffffffff1614611492576040517f08c379a00000000000000000000000000000000000000000000000000000000081526004016114899061396e565b60405180910390fd5b60011515600360008473ffffffffffffffffffffffffffffffffffffffff1673ffffffffffffffffffffffffffffffffffffffff1681526020019081526020016000206000600654815260200190815260200160002060000160009054906101000a900460ff1615151461153b576040517f08c379a0000000000000000000000000000000000000000000000000000000008152600401611532906139da565b60405180910390fd5b60001515600360008473ffffffffffffffffffffffffffffffffffffffff1673ffffffffffffffffffffffffffffffffffffffff1681526020019081526020016000206000600654815260200190815260200160002060000160019054906101000a900460ff161515146115e4576040517f08c379a00000000000000000000000000000000000000000000000000000000081526004016115db90613a46565b60405180910390fd5b6001604051806080016040528060065481526020018473ffffffffffffffffffffffffffffffffffffffff168152602001838152602001600a60008673ffffffffffffffffffffffffffffffffffffffff1673ffffffffffffffffffffffffffffffffffffffff1681526020019081526020016000205481525090806001815401808255809150506001900390600052602060002090600402016000909190919091506000820151816000015560208201518160010160006101000a81548173ffffffffffffffffffffffffffffffffffffffff021916908373ffffffffffffffffffffffffffffffffffffffff160217905550604082015181600201556060820151816003015550506001600360008473ffffffffffffffffffffffffffffffffffffffff1673ffffffffffffffffffffffffffffffffffffffff1681526020019081526020016000206000600654815260200190815260200160002060000160016101000a81548160ff02191690831515021790555060026000600654815260200190815260200160002060008154809291906117829061339b565b91905055505050565b611793612738565b61179d6000612a2d565b565b60606009805480602002602001604051908101604052809291908181526020016000905b8282101561181357838290600052602060002090600302016040518060600160405290816000820154815260200160018201548152602001600282015481525050815260200190600101906117c3565b50505050905090565b611824612738565b80601160006101000a81548173ffffffffffffffffffffffffffffffffffffffff021916908373ffffffffffffffffffffffffffffffffffffffff16021790555050565b611870612738565b611878612af2565b565b60008060019054906101000a900473ffffffffffffffffffffffffffffffffffffffff16905090565b6000600560008373ffffffffffffffffffffffffffffffffffffffff1673ffffffffffffffffffffffffffffffffffffffff168152602001908152602001600020549050919050565b6000806000905060005b6001805490508110156119d257600181815481106119175761191661336c565b5b906000526020600020906004020160000154841480156119865750600a611983856001848154811061194c5761194b61336c565b5b906000526020600020906004020160010160009054906101000a900473ffffffffffffffffffffffffffffffffffffffff16611cce565b11155b156119bf576001818154811061199f5761199e61336c565b5b906000526020600020906004020160030154826119bc9190613338565b91505b80806119ca9061339b565b9150506118f6565b5080915050919050565b6119e4612c1d565b600360008473ffffffffffffffffffffffffffffffffffffffff1673ffffffffffffffffffffffffffffffffffffffff16815260200190815260200160002060008381526020019081526020016000206040518060600160405290816000820160009054906101000a900460ff161515151581526020016000820160019054906101000a900460ff161515151581526020016000820160029054906101000a900460ff161515151581525050905092915050565b600080601060009054906101000a900473ffffffffffffffffffffffffffffffffffffffff1673ffffffffffffffffffffffffffffffffffffffff166370a08231306040518263ffffffff1660e01b8152600401611af69190613164565b602060405180830381865afa158015611b13573d6000803e3d6000fd5b505050506040513d601f19601f82011682018060405250810190611b379190613a7b565b9050600060096001600654611b4c91906133e3565b81548110611b5d57611b5c61336c565b5b906000526020600020906003020160020154600c54600b5460096001600654611b8691906133e3565b81548110611b9757611b9661336c565b5b906000526020600020906003020160010154611bb39190613338565b611bbd91906133e3565b611bc79190613338565b90508082611bd591906133e3565b9250505090565b611be4612c44565b611bec612c44565b6000806000905060006001600654611c0491906133e3565b9050600a811015611c1757809250611c1c565b600a92505b60008190505b8382611c2e91906133e3565b811115611cb7576040518060800160405280828152602001611c50838a611cce565b815260200160026000848152602001908152602001600020548152602001611c78838a610686565b8152508584600a8110611c8e57611c8d61336c565b5b60200201819052508280611ca19061339b565b9350508080611caf90613867565b915050611c22565b5083945050505050919050565b6000600654905090565b6000806000806001905060005b600180549050811015611df95760018181548110611cfc57611cfb61336c565b5b90600052602060002090600402016000015487148015611d8c575060018181548110611d2b57611d2a61336c565b5b906000526020600020906004020160010160009054906101000a900473ffffffffffffffffffffffffffffffffffffffff1673ffffffffffffffffffffffffffffffffffffffff168673ffffffffffffffffffffffffffffffffffffffff16145b15611dc15780935060018181548110611da857611da761336c565b5b9060005260206000209060040201600201549250611df9565b600180549050600182611dd49190613338565b03611de6576000945050505050611e91565b8080611df19061339b565b915050611cdb565b5060005b600180549050811015611e895760018181548110611e1e57611e1d61336c565b5b90600052602060002090600402016000015487148015611e62575060018181548110611e4d57611e4c61336c565b5b90600052602060002090600402016002015483115b15611e76578180611e729061339b565b9250505b8080611e819061339b565b915050611dfd565b508093505050505b92915050565b611e9f612738565b80600860006101000a81548173ffffffffffffffffffffffffffffffffffffffff021916908373ffffffffffffffffffffffffffffffffffffffff16021790555050565b60026020528060005260406000206000915090505481565b611f03612738565b8060048190555050565b611f15612738565b600073ffffffffffffffffffffffffffffffffffffffff168173ffffffffffffffffffffffffffffffffffffffff1603611f84576040517f08c379a0000000000000000000000000000000000000000000000000000000008152600401611f7b90613b1a565b60405180910390fd5b611f8d81612a2d565b50565b6000806000905060006001600654611fa891906133e3565b90505b600081111561204b5760011515600360008673ffffffffffffffffffffffffffffffffffffffff1673ffffffffffffffffffffffffffffffffffffffff168152602001908152602001600020600083815260200190815260200160002060000160029054906101000a900460ff161515031561204b5761202b8185610686565b826120369190613338565b9150808061204390613867565b915050611fab565b5080915050919050565b600f60009054906101000a900473ffffffffffffffffffffffffffffffffffffffff1673ffffffffffffffffffffffffffffffffffffffff166370a08231336040518263ffffffff1660e01b81526004016120b09190613164565b602060405180830381865afa1580156120cd573d6000803e3d6000fd5b505050506040513d601f19601f820116820180604052508101906120f19190613a7b565b811115612133576040517f08c379a000000000000000000000000000000000000000000000000000000000815260040161212a90613b86565b60405180910390fd5b600f60009054906101000a900473ffffffffffffffffffffffffffffffffffffffff1673ffffffffffffffffffffffffffffffffffffffff1663dd62ed3e33306040518363ffffffff1660e01b8152600401612190929190613ba6565b602060405180830381865afa1580156121ad573d6000803e3d6000fd5b505050506040513d601f19601f820116820180604052508101906121d19190613a7b565b811115612213576040517f08c379a000000000000000000000000000000000000000000000000000000000815260040161220a90613c1b565b60405180910390fd5b600f60009054906101000a900473ffffffffffffffffffffffffffffffffffffffff1673ffffffffffffffffffffffffffffffffffffffff166323b872dd3330846040518463ffffffff1660e01b815260040161227293929190613c3b565b6020604051808303816000875af1158015612291573d6000803e3d6000fd5b505050506040513d601f19601f820116820180604052508101906122b591906137ce565b50600f60009054906101000a900473ffffffffffffffffffffffffffffffffffffffff1673ffffffffffffffffffffffffffffffffffffffff1663095ea7b3601260009054906101000a900473ffffffffffffffffffffffffffffffffffffffff16836040518363ffffffff1660e01b8152600401612335929190613779565b6020604051808303816000875af1158015612354573d6000803e3d6000fd5b505050506040513d601f19601f8201168201806040525081019061237891906137ce565b50601260009054906101000a900473ffffffffffffffffffffffffffffffffffffffff1673ffffffffffffffffffffffffffffffffffffffff1663617ba037600f60009054906101000a900473ffffffffffffffffffffffffffffffffffffffff16833060006040518563ffffffff1660e01b81526004016123fd9493929190613cc5565b600060405180830381600087803b15801561241757600080fd5b505af115801561242b573d6000803e3d6000fd5b5050505080600a60003373ffffffffffffffffffffffffffffffffffffffff1673ffffffffffffffffffffffffffffffffffffffff168152602001908152602001600020600082825461247e9190613338565b9250508190555080600b60008282546124979190613338565b92505081905550601160009054906101000a900473ffffffffffffffffffffffffffffffffffffffff1673ffffffffffffffffffffffffffffffffffffffff166340c10f1933836040518363ffffffff1660e01b81526004016124fb929190613779565b600060405180830381600087803b15801561251557600080fd5b505af1158015612529573d6000803e3d6000fd5b50505050600654600d60003373ffffffffffffffffffffffffffffffffffffffff1673ffffffffffffffffffffffffffffffffffffffff1681526020019081526020016000208190555050565b60001515600360003373ffffffffffffffffffffffffffffffffffffffff1673ffffffffffffffffffffffffffffffffffffffff1681526020019081526020016000206000600654815260200190815260200160002060000160009054906101000a900460ff1615151461261f576040517f08c379a000000000000000000000000000000000000000000000000000000000815260040161261690613d56565b60405180910390fd5b60001515600360003373ffffffffffffffffffffffffffffffffffffffff1673ffffffffffffffffffffffffffffffffffffffff1681526020019081526020016000206000600654815260200190815260200160002060000160019054906101000a900460ff161515146126c8576040517f08c379a00000000000000000000000000000000000000000000000000000000081526004016126bf90613a46565b60405180910390fd5b6001600360003373ffffffffffffffffffffffffffffffffffffffff1673ffffffffffffffffffffffffffffffffffffffff1681526020019081526020016000206000600654815260200190815260200160002060000160006101000a81548160ff021916908315150217905550565b612740612b54565b73ffffffffffffffffffffffffffffffffffffffff1661275e61187a565b73ffffffffffffffffffffffffffffffffffffffff16146127b4576040517f08c379a00000000000000000000000000000000000000000000000000000000081526004016127ab90613dc2565b60405180910390fd5b565b6127be612b5c565b60008060006101000a81548160ff0219169083151502179055507f5db9ee0a495bf2e6ff9c91a7834c1ba4fdd244a5e8aa4e537bd38aeae4b073aa612801612b54565b60405161280e9190613164565b60405180910390a1565b600860009054906101000a900473ffffffffffffffffffffffffffffffffffffffff1673ffffffffffffffffffffffffffffffffffffffff163373ffffffffffffffffffffffffffffffffffffffff16146128a8576040517f08c379a000000000000000000000000000000000000000000000000000000000815260040161289f90613e2e565b60405180910390fd5b603c6006541115612a2b576000600e6000603c6006546128c891906133e3565b815260200190815260200160002054905080600a6000600860009054906101000a900473ffffffffffffffffffffffffffffffffffffffff1673ffffffffffffffffffffffffffffffffffffffff1673ffffffffffffffffffffffffffffffffffffffff168152602001908152602001600020600082825461294a9190613338565b92505081905550601160009054906101000a900473ffffffffffffffffffffffffffffffffffffffff1673ffffffffffffffffffffffffffffffffffffffff166340c10f19600860009054906101000a900473ffffffffffffffffffffffffffffffffffffffff16836040518363ffffffff1660e01b81526004016129d0929190613779565b600060405180830381600087803b1580156129ea57600080fd5b505af11580156129fe573d6000803e3d6000fd5b505050506000600e6000603c600654612a1791906133e3565b815260200190815260200160002081905550505b565b60008060019054906101000a900473ffffffffffffffffffffffffffffffffffffffff16905081600060016101000a81548173ffffffffffffffffffffffffffffffffffffffff021916908373ffffffffffffffffffffffffffffffffffffffff1602179055508173ffffffffffffffffffffffffffffffffffffffff168173ffffffffffffffffffffffffffffffffffffffff167f8be0079c531659141344cd1fd0a4f28419497f9722a3daafe3b4186f6b6457e060405160405180910390a35050565b612afa612ba5565b60016000806101000a81548160ff0219169083151502179055507f62e78cea01bee320cd4e420270b5ea74000d11b0c9f74754ebdbfc544b05a258612b3d612b54565b604051612b4a9190613164565b60405180910390a1565b600033905090565b612b646113ec565b612ba3576040517f08c379a0000000000000000000000000000000000000000000000000000000008152600401612b9a90613e9a565b60405180910390fd5b565b612bad6113ec565b15612bed576040517f08c379a0000000000000000000000000000000000000000000000000000000008152600401612be490613f06565b60405180910390fd5b565b604051806101400160405280600a905b612c07612c72565b815260200190600190039081612bff5790505090565b60405180606001604052806000151581526020016000151581526020016000151581525090565b604051806101400160405280600a905b612c5c612cb0565b815260200190600190039081612c545790505090565b60405180608001604052806000815260200160008152602001600073ffffffffffffffffffffffffffffffffffffffff168152602001600081525090565b6040518060800160405280600081526020016000815260200160008152602001600081525090565b6000819050919050565b612ceb81612cd8565b82525050565b6000602082019050612d066000830184612ce2565b92915050565b600080fd5b612d1a81612cd8565b8114612d2557600080fd5b50565b600081359050612d3781612d11565b92915050565b600073ffffffffffffffffffffffffffffffffffffffff82169050919050565b6000612d6882612d3d565b9050919050565b612d7881612d5d565b8114612d8357600080fd5b50565b600081359050612d9581612d6f565b92915050565b60008060408385031215612db257612db1612d0c565b5b6000612dc085828601612d28565b9250506020612dd185828601612d86565b9150509250929050565b600060208284031215612df157612df0612d0c565b5b6000612dff84828501612d28565b91505092915050565b6000600a9050919050565b600081905092915050565b6000819050919050565b612e3181612cd8565b82525050565b612e4081612d5d565b82525050565b608082016000820151612e5c6000850182612e28565b506020820151612e6f6020850182612e28565b506040820151612e826040850182612e37565b506060820151612e956060850182612e28565b50505050565b6000612ea78383612e46565b60808301905092915050565b6000602082019050919050565b612ec981612e08565b612ed38184612e13565b9250612ede82612e1e565b8060005b83811015612f0f578151612ef68782612e9b565b9650612f0183612eb3565b925050600181019050612ee2565b505050505050565b600061050082019050612f2d6000830184612ec0565b92915050565b600060208284031215612f4957612f48612d0c565b5b6000612f5784828501612d86565b91505092915050565b60008115159050919050565b612f7581612f60565b82525050565b606082016000820151612f916000850182612f6c565b506020820151612fa46020850182612f6c565b506040820151612fb76040850182612f6c565b50505050565b6000606082019050612fd26000830184612f7b565b92915050565b612fe181612f60565b82525050565b6000602082019050612ffc6000830184612fd8565b92915050565b6000806040838503121561301957613018612d0c565b5b600061302785828601612d86565b925050602061303885828601612d28565b9150509250929050565b600081519050919050565b600082825260208201905092915050565b6000819050602082019050919050565b6060820160008201516130846000850182612e28565b5060208201516130976020850182612e28565b5060408201516130aa6040850182612e28565b50505050565b60006130bc838361306e565b60608301905092915050565b6000602082019050919050565b60006130e082613042565b6130ea818561304d565b93506130f58361305e565b8060005b8381101561312657815161310d88826130b0565b9750613118836130c8565b9250506001810190506130f9565b5085935050505092915050565b6000602082019050818103600083015261314d81846130d5565b905092915050565b61315e81612d5d565b82525050565b60006020820190506131796000830184613155565b92915050565b6000600a9050919050565b600081905092915050565b6000819050919050565b6080820160008201516131b56000850182612e28565b5060208201516131c86020850182612e28565b5060408201516131db6040850182612e28565b5060608201516131ee6060850182612e28565b50505050565b6000613200838361319f565b60808301905092915050565b6000602082019050919050565b6132228161317f565b61322c818461318a565b925061323782613195565b8060005b8381101561326857815161324f87826131f4565b965061325a8361320c565b92505060018101905061323b565b505050505050565b6000610500820190506132866000830184613219565b92915050565b600082825260208201905092915050565b7f4e6f206465706f7369742c204e6f2047616d6521000000000000000000000000600082015250565b60006132d360148361328c565b91506132de8261329d565b602082019050919050565b60006020820190508181036000830152613302816132c6565b9050919050565b7f4e487b7100000000000000000000000000000000000000000000000000000000600052601160045260246000fd5b600061334382612cd8565b915061334e83612cd8565b925082820190508082111561336657613365613309565b5b92915050565b7f4e487b7100000000000000000000000000000000000000000000000000000000600052603260045260246000fd5b60006133a682612cd8565b91507fffffffffffffffffffffffffffffffffffffffffffffffffffffffffffffffff82036133d8576133d7613309565b5b600182019050919050565b60006133ee82612cd8565b91506133f983612cd8565b925082820390508181111561341157613410613309565b5b92915050565b60008160011c9050919050565b6000808291508390505b600185111561346e5780860481111561344a57613449613309565b5b60018516156134595780820291505b808102905061346785613417565b945061342e565b94509492505050565b6000826134875760019050613543565b816134955760009050613543565b81600181146134ab57600281146134b5576134e4565b6001915050613543565b60ff8411156134c7576134c6613309565b5b8360020a9150848211156134de576134dd613309565b5b50613543565b5060208310610133831016604e8410600b84101617156135195782820a90508381111561351457613513613309565b5b613543565b6135268484846001613424565b9250905081840481111561353d5761353c613309565b5b81810290505b9392505050565b600060ff82169050919050565b600061356282612cd8565b915061356d8361354a565b925061359a7fffffffffffffffffffffffffffffffffffffffffffffffffffffffffffffffff8484613477565b905092915050565b60006135ad82612cd8565b91506135b883612cd8565b92508282026135c681612cd8565b915082820484148315176135dd576135dc613309565b5b5092915050565b7f4e487b7100000000000000000000000000000000000000000000000000000000600052601260045260246000fd5b600061361e82612cd8565b915061362983612cd8565b925082613639576136386135e4565b5b828204905092915050565b7f496e73756666696369656e742062616c616e6365000000000000000000000000600082015250565b600061367a60148361328c565b915061368582613644565b602082019050919050565b600060208201905081810360008301526136a98161366d565b9050919050565b7f506c656173652077616974203220636f6e746573747320616674657220796f7560008201527f72206465706f73697420746f2077697464726177000000000000000000000000602082015250565b600061370c60348361328c565b9150613717826136b0565b604082019050919050565b6000602082019050818103600083015261373b816136ff565b9050919050565b60006060820190506137576000830186613155565b6137646020830185612ce2565b6137716040830184613155565b949350505050565b600060408201905061378e6000830185613155565b61379b6020830184612ce2565b9392505050565b6137ab81612f60565b81146137b657600080fd5b50565b6000815190506137c8816137a2565b92915050565b6000602082840312156137e4576137e3612d0c565b5b60006137f2848285016137b9565b91505092915050565b7f4e6f20636f6e7465737420757064617465210000000000000000000000000000600082015250565b600061383160128361328c565b915061383c826137fb565b602082019050919050565b6000602082019050818103600083015261386081613824565b9050919050565b600061387282612cd8565b91506000820361388557613884613309565b5b600182039050919050565b7f4e6f206465706f73697400000000000000000000000000000000000000000000600082015250565b60006138c6600a8361328c565b91506138d182613890565b602082019050919050565b600060208201905081810360008301526138f5816138b9565b9050919050565b7f596f7520617265206e6f7420616c6c6f77656420746f2073617665206120736360008201527f6f72652100000000000000000000000000000000000000000000000000000000602082015250565b600061395860248361328c565b9150613963826138fc565b604082019050919050565b600060208201905081810360008301526139878161394b565b9050919050565b7f4e6f20726571756573742066726f6d20706c6179657200000000000000000000600082015250565b60006139c460168361328c565b91506139cf8261398e565b602082019050919050565b600060208201905081810360008301526139f3816139b7565b9050919050565b7f506c6179657220616c726561647920706c617965640000000000000000000000600082015250565b6000613a3060158361328c565b9150613a3b826139fa565b602082019050919050565b60006020820190508181036000830152613a5f81613a23565b9050919050565b600081519050613a7581612d11565b92915050565b600060208284031215613a9157613a90612d0c565b5b6000613a9f84828501613a66565b91505092915050565b7f4f776e61626c653a206e6577206f776e657220697320746865207a65726f206160008201527f6464726573730000000000000000000000000000000000000000000000000000602082015250565b6000613b0460268361328c565b9150613b0f82613aa8565b604082019050919050565b60006020820190508181036000830152613b3381613af7565b9050919050565b7f496e737566666963656e7420616d6f756e74206f662055534443000000000000600082015250565b6000613b70601a8361328c565b9150613b7b82613b3a565b602082019050919050565b60006020820190508181036000830152613b9f81613b63565b9050919050565b6000604082019050613bbb6000830185613155565b613bc86020830184613155565b9392505050565b7f496e73756666696369656e7420616c6c6f776564205553444300000000000000600082015250565b6000613c0560198361328c565b9150613c1082613bcf565b602082019050919050565b60006020820190508181036000830152613c3481613bf8565b9050919050565b6000606082019050613c506000830186613155565b613c5d6020830185613155565b613c6a6040830184612ce2565b949350505050565b6000819050919050565b600061ffff82169050919050565b6000819050919050565b6000613caf613caa613ca584613c72565b613c8a565b613c7c565b9050919050565b613cbf81613c94565b82525050565b6000608082019050613cda6000830187613155565b613ce76020830186612ce2565b613cf46040830185613155565b613d016060830184613cb6565b95945050505050565b7f596f7520616c7265616479207265717565737465640000000000000000000000600082015250565b6000613d4060158361328c565b9150613d4b82613d0a565b602082019050919050565b60006020820190508181036000830152613d6f81613d33565b9050919050565b7f4f776e61626c653a2063616c6c6572206973206e6f7420746865206f776e6572600082015250565b6000613dac60208361328c565b9150613db782613d76565b602082019050919050565b60006020820190508181036000830152613ddb81613d9f565b9050919050565b7f596f7520617265206e6f7420616c6c6f77656420746f20636c61696d21000000600082015250565b6000613e18601d8361328c565b9150613e2382613de2565b602082019050919050565b60006020820190508181036000830152613e4781613e0b565b9050919050565b7f5061757361626c653a206e6f7420706175736564000000000000000000000000600082015250565b6000613e8460148361328c565b9150613e8f82613e4e565b602082019050919050565b60006020820190508181036000830152613eb381613e77565b9050919050565b7f5061757361626c653a2070617573656400000000000000000000000000000000600082015250565b6000613ef060108361328c565b9150613efb82613eba565b602082019050919050565b60006020820190508181036000830152613f1f81613ee3565b905091905056fea264697066735822122040f57cc5a8ecb8bc53e8dfb9cb775af6cd291af111c60acb576104134699b5d664736f6c63430008110033",
  "linkReferences": {},
  "deployedLinkReferences": {}
}