{
  "_format": "hh-sol-artifact-1",
  "contractName": "NpngPool",
  "sourceName": "contracts/NpngPool.sol",
  "abi": [
    {
      "inputs": [],
      "stateMutability": "nonpayable",
      "type": "constructor"
    },
    {
      "anonymous": false,
      "inputs": [
        {
          "indexed": true,
          "internalType": "address",
          "name": "previousOwner",
          "type": "address"
        },
        {
          "indexed": true,
          "internalType": "address",
          "name": "newOwner",
          "type": "address"
        }
      ],
      "name": "OwnershipTransferred",
      "type": "event"
    },
    {
      "anonymous": false,
      "inputs": [
        {
          "indexed": false,
          "internalType": "address",
          "name": "account",
          "type": "address"
        }
      ],
      "name": "Paused",
      "type": "event"
    },
    {
      "anonymous": false,
      "inputs": [
        {
          "indexed": false,
          "internalType": "address",
          "name": "account",
          "type": "address"
        }
      ],
      "name": "Unpaused",
      "type": "event"
    },
    {
      "inputs": [
        {
          "internalType": "uint256",
          "name": "_newFrequence",
          "type": "uint256"
        }
      ],
      "name": "changeGameFrequence",
      "outputs": [],
      "stateMutability": "nonpayable",
      "type": "function"
    },
    {
      "inputs": [
        {
          "internalType": "address",
          "name": "_newAddress",
          "type": "address"
        }
      ],
      "name": "changeNpngTokenAddress",
      "outputs": [],
      "stateMutability": "nonpayable",
      "type": "function"
    },
    {
      "inputs": [
        {
          "internalType": "address",
          "name": "_newRecorderAddress",
          "type": "address"
        }
      ],
      "name": "changeRecorder",
      "outputs": [],
      "stateMutability": "nonpayable",
      "type": "function"
    },
    {
      "inputs": [],
      "name": "claim",
      "outputs": [],
      "stateMutability": "nonpayable",
      "type": "function"
    },
    {
      "inputs": [
        {
          "internalType": "uint256",
          "name": "_amount",
          "type": "uint256"
        }
      ],
      "name": "depositOnAave",
      "outputs": [],
      "stateMutability": "nonpayable",
      "type": "function"
    },
    {
      "inputs": [
        {
          "internalType": "address",
          "name": "_player",
          "type": "address"
        }
      ],
      "name": "getAccountTable",
      "outputs": [
        {
          "components": [
            {
              "internalType": "uint256",
              "name": "idContest",
              "type": "uint256"
            },
            {
              "internalType": "uint256",
              "name": "rank",
              "type": "uint256"
            },
            {
              "internalType": "uint256",
              "name": "participant",
              "type": "uint256"
            },
            {
              "internalType": "uint256",
              "name": "prize",
              "type": "uint256"
            }
          ],
          "internalType": "struct NpngGame.AccountTable[10]",
          "name": "",
          "type": "tuple[10]"
        }
      ],
      "stateMutability": "view",
      "type": "function"
    },
    {
      "inputs": [
        {
          "internalType": "uint256",
          "name": "_idContest",
          "type": "uint256"
        },
        {
          "internalType": "address",
          "name": "_player",
          "type": "address"
        }
      ],
      "name": "getContestRank",
      "outputs": [
        {
          "internalType": "uint256",
          "name": "",
          "type": "uint256"
        }
      ],
      "stateMutability": "view",
      "type": "function"
    },
    {
      "inputs": [
        {
          "internalType": "uint256",
          "name": "_idContest",
          "type": "uint256"
        }
      ],
      "name": "getContestTable",
      "outputs": [
        {
          "components": [
            {
              "internalType": "uint256",
              "name": "rank",
              "type": "uint256"
            },
            {
              "internalType": "uint256",
              "name": "score",
              "type": "uint256"
            },
            {
              "internalType": "address",
              "name": "player",
              "type": "address"
            },
            {
              "internalType": "uint256",
              "name": "prize",
              "type": "uint256"
            }
          ],
          "internalType": "struct NpngPool.ContestTable[10]",
          "name": "",
          "type": "tuple[10]"
        }
      ],
      "stateMutability": "view",
      "type": "function"
    },
    {
      "inputs": [],
      "name": "getCurrentContestClaimedRewards",
      "outputs": [
        {
          "internalType": "uint256",
          "name": "",
          "type": "uint256"
        }
      ],
      "stateMutability": "view",
      "type": "function"
    },
    {
      "inputs": [],
      "name": "getEndOfContest",
      "outputs": [
        {
          "internalType": "uint256",
          "name": "",
          "type": "uint256"
        }
      ],
      "stateMutability": "view",
      "type": "function"
    },
    {
      "inputs": [],
      "name": "getIdContest",
      "outputs": [
        {
          "internalType": "uint256",
          "name": "",
          "type": "uint256"
        }
      ],
      "stateMutability": "view",
      "type": "function"
    },
    {
      "inputs": [
        {
          "internalType": "address",
          "name": "_account",
          "type": "address"
        }
      ],
      "name": "getPendingRewards",
      "outputs": [
        {
          "internalType": "uint256",
          "name": "",
          "type": "uint256"
        }
      ],
      "stateMutability": "view",
      "type": "function"
    },
    {
      "inputs": [],
      "name": "getPlay",
      "outputs": [],
      "stateMutability": "nonpayable",
      "type": "function"
    },
    {
      "inputs": [
        {
          "internalType": "address",
          "name": "_account",
          "type": "address"
        },
        {
          "internalType": "uint256",
          "name": "_idContest",
          "type": "uint256"
        }
      ],
      "name": "getPlayerStatus",
      "outputs": [
        {
          "components": [
            {
              "internalType": "bool",
              "name": "requested",
              "type": "bool"
            },
            {
              "internalType": "bool",
              "name": "played",
              "type": "bool"
            },
            {
              "internalType": "bool",
              "name": "claimed",
              "type": "bool"
            }
          ],
          "internalType": "struct NpngGame.RequestPlaying",
          "name": "",
          "type": "tuple"
        }
      ],
      "stateMutability": "view",
      "type": "function"
    },
    {
      "inputs": [],
      "name": "getPoolStatus",
      "outputs": [
        {
          "components": [
            {
              "internalType": "uint256",
              "name": "idContest",
              "type": "uint256"
            },
            {
              "internalType": "uint256",
              "name": "endContestPoolValue",
              "type": "uint256"
            },
            {
              "internalType": "uint256",
              "name": "endContestAavePoolValue",
              "type": "uint256"
            },
            {
              "internalType": "uint256",
              "name": "prizePool",
              "type": "uint256"
            },
            {
              "internalType": "uint256",
              "name": "cumulatedPoolPrizes",
              "type": "uint256"
            },
            {
              "internalType": "uint256",
              "name": "claimedRewards",
              "type": "uint256"
            },
            {
              "internalType": "uint256",
              "name": "winnersDeposit",
              "type": "uint256"
            }
          ],
          "internalType": "struct NpngPool.PoolStatus[]",
          "name": "",
          "type": "tuple[]"
        }
      ],
      "stateMutability": "view",
      "type": "function"
    },
    {
      "inputs": [
        {
          "internalType": "uint256",
          "name": "_idContest",
          "type": "uint256"
        },
        {
          "internalType": "address",
          "name": "_player",
          "type": "address"
        }
      ],
      "name": "getRewardsPerPlayer",
      "outputs": [
        {
          "internalType": "uint256",
          "name": "",
          "type": "uint256"
        }
      ],
      "stateMutability": "view",
      "type": "function"
    },
    {
      "inputs": [
        {
          "internalType": "address",
          "name": "_account",
          "type": "address"
        }
      ],
      "name": "getTotalClaimedRewards",
      "outputs": [
        {
          "internalType": "uint256",
          "name": "",
          "type": "uint256"
        }
      ],
      "stateMutability": "view",
      "type": "function"
    },
    {
      "inputs": [
        {
          "internalType": "address",
          "name": "_account",
          "type": "address"
        }
      ],
      "name": "getUserBalance",
      "outputs": [
        {
          "internalType": "uint256",
          "name": "",
          "type": "uint256"
        }
      ],
      "stateMutability": "view",
      "type": "function"
    },
    {
      "inputs": [],
      "name": "getWinnersDeposit",
      "outputs": [
        {
          "internalType": "uint256",
          "name": "",
          "type": "uint256"
        }
      ],
      "stateMutability": "view",
      "type": "function"
    },
    {
      "inputs": [],
      "name": "interestEarned",
      "outputs": [
        {
          "internalType": "uint256",
          "name": "",
          "type": "uint256"
        }
      ],
      "stateMutability": "view",
      "type": "function"
    },
    {
      "inputs": [
        {
          "internalType": "uint256",
          "name": "",
          "type": "uint256"
        }
      ],
      "name": "numberOfPlayersPerContest",
      "outputs": [
        {
          "internalType": "uint256",
          "name": "",
          "type": "uint256"
        }
      ],
      "stateMutability": "view",
      "type": "function"
    },
    {
      "inputs": [],
      "name": "owner",
      "outputs": [
        {
          "internalType": "address",
          "name": "",
          "type": "address"
        }
      ],
      "stateMutability": "view",
      "type": "function"
    },
    {
      "inputs": [],
      "name": "pause",
      "outputs": [],
      "stateMutability": "nonpayable",
      "type": "function"
    },
    {
      "inputs": [],
      "name": "paused",
      "outputs": [
        {
          "internalType": "bool",
          "name": "",
          "type": "bool"
        }
      ],
      "stateMutability": "view",
      "type": "function"
    },
    {
      "inputs": [],
      "name": "renounceOwnership",
      "outputs": [],
      "stateMutability": "nonpayable",
      "type": "function"
    },
    {
      "inputs": [
        {
          "internalType": "address",
          "name": "_player",
          "type": "address"
        },
        {
          "internalType": "uint256",
          "name": "_score",
          "type": "uint256"
        }
      ],
      "name": "saveScore",
      "outputs": [],
      "stateMutability": "nonpayable",
      "type": "function"
    },
    {
      "inputs": [
        {
          "internalType": "address",
          "name": "newOwner",
          "type": "address"
        }
      ],
      "name": "transferOwnership",
      "outputs": [],
      "stateMutability": "nonpayable",
      "type": "function"
    },
    {
      "inputs": [],
      "name": "unpause",
      "outputs": [],
      "stateMutability": "nonpayable",
      "type": "function"
    },
    {
      "inputs": [],
      "name": "updateContest",
      "outputs": [],
      "stateMutability": "nonpayable",
      "type": "function"
    },
    {
      "inputs": [
        {
          "internalType": "uint256",
          "name": "_amount",
          "type": "uint256"
        }
      ],
      "name": "withdraw",
      "outputs": [],
      "stateMutability": "nonpayable",
      "type": "function"
    }
  ],
  "bytecode": "0x60806040523480156200001157600080fd5b5060008060006101000a81548160ff0219169083151502179055506200004c62000040620002ae60201b60201c565b620002b660201b60201c565b426007819055506001600681905550610e1060048190555061dead600860006101000a81548173ffffffffffffffffffffffffffffffffffffffff021916908373ffffffffffffffffffffffffffffffffffffffff16021790555073a2025b15a1757311bfd68cb14eaefcc237af5b43600e60006101000a81548173ffffffffffffffffffffffffffffffffffffffff021916908373ffffffffffffffffffffffffffffffffffffffff16021790555073368eedf3f56ad10b9bc57eed4dac65b26bb667f6601160006101000a81548173ffffffffffffffffffffffffffffffffffffffff021916908373ffffffffffffffffffffffffffffffffffffffff160217905550731ee669290939f8a8864497af3bc83728715265ff600f60006101000a81548173ffffffffffffffffffffffffffffffffffffffff021916908373ffffffffffffffffffffffffffffffffffffffff160217905550738ad6d963600f5c45dabd5ff6faa04d51a6d549f0601060006101000a81548173ffffffffffffffffffffffffffffffffffffffff021916908373ffffffffffffffffffffffffffffffffffffffff16021790555060096040518060e0016040528060008152602001600081526020016000815260200160008152602001600081526020016000815260200160008152509080600181540180825580915050600190039060005260206000209060070201600090919091909150600082015181600001556020820151816001015560408201518160020155606082015181600301556080820151816004015560a0820151816005015560c0820151816006015550506200037b565b600033905090565b60008060019054906101000a900473ffffffffffffffffffffffffffffffffffffffff16905081600060016101000a81548173ffffffffffffffffffffffffffffffffffffffff021916908373ffffffffffffffffffffffffffffffffffffffff1602179055508173ffffffffffffffffffffffffffffffffffffffff168173ffffffffffffffffffffffffffffffffffffffff167f8be0079c531659141344cd1fd0a4f28419497f9722a3daafe3b4186f6b6457e060405160405180910390a35050565b613b3e806200038b6000396000f3fe608060405234801561001057600080fd5b50600436106101da5760003560e01c80638456cb5911610104578063cad7ebce116100a2578063f2fbee3f11610071578063f2fbee3f146104fb578063f2fde38b14610517578063f6ed201714610533578063fd8d190914610563576101da565b8063cad7ebce14610461578063e064613e14610491578063e864d000146104ad578063e9d69990146104cb576101da565b8063b2e85b67116100de578063b2e85b67146103c5578063b604e751146103f5578063bb2922e614610413578063c85785d614610443576101da565b80638456cb591461036d5780638da5cb5b146103775780639cfc8b8c14610395576101da565b8063477348921161017c578063695a65171161014b578063695a65171461030d578063715018a6146103295780637f79496c146103335780638347f53614610351576101da565b806347734892146102ab5780634e499acd146102db5780634e71d92d146102e55780635c975abb146102ef576101da565b80632452a7e3116101b85780632452a7e3146102375780632e1a7d4d14610267578063374261ab146102835780633f4ba83a146102a1576101da565b80630bd5d284146101df57806312b946bc146101e95780631eadace914610207575b600080fd5b6101e761057f565b005b6101f161060b565b6040516101fe91906128f3565b60405180910390f35b610221600480360381019061021c919061299d565b610627565b60405161022e91906128f3565b60405180910390f35b610251600480360381019061024c91906129dd565b61083f565b60405161025e9190612b19565b60405180910390f35b610281600480360381019061027c91906129dd565b610a2d565b005b61028b610d94565b60405161029891906128f3565b60405180910390f35b6102a9610e44565b005b6102c560048036038101906102c09190612b35565b610e56565b6040516102d291906128f3565b60405180910390f35b6102e3610e9f565b005b6102ed611110565b005b6102f7611313565b6040516103049190612b7d565b60405180910390f35b61032760048036038101906103229190612b98565b611329565b005b6103316116b2565b005b61033b6116c6565b6040516103489190612d15565b60405180910390f35b61036b60048036038101906103669190612b35565b61176b565b005b6103756117b7565b005b61037f6117c9565b60405161038c9190612d46565b60405180910390f35b6103af60048036038101906103aa9190612b35565b6117f2565b6040516103bc91906128f3565b60405180910390f35b6103df60048036038101906103da9190612b98565b61183b565b6040516103ec9190612db2565b60405180910390f35b6103fd6118f7565b60405161040a91906128f3565b60405180910390f35b61042d60048036038101906104289190612b35565b611901565b60405161043a9190612ebe565b60405180910390f35b61044b6119e9565b60405161045891906128f3565b60405180910390f35b61047b6004803603810190610476919061299d565b6119f3565b60405161048891906128f3565b60405180910390f35b6104ab60048036038101906104a69190612b35565b611bbc565b005b6104b5611c08565b6040516104c291906128f3565b60405180910390f35b6104e560048036038101906104e091906129dd565b611cfa565b6040516104f291906128f3565b60405180910390f35b610515600480360381019061051091906129dd565b611d12565b005b610531600480360381019061052c9190612b35565b611d24565b005b61054d60048036038101906105489190612b35565b611da7565b60405161055a91906128f3565b60405180910390f35b61057d600480360381019061057891906129dd565b611e6c565b005b6000600a60003373ffffffffffffffffffffffffffffffffffffffff1673ffffffffffffffffffffffffffffffffffffffff1681526020019081526020016000205411610601576040517f08c379a00000000000000000000000000000000000000000000000000000000081526004016105f890612f37565b60405180910390fd5b61060961238d565b565b60008060045460075461061e9190612f86565b90508091505090565b6000826006541161066d576040517f08c379a000000000000000000000000000000000000000000000000000000000815260040161066490613006565b60405180910390fd5b60008061067a85856119f3565b9050600080600090505b60018054905081101561077a5786600182815481106106a6576106a5613026565b5b90600052602060002090600402016000015414801561073557508573ffffffffffffffffffffffffffffffffffffffff16600182815481106106eb576106ea613026565b5b906000526020600020906004020160010160009054906101000a900473ffffffffffffffffffffffffffffffffffffffff1673ffffffffffffffffffffffffffffffffffffffff16145b15610767576001818154811061074e5761074d613026565b5b906000526020600020906004020160030154915061077a565b808061077290613055565b915050610684565b50600a821161082e57662386f26fc10000600583606561079a919061309d565b6107a49190613211565b600988815481106107b8576107b7613026565b5b906000526020600020906007020160060154620f4240846107d9919061325c565b6107e391906132cd565b600989815481106107f7576107f6613026565b5b906000526020600020906007020160030154610813919061325c565b61081d919061325c565b61082791906132cd565b9250610833565b600092505b82935050505092915050565b6108476127f1565b61084f6127f1565b600080600090505b600180549050811015610a22576001818154811061087857610877613026565b5b9060005260206000209060040201600001548503610a0f576108df85600183815481106108a8576108a7613026565b5b906000526020600020906004020160010160009054906101000a900473ffffffffffffffffffffffffffffffffffffffff166119f3565b9150600082141580156108f25750600a82105b15610a0e5760405180608001604052808381526020016001838154811061091c5761091b613026565b5b90600052602060002090600402016002015481526020016001838154811061094757610946613026565b5b906000526020600020906004020160010160009054906101000a900473ffffffffffffffffffffffffffffffffffffffff1673ffffffffffffffffffffffffffffffffffffffff1681526020016109e387600185815481106109ac576109ab613026565b5b906000526020600020906004020160010160009054906101000a900473ffffffffffffffffffffffffffffffffffffffff16610627565b815250836001846109f4919061309d565b600a8110610a0557610a04613026565b5b60200201819052505b5b8080610a1a90613055565b915050610857565b508192505050919050565b80600a60003373ffffffffffffffffffffffffffffffffffffffff1673ffffffffffffffffffffffffffffffffffffffff168152602001908152602001600020541015610aaf576040517f08c379a0000000000000000000000000000000000000000000000000000000008152600401610aa69061334a565b60405180910390fd5b6006546002600c60003373ffffffffffffffffffffffffffffffffffffffff1673ffffffffffffffffffffffffffffffffffffffff16815260200190815260200160002054610afe9190612f86565b1115610b3f576040517f08c379a0000000000000000000000000000000000000000000000000000000008152600401610b36906133dc565b60405180910390fd5b601160009054906101000a900473ffffffffffffffffffffffffffffffffffffffff1673ffffffffffffffffffffffffffffffffffffffff166369328dec600e60009054906101000a900473ffffffffffffffffffffffffffffffffffffffff1683306040518463ffffffff1660e01b8152600401610bc0939291906133fc565b600060405180830381600087803b158015610bda57600080fd5b505af1158015610bee573d6000803e3d6000fd5b50505050600e60009054906101000a900473ffffffffffffffffffffffffffffffffffffffff1673ffffffffffffffffffffffffffffffffffffffff1663a9059cbb33836040518363ffffffff1660e01b8152600401610c4f929190613433565b6020604051808303816000875af1158015610c6e573d6000803e3d6000fd5b505050506040513d601f19601f82011682018060405250810190610c929190613488565b5080600a60003373ffffffffffffffffffffffffffffffffffffffff1673ffffffffffffffffffffffffffffffffffffffff1681526020019081526020016000206000828254610ce2919061309d565b9250508190555080600b6000828254610cfb919061309d565b92505081905550601060009054906101000a900473ffffffffffffffffffffffffffffffffffffffff1673ffffffffffffffffffffffffffffffffffffffff16639dc29fac33836040518363ffffffff1660e01b8152600401610d5f929190613433565b600060405180830381600087803b158015610d7957600080fd5b505af1158015610d8d573d6000803e3d6000fd5b5050505050565b6000600b54600f60009054906101000a900473ffffffffffffffffffffffffffffffffffffffff1673ffffffffffffffffffffffffffffffffffffffff166370a08231306040518263ffffffff1660e01b8152600401610df49190612d46565b602060405180830381865afa158015610e11573d6000803e3d6000fd5b505050506040513d601f19601f82011682018060405250810190610e3591906134ca565b610e3f919061309d565b905090565b610e4c61254f565b610e546125cd565b565b6000600a60008373ffffffffffffffffffffffffffffffffffffffff1673ffffffffffffffffffffffffffffffffffffffff168152602001908152602001600020549050919050565b600454600754610eaf9190612f86565b421015610ef1576040517f08c379a0000000000000000000000000000000000000000000000000000000008152600401610ee890613543565b60405180910390fd5b42600781905550600060096001600654610f0b919061309d565b81548110610f1c57610f1b613026565b5b9060005260206000209060070201600401549050600060096001600654610f43919061309d565b81548110610f5457610f53613026565b5b906000526020600020906007020160050154600d54610f739190612f86565b90506000600d819055506000600f60009054906101000a900473ffffffffffffffffffffffffffffffffffffffff1673ffffffffffffffffffffffffffffffffffffffff166370a08231306040518263ffffffff1660e01b8152600401610fda9190612d46565b602060405180830381865afa158015610ff7573d6000803e3d6000fd5b505050506040513d601f19601f8201168201806040525081019061101b91906134ca565b905060096040518060e001604052806006548152602001600b54815260200183815260200185600b548561104f919061309d565b611059919061309d565b8152602001600b548461106c919061309d565b815260200184815260200161107f611c08565b8152509080600181540180825580915050600190039060005260206000209060070201600090919091909150600082015181600001556020820151816001015560408201518160020155606082015181600301556080820151816004015560a0820151816005015560c0820151816006015550506006600081548092919061110690613055565b9190505550505050565b6000806001600654611122919061309d565b90505b60008111156112315760011515600360003373ffffffffffffffffffffffffffffffffffffffff1673ffffffffffffffffffffffffffffffffffffffff168152602001908152602001600020600083815260200190815260200160002060000160029054906101000a900460ff1615150315611231576111a58133610627565b826111b09190612f86565b91506001600360003373ffffffffffffffffffffffffffffffffffffffff1673ffffffffffffffffffffffffffffffffffffffff168152602001908152602001600020600083815260200190815260200160002060000160026101000a81548160ff021916908315150217905550808061122990613563565b915050611125565b5080600a60003373ffffffffffffffffffffffffffffffffffffffff1673ffffffffffffffffffffffffffffffffffffffff16815260200190815260200160002060008282546112819190612f86565b9250508190555080600b600082825461129a9190612f86565b9250508190555080600d60008282546112b39190612f86565b9250508190555080600560003373ffffffffffffffffffffffffffffffffffffffff1673ffffffffffffffffffffffffffffffffffffffff16815260200190815260200160002060008282546113099190612f86565b9250508190555050565b60008060009054906101000a900460ff16905090565b600860009054906101000a900473ffffffffffffffffffffffffffffffffffffffff1673ffffffffffffffffffffffffffffffffffffffff163373ffffffffffffffffffffffffffffffffffffffff16146113b9576040517f08c379a00000000000000000000000000000000000000000000000000000000081526004016113b0906135fe565b60405180910390fd5b60011515600360008473ffffffffffffffffffffffffffffffffffffffff1673ffffffffffffffffffffffffffffffffffffffff1681526020019081526020016000206000600654815260200190815260200160002060000160009054906101000a900460ff16151514611462576040517f08c379a00000000000000000000000000000000000000000000000000000000081526004016114599061366a565b60405180910390fd5b60001515600360008473ffffffffffffffffffffffffffffffffffffffff1673ffffffffffffffffffffffffffffffffffffffff1681526020019081526020016000206000600654815260200190815260200160002060000160019054906101000a900460ff1615151461150b576040517f08c379a0000000000000000000000000000000000000000000000000000000008152600401611502906136d6565b60405180910390fd5b6001604051806080016040528060065481526020018473ffffffffffffffffffffffffffffffffffffffff168152602001838152602001600a60008673ffffffffffffffffffffffffffffffffffffffff1673ffffffffffffffffffffffffffffffffffffffff1681526020019081526020016000205481525090806001815401808255809150506001900390600052602060002090600402016000909190919091506000820151816000015560208201518160010160006101000a81548173ffffffffffffffffffffffffffffffffffffffff021916908373ffffffffffffffffffffffffffffffffffffffff160217905550604082015181600201556060820151816003015550506001600360008473ffffffffffffffffffffffffffffffffffffffff1673ffffffffffffffffffffffffffffffffffffffff1681526020019081526020016000206000600654815260200190815260200160002060000160016101000a81548160ff02191690831515021790555060026000600654815260200190815260200160002060008154809291906116a990613055565b91905055505050565b6116ba61254f565b6116c4600061262f565b565b60606009805480602002602001604051908101604052809291908181526020016000905b8282101561176257838290600052602060002090600702016040518060e0016040529081600082015481526020016001820154815260200160028201548152602001600382015481526020016004820154815260200160058201548152602001600682015481525050815260200190600101906116ea565b50505050905090565b61177361254f565b80601060006101000a81548173ffffffffffffffffffffffffffffffffffffffff021916908373ffffffffffffffffffffffffffffffffffffffff16021790555050565b6117bf61254f565b6117c76126f4565b565b60008060019054906101000a900473ffffffffffffffffffffffffffffffffffffffff16905090565b6000600560008373ffffffffffffffffffffffffffffffffffffffff1673ffffffffffffffffffffffffffffffffffffffff168152602001908152602001600020549050919050565b61184361281f565b600360008473ffffffffffffffffffffffffffffffffffffffff1673ffffffffffffffffffffffffffffffffffffffff16815260200190815260200160002060008381526020019081526020016000206040518060600160405290816000820160009054906101000a900460ff161515151581526020016000820160019054906101000a900460ff161515151581526020016000820160029054906101000a900460ff161515151581525050905092915050565b6000600d54905090565b611909612846565b611911612846565b6000806000905060006001600654611929919061309d565b9050600a81101561193c57809250611941565b600a92505b60008190505b8382611953919061309d565b8111156119dc576040518060800160405280828152602001611975838a6119f3565b81526020016002600084815260200190815260200160002054815260200161199d838a610627565b8152508584600a81106119b3576119b2613026565b5b602002018190525082806119c690613055565b93505080806119d490613563565b915050611947565b5083945050505050919050565b6000600654905090565b6000806000806001905060005b600180549050811015611b1e5760018181548110611a2157611a20613026565b5b90600052602060002090600402016000015487148015611ab1575060018181548110611a5057611a4f613026565b5b906000526020600020906004020160010160009054906101000a900473ffffffffffffffffffffffffffffffffffffffff1673ffffffffffffffffffffffffffffffffffffffff168673ffffffffffffffffffffffffffffffffffffffff16145b15611ae65780935060018181548110611acd57611acc613026565b5b9060005260206000209060040201600201549250611b1e565b600180549050600182611af99190612f86565b03611b0b576000945050505050611bb6565b8080611b1690613055565b915050611a00565b5060005b600180549050811015611bae5760018181548110611b4357611b42613026565b5b90600052602060002090600402016000015487148015611b87575060018181548110611b7257611b71613026565b5b90600052602060002090600402016002015483115b15611b9b578180611b9790613055565b9250505b8080611ba690613055565b915050611b22565b508093505050505b92915050565b611bc461254f565b80600860006101000a81548173ffffffffffffffffffffffffffffffffffffffff021916908373ffffffffffffffffffffffffffffffffffffffff16021790555050565b6000806000905060005b600180549050811015611cf25760018181548110611c3357611c32613026565b5b906000526020600020906004020160000154600654148015611ca65750600a611ca360065460018481548110611c6c57611c6b613026565b5b906000526020600020906004020160010160009054906101000a900473ffffffffffffffffffffffffffffffffffffffff166119f3565b11155b15611cdf5760018181548110611cbf57611cbe613026565b5b90600052602060002090600402016003015482611cdc9190612f86565b91505b8080611cea90613055565b915050611c12565b508091505090565b60026020528060005260406000206000915090505481565b611d1a61254f565b8060048190555050565b611d2c61254f565b600073ffffffffffffffffffffffffffffffffffffffff168173ffffffffffffffffffffffffffffffffffffffff1603611d9b576040517f08c379a0000000000000000000000000000000000000000000000000000000008152600401611d9290613768565b60405180910390fd5b611da48161262f565b50565b6000806000905060006001600654611dbf919061309d565b90505b6000811115611e625760011515600360008673ffffffffffffffffffffffffffffffffffffffff1673ffffffffffffffffffffffffffffffffffffffff168152602001908152602001600020600083815260200190815260200160002060000160029054906101000a900460ff1615150315611e6257611e428185610627565b82611e4d9190612f86565b91508080611e5a90613563565b915050611dc2565b5080915050919050565b600e60009054906101000a900473ffffffffffffffffffffffffffffffffffffffff1673ffffffffffffffffffffffffffffffffffffffff166370a08231336040518263ffffffff1660e01b8152600401611ec79190612d46565b602060405180830381865afa158015611ee4573d6000803e3d6000fd5b505050506040513d601f19601f82011682018060405250810190611f0891906134ca565b811115611f4a576040517f08c379a0000000000000000000000000000000000000000000000000000000008152600401611f41906137d4565b60405180910390fd5b600e60009054906101000a900473ffffffffffffffffffffffffffffffffffffffff1673ffffffffffffffffffffffffffffffffffffffff1663dd62ed3e33306040518363ffffffff1660e01b8152600401611fa79291906137f4565b602060405180830381865afa158015611fc4573d6000803e3d6000fd5b505050506040513d601f19601f82011682018060405250810190611fe891906134ca565b81111561202a576040517f08c379a000000000000000000000000000000000000000000000000000000000815260040161202190613869565b60405180910390fd5b600e60009054906101000a900473ffffffffffffffffffffffffffffffffffffffff1673ffffffffffffffffffffffffffffffffffffffff166323b872dd3330846040518463ffffffff1660e01b815260040161208993929190613889565b6020604051808303816000875af11580156120a8573d6000803e3d6000fd5b505050506040513d601f19601f820116820180604052508101906120cc9190613488565b50600e60009054906101000a900473ffffffffffffffffffffffffffffffffffffffff1673ffffffffffffffffffffffffffffffffffffffff1663095ea7b3601160009054906101000a900473ffffffffffffffffffffffffffffffffffffffff16836040518363ffffffff1660e01b815260040161214c929190613433565b6020604051808303816000875af115801561216b573d6000803e3d6000fd5b505050506040513d601f19601f8201168201806040525081019061218f9190613488565b50601160009054906101000a900473ffffffffffffffffffffffffffffffffffffffff1673ffffffffffffffffffffffffffffffffffffffff1663617ba037600e60009054906101000a900473ffffffffffffffffffffffffffffffffffffffff16833060006040518563ffffffff1660e01b81526004016122149493929190613913565b600060405180830381600087803b15801561222e57600080fd5b505af1158015612242573d6000803e3d6000fd5b5050505080600a60003373ffffffffffffffffffffffffffffffffffffffff1673ffffffffffffffffffffffffffffffffffffffff16815260200190815260200160002060008282546122959190612f86565b9250508190555080600b60008282546122ae9190612f86565b92505081905550601060009054906101000a900473ffffffffffffffffffffffffffffffffffffffff1673ffffffffffffffffffffffffffffffffffffffff166340c10f1933836040518363ffffffff1660e01b8152600401612312929190613433565b600060405180830381600087803b15801561232c57600080fd5b505af1158015612340573d6000803e3d6000fd5b50505050600654600c60003373ffffffffffffffffffffffffffffffffffffffff1673ffffffffffffffffffffffffffffffffffffffff1681526020019081526020016000208190555050565b60001515600360003373ffffffffffffffffffffffffffffffffffffffff1673ffffffffffffffffffffffffffffffffffffffff1681526020019081526020016000206000600654815260200190815260200160002060000160009054906101000a900460ff16151514612436576040517f08c379a000000000000000000000000000000000000000000000000000000000815260040161242d906139a4565b60405180910390fd5b60001515600360003373ffffffffffffffffffffffffffffffffffffffff1673ffffffffffffffffffffffffffffffffffffffff1681526020019081526020016000206000600654815260200190815260200160002060000160019054906101000a900460ff161515146124df576040517f08c379a00000000000000000000000000000000000000000000000000000000081526004016124d6906136d6565b60405180910390fd5b6001600360003373ffffffffffffffffffffffffffffffffffffffff1673ffffffffffffffffffffffffffffffffffffffff1681526020019081526020016000206000600654815260200190815260200160002060000160006101000a81548160ff021916908315150217905550565b612557612756565b73ffffffffffffffffffffffffffffffffffffffff166125756117c9565b73ffffffffffffffffffffffffffffffffffffffff16146125cb576040517f08c379a00000000000000000000000000000000000000000000000000000000081526004016125c290613a10565b60405180910390fd5b565b6125d561275e565b60008060006101000a81548160ff0219169083151502179055507f5db9ee0a495bf2e6ff9c91a7834c1ba4fdd244a5e8aa4e537bd38aeae4b073aa612618612756565b6040516126259190612d46565b60405180910390a1565b60008060019054906101000a900473ffffffffffffffffffffffffffffffffffffffff16905081600060016101000a81548173ffffffffffffffffffffffffffffffffffffffff021916908373ffffffffffffffffffffffffffffffffffffffff1602179055508173ffffffffffffffffffffffffffffffffffffffff168173ffffffffffffffffffffffffffffffffffffffff167f8be0079c531659141344cd1fd0a4f28419497f9722a3daafe3b4186f6b6457e060405160405180910390a35050565b6126fc6127a7565b60016000806101000a81548160ff0219169083151502179055507f62e78cea01bee320cd4e420270b5ea74000d11b0c9f74754ebdbfc544b05a25861273f612756565b60405161274c9190612d46565b60405180910390a1565b600033905090565b612766611313565b6127a5576040517f08c379a000000000000000000000000000000000000000000000000000000000815260040161279c90613a7c565b60405180910390fd5b565b6127af611313565b156127ef576040517f08c379a00000000000000000000000000000000000000000000000000000000081526004016127e690613ae8565b60405180910390fd5b565b604051806101400160405280600a905b612809612874565b8152602001906001900390816128015790505090565b60405180606001604052806000151581526020016000151581526020016000151581525090565b604051806101400160405280600a905b61285e6128b2565b8152602001906001900390816128565790505090565b60405180608001604052806000815260200160008152602001600073ffffffffffffffffffffffffffffffffffffffff168152602001600081525090565b6040518060800160405280600081526020016000815260200160008152602001600081525090565b6000819050919050565b6128ed816128da565b82525050565b600060208201905061290860008301846128e4565b92915050565b600080fd5b61291c816128da565b811461292757600080fd5b50565b60008135905061293981612913565b92915050565b600073ffffffffffffffffffffffffffffffffffffffff82169050919050565b600061296a8261293f565b9050919050565b61297a8161295f565b811461298557600080fd5b50565b60008135905061299781612971565b92915050565b600080604083850312156129b4576129b361290e565b5b60006129c28582860161292a565b92505060206129d385828601612988565b9150509250929050565b6000602082840312156129f3576129f261290e565b5b6000612a018482850161292a565b91505092915050565b6000600a9050919050565b600081905092915050565b6000819050919050565b612a33816128da565b82525050565b612a428161295f565b82525050565b608082016000820151612a5e6000850182612a2a565b506020820151612a716020850182612a2a565b506040820151612a846040850182612a39565b506060820151612a976060850182612a2a565b50505050565b6000612aa98383612a48565b60808301905092915050565b6000602082019050919050565b612acb81612a0a565b612ad58184612a15565b9250612ae082612a20565b8060005b83811015612b11578151612af88782612a9d565b9650612b0383612ab5565b925050600181019050612ae4565b505050505050565b600061050082019050612b2f6000830184612ac2565b92915050565b600060208284031215612b4b57612b4a61290e565b5b6000612b5984828501612988565b91505092915050565b60008115159050919050565b612b7781612b62565b82525050565b6000602082019050612b926000830184612b6e565b92915050565b60008060408385031215612baf57612bae61290e565b5b6000612bbd85828601612988565b9250506020612bce8582860161292a565b9150509250929050565b600081519050919050565b600082825260208201905092915050565b6000819050602082019050919050565b60e082016000820151612c1a6000850182612a2a565b506020820151612c2d6020850182612a2a565b506040820151612c406040850182612a2a565b506060820151612c536060850182612a2a565b506080820151612c666080850182612a2a565b5060a0820151612c7960a0850182612a2a565b5060c0820151612c8c60c0850182612a2a565b50505050565b6000612c9e8383612c04565b60e08301905092915050565b6000602082019050919050565b6000612cc282612bd8565b612ccc8185612be3565b9350612cd783612bf4565b8060005b83811015612d08578151612cef8882612c92565b9750612cfa83612caa565b925050600181019050612cdb565b5085935050505092915050565b60006020820190508181036000830152612d2f8184612cb7565b905092915050565b612d408161295f565b82525050565b6000602082019050612d5b6000830184612d37565b92915050565b612d6a81612b62565b82525050565b606082016000820151612d866000850182612d61565b506020820151612d996020850182612d61565b506040820151612dac6040850182612d61565b50505050565b6000606082019050612dc76000830184612d70565b92915050565b6000600a9050919050565b600081905092915050565b6000819050919050565b608082016000820151612e036000850182612a2a565b506020820151612e166020850182612a2a565b506040820151612e296040850182612a2a565b506060820151612e3c6060850182612a2a565b50505050565b6000612e4e8383612ded565b60808301905092915050565b6000602082019050919050565b612e7081612dcd565b612e7a8184612dd8565b9250612e8582612de3565b8060005b83811015612eb6578151612e9d8782612e42565b9650612ea883612e5a565b925050600181019050612e89565b505050505050565b600061050082019050612ed46000830184612e67565b92915050565b600082825260208201905092915050565b7f4e6f206465706f7369742c204e6f2047616d6521000000000000000000000000600082015250565b6000612f21601483612eda565b9150612f2c82612eeb565b602082019050919050565b60006020820190508181036000830152612f5081612f14565b9050919050565b7f4e487b7100000000000000000000000000000000000000000000000000000000600052601160045260246000fd5b6000612f91826128da565b9150612f9c836128da565b9250828201905080821115612fb457612fb3612f57565b5b92915050565b7f4e6f7420706f737369626c65206f6e20756e636c6f73656420636f6e74657374600082015250565b6000612ff0602083612eda565b9150612ffb82612fba565b602082019050919050565b6000602082019050818103600083015261301f81612fe3565b9050919050565b7f4e487b7100000000000000000000000000000000000000000000000000000000600052603260045260246000fd5b6000613060826128da565b91507fffffffffffffffffffffffffffffffffffffffffffffffffffffffffffffffff820361309257613091612f57565b5b600182019050919050565b60006130a8826128da565b91506130b3836128da565b92508282039050818111156130cb576130ca612f57565b5b92915050565b60008160011c9050919050565b6000808291508390505b60018511156131285780860481111561310457613103612f57565b5b60018516156131135780820291505b8081029050613121856130d1565b94506130e8565b94509492505050565b60008261314157600190506131fd565b8161314f57600090506131fd565b8160018114613165576002811461316f5761319e565b60019150506131fd565b60ff84111561318157613180612f57565b5b8360020a91508482111561319857613197612f57565b5b506131fd565b5060208310610133831016604e8410600b84101617156131d35782820a9050838111156131ce576131cd612f57565b5b6131fd565b6131e084848460016130de565b925090508184048111156131f7576131f6612f57565b5b81810290505b9392505050565b600060ff82169050919050565b600061321c826128da565b915061322783613204565b92506132547fffffffffffffffffffffffffffffffffffffffffffffffffffffffffffffffff8484613131565b905092915050565b6000613267826128da565b9150613272836128da565b9250828202613280816128da565b9150828204841483151761329757613296612f57565b5b5092915050565b7f4e487b7100000000000000000000000000000000000000000000000000000000600052601260045260246000fd5b60006132d8826128da565b91506132e3836128da565b9250826132f3576132f261329e565b5b828204905092915050565b7f496e73756666696369656e742062616c616e6365000000000000000000000000600082015250565b6000613334601483612eda565b915061333f826132fe565b602082019050919050565b6000602082019050818103600083015261336381613327565b9050919050565b7f506c656173652077616974203220636f6e746573747320616674657220796f7560008201527f72206465706f73697420746f2077697464726177000000000000000000000000602082015250565b60006133c6603483612eda565b91506133d18261336a565b604082019050919050565b600060208201905081810360008301526133f5816133b9565b9050919050565b60006060820190506134116000830186612d37565b61341e60208301856128e4565b61342b6040830184612d37565b949350505050565b60006040820190506134486000830185612d37565b61345560208301846128e4565b9392505050565b61346581612b62565b811461347057600080fd5b50565b6000815190506134828161345c565b92915050565b60006020828403121561349e5761349d61290e565b5b60006134ac84828501613473565b91505092915050565b6000815190506134c481612913565b92915050565b6000602082840312156134e0576134df61290e565b5b60006134ee848285016134b5565b91505092915050565b7f4e6f20636f6e7465737420757064617465210000000000000000000000000000600082015250565b600061352d601283612eda565b9150613538826134f7565b602082019050919050565b6000602082019050818103600083015261355c81613520565b9050919050565b600061356e826128da565b91506000820361358157613580612f57565b5b600182039050919050565b7f596f7520617265206e6f7420616c6c6f77656420746f2073617665206120736360008201527f6f72652100000000000000000000000000000000000000000000000000000000602082015250565b60006135e8602483612eda565b91506135f38261358c565b604082019050919050565b60006020820190508181036000830152613617816135db565b9050919050565b7f4e6f20726571756573742066726f6d20706c6179657200000000000000000000600082015250565b6000613654601683612eda565b915061365f8261361e565b602082019050919050565b6000602082019050818103600083015261368381613647565b9050919050565b7f506c6179657220616c726561647920706c617965640000000000000000000000600082015250565b60006136c0601583612eda565b91506136cb8261368a565b602082019050919050565b600060208201905081810360008301526136ef816136b3565b9050919050565b7f4f776e61626c653a206e6577206f776e657220697320746865207a65726f206160008201527f6464726573730000000000000000000000000000000000000000000000000000602082015250565b6000613752602683612eda565b915061375d826136f6565b604082019050919050565b6000602082019050818103600083015261378181613745565b9050919050565b7f496e737566666963656e7420616d6f756e74206f662055534443000000000000600082015250565b60006137be601a83612eda565b91506137c982613788565b602082019050919050565b600060208201905081810360008301526137ed816137b1565b9050919050565b60006040820190506138096000830185612d37565b6138166020830184612d37565b9392505050565b7f496e73756666696369656e7420616c6c6f776564205553444300000000000000600082015250565b6000613853601983612eda565b915061385e8261381d565b602082019050919050565b6000602082019050818103600083015261388281613846565b9050919050565b600060608201905061389e6000830186612d37565b6138ab6020830185612d37565b6138b860408301846128e4565b949350505050565b6000819050919050565b600061ffff82169050919050565b6000819050919050565b60006138fd6138f86138f3846138c0565b6138d8565b6138ca565b9050919050565b61390d816138e2565b82525050565b60006080820190506139286000830187612d37565b61393560208301866128e4565b6139426040830185612d37565b61394f6060830184613904565b95945050505050565b7f596f7520616c7265616479207265717565737465640000000000000000000000600082015250565b600061398e601583612eda565b915061399982613958565b602082019050919050565b600060208201905081810360008301526139bd81613981565b9050919050565b7f4f776e61626c653a2063616c6c6572206973206e6f7420746865206f776e6572600082015250565b60006139fa602083612eda565b9150613a05826139c4565b602082019050919050565b60006020820190508181036000830152613a29816139ed565b9050919050565b7f5061757361626c653a206e6f7420706175736564000000000000000000000000600082015250565b6000613a66601483612eda565b9150613a7182613a30565b602082019050919050565b60006020820190508181036000830152613a9581613a59565b9050919050565b7f5061757361626c653a2070617573656400000000000000000000000000000000600082015250565b6000613ad2601083612eda565b9150613add82613a9c565b602082019050919050565b60006020820190508181036000830152613b0181613ac5565b905091905056fea2646970667358221220d38e5ff80cc2b0709db7051b370612818c4f6a8ae6445782546b9ceaaa74462b64736f6c63430008110033",
  "linkReferences": {},
  "deployedLinkReferences": {}
}