{
  "_format": "hh-sol-artifact-1",
  "contractName": "NpngPool",
  "sourceName": "contracts/NpngPool.sol",
  "abi": [
    {
      "inputs": [],
      "stateMutability": "nonpayable",
      "type": "constructor"
    },
    {
      "anonymous": false,
      "inputs": [
        {
          "indexed": true,
          "internalType": "address",
          "name": "previousOwner",
          "type": "address"
        },
        {
          "indexed": true,
          "internalType": "address",
          "name": "newOwner",
          "type": "address"
        }
      ],
      "name": "OwnershipTransferred",
      "type": "event"
    },
    {
      "anonymous": false,
      "inputs": [
        {
          "indexed": false,
          "internalType": "address",
          "name": "account",
          "type": "address"
        }
      ],
      "name": "Paused",
      "type": "event"
    },
    {
      "anonymous": false,
      "inputs": [
        {
          "indexed": false,
          "internalType": "address",
          "name": "account",
          "type": "address"
        }
      ],
      "name": "Unpaused",
      "type": "event"
    },
    {
      "inputs": [
        {
          "internalType": "uint256",
          "name": "_newFrequence",
          "type": "uint256"
        }
      ],
      "name": "changeGameFrequence",
      "outputs": [],
      "stateMutability": "nonpayable",
      "type": "function"
    },
    {
      "inputs": [
        {
          "internalType": "address",
          "name": "_newAddress",
          "type": "address"
        }
      ],
      "name": "changeNpngTokenAddress",
      "outputs": [],
      "stateMutability": "nonpayable",
      "type": "function"
    },
    {
      "inputs": [
        {
          "internalType": "address",
          "name": "_newRecorderAddress",
          "type": "address"
        }
      ],
      "name": "changeRecorder",
      "outputs": [],
      "stateMutability": "nonpayable",
      "type": "function"
    },
    {
      "inputs": [
        {
          "internalType": "uint256",
          "name": "_idContest",
          "type": "uint256"
        }
      ],
      "name": "claimRewards",
      "outputs": [],
      "stateMutability": "nonpayable",
      "type": "function"
    },
    {
      "inputs": [],
      "name": "closeContest",
      "outputs": [],
      "stateMutability": "nonpayable",
      "type": "function"
    },
    {
      "inputs": [
        {
          "internalType": "uint256",
          "name": "",
          "type": "uint256"
        }
      ],
      "name": "contestsResult",
      "outputs": [
        {
          "internalType": "uint256",
          "name": "idContest",
          "type": "uint256"
        },
        {
          "internalType": "address",
          "name": "player",
          "type": "address"
        },
        {
          "internalType": "uint256",
          "name": "score",
          "type": "uint256"
        }
      ],
      "stateMutability": "view",
      "type": "function"
    },
    {
      "inputs": [
        {
          "internalType": "uint256",
          "name": "_amount",
          "type": "uint256"
        }
      ],
      "name": "depositOnAave",
      "outputs": [],
      "stateMutability": "nonpayable",
      "type": "function"
    },
    {
      "inputs": [
        {
          "internalType": "uint256",
          "name": "_idContest",
          "type": "uint256"
        },
        {
          "internalType": "address",
          "name": "_player",
          "type": "address"
        }
      ],
      "name": "getContestRank",
      "outputs": [
        {
          "internalType": "uint256",
          "name": "",
          "type": "uint256"
        }
      ],
      "stateMutability": "view",
      "type": "function"
    },
    {
      "inputs": [],
      "name": "getEndOfContest",
      "outputs": [
        {
          "internalType": "uint256",
          "name": "",
          "type": "uint256"
        }
      ],
      "stateMutability": "view",
      "type": "function"
    },
    {
      "inputs": [],
      "name": "getIdContest",
      "outputs": [
        {
          "internalType": "uint256",
          "name": "",
          "type": "uint256"
        }
      ],
      "stateMutability": "view",
      "type": "function"
    },
    {
      "inputs": [
        {
          "internalType": "address",
          "name": "_player",
          "type": "address"
        }
      ],
      "name": "getLastContestsRank",
      "outputs": [
        {
          "components": [
            {
              "internalType": "uint256",
              "name": "idContest",
              "type": "uint256"
            },
            {
              "internalType": "uint256",
              "name": "rank",
              "type": "uint256"
            }
          ],
          "internalType": "struct NpngGame.RankPerContest[10]",
          "name": "",
          "type": "tuple[10]"
        }
      ],
      "stateMutability": "view",
      "type": "function"
    },
    {
      "inputs": [],
      "name": "getListNbPlayersPerContest",
      "outputs": [
        {
          "components": [
            {
              "internalType": "uint256",
              "name": "idContest",
              "type": "uint256"
            },
            {
              "internalType": "uint256",
              "name": "nbPlayers",
              "type": "uint256"
            }
          ],
          "internalType": "struct NpngGame.ListNbPlayersPerContest[10]",
          "name": "",
          "type": "tuple[10]"
        }
      ],
      "stateMutability": "view",
      "type": "function"
    },
    {
      "inputs": [],
      "name": "getListScores",
      "outputs": [
        {
          "components": [
            {
              "internalType": "uint256",
              "name": "idContest",
              "type": "uint256"
            },
            {
              "internalType": "address",
              "name": "player",
              "type": "address"
            },
            {
              "internalType": "uint256",
              "name": "score",
              "type": "uint256"
            }
          ],
          "internalType": "struct NpngGame.ContestsResult[]",
          "name": "",
          "type": "tuple[]"
        }
      ],
      "stateMutability": "view",
      "type": "function"
    },
    {
      "inputs": [
        {
          "internalType": "address",
          "name": "_account",
          "type": "address"
        }
      ],
      "name": "getMyBalance",
      "outputs": [
        {
          "internalType": "uint256",
          "name": "",
          "type": "uint256"
        }
      ],
      "stateMutability": "view",
      "type": "function"
    },
    {
      "inputs": [],
      "name": "getPlay",
      "outputs": [],
      "stateMutability": "nonpayable",
      "type": "function"
    },
    {
      "inputs": [
        {
          "internalType": "uint256",
          "name": "_idContest",
          "type": "uint256"
        },
        {
          "internalType": "address",
          "name": "_player",
          "type": "address"
        }
      ],
      "name": "getRewardsPerPlayer",
      "outputs": [
        {
          "internalType": "uint256",
          "name": "",
          "type": "uint256"
        }
      ],
      "stateMutability": "view",
      "type": "function"
    },
    {
      "inputs": [],
      "name": "interestEarned",
      "outputs": [
        {
          "internalType": "uint256",
          "name": "",
          "type": "uint256"
        }
      ],
      "stateMutability": "view",
      "type": "function"
    },
    {
      "inputs": [
        {
          "internalType": "uint256",
          "name": "",
          "type": "uint256"
        }
      ],
      "name": "numberOfPlayersPerContest",
      "outputs": [
        {
          "internalType": "uint256",
          "name": "",
          "type": "uint256"
        }
      ],
      "stateMutability": "view",
      "type": "function"
    },
    {
      "inputs": [],
      "name": "owner",
      "outputs": [
        {
          "internalType": "address",
          "name": "",
          "type": "address"
        }
      ],
      "stateMutability": "view",
      "type": "function"
    },
    {
      "inputs": [],
      "name": "pause",
      "outputs": [],
      "stateMutability": "nonpayable",
      "type": "function"
    },
    {
      "inputs": [],
      "name": "paused",
      "outputs": [
        {
          "internalType": "bool",
          "name": "",
          "type": "bool"
        }
      ],
      "stateMutability": "view",
      "type": "function"
    },
    {
      "inputs": [],
      "name": "renounceOwnership",
      "outputs": [],
      "stateMutability": "nonpayable",
      "type": "function"
    },
    {
      "inputs": [
        {
          "internalType": "address",
          "name": "_player",
          "type": "address"
        },
        {
          "internalType": "uint256",
          "name": "_score",
          "type": "uint256"
        }
      ],
      "name": "saveScore",
      "outputs": [],
      "stateMutability": "nonpayable",
      "type": "function"
    },
    {
      "inputs": [
        {
          "internalType": "address",
          "name": "newOwner",
          "type": "address"
        }
      ],
      "name": "transferOwnership",
      "outputs": [],
      "stateMutability": "nonpayable",
      "type": "function"
    },
    {
      "inputs": [],
      "name": "unpause",
      "outputs": [],
      "stateMutability": "nonpayable",
      "type": "function"
    },
    {
      "inputs": [],
      "name": "updateIdContest",
      "outputs": [],
      "stateMutability": "nonpayable",
      "type": "function"
    },
    {
      "inputs": [
        {
          "internalType": "uint256",
          "name": "_amount",
          "type": "uint256"
        }
      ],
      "name": "withdraw",
      "outputs": [],
      "stateMutability": "nonpayable",
      "type": "function"
    }
  ],
  "bytecode": "0x60806040523480156200001157600080fd5b5060008060006101000a81548160ff0219169083151502179055506200004c620000406200021460201b60201c565b6200021c60201b60201c565b4260068190555060016005819055506201518060048190555073d9464d0f4bd1da4dda0dd998bc73ae2ec42418de600760006101000a81548173ffffffffffffffffffffffffffffffffffffffff021916908373ffffffffffffffffffffffffffffffffffffffff16021790555073a2025b15a1757311bfd68cb14eaefcc237af5b43600d60006101000a81548173ffffffffffffffffffffffffffffffffffffffff021916908373ffffffffffffffffffffffffffffffffffffffff16021790555073368eedf3f56ad10b9bc57eed4dac65b26bb667f6601060006101000a81548173ffffffffffffffffffffffffffffffffffffffff021916908373ffffffffffffffffffffffffffffffffffffffff160217905550731ee669290939f8a8864497af3bc83728715265ff600e60006101000a81548173ffffffffffffffffffffffffffffffffffffffff021916908373ffffffffffffffffffffffffffffffffffffffff160217905550738ad6d963600f5c45dabd5ff6faa04d51a6d549f0600f60006101000a81548173ffffffffffffffffffffffffffffffffffffffff021916908373ffffffffffffffffffffffffffffffffffffffff160217905550620002e1565b600033905090565b60008060019054906101000a900473ffffffffffffffffffffffffffffffffffffffff16905081600060016101000a81548173ffffffffffffffffffffffffffffffffffffffff021916908373ffffffffffffffffffffffffffffffffffffffff1602179055508173ffffffffffffffffffffffffffffffffffffffff168173ffffffffffffffffffffffffffffffffffffffff167f8be0079c531659141344cd1fd0a4f28419497f9722a3daafe3b4186f6b6457e060405160405180910390a35050565b61336080620002f16000396000f3fe608060405234801561001057600080fd5b50600436106101a95760003560e01c80637e3ef7cd116100f9578063cad7ebce11610097578063e9d6999011610071578063e9d699901461043a578063f2fbee3f1461046a578063f2fde38b14610486578063fd8d1909146104a2576101a9565b8063cad7ebce146103d0578063ddb01a5214610400578063e064613e1461041e576101a9565b80638da5cb5b116100d35780638da5cb5b1461035a578063a094c63214610378578063aada10d414610382578063c85785d6146103b2576101a9565b80637e3ef7cd146103045780638347f536146103345780638456cb5914610350576101a9565b80632e1a7d4d116101665780635c975abb116101405780635c975abb146102b6578063695a6517146102d4578063715018a6146102f0578063771baacb146102fa576101a9565b80632e1a7d4d14610272578063374261ab1461028e5780633f4ba83a146102ac576101a9565b80630962ef79146101ae5780630bd5d284146101ca57806312b946bc146101d45780631b922c09146101f25780631df7b430146102245780631eadace914610242575b600080fd5b6101c860048036038101906101c39190612198565b6104be565b005b6101d2610696565b005b6101dc610722565b6040516101e991906121d4565b60405180910390f35b61020c60048036038101906102079190612198565b61073e565b60405161021b93929190612230565b60405180910390f35b61022c610798565b6040516102399190612341565b60405180910390f35b61025c60048036038101906102579190612389565b610836565b60405161026991906121d4565b60405180910390f35b61028c60048036038101906102879190612198565b610988565b005b610296610cef565b6040516102a391906121d4565b60405180910390f35b6102b4610d9f565b005b6102be610db1565b6040516102cb91906123e4565b60405180910390f35b6102ee60048036038101906102e991906123ff565b610dc7565b005b6102f8611101565b005b610302611115565b005b61031e6004803603810190610319919061243f565b611167565b60405161032b91906121d4565b60405180910390f35b61034e6004803603810190610349919061243f565b6111b0565b005b6103586111fc565b005b61036261120e565b60405161036f919061246c565b60405180910390f35b610380611237565b005b61039c6004803603810190610397919061243f565b611302565b6040516103a99190612552565b60405180910390f35b6103ba611388565b6040516103c791906121d4565b60405180910390f35b6103ea60048036038101906103e59190612389565b611392565b6040516103f791906121d4565b60405180910390f35b61040861152f565b604051610415919061266e565b60405180910390f35b6104386004803603810190610433919061243f565b6115f8565b005b610454600480360381019061044f9190612198565b611644565b60405161046191906121d4565b60405180910390f35b610484600480360381019061047f9190612198565b61165c565b005b6104a0600480360381019061049b919061243f565b61166e565b005b6104bc60048036038101906104b79190612198565b6116f1565b005b6005548110610502576040517f08c379a00000000000000000000000000000000000000000000000000000000081526004016104f9906126ed565b60405180910390fd5b60001515600360003373ffffffffffffffffffffffffffffffffffffffff1673ffffffffffffffffffffffffffffffffffffffff168152602001908152602001600020600083815260200190815260200160002060000160029054906101000a900460ff161515146105a9576040517f08c379a00000000000000000000000000000000000000000000000000000000081526004016105a090612759565b60405180910390fd5b60006105b58233610836565b905080600860003373ffffffffffffffffffffffffffffffffffffffff1673ffffffffffffffffffffffffffffffffffffffff168152602001908152602001600020600082825461060691906127a8565b92505081905550806009600082825461061f91906127a8565b925050819055506001600360003373ffffffffffffffffffffffffffffffffffffffff1673ffffffffffffffffffffffffffffffffffffffff168152602001908152602001600020600084815260200190815260200160002060000160026101000a81548160ff0219169083151502179055505050565b6000600860003373ffffffffffffffffffffffffffffffffffffffff1673ffffffffffffffffffffffffffffffffffffffff1681526020019081526020016000205411610718576040517f08c379a000000000000000000000000000000000000000000000000000000000815260040161070f90612828565b60405180910390fd5b610720611c69565b565b60008060045460065461073591906127a8565b90508091505090565b6001818154811061074e57600080fd5b90600052602060002090600302016000915090508060000154908060010160009054906101000a900473ffffffffffffffffffffffffffffffffffffffff16908060020154905083565b6107a06120cd565b6107a86120cd565b60008060055490505b600a6005546107c09190612848565b81111561082d576040518060400160405280600554815260200160026000848152602001908152602001600020548152508383600a81106108045761080361287c565b5b60200201819052508180610817906128ab565b9250508080610825906128f3565b9150506107b1565b50819250505090565b60008060011515600360003373ffffffffffffffffffffffffffffffffffffffff1673ffffffffffffffffffffffffffffffffffffffff168152602001908152602001600020600086815260200190815260200160002060000160029054906101000a900460ff161515036109795760006108b18585611392565b9050600a811161096e576000600c6000878152602001908152602001600020549050600560646001846108e49190612848565b6108ee919061294b565b60016108fa9190612848565b6109049190612abc565b600954600860008873ffffffffffffffffffffffffffffffffffffffff1673ffffffffffffffffffffffffffffffffffffffff16815260200190815260200160002054610951919061294b565b8261095c9190612b07565b6109669190612b07565b925050610973565b600091505b5061097e565b600090505b8091505092915050565b80600860003373ffffffffffffffffffffffffffffffffffffffff1673ffffffffffffffffffffffffffffffffffffffff168152602001908152602001600020541015610a0a576040517f08c379a0000000000000000000000000000000000000000000000000000000008152600401610a0190612b95565b60405180910390fd5b6005546002600a60003373ffffffffffffffffffffffffffffffffffffffff1673ffffffffffffffffffffffffffffffffffffffff16815260200190815260200160002054610a5991906127a8565b1115610a9a576040517f08c379a0000000000000000000000000000000000000000000000000000000008152600401610a9190612c27565b60405180910390fd5b601060009054906101000a900473ffffffffffffffffffffffffffffffffffffffff1673ffffffffffffffffffffffffffffffffffffffff166369328dec600d60009054906101000a900473ffffffffffffffffffffffffffffffffffffffff1683306040518463ffffffff1660e01b8152600401610b1b93929190612c47565b600060405180830381600087803b158015610b3557600080fd5b505af1158015610b49573d6000803e3d6000fd5b50505050600d60009054906101000a900473ffffffffffffffffffffffffffffffffffffffff1673ffffffffffffffffffffffffffffffffffffffff1663a9059cbb33836040518363ffffffff1660e01b8152600401610baa929190612c7e565b6020604051808303816000875af1158015610bc9573d6000803e3d6000fd5b505050506040513d601f19601f82011682018060405250810190610bed9190612cd3565b5080600860003373ffffffffffffffffffffffffffffffffffffffff1673ffffffffffffffffffffffffffffffffffffffff1681526020019081526020016000206000828254610c3d9190612848565b925050819055508060096000828254610c569190612848565b92505081905550600f60009054906101000a900473ffffffffffffffffffffffffffffffffffffffff1673ffffffffffffffffffffffffffffffffffffffff16639dc29fac33836040518363ffffffff1660e01b8152600401610cba929190612c7e565b600060405180830381600087803b158015610cd457600080fd5b505af1158015610ce8573d6000803e3d6000fd5b5050505050565b6000600954600e60009054906101000a900473ffffffffffffffffffffffffffffffffffffffff1673ffffffffffffffffffffffffffffffffffffffff166370a08231306040518263ffffffff1660e01b8152600401610d4f919061246c565b602060405180830381865afa158015610d6c573d6000803e3d6000fd5b505050506040513d601f19601f82011682018060405250810190610d909190612d15565b610d9a9190612848565b905090565b610da7611e2b565b610daf611ea9565b565b60008060009054906101000a900460ff16905090565b600760009054906101000a900473ffffffffffffffffffffffffffffffffffffffff1673ffffffffffffffffffffffffffffffffffffffff163373ffffffffffffffffffffffffffffffffffffffff1614610e57576040517f08c379a0000000000000000000000000000000000000000000000000000000008152600401610e4e90612db4565b60405180910390fd5b60011515600360008473ffffffffffffffffffffffffffffffffffffffff1673ffffffffffffffffffffffffffffffffffffffff1681526020019081526020016000206000600554815260200190815260200160002060000160009054906101000a900460ff16151514610f00576040517f08c379a0000000000000000000000000000000000000000000000000000000008152600401610ef790612e20565b60405180910390fd5b60001515600360008473ffffffffffffffffffffffffffffffffffffffff1673ffffffffffffffffffffffffffffffffffffffff1681526020019081526020016000206000600554815260200190815260200160002060000160019054906101000a900460ff16151514610fa9576040517f08c379a0000000000000000000000000000000000000000000000000000000008152600401610fa090612e8c565b60405180910390fd5b6001604051806060016040528060055481526020018473ffffffffffffffffffffffffffffffffffffffff1681526020018381525090806001815401808255809150506001900390600052602060002090600302016000909190919091506000820151816000015560208201518160010160006101000a81548173ffffffffffffffffffffffffffffffffffffffff021916908373ffffffffffffffffffffffffffffffffffffffff1602179055506040820151816002015550506001600360008473ffffffffffffffffffffffffffffffffffffffff1673ffffffffffffffffffffffffffffffffffffffff1681526020019081526020016000206000600554815260200190815260200160002060000160016101000a81548160ff02191690831515021790555060026000600554815260200190815260200160002060008154809291906110f8906128ab565b91905055505050565b611109611e2b565b6111136000611f0b565b565b600042905060006004546006548361112d9190612848565b611137919061294b565b9050600081111561116357806005600082825461115491906127a8565b92505081905550816006819055505b5050565b6000600860008373ffffffffffffffffffffffffffffffffffffffff1673ffffffffffffffffffffffffffffffffffffffff168152602001908152602001600020549050919050565b6111b8611e2b565b80600f60006101000a81548173ffffffffffffffffffffffffffffffffffffffff021916908373ffffffffffffffffffffffffffffffffffffffff16021790555050565b611204611e2b565b61120c611fd0565b565b60008060019054906101000a900473ffffffffffffffffffffffffffffffffffffffff16905090565b600760009054906101000a900473ffffffffffffffffffffffffffffffffffffffff1673ffffffffffffffffffffffffffffffffffffffff163373ffffffffffffffffffffffffffffffffffffffff16146112c7576040517f08c379a00000000000000000000000000000000000000000000000000000000081526004016112be90612ef8565b60405180910390fd5b600060055490506112d6611115565b60055481146112ff576112e7610cef565b600c6000838152602001908152602001600020819055505b50565b61130a6120fb565b6113126120fb565b60008060055490505b600a60055461132a9190612848565b81111561137d57604051806040016040528082815260200161134c8388611392565b8152508383600a81106113625761136161287c565b5b60200201819052508080611375906128f3565b91505061131b565b508192505050919050565b6000600554905090565b60008060008060019050600060018054905081101561149157600181815481106113bf576113be61287c565b5b9060005260206000209060030201600001548714801561144f5750600181815481106113ee576113ed61287c565b5b906000526020600020906003020160010160009054906101000a900473ffffffffffffffffffffffffffffffffffffffff1673ffffffffffffffffffffffffffffffffffffffff168673ffffffffffffffffffffffffffffffffffffffff16145b15611484578093506001818154811061146b5761146a61287c565b5b9060005260206000209060030201600201549250611491565b6000945050505050611529565b5060005b60018054905081101561152157600181815481106114b6576114b561287c565b5b906000526020600020906003020160000154871480156114fa5750600181815481106114e5576114e461287c565b5b90600052602060002090600302016002015483115b1561150e57818061150a906128ab565b9250505b8080611519906128ab565b915050611495565b508093505050505b92915050565b60606001805480602002602001604051908101604052809291908181526020016000905b828210156115ef5783829060005260206000209060030201604051806060016040529081600082015481526020016001820160009054906101000a900473ffffffffffffffffffffffffffffffffffffffff1673ffffffffffffffffffffffffffffffffffffffff1673ffffffffffffffffffffffffffffffffffffffff16815260200160028201548152505081526020019060010190611553565b50505050905090565b611600611e2b565b80600760006101000a81548173ffffffffffffffffffffffffffffffffffffffff021916908373ffffffffffffffffffffffffffffffffffffffff16021790555050565b60026020528060005260406000206000915090505481565b611664611e2b565b8060048190555050565b611676611e2b565b600073ffffffffffffffffffffffffffffffffffffffff168173ffffffffffffffffffffffffffffffffffffffff16036116e5576040517f08c379a00000000000000000000000000000000000000000000000000000000081526004016116dc90612f8a565b60405180910390fd5b6116ee81611f0b565b50565b600d60009054906101000a900473ffffffffffffffffffffffffffffffffffffffff1673ffffffffffffffffffffffffffffffffffffffff166370a08231336040518263ffffffff1660e01b815260040161174c919061246c565b602060405180830381865afa158015611769573d6000803e3d6000fd5b505050506040513d601f19601f8201168201806040525081019061178d9190612d15565b8111156117cf576040517f08c379a00000000000000000000000000000000000000000000000000000000081526004016117c690612ff6565b60405180910390fd5b600d60009054906101000a900473ffffffffffffffffffffffffffffffffffffffff1673ffffffffffffffffffffffffffffffffffffffff1663dd62ed3e33306040518363ffffffff1660e01b815260040161182c929190613016565b602060405180830381865afa158015611849573d6000803e3d6000fd5b505050506040513d601f19601f8201168201806040525081019061186d9190612d15565b8111156118af576040517f08c379a00000000000000000000000000000000000000000000000000000000081526004016118a69061308b565b60405180910390fd5b600d60009054906101000a900473ffffffffffffffffffffffffffffffffffffffff1673ffffffffffffffffffffffffffffffffffffffff166323b872dd3330846040518463ffffffff1660e01b815260040161190e939291906130ab565b6020604051808303816000875af115801561192d573d6000803e3d6000fd5b505050506040513d601f19601f820116820180604052508101906119519190612cd3565b50600d60009054906101000a900473ffffffffffffffffffffffffffffffffffffffff1673ffffffffffffffffffffffffffffffffffffffff1663095ea7b3601060009054906101000a900473ffffffffffffffffffffffffffffffffffffffff16836040518363ffffffff1660e01b81526004016119d1929190612c7e565b6020604051808303816000875af11580156119f0573d6000803e3d6000fd5b505050506040513d601f19601f82011682018060405250810190611a149190612cd3565b50601060009054906101000a900473ffffffffffffffffffffffffffffffffffffffff1673ffffffffffffffffffffffffffffffffffffffff1663617ba037600d60009054906101000a900473ffffffffffffffffffffffffffffffffffffffff16833060006040518563ffffffff1660e01b8152600401611a999493929190613135565b600060405180830381600087803b158015611ab357600080fd5b505af1158015611ac7573d6000803e3d6000fd5b5050505080600860003373ffffffffffffffffffffffffffffffffffffffff1673ffffffffffffffffffffffffffffffffffffffff1681526020019081526020016000206000828254611b1a91906127a8565b925050819055508060096000828254611b3391906127a8565b92505081905550600f60009054906101000a900473ffffffffffffffffffffffffffffffffffffffff1673ffffffffffffffffffffffffffffffffffffffff166340c10f1933836040518363ffffffff1660e01b8152600401611b97929190612c7e565b600060405180830381600087803b158015611bb157600080fd5b505af1158015611bc5573d6000803e3d6000fd5b50505050600554600a60003373ffffffffffffffffffffffffffffffffffffffff1673ffffffffffffffffffffffffffffffffffffffff1681526020019081526020016000208190555080600b60003373ffffffffffffffffffffffffffffffffffffffff1673ffffffffffffffffffffffffffffffffffffffff168152602001908152602001600020600060055481526020019081526020016000208190555050565b60001515600360003373ffffffffffffffffffffffffffffffffffffffff1673ffffffffffffffffffffffffffffffffffffffff1681526020019081526020016000206000600554815260200190815260200160002060000160009054906101000a900460ff16151514611d12576040517f08c379a0000000000000000000000000000000000000000000000000000000008152600401611d09906131c6565b60405180910390fd5b60001515600360003373ffffffffffffffffffffffffffffffffffffffff1673ffffffffffffffffffffffffffffffffffffffff1681526020019081526020016000206000600554815260200190815260200160002060000160019054906101000a900460ff16151514611dbb576040517f08c379a0000000000000000000000000000000000000000000000000000000008152600401611db290612e8c565b60405180910390fd5b6001600360003373ffffffffffffffffffffffffffffffffffffffff1673ffffffffffffffffffffffffffffffffffffffff1681526020019081526020016000206000600554815260200190815260200160002060000160006101000a81548160ff021916908315150217905550565b611e33612032565b73ffffffffffffffffffffffffffffffffffffffff16611e5161120e565b73ffffffffffffffffffffffffffffffffffffffff1614611ea7576040517f08c379a0000000000000000000000000000000000000000000000000000000008152600401611e9e90613232565b60405180910390fd5b565b611eb161203a565b60008060006101000a81548160ff0219169083151502179055507f5db9ee0a495bf2e6ff9c91a7834c1ba4fdd244a5e8aa4e537bd38aeae4b073aa611ef4612032565b604051611f01919061246c565b60405180910390a1565b60008060019054906101000a900473ffffffffffffffffffffffffffffffffffffffff16905081600060016101000a81548173ffffffffffffffffffffffffffffffffffffffff021916908373ffffffffffffffffffffffffffffffffffffffff1602179055508173ffffffffffffffffffffffffffffffffffffffff168173ffffffffffffffffffffffffffffffffffffffff167f8be0079c531659141344cd1fd0a4f28419497f9722a3daafe3b4186f6b6457e060405160405180910390a35050565b611fd8612083565b60016000806101000a81548160ff0219169083151502179055507f62e78cea01bee320cd4e420270b5ea74000d11b0c9f74754ebdbfc544b05a25861201b612032565b604051612028919061246c565b60405180910390a1565b600033905090565b612042610db1565b612081576040517f08c379a00000000000000000000000000000000000000000000000000000000081526004016120789061329e565b60405180910390fd5b565b61208b610db1565b156120cb576040517f08c379a00000000000000000000000000000000000000000000000000000000081526004016120c29061330a565b60405180910390fd5b565b604051806101400160405280600a905b6120e5612129565b8152602001906001900390816120dd5790505090565b604051806101400160405280600a905b612113612143565b81526020019060019003908161210b5790505090565b604051806040016040528060008152602001600081525090565b604051806040016040528060008152602001600081525090565b600080fd5b6000819050919050565b61217581612162565b811461218057600080fd5b50565b6000813590506121928161216c565b92915050565b6000602082840312156121ae576121ad61215d565b5b60006121bc84828501612183565b91505092915050565b6121ce81612162565b82525050565b60006020820190506121e960008301846121c5565b92915050565b600073ffffffffffffffffffffffffffffffffffffffff82169050919050565b600061221a826121ef565b9050919050565b61222a8161220f565b82525050565b600060608201905061224560008301866121c5565b6122526020830185612221565b61225f60408301846121c5565b949350505050565b6000600a9050919050565b600081905092915050565b6000819050919050565b61229081612162565b82525050565b6040820160008201516122ac6000850182612287565b5060208201516122bf6020850182612287565b50505050565b60006122d18383612296565b60408301905092915050565b6000602082019050919050565b6122f381612267565b6122fd8184612272565b92506123088261227d565b8060005b8381101561233957815161232087826122c5565b965061232b836122dd565b92505060018101905061230c565b505050505050565b60006102808201905061235760008301846122ea565b92915050565b6123668161220f565b811461237157600080fd5b50565b6000813590506123838161235d565b92915050565b600080604083850312156123a05761239f61215d565b5b60006123ae85828601612183565b92505060206123bf85828601612374565b9150509250929050565b60008115159050919050565b6123de816123c9565b82525050565b60006020820190506123f960008301846123d5565b92915050565b600080604083850312156124165761241561215d565b5b600061242485828601612374565b925050602061243585828601612183565b9150509250929050565b6000602082840312156124555761245461215d565b5b600061246384828501612374565b91505092915050565b60006020820190506124816000830184612221565b92915050565b6000600a9050919050565b600081905092915050565b6000819050919050565b6040820160008201516124bd6000850182612287565b5060208201516124d06020850182612287565b50505050565b60006124e283836124a7565b60408301905092915050565b6000602082019050919050565b61250481612487565b61250e8184612492565b92506125198261249d565b8060005b8381101561254a57815161253187826124d6565b965061253c836124ee565b92505060018101905061251d565b505050505050565b60006102808201905061256860008301846124fb565b92915050565b600081519050919050565b600082825260208201905092915050565b6000819050602082019050919050565b6125a38161220f565b82525050565b6060820160008201516125bf6000850182612287565b5060208201516125d2602085018261259a565b5060408201516125e56040850182612287565b50505050565b60006125f783836125a9565b60608301905092915050565b6000602082019050919050565b600061261b8261256e565b6126258185612579565b93506126308361258a565b8060005b8381101561266157815161264888826125eb565b975061265383612603565b925050600181019050612634565b5085935050505092915050565b600060208201905081810360008301526126888184612610565b905092915050565b600082825260208201905092915050565b7f54686520636f6e74657374206973206e6f7420636c6f73656400000000000000600082015250565b60006126d7601983612690565b91506126e2826126a1565b602082019050919050565b60006020820190508181036000830152612706816126ca565b9050919050565b7f596f7520616c726561647920636c61696d656400000000000000000000000000600082015250565b6000612743601383612690565b915061274e8261270d565b602082019050919050565b6000602082019050818103600083015261277281612736565b9050919050565b7f4e487b7100000000000000000000000000000000000000000000000000000000600052601160045260246000fd5b60006127b382612162565b91506127be83612162565b92508282019050808211156127d6576127d5612779565b5b92915050565b7f4e6f206465706f7369742c204e6f2047616d6521000000000000000000000000600082015250565b6000612812601483612690565b915061281d826127dc565b602082019050919050565b6000602082019050818103600083015261284181612805565b9050919050565b600061285382612162565b915061285e83612162565b925082820390508181111561287657612875612779565b5b92915050565b7f4e487b7100000000000000000000000000000000000000000000000000000000600052603260045260246000fd5b60006128b682612162565b91507fffffffffffffffffffffffffffffffffffffffffffffffffffffffffffffffff82036128e8576128e7612779565b5b600182019050919050565b60006128fe82612162565b91506000820361291157612910612779565b5b600182039050919050565b7f4e487b7100000000000000000000000000000000000000000000000000000000600052601260045260246000fd5b600061295682612162565b915061296183612162565b9250826129715761297061291c565b5b828204905092915050565b60008160011c9050919050565b6000808291508390505b60018511156129d3578086048111156129af576129ae612779565b5b60018516156129be5780820291505b80810290506129cc8561297c565b9450612993565b94509492505050565b6000826129ec5760019050612aa8565b816129fa5760009050612aa8565b8160018114612a105760028114612a1a57612a49565b6001915050612aa8565b60ff841115612a2c57612a2b612779565b5b8360020a915084821115612a4357612a42612779565b5b50612aa8565b5060208310610133831016604e8410600b8410161715612a7e5782820a905083811115612a7957612a78612779565b5b612aa8565b612a8b8484846001612989565b92509050818404811115612aa257612aa1612779565b5b81810290505b9392505050565b600060ff82169050919050565b6000612ac782612162565b9150612ad283612aaf565b9250612aff7fffffffffffffffffffffffffffffffffffffffffffffffffffffffffffffffff84846129dc565b905092915050565b6000612b1282612162565b9150612b1d83612162565b9250828202612b2b81612162565b91508282048414831517612b4257612b41612779565b5b5092915050565b7f496e73756666696369656e742062616c616e6365000000000000000000000000600082015250565b6000612b7f601483612690565b9150612b8a82612b49565b602082019050919050565b60006020820190508181036000830152612bae81612b72565b9050919050565b7f506c656173652077616974203220636f6e746573747320616674657220796f7560008201527f72206465706f73697420746f2077697464726177000000000000000000000000602082015250565b6000612c11603483612690565b9150612c1c82612bb5565b604082019050919050565b60006020820190508181036000830152612c4081612c04565b9050919050565b6000606082019050612c5c6000830186612221565b612c6960208301856121c5565b612c766040830184612221565b949350505050565b6000604082019050612c936000830185612221565b612ca060208301846121c5565b9392505050565b612cb0816123c9565b8114612cbb57600080fd5b50565b600081519050612ccd81612ca7565b92915050565b600060208284031215612ce957612ce861215d565b5b6000612cf784828501612cbe565b91505092915050565b600081519050612d0f8161216c565b92915050565b600060208284031215612d2b57612d2a61215d565b5b6000612d3984828501612d00565b91505092915050565b7f596f7520617265206e6f7420616c6c6f77656420746f2073617665206120736360008201527f6f72652100000000000000000000000000000000000000000000000000000000602082015250565b6000612d9e602483612690565b9150612da982612d42565b604082019050919050565b60006020820190508181036000830152612dcd81612d91565b9050919050565b7f4e6f20726571756573742066726f6d20706c6179657200000000000000000000600082015250565b6000612e0a601683612690565b9150612e1582612dd4565b602082019050919050565b60006020820190508181036000830152612e3981612dfd565b9050919050565b7f506c6179657220616c726561647920706c617965640000000000000000000000600082015250565b6000612e76601583612690565b9150612e8182612e40565b602082019050919050565b60006020820190508181036000830152612ea581612e69565b9050919050565b7f596f752063616e6e6f74207570646174652074686520436f6e74657374000000600082015250565b6000612ee2601d83612690565b9150612eed82612eac565b602082019050919050565b60006020820190508181036000830152612f1181612ed5565b9050919050565b7f4f776e61626c653a206e6577206f776e657220697320746865207a65726f206160008201527f6464726573730000000000000000000000000000000000000000000000000000602082015250565b6000612f74602683612690565b9150612f7f82612f18565b604082019050919050565b60006020820190508181036000830152612fa381612f67565b9050919050565b7f496e737566666963656e7420616d6f756e74206f662055534443000000000000600082015250565b6000612fe0601a83612690565b9150612feb82612faa565b602082019050919050565b6000602082019050818103600083015261300f81612fd3565b9050919050565b600060408201905061302b6000830185612221565b6130386020830184612221565b9392505050565b7f496e73756666696369656e7420616c6c6f776564205553444300000000000000600082015250565b6000613075601983612690565b91506130808261303f565b602082019050919050565b600060208201905081810360008301526130a481613068565b9050919050565b60006060820190506130c06000830186612221565b6130cd6020830185612221565b6130da60408301846121c5565b949350505050565b6000819050919050565b600061ffff82169050919050565b6000819050919050565b600061311f61311a613115846130e2565b6130fa565b6130ec565b9050919050565b61312f81613104565b82525050565b600060808201905061314a6000830187612221565b61315760208301866121c5565b6131646040830185612221565b6131716060830184613126565b95945050505050565b7f596f7520616c7265616479207265717565737465640000000000000000000000600082015250565b60006131b0601583612690565b91506131bb8261317a565b602082019050919050565b600060208201905081810360008301526131df816131a3565b9050919050565b7f4f776e61626c653a2063616c6c6572206973206e6f7420746865206f776e6572600082015250565b600061321c602083612690565b9150613227826131e6565b602082019050919050565b6000602082019050818103600083015261324b8161320f565b9050919050565b7f5061757361626c653a206e6f7420706175736564000000000000000000000000600082015250565b6000613288601483612690565b915061329382613252565b602082019050919050565b600060208201905081810360008301526132b78161327b565b9050919050565b7f5061757361626c653a2070617573656400000000000000000000000000000000600082015250565b60006132f4601083612690565b91506132ff826132be565b602082019050919050565b60006020820190508181036000830152613323816132e7565b905091905056fea26469706673582212204f0665800b16a9778149377c468a0d991932369d73837508216b2ccf2c3319ac64736f6c63430008110033",
  "linkReferences": {},
  "deployedLinkReferences": {}
}