{
  "_format": "hh-sol-artifact-1",
  "contractName": "NpngPool",
  "sourceName": "contracts/NpngPool.sol",
  "abi": [
    {
      "inputs": [],
      "stateMutability": "nonpayable",
      "type": "constructor"
    },
    {
      "anonymous": false,
      "inputs": [
        {
          "indexed": true,
          "internalType": "address",
          "name": "previousOwner",
          "type": "address"
        },
        {
          "indexed": true,
          "internalType": "address",
          "name": "newOwner",
          "type": "address"
        }
      ],
      "name": "OwnershipTransferred",
      "type": "event"
    },
    {
      "anonymous": false,
      "inputs": [
        {
          "indexed": false,
          "internalType": "address",
          "name": "account",
          "type": "address"
        }
      ],
      "name": "Paused",
      "type": "event"
    },
    {
      "anonymous": false,
      "inputs": [
        {
          "indexed": false,
          "internalType": "address",
          "name": "account",
          "type": "address"
        }
      ],
      "name": "Unpaused",
      "type": "event"
    },
    {
      "inputs": [
        {
          "internalType": "uint256",
          "name": "_newFrequence",
          "type": "uint256"
        }
      ],
      "name": "changeGameFrequence",
      "outputs": [],
      "stateMutability": "nonpayable",
      "type": "function"
    },
    {
      "inputs": [
        {
          "internalType": "address",
          "name": "_newAddress",
          "type": "address"
        }
      ],
      "name": "changeNpngTokenAddress",
      "outputs": [],
      "stateMutability": "nonpayable",
      "type": "function"
    },
    {
      "inputs": [
        {
          "internalType": "address",
          "name": "_newRecorderAddress",
          "type": "address"
        }
      ],
      "name": "changeRecorder",
      "outputs": [],
      "stateMutability": "nonpayable",
      "type": "function"
    },
    {
      "inputs": [],
      "name": "claim",
      "outputs": [],
      "stateMutability": "nonpayable",
      "type": "function"
    },
    {
      "inputs": [
        {
          "internalType": "uint256",
          "name": "_amount",
          "type": "uint256"
        }
      ],
      "name": "depositOnAave",
      "outputs": [],
      "stateMutability": "nonpayable",
      "type": "function"
    },
    {
      "inputs": [
        {
          "internalType": "address",
          "name": "_player",
          "type": "address"
        }
      ],
      "name": "getAccountTable",
      "outputs": [
        {
          "components": [
            {
              "internalType": "uint256",
              "name": "idContest",
              "type": "uint256"
            },
            {
              "internalType": "uint256",
              "name": "rank",
              "type": "uint256"
            },
            {
              "internalType": "uint256",
              "name": "participant",
              "type": "uint256"
            },
            {
              "internalType": "uint256",
              "name": "prize",
              "type": "uint256"
            }
          ],
          "internalType": "struct NpngGame.AccountTable[10]",
          "name": "",
          "type": "tuple[10]"
        }
      ],
      "stateMutability": "view",
      "type": "function"
    },
    {
      "inputs": [
        {
          "internalType": "address",
          "name": "_player",
          "type": "address"
        }
      ],
      "name": "getContestPlayerStatus",
      "outputs": [
        {
          "components": [
            {
              "internalType": "bool",
              "name": "requested",
              "type": "bool"
            },
            {
              "internalType": "bool",
              "name": "played",
              "type": "bool"
            },
            {
              "internalType": "bool",
              "name": "claimed",
              "type": "bool"
            }
          ],
          "internalType": "struct NpngGame.RequestPlaying",
          "name": "",
          "type": "tuple"
        }
      ],
      "stateMutability": "view",
      "type": "function"
    },
    {
      "inputs": [
        {
          "internalType": "uint256",
          "name": "_idContest",
          "type": "uint256"
        },
        {
          "internalType": "address",
          "name": "_player",
          "type": "address"
        }
      ],
      "name": "getContestRank",
      "outputs": [
        {
          "internalType": "uint256",
          "name": "",
          "type": "uint256"
        }
      ],
      "stateMutability": "view",
      "type": "function"
    },
    {
      "inputs": [
        {
          "internalType": "uint256",
          "name": "_idContest",
          "type": "uint256"
        }
      ],
      "name": "getContestRewards",
      "outputs": [
        {
          "internalType": "uint256",
          "name": "",
          "type": "uint256"
        }
      ],
      "stateMutability": "view",
      "type": "function"
    },
    {
      "inputs": [
        {
          "internalType": "uint256",
          "name": "_idContest",
          "type": "uint256"
        }
      ],
      "name": "getContestTable",
      "outputs": [
        {
          "components": [
            {
              "internalType": "uint256",
              "name": "rank",
              "type": "uint256"
            },
            {
              "internalType": "uint256",
              "name": "score",
              "type": "uint256"
            },
            {
              "internalType": "address",
              "name": "player",
              "type": "address"
            },
            {
              "internalType": "uint256",
              "name": "prize",
              "type": "uint256"
            }
          ],
          "internalType": "struct NpngPool.ContestTable[10]",
          "name": "",
          "type": "tuple[10]"
        }
      ],
      "stateMutability": "view",
      "type": "function"
    },
    {
      "inputs": [],
      "name": "getEndOfContest",
      "outputs": [
        {
          "internalType": "uint256",
          "name": "",
          "type": "uint256"
        }
      ],
      "stateMutability": "view",
      "type": "function"
    },
    {
      "inputs": [
        {
          "internalType": "uint256",
          "name": "_idContest",
          "type": "uint256"
        }
      ],
      "name": "getGlobalPrizePool",
      "outputs": [
        {
          "internalType": "uint256",
          "name": "",
          "type": "uint256"
        }
      ],
      "stateMutability": "view",
      "type": "function"
    },
    {
      "inputs": [],
      "name": "getIdContest",
      "outputs": [
        {
          "internalType": "uint256",
          "name": "",
          "type": "uint256"
        }
      ],
      "stateMutability": "view",
      "type": "function"
    },
    {
      "inputs": [
        {
          "internalType": "address",
          "name": "_account",
          "type": "address"
        }
      ],
      "name": "getPendingRewards",
      "outputs": [
        {
          "internalType": "uint256",
          "name": "",
          "type": "uint256"
        }
      ],
      "stateMutability": "view",
      "type": "function"
    },
    {
      "inputs": [],
      "name": "getPlay",
      "outputs": [],
      "stateMutability": "nonpayable",
      "type": "function"
    },
    {
      "inputs": [
        {
          "internalType": "address",
          "name": "_account",
          "type": "address"
        },
        {
          "internalType": "uint256",
          "name": "_idContest",
          "type": "uint256"
        }
      ],
      "name": "getPlayerStatus",
      "outputs": [
        {
          "components": [
            {
              "internalType": "bool",
              "name": "requested",
              "type": "bool"
            },
            {
              "internalType": "bool",
              "name": "played",
              "type": "bool"
            },
            {
              "internalType": "bool",
              "name": "claimed",
              "type": "bool"
            }
          ],
          "internalType": "struct NpngGame.RequestPlaying",
          "name": "",
          "type": "tuple"
        }
      ],
      "stateMutability": "view",
      "type": "function"
    },
    {
      "inputs": [],
      "name": "getPoolStatus",
      "outputs": [
        {
          "components": [
            {
              "internalType": "uint256",
              "name": "idContest",
              "type": "uint256"
            },
            {
              "internalType": "uint256",
              "name": "endContestPoolValue",
              "type": "uint256"
            }
          ],
          "internalType": "struct NpngPool.PoolStatus[]",
          "name": "",
          "type": "tuple[]"
        }
      ],
      "stateMutability": "view",
      "type": "function"
    },
    {
      "inputs": [
        {
          "internalType": "uint256",
          "name": "_idContest",
          "type": "uint256"
        },
        {
          "internalType": "address",
          "name": "_player",
          "type": "address"
        }
      ],
      "name": "getRewardsPerPlayer",
      "outputs": [
        {
          "internalType": "uint256",
          "name": "",
          "type": "uint256"
        }
      ],
      "stateMutability": "view",
      "type": "function"
    },
    {
      "inputs": [
        {
          "internalType": "address",
          "name": "_account",
          "type": "address"
        }
      ],
      "name": "getTotalClaimedRewards",
      "outputs": [
        {
          "internalType": "uint256",
          "name": "",
          "type": "uint256"
        }
      ],
      "stateMutability": "view",
      "type": "function"
    },
    {
      "inputs": [
        {
          "internalType": "address",
          "name": "_account",
          "type": "address"
        }
      ],
      "name": "getUserBalance",
      "outputs": [
        {
          "internalType": "uint256",
          "name": "",
          "type": "uint256"
        }
      ],
      "stateMutability": "view",
      "type": "function"
    },
    {
      "inputs": [
        {
          "internalType": "uint256",
          "name": "_idContest",
          "type": "uint256"
        }
      ],
      "name": "getWinnersDeposit",
      "outputs": [
        {
          "internalType": "uint256",
          "name": "",
          "type": "uint256"
        }
      ],
      "stateMutability": "view",
      "type": "function"
    },
    {
      "inputs": [
        {
          "internalType": "uint256",
          "name": "",
          "type": "uint256"
        }
      ],
      "name": "numberOfPlayersPerContest",
      "outputs": [
        {
          "internalType": "uint256",
          "name": "",
          "type": "uint256"
        }
      ],
      "stateMutability": "view",
      "type": "function"
    },
    {
      "inputs": [],
      "name": "owner",
      "outputs": [
        {
          "internalType": "address",
          "name": "",
          "type": "address"
        }
      ],
      "stateMutability": "view",
      "type": "function"
    },
    {
      "inputs": [],
      "name": "pause",
      "outputs": [],
      "stateMutability": "nonpayable",
      "type": "function"
    },
    {
      "inputs": [],
      "name": "paused",
      "outputs": [
        {
          "internalType": "bool",
          "name": "",
          "type": "bool"
        }
      ],
      "stateMutability": "view",
      "type": "function"
    },
    {
      "inputs": [],
      "name": "renounceOwnership",
      "outputs": [],
      "stateMutability": "nonpayable",
      "type": "function"
    },
    {
      "inputs": [
        {
          "internalType": "address",
          "name": "_player",
          "type": "address"
        },
        {
          "internalType": "uint256",
          "name": "_score",
          "type": "uint256"
        }
      ],
      "name": "saveScore",
      "outputs": [],
      "stateMutability": "nonpayable",
      "type": "function"
    },
    {
      "inputs": [
        {
          "internalType": "address",
          "name": "newOwner",
          "type": "address"
        }
      ],
      "name": "transferOwnership",
      "outputs": [],
      "stateMutability": "nonpayable",
      "type": "function"
    },
    {
      "inputs": [],
      "name": "unpause",
      "outputs": [],
      "stateMutability": "nonpayable",
      "type": "function"
    },
    {
      "inputs": [],
      "name": "updateContest",
      "outputs": [],
      "stateMutability": "nonpayable",
      "type": "function"
    },
    {
      "inputs": [
        {
          "internalType": "uint256",
          "name": "_amount",
          "type": "uint256"
        }
      ],
      "name": "withdraw",
      "outputs": [],
      "stateMutability": "nonpayable",
      "type": "function"
    }
  ],
  "bytecode": "0x60806040523480156200001157600080fd5b5060008060006101000a81548160ff0219169083151502179055506200004c620000406200027260201b60201c565b6200027a60201b60201c565b426007819055506001600681905550610e1060048190555061dead600860006101000a81548173ffffffffffffffffffffffffffffffffffffffff021916908373ffffffffffffffffffffffffffffffffffffffff16021790555073a2025b15a1757311bfd68cb14eaefcc237af5b43601060006101000a81548173ffffffffffffffffffffffffffffffffffffffff021916908373ffffffffffffffffffffffffffffffffffffffff16021790555073368eedf3f56ad10b9bc57eed4dac65b26bb667f6601360006101000a81548173ffffffffffffffffffffffffffffffffffffffff021916908373ffffffffffffffffffffffffffffffffffffffff160217905550731ee669290939f8a8864497af3bc83728715265ff601160006101000a81548173ffffffffffffffffffffffffffffffffffffffff021916908373ffffffffffffffffffffffffffffffffffffffff160217905550738ad6d963600f5c45dabd5ff6faa04d51a6d549f0601260006101000a81548173ffffffffffffffffffffffffffffffffffffffff021916908373ffffffffffffffffffffffffffffffffffffffff160217905550600960405180604001604052806000815260200160008152509080600181540180825580915050600190039060005260206000209060020201600090919091909150600082015181600001556020820151816001015550506000600f6000808152602001908152602001600020819055506200033f565b600033905090565b60008060019054906101000a900473ffffffffffffffffffffffffffffffffffffffff16905081600060016101000a81548173ffffffffffffffffffffffffffffffffffffffff021916908373ffffffffffffffffffffffffffffffffffffffff1602179055508173ffffffffffffffffffffffffffffffffffffffff168173ffffffffffffffffffffffffffffffffffffffff167f8be0079c531659141344cd1fd0a4f28419497f9722a3daafe3b4186f6b6457e060405160405180910390a35050565b613c2f806200034f6000396000f3fe608060405234801561001057600080fd5b50600436106101e55760003560e01c80638347f5361161010f578063c85785d6116100a2578063f2fbee3f11610071578063f2fbee3f1461056c578063f2fde38b14610588578063f6ed2017146105a4578063fd8d1909146105d4576101e5565b8063c85785d6146104d2578063cad7ebce146104f0578063e064613e14610520578063e9d699901461053c576101e5565b80639e7a5efe116100de5780639e7a5efe14610412578063b00d9c0414610442578063b2e85b6714610472578063bb2922e6146104a2576101e5565b80638347f5361461039e5780638456cb59146103ba5780638da5cb5b146103c45780639cfc8b8c146103e2576101e5565b806347734892116101875780635c975abb116101565780635c975abb1461033c578063695a65171461035a578063715018a6146103765780637f79496c14610380576101e5565b806347734892146102c85780634e499acd146102f85780634e71d92d14610302578063529ffdff1461030c576101e5565b80632452a7e3116101c35780632452a7e3146102425780632d75acbc146102725780632e1a7d4d146102a25780633f4ba83a146102be576101e5565b80630bd5d284146101ea57806312b946bc146101f45780631eadace914610212575b600080fd5b6101f26105f0565b005b6101fc61067c565b6040516102099190612a43565b60405180910390f35b61022c60048036038101906102279190612aed565b610698565b6040516102399190612a43565b60405180910390f35b61025c60048036038101906102579190612b2d565b610832565b6040516102699190612c69565b60405180910390f35b61028c60048036038101906102879190612b2d565b610a21565b6040516102999190612a43565b60405180910390f35b6102bc60048036038101906102b79190612b2d565b610a8a565b005b6102c6610df1565b005b6102e260048036038101906102dd9190612c85565b610e03565b6040516102ef9190612a43565b60405180910390f35b610300610e4c565b005b61030a611050565b005b61032660048036038101906103219190612c85565b6112bf565b6040516103339190612d0f565b60405180910390f35b61034461140a565b6040516103519190612d39565b60405180910390f35b610374600480360381019061036f9190612d54565b611420565b005b61037e6117a9565b005b6103886117bd565b6040516103959190612e72565b60405180910390f35b6103b860048036038101906103b39190612c85565b611830565b005b6103c261187c565b005b6103cc61188e565b6040516103d99190612ea3565b60405180910390f35b6103fc60048036038101906103f79190612c85565b6118b7565b6040516104099190612a43565b60405180910390f35b61042c60048036038101906104279190612b2d565b611900565b6040516104399190612a43565b60405180910390f35b61045c60048036038101906104579190612b2d565b611997565b6040516104699190612a43565b60405180910390f35b61048c60048036038101906104879190612d54565b611a87565b6040516104999190612d0f565b60405180910390f35b6104bc60048036038101906104b79190612c85565b611b43565b6040516104c99190612faf565b60405180910390f35b6104da611c2b565b6040516104e79190612a43565b60405180910390f35b61050a60048036038101906105059190612aed565b611c35565b6040516105179190612a43565b60405180910390f35b61053a60048036038101906105359190612c85565b611dfe565b005b61055660048036038101906105519190612b2d565b611e4a565b6040516105639190612a43565b60405180910390f35b61058660048036038101906105819190612b2d565b611e62565b005b6105a2600480360381019061059d9190612c85565b611e74565b005b6105be60048036038101906105b99190612c85565b611ef7565b6040516105cb9190612a43565b60405180910390f35b6105ee60048036038101906105e99190612b2d565b611fbc565b005b6000600a60003373ffffffffffffffffffffffffffffffffffffffff1673ffffffffffffffffffffffffffffffffffffffff1681526020019081526020016000205411610672576040517f08c379a000000000000000000000000000000000000000000000000000000000815260040161066990613028565b60405180910390fd5b61067a6124dd565b565b60008060045460075461068f9190613077565b90508091505090565b60008060006106a78585611c35565b9050600080600090505b6001805490508110156107a75786600182815481106106d3576106d26130ab565b5b90600052602060002090600402016000015414801561076257508573ffffffffffffffffffffffffffffffffffffffff1660018281548110610718576107176130ab565b5b906000526020600020906004020160010160009054906101000a900473ffffffffffffffffffffffffffffffffffffffff1673ffffffffffffffffffffffffffffffffffffffff16145b15610794576001818154811061077b5761077a6130ab565b5b90600052602060002090600402016003015491506107a7565b808061079f906130da565b9150506106b1565b50600a821161082157662386f26fc1000060058360656107c79190613122565b6107d19190613296565b6107da88611997565b620f4240846107e991906132e1565b6107f39190613352565b6107fc89611900565b61080691906132e1565b61081091906132e1565b61081a9190613352565b9250610826565b600092505b82935050505092915050565b61083a612941565b610842612941565b600080600090505b600180549050811015610a16576001818154811061086b5761086a6130ab565b5b9060005260206000209060040201600001548503610a03576108d2856001838154811061089b5761089a6130ab565b5b906000526020600020906004020160010160009054906101000a900473ffffffffffffffffffffffffffffffffffffffff16611c35565b9150600082141580156108e65750600a8211155b15610a02576040518060800160405280838152602001600183815481106109105761090f6130ab565b5b90600052602060002090600402016002015481526020016001838154811061093b5761093a6130ab565b5b906000526020600020906004020160010160009054906101000a900473ffffffffffffffffffffffffffffffffffffffff1673ffffffffffffffffffffffffffffffffffffffff1681526020016109d787600185815481106109a05761099f6130ab565b5b906000526020600020906004020160010160009054906101000a900473ffffffffffffffffffffffffffffffffffffffff16610698565b815250836001846109e89190613122565b600a81106109f9576109f86130ab565b5b60200201819052505b5b8080610a0e906130da565b91505061084a565b508192505050919050565b600080610a2c612941565b610a3584610832565b905060005b600a811015610a7f578181600a8110610a5657610a556130ab565b5b60200201516060015183610a6a9190613077565b92508080610a77906130da565b915050610a3a565b508192505050919050565b80600a60003373ffffffffffffffffffffffffffffffffffffffff1673ffffffffffffffffffffffffffffffffffffffff168152602001908152602001600020541015610b0c576040517f08c379a0000000000000000000000000000000000000000000000000000000008152600401610b03906133cf565b60405180910390fd5b6006546002600d60003373ffffffffffffffffffffffffffffffffffffffff1673ffffffffffffffffffffffffffffffffffffffff16815260200190815260200160002054610b5b9190613077565b1115610b9c576040517f08c379a0000000000000000000000000000000000000000000000000000000008152600401610b9390613461565b60405180910390fd5b601360009054906101000a900473ffffffffffffffffffffffffffffffffffffffff1673ffffffffffffffffffffffffffffffffffffffff166369328dec601060009054906101000a900473ffffffffffffffffffffffffffffffffffffffff1683306040518463ffffffff1660e01b8152600401610c1d93929190613481565b600060405180830381600087803b158015610c3757600080fd5b505af1158015610c4b573d6000803e3d6000fd5b50505050601060009054906101000a900473ffffffffffffffffffffffffffffffffffffffff1673ffffffffffffffffffffffffffffffffffffffff1663a9059cbb33836040518363ffffffff1660e01b8152600401610cac9291906134b8565b6020604051808303816000875af1158015610ccb573d6000803e3d6000fd5b505050506040513d601f19601f82011682018060405250810190610cef919061350d565b5080600a60003373ffffffffffffffffffffffffffffffffffffffff1673ffffffffffffffffffffffffffffffffffffffff1681526020019081526020016000206000828254610d3f9190613122565b9250508190555080600c6000828254610d589190613077565b92505081905550601260009054906101000a900473ffffffffffffffffffffffffffffffffffffffff1673ffffffffffffffffffffffffffffffffffffffff16639dc29fac33836040518363ffffffff1660e01b8152600401610dbc9291906134b8565b600060405180830381600087803b158015610dd657600080fd5b505af1158015610dea573d6000803e3d6000fd5b5050505050565b610df961269f565b610e0161271d565b565b6000600a60008373ffffffffffffffffffffffffffffffffffffffff1673ffffffffffffffffffffffffffffffffffffffff168152602001908152602001600020549050919050565b600454600754610e5c9190613077565b421015610e9e576040517f08c379a0000000000000000000000000000000000000000000000000000000008152600401610e9590613586565b60405180910390fd5b42600781905550601160009054906101000a900473ffffffffffffffffffffffffffffffffffffffff1673ffffffffffffffffffffffffffffffffffffffff166370a08231306040518263ffffffff1660e01b8152600401610f009190612ea3565b602060405180830381865afa158015610f1d573d6000803e3d6000fd5b505050506040513d601f19601f82011682018060405250810190610f4191906135bb565b600f60006006548152602001908152602001600020819055506000610f736001600654610f6e9190613122565b610a21565b600c54600b5460096001600654610f8a9190613122565b81548110610f9b57610f9a6130ab565b5b906000526020600020906002020160010154610fb79190613077565b610fc19190613122565b610fcb9190613077565b9050600960405180604001604052806006548152602001838152509080600181540180825580915050600190039060005260206000209060020201600090919091909150600082015181600001556020820151816001015550506000600b819055506000600c8190555060066000815480929190611048906130da565b919050555050565b6000808060016006546110639190613122565b90505b60008111156111755760011515600360003373ffffffffffffffffffffffffffffffffffffffff1673ffffffffffffffffffffffffffffffffffffffff168152602001908152602001600020600083815260200190815260200160002060000160029054906101000a900460ff1615150315611175576110e68133610698565b915081836110f49190613077565b92506001600360003373ffffffffffffffffffffffffffffffffffffffff1673ffffffffffffffffffffffffffffffffffffffff168152602001908152602001600020600083815260200190815260200160002060000160026101000a81548160ff021916908315150217905550808061116d906135e8565b915050611066565b5060018211156112bb5781600a60003373ffffffffffffffffffffffffffffffffffffffff1673ffffffffffffffffffffffffffffffffffffffff16815260200190815260200160002060008282546111ce9190613077565b9250508190555081600560003373ffffffffffffffffffffffffffffffffffffffff1673ffffffffffffffffffffffffffffffffffffffff16815260200190815260200160002060008282546112249190613077565b92505081905550601260009054906101000a900473ffffffffffffffffffffffffffffffffffffffff1673ffffffffffffffffffffffffffffffffffffffff166340c10f1933846040518363ffffffff1660e01b81526004016112889291906134b8565b600060405180830381600087803b1580156112a257600080fd5b505af11580156112b6573d6000803e3d6000fd5b505050505b5050565b6112c761296f565b6000600a60008473ffffffffffffffffffffffffffffffffffffffff1673ffffffffffffffffffffffffffffffffffffffff1681526020019081526020016000205411611349576040517f08c379a00000000000000000000000000000000000000000000000000000000081526004016113409061365d565b60405180910390fd5b61135161296f565b600360008473ffffffffffffffffffffffffffffffffffffffff1673ffffffffffffffffffffffffffffffffffffffff168152602001908152602001600020600060065481526020019081526020016000206040518060600160405290816000820160009054906101000a900460ff161515151581526020016000820160019054906101000a900460ff161515151581526020016000820160029054906101000a900460ff161515151581525050905080915050919050565b60008060009054906101000a900460ff16905090565b600860009054906101000a900473ffffffffffffffffffffffffffffffffffffffff1673ffffffffffffffffffffffffffffffffffffffff163373ffffffffffffffffffffffffffffffffffffffff16146114b0576040517f08c379a00000000000000000000000000000000000000000000000000000000081526004016114a7906136ef565b60405180910390fd5b60011515600360008473ffffffffffffffffffffffffffffffffffffffff1673ffffffffffffffffffffffffffffffffffffffff1681526020019081526020016000206000600654815260200190815260200160002060000160009054906101000a900460ff16151514611559576040517f08c379a00000000000000000000000000000000000000000000000000000000081526004016115509061375b565b60405180910390fd5b60001515600360008473ffffffffffffffffffffffffffffffffffffffff1673ffffffffffffffffffffffffffffffffffffffff1681526020019081526020016000206000600654815260200190815260200160002060000160019054906101000a900460ff16151514611602576040517f08c379a00000000000000000000000000000000000000000000000000000000081526004016115f9906137c7565b60405180910390fd5b6001604051806080016040528060065481526020018473ffffffffffffffffffffffffffffffffffffffff168152602001838152602001600a60008673ffffffffffffffffffffffffffffffffffffffff1673ffffffffffffffffffffffffffffffffffffffff1681526020019081526020016000205481525090806001815401808255809150506001900390600052602060002090600402016000909190919091506000820151816000015560208201518160010160006101000a81548173ffffffffffffffffffffffffffffffffffffffff021916908373ffffffffffffffffffffffffffffffffffffffff160217905550604082015181600201556060820151816003015550506001600360008473ffffffffffffffffffffffffffffffffffffffff1673ffffffffffffffffffffffffffffffffffffffff1681526020019081526020016000206000600654815260200190815260200160002060000160016101000a81548160ff02191690831515021790555060026000600654815260200190815260200160002060008154809291906117a0906130da565b91905055505050565b6117b161269f565b6117bb600061277f565b565b60606009805480602002602001604051908101604052809291908181526020016000905b82821015611827578382906000526020600020906002020160405180604001604052908160008201548152602001600182015481525050815260200190600101906117e1565b50505050905090565b61183861269f565b80601260006101000a81548173ffffffffffffffffffffffffffffffffffffffff021916908373ffffffffffffffffffffffffffffffffffffffff16021790555050565b61188461269f565b61188c612844565b565b60008060019054906101000a900473ffffffffffffffffffffffffffffffffffffffff16905090565b6000600560008373ffffffffffffffffffffffffffffffffffffffff1673ffffffffffffffffffffffffffffffffffffffff168152602001908152602001600020549050919050565b6000806119186001846119139190613122565b610a21565b600c54600b54600960018761192d9190613122565b8154811061193e5761193d6130ab565b5b90600052602060002090600202016001015461195a9190613077565b6119649190613122565b61196e9190613077565b905080600f60008581526020019081526020016000205461198f9190613122565b915050919050565b6000806000905060005b600180549050811015611a7d57600181815481106119c2576119c16130ab565b5b90600052602060002090600402016000015484148015611a315750600a611a2e85600184815481106119f7576119f66130ab565b5b906000526020600020906004020160010160009054906101000a900473ffffffffffffffffffffffffffffffffffffffff16611c35565b11155b15611a6a5760018181548110611a4a57611a496130ab565b5b90600052602060002090600402016003015482611a679190613077565b91505b8080611a75906130da565b9150506119a1565b5080915050919050565b611a8f61296f565b600360008473ffffffffffffffffffffffffffffffffffffffff1673ffffffffffffffffffffffffffffffffffffffff16815260200190815260200160002060008381526020019081526020016000206040518060600160405290816000820160009054906101000a900460ff161515151581526020016000820160019054906101000a900460ff161515151581526020016000820160029054906101000a900460ff161515151581525050905092915050565b611b4b612996565b611b53612996565b6000806000905060006001600654611b6b9190613122565b9050600a811015611b7e57809250611b83565b600a92505b60008190505b8382611b959190613122565b811115611c1e576040518060800160405280828152602001611bb7838a611c35565b815260200160026000848152602001908152602001600020548152602001611bdf838a610698565b8152508584600a8110611bf557611bf46130ab565b5b60200201819052508280611c08906130da565b9350508080611c16906135e8565b915050611b89565b5083945050505050919050565b6000600654905090565b6000806000806001905060005b600180549050811015611d605760018181548110611c6357611c626130ab565b5b90600052602060002090600402016000015487148015611cf3575060018181548110611c9257611c916130ab565b5b906000526020600020906004020160010160009054906101000a900473ffffffffffffffffffffffffffffffffffffffff1673ffffffffffffffffffffffffffffffffffffffff168673ffffffffffffffffffffffffffffffffffffffff16145b15611d285780935060018181548110611d0f57611d0e6130ab565b5b9060005260206000209060040201600201549250611d60565b600180549050600182611d3b9190613077565b03611d4d576000945050505050611df8565b8080611d58906130da565b915050611c42565b5060005b600180549050811015611df05760018181548110611d8557611d846130ab565b5b90600052602060002090600402016000015487148015611dc9575060018181548110611db457611db36130ab565b5b90600052602060002090600402016002015483115b15611ddd578180611dd9906130da565b9250505b8080611de8906130da565b915050611d64565b508093505050505b92915050565b611e0661269f565b80600860006101000a81548173ffffffffffffffffffffffffffffffffffffffff021916908373ffffffffffffffffffffffffffffffffffffffff16021790555050565b60026020528060005260406000206000915090505481565b611e6a61269f565b8060048190555050565b611e7c61269f565b600073ffffffffffffffffffffffffffffffffffffffff168173ffffffffffffffffffffffffffffffffffffffff1603611eeb576040517f08c379a0000000000000000000000000000000000000000000000000000000008152600401611ee290613859565b60405180910390fd5b611ef48161277f565b50565b6000806000905060006001600654611f0f9190613122565b90505b6000811115611fb25760011515600360008673ffffffffffffffffffffffffffffffffffffffff1673ffffffffffffffffffffffffffffffffffffffff168152602001908152602001600020600083815260200190815260200160002060000160029054906101000a900460ff1615150315611fb257611f928185610698565b82611f9d9190613077565b91508080611faa906135e8565b915050611f12565b5080915050919050565b601060009054906101000a900473ffffffffffffffffffffffffffffffffffffffff1673ffffffffffffffffffffffffffffffffffffffff166370a08231336040518263ffffffff1660e01b81526004016120179190612ea3565b602060405180830381865afa158015612034573d6000803e3d6000fd5b505050506040513d601f19601f8201168201806040525081019061205891906135bb565b81111561209a576040517f08c379a0000000000000000000000000000000000000000000000000000000008152600401612091906138c5565b60405180910390fd5b601060009054906101000a900473ffffffffffffffffffffffffffffffffffffffff1673ffffffffffffffffffffffffffffffffffffffff1663dd62ed3e33306040518363ffffffff1660e01b81526004016120f79291906138e5565b602060405180830381865afa158015612114573d6000803e3d6000fd5b505050506040513d601f19601f8201168201806040525081019061213891906135bb565b81111561217a576040517f08c379a00000000000000000000000000000000000000000000000000000000081526004016121719061395a565b60405180910390fd5b601060009054906101000a900473ffffffffffffffffffffffffffffffffffffffff1673ffffffffffffffffffffffffffffffffffffffff166323b872dd3330846040518463ffffffff1660e01b81526004016121d99392919061397a565b6020604051808303816000875af11580156121f8573d6000803e3d6000fd5b505050506040513d601f19601f8201168201806040525081019061221c919061350d565b50601060009054906101000a900473ffffffffffffffffffffffffffffffffffffffff1673ffffffffffffffffffffffffffffffffffffffff1663095ea7b3601360009054906101000a900473ffffffffffffffffffffffffffffffffffffffff16836040518363ffffffff1660e01b815260040161229c9291906134b8565b6020604051808303816000875af11580156122bb573d6000803e3d6000fd5b505050506040513d601f19601f820116820180604052508101906122df919061350d565b50601360009054906101000a900473ffffffffffffffffffffffffffffffffffffffff1673ffffffffffffffffffffffffffffffffffffffff1663617ba037601060009054906101000a900473ffffffffffffffffffffffffffffffffffffffff16833060006040518563ffffffff1660e01b81526004016123649493929190613a04565b600060405180830381600087803b15801561237e57600080fd5b505af1158015612392573d6000803e3d6000fd5b5050505080600a60003373ffffffffffffffffffffffffffffffffffffffff1673ffffffffffffffffffffffffffffffffffffffff16815260200190815260200160002060008282546123e59190613077565b9250508190555080600b60008282546123fe9190613077565b92505081905550601260009054906101000a900473ffffffffffffffffffffffffffffffffffffffff1673ffffffffffffffffffffffffffffffffffffffff166340c10f1933836040518363ffffffff1660e01b81526004016124629291906134b8565b600060405180830381600087803b15801561247c57600080fd5b505af1158015612490573d6000803e3d6000fd5b50505050600654600d60003373ffffffffffffffffffffffffffffffffffffffff1673ffffffffffffffffffffffffffffffffffffffff1681526020019081526020016000208190555050565b60001515600360003373ffffffffffffffffffffffffffffffffffffffff1673ffffffffffffffffffffffffffffffffffffffff1681526020019081526020016000206000600654815260200190815260200160002060000160009054906101000a900460ff16151514612586576040517f08c379a000000000000000000000000000000000000000000000000000000000815260040161257d90613a95565b60405180910390fd5b60001515600360003373ffffffffffffffffffffffffffffffffffffffff1673ffffffffffffffffffffffffffffffffffffffff1681526020019081526020016000206000600654815260200190815260200160002060000160019054906101000a900460ff1615151461262f576040517f08c379a0000000000000000000000000000000000000000000000000000000008152600401612626906137c7565b60405180910390fd5b6001600360003373ffffffffffffffffffffffffffffffffffffffff1673ffffffffffffffffffffffffffffffffffffffff1681526020019081526020016000206000600654815260200190815260200160002060000160006101000a81548160ff021916908315150217905550565b6126a76128a6565b73ffffffffffffffffffffffffffffffffffffffff166126c561188e565b73ffffffffffffffffffffffffffffffffffffffff161461271b576040517f08c379a000000000000000000000000000000000000000000000000000000000815260040161271290613b01565b60405180910390fd5b565b6127256128ae565b60008060006101000a81548160ff0219169083151502179055507f5db9ee0a495bf2e6ff9c91a7834c1ba4fdd244a5e8aa4e537bd38aeae4b073aa6127686128a6565b6040516127759190612ea3565b60405180910390a1565b60008060019054906101000a900473ffffffffffffffffffffffffffffffffffffffff16905081600060016101000a81548173ffffffffffffffffffffffffffffffffffffffff021916908373ffffffffffffffffffffffffffffffffffffffff1602179055508173ffffffffffffffffffffffffffffffffffffffff168173ffffffffffffffffffffffffffffffffffffffff167f8be0079c531659141344cd1fd0a4f28419497f9722a3daafe3b4186f6b6457e060405160405180910390a35050565b61284c6128f7565b60016000806101000a81548160ff0219169083151502179055507f62e78cea01bee320cd4e420270b5ea74000d11b0c9f74754ebdbfc544b05a25861288f6128a6565b60405161289c9190612ea3565b60405180910390a1565b600033905090565b6128b661140a565b6128f5576040517f08c379a00000000000000000000000000000000000000000000000000000000081526004016128ec90613b6d565b60405180910390fd5b565b6128ff61140a565b1561293f576040517f08c379a000000000000000000000000000000000000000000000000000000000815260040161293690613bd9565b60405180910390fd5b565b604051806101400160405280600a905b6129596129c4565b8152602001906001900390816129515790505090565b60405180606001604052806000151581526020016000151581526020016000151581525090565b604051806101400160405280600a905b6129ae612a02565b8152602001906001900390816129a65790505090565b60405180608001604052806000815260200160008152602001600073ffffffffffffffffffffffffffffffffffffffff168152602001600081525090565b6040518060800160405280600081526020016000815260200160008152602001600081525090565b6000819050919050565b612a3d81612a2a565b82525050565b6000602082019050612a586000830184612a34565b92915050565b600080fd5b612a6c81612a2a565b8114612a7757600080fd5b50565b600081359050612a8981612a63565b92915050565b600073ffffffffffffffffffffffffffffffffffffffff82169050919050565b6000612aba82612a8f565b9050919050565b612aca81612aaf565b8114612ad557600080fd5b50565b600081359050612ae781612ac1565b92915050565b60008060408385031215612b0457612b03612a5e565b5b6000612b1285828601612a7a565b9250506020612b2385828601612ad8565b9150509250929050565b600060208284031215612b4357612b42612a5e565b5b6000612b5184828501612a7a565b91505092915050565b6000600a9050919050565b600081905092915050565b6000819050919050565b612b8381612a2a565b82525050565b612b9281612aaf565b82525050565b608082016000820151612bae6000850182612b7a565b506020820151612bc16020850182612b7a565b506040820151612bd46040850182612b89565b506060820151612be76060850182612b7a565b50505050565b6000612bf98383612b98565b60808301905092915050565b6000602082019050919050565b612c1b81612b5a565b612c258184612b65565b9250612c3082612b70565b8060005b83811015612c61578151612c488782612bed565b9650612c5383612c05565b925050600181019050612c34565b505050505050565b600061050082019050612c7f6000830184612c12565b92915050565b600060208284031215612c9b57612c9a612a5e565b5b6000612ca984828501612ad8565b91505092915050565b60008115159050919050565b612cc781612cb2565b82525050565b606082016000820151612ce36000850182612cbe565b506020820151612cf66020850182612cbe565b506040820151612d096040850182612cbe565b50505050565b6000606082019050612d246000830184612ccd565b92915050565b612d3381612cb2565b82525050565b6000602082019050612d4e6000830184612d2a565b92915050565b60008060408385031215612d6b57612d6a612a5e565b5b6000612d7985828601612ad8565b9250506020612d8a85828601612a7a565b9150509250929050565b600081519050919050565b600082825260208201905092915050565b6000819050602082019050919050565b604082016000820151612dd66000850182612b7a565b506020820151612de96020850182612b7a565b50505050565b6000612dfb8383612dc0565b60408301905092915050565b6000602082019050919050565b6000612e1f82612d94565b612e298185612d9f565b9350612e3483612db0565b8060005b83811015612e65578151612e4c8882612def565b9750612e5783612e07565b925050600181019050612e38565b5085935050505092915050565b60006020820190508181036000830152612e8c8184612e14565b905092915050565b612e9d81612aaf565b82525050565b6000602082019050612eb86000830184612e94565b92915050565b6000600a9050919050565b600081905092915050565b6000819050919050565b608082016000820151612ef46000850182612b7a565b506020820151612f076020850182612b7a565b506040820151612f1a6040850182612b7a565b506060820151612f2d6060850182612b7a565b50505050565b6000612f3f8383612ede565b60808301905092915050565b6000602082019050919050565b612f6181612ebe565b612f6b8184612ec9565b9250612f7682612ed4565b8060005b83811015612fa7578151612f8e8782612f33565b9650612f9983612f4b565b925050600181019050612f7a565b505050505050565b600061050082019050612fc56000830184612f58565b92915050565b600082825260208201905092915050565b7f4e6f206465706f7369742c204e6f2047616d6521000000000000000000000000600082015250565b6000613012601483612fcb565b915061301d82612fdc565b602082019050919050565b6000602082019050818103600083015261304181613005565b9050919050565b7f4e487b7100000000000000000000000000000000000000000000000000000000600052601160045260246000fd5b600061308282612a2a565b915061308d83612a2a565b92508282019050808211156130a5576130a4613048565b5b92915050565b7f4e487b7100000000000000000000000000000000000000000000000000000000600052603260045260246000fd5b60006130e582612a2a565b91507fffffffffffffffffffffffffffffffffffffffffffffffffffffffffffffffff820361311757613116613048565b5b600182019050919050565b600061312d82612a2a565b915061313883612a2a565b92508282039050818111156131505761314f613048565b5b92915050565b60008160011c9050919050565b6000808291508390505b60018511156131ad5780860481111561318957613188613048565b5b60018516156131985780820291505b80810290506131a685613156565b945061316d565b94509492505050565b6000826131c65760019050613282565b816131d45760009050613282565b81600181146131ea57600281146131f457613223565b6001915050613282565b60ff84111561320657613205613048565b5b8360020a91508482111561321d5761321c613048565b5b50613282565b5060208310610133831016604e8410600b84101617156132585782820a90508381111561325357613252613048565b5b613282565b6132658484846001613163565b9250905081840481111561327c5761327b613048565b5b81810290505b9392505050565b600060ff82169050919050565b60006132a182612a2a565b91506132ac83613289565b92506132d97fffffffffffffffffffffffffffffffffffffffffffffffffffffffffffffffff84846131b6565b905092915050565b60006132ec82612a2a565b91506132f783612a2a565b925082820261330581612a2a565b9150828204841483151761331c5761331b613048565b5b5092915050565b7f4e487b7100000000000000000000000000000000000000000000000000000000600052601260045260246000fd5b600061335d82612a2a565b915061336883612a2a565b92508261337857613377613323565b5b828204905092915050565b7f496e73756666696369656e742062616c616e6365000000000000000000000000600082015250565b60006133b9601483612fcb565b91506133c482613383565b602082019050919050565b600060208201905081810360008301526133e8816133ac565b9050919050565b7f506c656173652077616974203220636f6e746573747320616674657220796f7560008201527f72206465706f73697420746f2077697464726177000000000000000000000000602082015250565b600061344b603483612fcb565b9150613456826133ef565b604082019050919050565b6000602082019050818103600083015261347a8161343e565b9050919050565b60006060820190506134966000830186612e94565b6134a36020830185612a34565b6134b06040830184612e94565b949350505050565b60006040820190506134cd6000830185612e94565b6134da6020830184612a34565b9392505050565b6134ea81612cb2565b81146134f557600080fd5b50565b600081519050613507816134e1565b92915050565b60006020828403121561352357613522612a5e565b5b6000613531848285016134f8565b91505092915050565b7f4e6f20636f6e7465737420757064617465210000000000000000000000000000600082015250565b6000613570601283612fcb565b915061357b8261353a565b602082019050919050565b6000602082019050818103600083015261359f81613563565b9050919050565b6000815190506135b581612a63565b92915050565b6000602082840312156135d1576135d0612a5e565b5b60006135df848285016135a6565b91505092915050565b60006135f382612a2a565b91506000820361360657613605613048565b5b600182039050919050565b7f4e6f206465706f73697400000000000000000000000000000000000000000000600082015250565b6000613647600a83612fcb565b915061365282613611565b602082019050919050565b600060208201905081810360008301526136768161363a565b9050919050565b7f596f7520617265206e6f7420616c6c6f77656420746f2073617665206120736360008201527f6f72652100000000000000000000000000000000000000000000000000000000602082015250565b60006136d9602483612fcb565b91506136e48261367d565b604082019050919050565b60006020820190508181036000830152613708816136cc565b9050919050565b7f4e6f20726571756573742066726f6d20706c6179657200000000000000000000600082015250565b6000613745601683612fcb565b91506137508261370f565b602082019050919050565b6000602082019050818103600083015261377481613738565b9050919050565b7f506c6179657220616c726561647920706c617965640000000000000000000000600082015250565b60006137b1601583612fcb565b91506137bc8261377b565b602082019050919050565b600060208201905081810360008301526137e0816137a4565b9050919050565b7f4f776e61626c653a206e6577206f776e657220697320746865207a65726f206160008201527f6464726573730000000000000000000000000000000000000000000000000000602082015250565b6000613843602683612fcb565b915061384e826137e7565b604082019050919050565b6000602082019050818103600083015261387281613836565b9050919050565b7f496e737566666963656e7420616d6f756e74206f662055534443000000000000600082015250565b60006138af601a83612fcb565b91506138ba82613879565b602082019050919050565b600060208201905081810360008301526138de816138a2565b9050919050565b60006040820190506138fa6000830185612e94565b6139076020830184612e94565b9392505050565b7f496e73756666696369656e7420616c6c6f776564205553444300000000000000600082015250565b6000613944601983612fcb565b915061394f8261390e565b602082019050919050565b6000602082019050818103600083015261397381613937565b9050919050565b600060608201905061398f6000830186612e94565b61399c6020830185612e94565b6139a96040830184612a34565b949350505050565b6000819050919050565b600061ffff82169050919050565b6000819050919050565b60006139ee6139e96139e4846139b1565b6139c9565b6139bb565b9050919050565b6139fe816139d3565b82525050565b6000608082019050613a196000830187612e94565b613a266020830186612a34565b613a336040830185612e94565b613a4060608301846139f5565b95945050505050565b7f596f7520616c7265616479207265717565737465640000000000000000000000600082015250565b6000613a7f601583612fcb565b9150613a8a82613a49565b602082019050919050565b60006020820190508181036000830152613aae81613a72565b9050919050565b7f4f776e61626c653a2063616c6c6572206973206e6f7420746865206f776e6572600082015250565b6000613aeb602083612fcb565b9150613af682613ab5565b602082019050919050565b60006020820190508181036000830152613b1a81613ade565b9050919050565b7f5061757361626c653a206e6f7420706175736564000000000000000000000000600082015250565b6000613b57601483612fcb565b9150613b6282613b21565b602082019050919050565b60006020820190508181036000830152613b8681613b4a565b9050919050565b7f5061757361626c653a2070617573656400000000000000000000000000000000600082015250565b6000613bc3601083612fcb565b9150613bce82613b8d565b602082019050919050565b60006020820190508181036000830152613bf281613bb6565b905091905056fea26469706673582212205b70d62c2439759d6da2d05e4e4441e3c0f6c7441623bf48c8d8ddcb17bdea7a64736f6c63430008110033",
  "linkReferences": {},
  "deployedLinkReferences": {}
}