{
  "_format": "hh-sol-artifact-1",
  "contractName": "NpngPool",
  "sourceName": "contracts/NpngPool.sol",
  "abi": [
    {
      "inputs": [],
      "stateMutability": "nonpayable",
      "type": "constructor"
    },
    {
      "anonymous": false,
      "inputs": [
        {
          "indexed": true,
          "internalType": "address",
          "name": "previousOwner",
          "type": "address"
        },
        {
          "indexed": true,
          "internalType": "address",
          "name": "newOwner",
          "type": "address"
        }
      ],
      "name": "OwnershipTransferred",
      "type": "event"
    },
    {
      "anonymous": false,
      "inputs": [
        {
          "indexed": false,
          "internalType": "address",
          "name": "account",
          "type": "address"
        }
      ],
      "name": "Paused",
      "type": "event"
    },
    {
      "anonymous": false,
      "inputs": [
        {
          "indexed": false,
          "internalType": "address",
          "name": "account",
          "type": "address"
        }
      ],
      "name": "Unpaused",
      "type": "event"
    },
    {
      "inputs": [
        {
          "internalType": "uint256",
          "name": "_newFrequence",
          "type": "uint256"
        }
      ],
      "name": "changeGameFrequence",
      "outputs": [],
      "stateMutability": "nonpayable",
      "type": "function"
    },
    {
      "inputs": [
        {
          "internalType": "address",
          "name": "_newAddress",
          "type": "address"
        }
      ],
      "name": "changeNpngTokenAddress",
      "outputs": [],
      "stateMutability": "nonpayable",
      "type": "function"
    },
    {
      "inputs": [
        {
          "internalType": "address",
          "name": "_newRecorderAddress",
          "type": "address"
        }
      ],
      "name": "changeRecorder",
      "outputs": [],
      "stateMutability": "nonpayable",
      "type": "function"
    },
    {
      "inputs": [
        {
          "internalType": "uint256",
          "name": "_idContest",
          "type": "uint256"
        }
      ],
      "name": "claimRewards",
      "outputs": [],
      "stateMutability": "nonpayable",
      "type": "function"
    },
    {
      "inputs": [],
      "name": "closeContest",
      "outputs": [],
      "stateMutability": "nonpayable",
      "type": "function"
    },
    {
      "inputs": [
        {
          "internalType": "uint256",
          "name": "_amount",
          "type": "uint256"
        }
      ],
      "name": "depositOnAave",
      "outputs": [],
      "stateMutability": "nonpayable",
      "type": "function"
    },
    {
      "inputs": [
        {
          "internalType": "uint256",
          "name": "_idContest",
          "type": "uint256"
        },
        {
          "internalType": "address",
          "name": "_player",
          "type": "address"
        }
      ],
      "name": "getContestRank",
      "outputs": [
        {
          "internalType": "uint256",
          "name": "",
          "type": "uint256"
        }
      ],
      "stateMutability": "view",
      "type": "function"
    },
    {
      "inputs": [],
      "name": "getEndOfContest",
      "outputs": [
        {
          "internalType": "uint256",
          "name": "",
          "type": "uint256"
        }
      ],
      "stateMutability": "view",
      "type": "function"
    },
    {
      "inputs": [],
      "name": "getIdContest",
      "outputs": [
        {
          "internalType": "uint256",
          "name": "",
          "type": "uint256"
        }
      ],
      "stateMutability": "view",
      "type": "function"
    },
    {
      "inputs": [
        {
          "internalType": "address",
          "name": "_player",
          "type": "address"
        }
      ],
      "name": "getLast10ContestsRank",
      "outputs": [
        {
          "components": [
            {
              "internalType": "uint256",
              "name": "idContest",
              "type": "uint256"
            },
            {
              "internalType": "uint256",
              "name": "rank",
              "type": "uint256"
            }
          ],
          "internalType": "struct NpngGame.RankPerContest[10]",
          "name": "",
          "type": "tuple[10]"
        }
      ],
      "stateMutability": "view",
      "type": "function"
    },
    {
      "inputs": [],
      "name": "getListNbPlayers10LastContests",
      "outputs": [
        {
          "components": [
            {
              "internalType": "uint256",
              "name": "idContest",
              "type": "uint256"
            },
            {
              "internalType": "uint256",
              "name": "nbPlayers",
              "type": "uint256"
            }
          ],
          "internalType": "struct NpngGame.ListNbPlayersPerContest[10]",
          "name": "",
          "type": "tuple[10]"
        }
      ],
      "stateMutability": "view",
      "type": "function"
    },
    {
      "inputs": [],
      "name": "getListScores",
      "outputs": [
        {
          "components": [
            {
              "internalType": "uint256",
              "name": "idContest",
              "type": "uint256"
            },
            {
              "internalType": "address",
              "name": "player",
              "type": "address"
            },
            {
              "internalType": "uint256",
              "name": "score",
              "type": "uint256"
            }
          ],
          "internalType": "struct NpngGame.ContestsResult[]",
          "name": "",
          "type": "tuple[]"
        }
      ],
      "stateMutability": "view",
      "type": "function"
    },
    {
      "inputs": [
        {
          "internalType": "address",
          "name": "_account",
          "type": "address"
        }
      ],
      "name": "getMyBalance",
      "outputs": [
        {
          "internalType": "uint256",
          "name": "",
          "type": "uint256"
        }
      ],
      "stateMutability": "view",
      "type": "function"
    },
    {
      "inputs": [],
      "name": "getPlay",
      "outputs": [],
      "stateMutability": "nonpayable",
      "type": "function"
    },
    {
      "inputs": [
        {
          "internalType": "uint256",
          "name": "_idContest",
          "type": "uint256"
        },
        {
          "internalType": "address",
          "name": "_player",
          "type": "address"
        }
      ],
      "name": "getRewardsPerPlayer",
      "outputs": [
        {
          "internalType": "uint256",
          "name": "",
          "type": "uint256"
        }
      ],
      "stateMutability": "view",
      "type": "function"
    },
    {
      "inputs": [],
      "name": "interestEarned",
      "outputs": [
        {
          "internalType": "uint256",
          "name": "",
          "type": "uint256"
        }
      ],
      "stateMutability": "view",
      "type": "function"
    },
    {
      "inputs": [
        {
          "internalType": "uint256",
          "name": "",
          "type": "uint256"
        }
      ],
      "name": "numberOfPlayersPerContest",
      "outputs": [
        {
          "internalType": "uint256",
          "name": "",
          "type": "uint256"
        }
      ],
      "stateMutability": "view",
      "type": "function"
    },
    {
      "inputs": [],
      "name": "owner",
      "outputs": [
        {
          "internalType": "address",
          "name": "",
          "type": "address"
        }
      ],
      "stateMutability": "view",
      "type": "function"
    },
    {
      "inputs": [],
      "name": "pause",
      "outputs": [],
      "stateMutability": "nonpayable",
      "type": "function"
    },
    {
      "inputs": [],
      "name": "paused",
      "outputs": [
        {
          "internalType": "bool",
          "name": "",
          "type": "bool"
        }
      ],
      "stateMutability": "view",
      "type": "function"
    },
    {
      "inputs": [],
      "name": "renounceOwnership",
      "outputs": [],
      "stateMutability": "nonpayable",
      "type": "function"
    },
    {
      "inputs": [
        {
          "internalType": "address",
          "name": "_player",
          "type": "address"
        },
        {
          "internalType": "uint256",
          "name": "_score",
          "type": "uint256"
        }
      ],
      "name": "saveScore",
      "outputs": [],
      "stateMutability": "nonpayable",
      "type": "function"
    },
    {
      "inputs": [
        {
          "internalType": "address",
          "name": "newOwner",
          "type": "address"
        }
      ],
      "name": "transferOwnership",
      "outputs": [],
      "stateMutability": "nonpayable",
      "type": "function"
    },
    {
      "inputs": [],
      "name": "unpause",
      "outputs": [],
      "stateMutability": "nonpayable",
      "type": "function"
    },
    {
      "inputs": [
        {
          "internalType": "uint256",
          "name": "_amount",
          "type": "uint256"
        }
      ],
      "name": "withdraw",
      "outputs": [],
      "stateMutability": "nonpayable",
      "type": "function"
    }
  ],
  "bytecode": "0x60806040523480156200001157600080fd5b5060008060006101000a81548160ff0219169083151502179055506200004c620000406200020160201b60201c565b6200020960201b60201c565b426006819055506001600581905550610e1060048190555061dead600760006101000a81548173ffffffffffffffffffffffffffffffffffffffff021916908373ffffffffffffffffffffffffffffffffffffffff16021790555073a2025b15a1757311bfd68cb14eaefcc237af5b43600d60006101000a81548173ffffffffffffffffffffffffffffffffffffffff021916908373ffffffffffffffffffffffffffffffffffffffff16021790555073368eedf3f56ad10b9bc57eed4dac65b26bb667f6601060006101000a81548173ffffffffffffffffffffffffffffffffffffffff021916908373ffffffffffffffffffffffffffffffffffffffff160217905550731ee669290939f8a8864497af3bc83728715265ff600e60006101000a81548173ffffffffffffffffffffffffffffffffffffffff021916908373ffffffffffffffffffffffffffffffffffffffff160217905550738ad6d963600f5c45dabd5ff6faa04d51a6d549f0600f60006101000a81548173ffffffffffffffffffffffffffffffffffffffff021916908373ffffffffffffffffffffffffffffffffffffffff160217905550620002ce565b600033905090565b60008060019054906101000a900473ffffffffffffffffffffffffffffffffffffffff16905081600060016101000a81548173ffffffffffffffffffffffffffffffffffffffff021916908373ffffffffffffffffffffffffffffffffffffffff1602179055508173ffffffffffffffffffffffffffffffffffffffff168173ffffffffffffffffffffffffffffffffffffffff167f8be0079c531659141344cd1fd0a4f28419497f9722a3daafe3b4186f6b6457e060405160405180910390a35050565b61325f80620002de6000396000f3fe608060405234801561001057600080fd5b50600436106101735760003560e01c80637e3ef7cd116100de578063cad7ebce11610097578063e9d6999011610071578063e9d69990146103c8578063f2fbee3f146103f8578063f2fde38b14610414578063fd8d19091461043057610173565b8063cad7ebce1461035e578063ddb01a521461038e578063e064613e146103ac57610173565b80637e3ef7cd146102c25780638347f536146102f25780638456cb591461030e5780638da5cb5b14610318578063a094c63214610336578063c85785d61461034057610173565b8063374261ab11610130578063374261ab146102385780633f4ba83a146102565780635c975abb146102605780635d4945101461027e578063695a65171461029c578063715018a6146102b857610173565b80630962ef79146101785780630bd5d2841461019457806312b946bc1461019e5780631613146b146101bc5780631eadace9146101ec5780632e1a7d4d1461021c575b600080fd5b610192600480360381019061018d91906120f4565b61044c565b005b61019c610624565b005b6101a66106b0565b6040516101b39190612130565b60405180910390f35b6101d660048036038101906101d191906121a9565b6106cc565b6040516101e391906122b0565b60405180910390f35b610206600480360381019061020191906122cc565b61077c565b6040516102139190612130565b60405180910390f35b610236600480360381019061023191906120f4565b6108ce565b005b610240610ba5565b60405161024d9190612130565b60405180910390f35b61025e610c55565b005b610268610c67565b6040516102759190612327565b60405180910390f35b610286610c7d565b604051610293919061240d565b60405180910390f35b6102b660048036038101906102b19190612429565b610d35565b005b6102c061106f565b005b6102dc60048036038101906102d791906121a9565b611083565b6040516102e99190612130565b60405180910390f35b61030c600480360381019061030791906121a9565b6110cc565b005b610316611118565b005b61032061112a565b60405161032d9190612478565b60405180910390f35b61033e611153565b005b61034861121e565b6040516103559190612130565b60405180910390f35b610378600480360381019061037391906122cc565b611228565b6040516103859190612130565b60405180910390f35b6103966113f1565b6040516103a39190612593565b60405180910390f35b6103c660048036038101906103c191906121a9565b6114ba565b005b6103e260048036038101906103dd91906120f4565b611506565b6040516103ef9190612130565b60405180910390f35b610412600480360381019061040d91906120f4565b61151e565b005b61042e600480360381019061042991906121a9565b611530565b005b61044a600480360381019061044591906120f4565b6115b3565b005b6005548110610490576040517f08c379a000000000000000000000000000000000000000000000000000000000815260040161048790612612565b60405180910390fd5b60001515600360003373ffffffffffffffffffffffffffffffffffffffff1673ffffffffffffffffffffffffffffffffffffffff168152602001908152602001600020600083815260200190815260200160002060000160029054906101000a900460ff16151514610537576040517f08c379a000000000000000000000000000000000000000000000000000000000815260040161052e9061267e565b60405180910390fd5b6000610543823361077c565b905080600860003373ffffffffffffffffffffffffffffffffffffffff1673ffffffffffffffffffffffffffffffffffffffff168152602001908152602001600020600082825461059491906126cd565b9250508190555080600960008282546105ad91906126cd565b925050819055506001600360003373ffffffffffffffffffffffffffffffffffffffff1673ffffffffffffffffffffffffffffffffffffffff168152602001908152602001600020600084815260200190815260200160002060000160026101000a81548160ff0219169083151502179055505050565b6000600860003373ffffffffffffffffffffffffffffffffffffffff1673ffffffffffffffffffffffffffffffffffffffff16815260200190815260200160002054116106a6576040517f08c379a000000000000000000000000000000000000000000000000000000000815260040161069d9061274d565b60405180910390fd5b6106ae611b2b565b565b6000806004546006546106c391906126cd565b90508091505090565b6106d4612029565b6106dc612029565b600080600a60055410156106f45760055490506106f9565b600a90505b600060055490505b8160055461070f919061276d565b8111156107705760405180604001604052808281526020016107318389611228565b8152508484600a8110610747576107466127a1565b5b6020020181905250828061075a906127d0565b935050808061076890612818565b915050610701565b50829350505050919050565b60008060011515600360003373ffffffffffffffffffffffffffffffffffffffff1673ffffffffffffffffffffffffffffffffffffffff168152602001908152602001600020600086815260200190815260200160002060000160029054906101000a900460ff161515036108bf5760006107f78585611228565b9050600a81116108b4576000600c60008781526020019081526020016000205490506005606460018461082a919061276d565b6108349190612870565b6001610840919061276d565b61084a91906129e1565b600954600860008873ffffffffffffffffffffffffffffffffffffffff1673ffffffffffffffffffffffffffffffffffffffff168152602001908152602001600020546108979190612870565b826108a29190612a2c565b6108ac9190612a2c565b9250506108b9565b600091505b506108c4565b600090505b8091505092915050565b80600860003373ffffffffffffffffffffffffffffffffffffffff1673ffffffffffffffffffffffffffffffffffffffff168152602001908152602001600020541015610950576040517f08c379a000000000000000000000000000000000000000000000000000000000815260040161094790612aba565b60405180910390fd5b601060009054906101000a900473ffffffffffffffffffffffffffffffffffffffff1673ffffffffffffffffffffffffffffffffffffffff166369328dec600d60009054906101000a900473ffffffffffffffffffffffffffffffffffffffff1683306040518463ffffffff1660e01b81526004016109d193929190612ada565b600060405180830381600087803b1580156109eb57600080fd5b505af11580156109ff573d6000803e3d6000fd5b50505050600d60009054906101000a900473ffffffffffffffffffffffffffffffffffffffff1673ffffffffffffffffffffffffffffffffffffffff1663a9059cbb33836040518363ffffffff1660e01b8152600401610a60929190612b11565b6020604051808303816000875af1158015610a7f573d6000803e3d6000fd5b505050506040513d601f19601f82011682018060405250810190610aa39190612b66565b5080600860003373ffffffffffffffffffffffffffffffffffffffff1673ffffffffffffffffffffffffffffffffffffffff1681526020019081526020016000206000828254610af3919061276d565b925050819055508060096000828254610b0c919061276d565b92505081905550600f60009054906101000a900473ffffffffffffffffffffffffffffffffffffffff1673ffffffffffffffffffffffffffffffffffffffff16639dc29fac33836040518363ffffffff1660e01b8152600401610b70929190612b11565b600060405180830381600087803b158015610b8a57600080fd5b505af1158015610b9e573d6000803e3d6000fd5b5050505050565b6000600954600e60009054906101000a900473ffffffffffffffffffffffffffffffffffffffff1673ffffffffffffffffffffffffffffffffffffffff166370a08231306040518263ffffffff1660e01b8152600401610c059190612478565b602060405180830381865afa158015610c22573d6000803e3d6000fd5b505050506040513d601f19601f82011682018060405250810190610c469190612ba8565b610c50919061276d565b905090565b610c5d611ced565b610c65611d6b565b565b60008060009054906101000a900460ff16905090565b610c85612057565b610c8d612057565b600080600a6005541015610ca5576005549050610caa565b600a90505b600060055490505b81600554610cc0919061276d565b811115610d2b57604051806040016040528082815260200160026000848152602001908152602001600020548152508484600a8110610d0257610d016127a1565b5b60200201819052508280610d15906127d0565b9350508080610d2390612818565b915050610cb2565b5082935050505090565b600760009054906101000a900473ffffffffffffffffffffffffffffffffffffffff1673ffffffffffffffffffffffffffffffffffffffff163373ffffffffffffffffffffffffffffffffffffffff1614610dc5576040517f08c379a0000000000000000000000000000000000000000000000000000000008152600401610dbc90612c47565b60405180910390fd5b60011515600360008473ffffffffffffffffffffffffffffffffffffffff1673ffffffffffffffffffffffffffffffffffffffff1681526020019081526020016000206000600554815260200190815260200160002060000160009054906101000a900460ff16151514610e6e576040517f08c379a0000000000000000000000000000000000000000000000000000000008152600401610e6590612cb3565b60405180910390fd5b60001515600360008473ffffffffffffffffffffffffffffffffffffffff1673ffffffffffffffffffffffffffffffffffffffff1681526020019081526020016000206000600554815260200190815260200160002060000160019054906101000a900460ff16151514610f17576040517f08c379a0000000000000000000000000000000000000000000000000000000008152600401610f0e90612d1f565b60405180910390fd5b6001604051806060016040528060055481526020018473ffffffffffffffffffffffffffffffffffffffff1681526020018381525090806001815401808255809150506001900390600052602060002090600302016000909190919091506000820151816000015560208201518160010160006101000a81548173ffffffffffffffffffffffffffffffffffffffff021916908373ffffffffffffffffffffffffffffffffffffffff1602179055506040820151816002015550506001600360008473ffffffffffffffffffffffffffffffffffffffff1673ffffffffffffffffffffffffffffffffffffffff1681526020019081526020016000206000600554815260200190815260200160002060000160016101000a81548160ff0219169083151502179055506002600060055481526020019081526020016000206000815480929190611066906127d0565b91905055505050565b611077611ced565b6110816000611dcd565b565b6000600860008373ffffffffffffffffffffffffffffffffffffffff1673ffffffffffffffffffffffffffffffffffffffff168152602001908152602001600020549050919050565b6110d4611ced565b80600f60006101000a81548173ffffffffffffffffffffffffffffffffffffffff021916908373ffffffffffffffffffffffffffffffffffffffff16021790555050565b611120611ced565b611128611e92565b565b60008060019054906101000a900473ffffffffffffffffffffffffffffffffffffffff16905090565b600760009054906101000a900473ffffffffffffffffffffffffffffffffffffffff1673ffffffffffffffffffffffffffffffffffffffff163373ffffffffffffffffffffffffffffffffffffffff16146111e3576040517f08c379a00000000000000000000000000000000000000000000000000000000081526004016111da90612d8b565b60405180910390fd5b600060055490506111f2611ef4565b600554811461121b57611203610ba5565b600c6000838152602001908152602001600020819055505b50565b6000600554905090565b6000806000806001905060005b6001805490508110156113535760018181548110611256576112556127a1565b5b906000526020600020906003020160000154871480156112e6575060018181548110611285576112846127a1565b5b906000526020600020906003020160010160009054906101000a900473ffffffffffffffffffffffffffffffffffffffff1673ffffffffffffffffffffffffffffffffffffffff168673ffffffffffffffffffffffffffffffffffffffff16145b1561131b5780935060018181548110611302576113016127a1565b5b9060005260206000209060030201600201549250611353565b60018054905060018261132e91906126cd565b036113405760009450505050506113eb565b808061134b906127d0565b915050611235565b5060005b6001805490508110156113e35760018181548110611378576113776127a1565b5b906000526020600020906003020160000154871480156113bc5750600181815481106113a7576113a66127a1565b5b90600052602060002090600302016002015483115b156113d05781806113cc906127d0565b9250505b80806113db906127d0565b915050611357565b508093505050505b92915050565b60606001805480602002602001604051908101604052809291908181526020016000905b828210156114b15783829060005260206000209060030201604051806060016040529081600082015481526020016001820160009054906101000a900473ffffffffffffffffffffffffffffffffffffffff1673ffffffffffffffffffffffffffffffffffffffff1673ffffffffffffffffffffffffffffffffffffffff16815260200160028201548152505081526020019060010190611415565b50505050905090565b6114c2611ced565b80600760006101000a81548173ffffffffffffffffffffffffffffffffffffffff021916908373ffffffffffffffffffffffffffffffffffffffff16021790555050565b60026020528060005260406000206000915090505481565b611526611ced565b8060048190555050565b611538611ced565b600073ffffffffffffffffffffffffffffffffffffffff168173ffffffffffffffffffffffffffffffffffffffff16036115a7576040517f08c379a000000000000000000000000000000000000000000000000000000000815260040161159e90612e1d565b60405180910390fd5b6115b081611dcd565b50565b600d60009054906101000a900473ffffffffffffffffffffffffffffffffffffffff1673ffffffffffffffffffffffffffffffffffffffff166370a08231336040518263ffffffff1660e01b815260040161160e9190612478565b602060405180830381865afa15801561162b573d6000803e3d6000fd5b505050506040513d601f19601f8201168201806040525081019061164f9190612ba8565b811115611691576040517f08c379a000000000000000000000000000000000000000000000000000000000815260040161168890612e89565b60405180910390fd5b600d60009054906101000a900473ffffffffffffffffffffffffffffffffffffffff1673ffffffffffffffffffffffffffffffffffffffff1663dd62ed3e33306040518363ffffffff1660e01b81526004016116ee929190612ea9565b602060405180830381865afa15801561170b573d6000803e3d6000fd5b505050506040513d601f19601f8201168201806040525081019061172f9190612ba8565b811115611771576040517f08c379a000000000000000000000000000000000000000000000000000000000815260040161176890612f1e565b60405180910390fd5b600d60009054906101000a900473ffffffffffffffffffffffffffffffffffffffff1673ffffffffffffffffffffffffffffffffffffffff166323b872dd3330846040518463ffffffff1660e01b81526004016117d093929190612f3e565b6020604051808303816000875af11580156117ef573d6000803e3d6000fd5b505050506040513d601f19601f820116820180604052508101906118139190612b66565b50600d60009054906101000a900473ffffffffffffffffffffffffffffffffffffffff1673ffffffffffffffffffffffffffffffffffffffff1663095ea7b3601060009054906101000a900473ffffffffffffffffffffffffffffffffffffffff16836040518363ffffffff1660e01b8152600401611893929190612b11565b6020604051808303816000875af11580156118b2573d6000803e3d6000fd5b505050506040513d601f19601f820116820180604052508101906118d69190612b66565b50601060009054906101000a900473ffffffffffffffffffffffffffffffffffffffff1673ffffffffffffffffffffffffffffffffffffffff1663617ba037600d60009054906101000a900473ffffffffffffffffffffffffffffffffffffffff16833060006040518563ffffffff1660e01b815260040161195b9493929190612fc8565b600060405180830381600087803b15801561197557600080fd5b505af1158015611989573d6000803e3d6000fd5b5050505080600860003373ffffffffffffffffffffffffffffffffffffffff1673ffffffffffffffffffffffffffffffffffffffff16815260200190815260200160002060008282546119dc91906126cd565b9250508190555080600960008282546119f591906126cd565b92505081905550600f60009054906101000a900473ffffffffffffffffffffffffffffffffffffffff1673ffffffffffffffffffffffffffffffffffffffff166340c10f1933836040518363ffffffff1660e01b8152600401611a59929190612b11565b600060405180830381600087803b158015611a7357600080fd5b505af1158015611a87573d6000803e3d6000fd5b50505050600554600a60003373ffffffffffffffffffffffffffffffffffffffff1673ffffffffffffffffffffffffffffffffffffffff1681526020019081526020016000208190555080600b60003373ffffffffffffffffffffffffffffffffffffffff1673ffffffffffffffffffffffffffffffffffffffff168152602001908152602001600020600060055481526020019081526020016000208190555050565b60001515600360003373ffffffffffffffffffffffffffffffffffffffff1673ffffffffffffffffffffffffffffffffffffffff1681526020019081526020016000206000600554815260200190815260200160002060000160009054906101000a900460ff16151514611bd4576040517f08c379a0000000000000000000000000000000000000000000000000000000008152600401611bcb90613059565b60405180910390fd5b60001515600360003373ffffffffffffffffffffffffffffffffffffffff1673ffffffffffffffffffffffffffffffffffffffff1681526020019081526020016000206000600554815260200190815260200160002060000160019054906101000a900460ff16151514611c7d576040517f08c379a0000000000000000000000000000000000000000000000000000000008152600401611c7490612d1f565b60405180910390fd5b6001600360003373ffffffffffffffffffffffffffffffffffffffff1673ffffffffffffffffffffffffffffffffffffffff1681526020019081526020016000206000600554815260200190815260200160002060000160006101000a81548160ff021916908315150217905550565b611cf5611f8e565b73ffffffffffffffffffffffffffffffffffffffff16611d1361112a565b73ffffffffffffffffffffffffffffffffffffffff1614611d69576040517f08c379a0000000000000000000000000000000000000000000000000000000008152600401611d60906130c5565b60405180910390fd5b565b611d73611f96565b60008060006101000a81548160ff0219169083151502179055507f5db9ee0a495bf2e6ff9c91a7834c1ba4fdd244a5e8aa4e537bd38aeae4b073aa611db6611f8e565b604051611dc39190612478565b60405180910390a1565b60008060019054906101000a900473ffffffffffffffffffffffffffffffffffffffff16905081600060016101000a81548173ffffffffffffffffffffffffffffffffffffffff021916908373ffffffffffffffffffffffffffffffffffffffff1602179055508173ffffffffffffffffffffffffffffffffffffffff168173ffffffffffffffffffffffffffffffffffffffff167f8be0079c531659141344cd1fd0a4f28419497f9722a3daafe3b4186f6b6457e060405160405180910390a35050565b611e9a611fdf565b60016000806101000a81548160ff0219169083151502179055507f62e78cea01bee320cd4e420270b5ea74000d11b0c9f74754ebdbfc544b05a258611edd611f8e565b604051611eea9190612478565b60405180910390a1565b600454600654611f0491906126cd565b421015611f46576040517f08c379a0000000000000000000000000000000000000000000000000000000008152600401611f3d90613131565b60405180910390fd5b6000429050600060045460065483611f5e919061276d565b611f689190612870565b90508060056000828254611f7c91906126cd565b92505081905550816006819055505050565b600033905090565b611f9e610c67565b611fdd576040517f08c379a0000000000000000000000000000000000000000000000000000000008152600401611fd49061319d565b60405180910390fd5b565b611fe7610c67565b15612027576040517f08c379a000000000000000000000000000000000000000000000000000000000815260040161201e90613209565b60405180910390fd5b565b604051806101400160405280600a905b612041612085565b8152602001906001900390816120395790505090565b604051806101400160405280600a905b61206f61209f565b8152602001906001900390816120675790505090565b604051806040016040528060008152602001600081525090565b604051806040016040528060008152602001600081525090565b600080fd5b6000819050919050565b6120d1816120be565b81146120dc57600080fd5b50565b6000813590506120ee816120c8565b92915050565b60006020828403121561210a576121096120b9565b5b6000612118848285016120df565b91505092915050565b61212a816120be565b82525050565b60006020820190506121456000830184612121565b92915050565b600073ffffffffffffffffffffffffffffffffffffffff82169050919050565b60006121768261214b565b9050919050565b6121868161216b565b811461219157600080fd5b50565b6000813590506121a38161217d565b92915050565b6000602082840312156121bf576121be6120b9565b5b60006121cd84828501612194565b91505092915050565b6000600a9050919050565b600081905092915050565b6000819050919050565b6121ff816120be565b82525050565b60408201600082015161221b60008501826121f6565b50602082015161222e60208501826121f6565b50505050565b60006122408383612205565b60408301905092915050565b6000602082019050919050565b612262816121d6565b61226c81846121e1565b9250612277826121ec565b8060005b838110156122a857815161228f8782612234565b965061229a8361224c565b92505060018101905061227b565b505050505050565b6000610280820190506122c66000830184612259565b92915050565b600080604083850312156122e3576122e26120b9565b5b60006122f1858286016120df565b925050602061230285828601612194565b9150509250929050565b60008115159050919050565b6123218161230c565b82525050565b600060208201905061233c6000830184612318565b92915050565b6000600a9050919050565b600081905092915050565b6000819050919050565b60408201600082015161237860008501826121f6565b50602082015161238b60208501826121f6565b50505050565b600061239d8383612362565b60408301905092915050565b6000602082019050919050565b6123bf81612342565b6123c9818461234d565b92506123d482612358565b8060005b838110156124055781516123ec8782612391565b96506123f7836123a9565b9250506001810190506123d8565b505050505050565b60006102808201905061242360008301846123b6565b92915050565b600080604083850312156124405761243f6120b9565b5b600061244e85828601612194565b925050602061245f858286016120df565b9150509250929050565b6124728161216b565b82525050565b600060208201905061248d6000830184612469565b92915050565b600081519050919050565b600082825260208201905092915050565b6000819050602082019050919050565b6124c88161216b565b82525050565b6060820160008201516124e460008501826121f6565b5060208201516124f760208501826124bf565b50604082015161250a60408501826121f6565b50505050565b600061251c83836124ce565b60608301905092915050565b6000602082019050919050565b600061254082612493565b61254a818561249e565b9350612555836124af565b8060005b8381101561258657815161256d8882612510565b975061257883612528565b925050600181019050612559565b5085935050505092915050565b600060208201905081810360008301526125ad8184612535565b905092915050565b600082825260208201905092915050565b7f54686520636f6e74657374206973206e6f7420636c6f73656400000000000000600082015250565b60006125fc6019836125b5565b9150612607826125c6565b602082019050919050565b6000602082019050818103600083015261262b816125ef565b9050919050565b7f596f7520616c726561647920636c61696d656400000000000000000000000000600082015250565b60006126686013836125b5565b915061267382612632565b602082019050919050565b600060208201905081810360008301526126978161265b565b9050919050565b7f4e487b7100000000000000000000000000000000000000000000000000000000600052601160045260246000fd5b60006126d8826120be565b91506126e3836120be565b92508282019050808211156126fb576126fa61269e565b5b92915050565b7f4e6f206465706f7369742c204e6f2047616d6521000000000000000000000000600082015250565b60006127376014836125b5565b915061274282612701565b602082019050919050565b600060208201905081810360008301526127668161272a565b9050919050565b6000612778826120be565b9150612783836120be565b925082820390508181111561279b5761279a61269e565b5b92915050565b7f4e487b7100000000000000000000000000000000000000000000000000000000600052603260045260246000fd5b60006127db826120be565b91507fffffffffffffffffffffffffffffffffffffffffffffffffffffffffffffffff820361280d5761280c61269e565b5b600182019050919050565b6000612823826120be565b9150600082036128365761283561269e565b5b600182039050919050565b7f4e487b7100000000000000000000000000000000000000000000000000000000600052601260045260246000fd5b600061287b826120be565b9150612886836120be565b92508261289657612895612841565b5b828204905092915050565b60008160011c9050919050565b6000808291508390505b60018511156128f8578086048111156128d4576128d361269e565b5b60018516156128e35780820291505b80810290506128f1856128a1565b94506128b8565b94509492505050565b60008261291157600190506129cd565b8161291f57600090506129cd565b8160018114612935576002811461293f5761296e565b60019150506129cd565b60ff8411156129515761295061269e565b5b8360020a9150848211156129685761296761269e565b5b506129cd565b5060208310610133831016604e8410600b84101617156129a35782820a90508381111561299e5761299d61269e565b5b6129cd565b6129b084848460016128ae565b925090508184048111156129c7576129c661269e565b5b81810290505b9392505050565b600060ff82169050919050565b60006129ec826120be565b91506129f7836129d4565b9250612a247fffffffffffffffffffffffffffffffffffffffffffffffffffffffffffffffff8484612901565b905092915050565b6000612a37826120be565b9150612a42836120be565b9250828202612a50816120be565b91508282048414831517612a6757612a6661269e565b5b5092915050565b7f496e73756666696369656e742062616c616e6365000000000000000000000000600082015250565b6000612aa46014836125b5565b9150612aaf82612a6e565b602082019050919050565b60006020820190508181036000830152612ad381612a97565b9050919050565b6000606082019050612aef6000830186612469565b612afc6020830185612121565b612b096040830184612469565b949350505050565b6000604082019050612b266000830185612469565b612b336020830184612121565b9392505050565b612b438161230c565b8114612b4e57600080fd5b50565b600081519050612b6081612b3a565b92915050565b600060208284031215612b7c57612b7b6120b9565b5b6000612b8a84828501612b51565b91505092915050565b600081519050612ba2816120c8565b92915050565b600060208284031215612bbe57612bbd6120b9565b5b6000612bcc84828501612b93565b91505092915050565b7f596f7520617265206e6f7420616c6c6f77656420746f2073617665206120736360008201527f6f72652100000000000000000000000000000000000000000000000000000000602082015250565b6000612c316024836125b5565b9150612c3c82612bd5565b604082019050919050565b60006020820190508181036000830152612c6081612c24565b9050919050565b7f4e6f20726571756573742066726f6d20706c6179657200000000000000000000600082015250565b6000612c9d6016836125b5565b9150612ca882612c67565b602082019050919050565b60006020820190508181036000830152612ccc81612c90565b9050919050565b7f506c6179657220616c726561647920706c617965640000000000000000000000600082015250565b6000612d096015836125b5565b9150612d1482612cd3565b602082019050919050565b60006020820190508181036000830152612d3881612cfc565b9050919050565b7f596f752063616e6e6f74207570646174652074686520436f6e74657374000000600082015250565b6000612d75601d836125b5565b9150612d8082612d3f565b602082019050919050565b60006020820190508181036000830152612da481612d68565b9050919050565b7f4f776e61626c653a206e6577206f776e657220697320746865207a65726f206160008201527f6464726573730000000000000000000000000000000000000000000000000000602082015250565b6000612e076026836125b5565b9150612e1282612dab565b604082019050919050565b60006020820190508181036000830152612e3681612dfa565b9050919050565b7f496e737566666963656e7420616d6f756e74206f662055534443000000000000600082015250565b6000612e73601a836125b5565b9150612e7e82612e3d565b602082019050919050565b60006020820190508181036000830152612ea281612e66565b9050919050565b6000604082019050612ebe6000830185612469565b612ecb6020830184612469565b9392505050565b7f496e73756666696369656e7420616c6c6f776564205553444300000000000000600082015250565b6000612f086019836125b5565b9150612f1382612ed2565b602082019050919050565b60006020820190508181036000830152612f3781612efb565b9050919050565b6000606082019050612f536000830186612469565b612f606020830185612469565b612f6d6040830184612121565b949350505050565b6000819050919050565b600061ffff82169050919050565b6000819050919050565b6000612fb2612fad612fa884612f75565b612f8d565b612f7f565b9050919050565b612fc281612f97565b82525050565b6000608082019050612fdd6000830187612469565b612fea6020830186612121565b612ff76040830185612469565b6130046060830184612fb9565b95945050505050565b7f596f7520616c7265616479207265717565737465640000000000000000000000600082015250565b60006130436015836125b5565b915061304e8261300d565b602082019050919050565b6000602082019050818103600083015261307281613036565b9050919050565b7f4f776e61626c653a2063616c6c6572206973206e6f7420746865206f776e6572600082015250565b60006130af6020836125b5565b91506130ba82613079565b602082019050919050565b600060208201905081810360008301526130de816130a2565b9050919050565b7f4e6f20636f6e7465737420757064617465210000000000000000000000000000600082015250565b600061311b6012836125b5565b9150613126826130e5565b602082019050919050565b6000602082019050818103600083015261314a8161310e565b9050919050565b7f5061757361626c653a206e6f7420706175736564000000000000000000000000600082015250565b60006131876014836125b5565b915061319282613151565b602082019050919050565b600060208201905081810360008301526131b68161317a565b9050919050565b7f5061757361626c653a2070617573656400000000000000000000000000000000600082015250565b60006131f36010836125b5565b91506131fe826131bd565b602082019050919050565b60006020820190508181036000830152613222816131e6565b905091905056fea2646970667358221220ab5f1f7cf7eabcd28c6dd46dd63601f827623455c3d519f4589155c12001b1e364736f6c63430008110033",
  "linkReferences": {},
  "deployedLinkReferences": {}
}