{
  "_format": "hh-sol-artifact-1",
  "contractName": "NpngPool",
  "sourceName": "contracts/NpngPool.sol",
  "abi": [
    {
      "inputs": [],
      "stateMutability": "nonpayable",
      "type": "constructor"
    },
    {
      "anonymous": false,
      "inputs": [
        {
          "indexed": true,
          "internalType": "address",
          "name": "previousOwner",
          "type": "address"
        },
        {
          "indexed": true,
          "internalType": "address",
          "name": "newOwner",
          "type": "address"
        }
      ],
      "name": "OwnershipTransferred",
      "type": "event"
    },
    {
      "inputs": [
        {
          "internalType": "uint256",
          "name": "_idContest",
          "type": "uint256"
        },
        {
          "internalType": "address",
          "name": "_player",
          "type": "address"
        }
      ],
      "name": "calculateRewards",
      "outputs": [
        {
          "internalType": "uint256",
          "name": "",
          "type": "uint256"
        }
      ],
      "stateMutability": "view",
      "type": "function"
    },
    {
      "inputs": [
        {
          "internalType": "uint256",
          "name": "_newFrequence",
          "type": "uint256"
        }
      ],
      "name": "changeGameFrequence",
      "outputs": [],
      "stateMutability": "nonpayable",
      "type": "function"
    },
    {
      "inputs": [
        {
          "internalType": "address",
          "name": "_newAddress",
          "type": "address"
        }
      ],
      "name": "changeNpngTokenAddress",
      "outputs": [],
      "stateMutability": "nonpayable",
      "type": "function"
    },
    {
      "inputs": [
        {
          "internalType": "uint256",
          "name": "_idContest",
          "type": "uint256"
        },
        {
          "internalType": "address",
          "name": "_player",
          "type": "address"
        }
      ],
      "name": "checkPlayerRank",
      "outputs": [
        {
          "internalType": "uint256",
          "name": "",
          "type": "uint256"
        }
      ],
      "stateMutability": "view",
      "type": "function"
    },
    {
      "inputs": [
        {
          "internalType": "uint256",
          "name": "",
          "type": "uint256"
        }
      ],
      "name": "contestsResult",
      "outputs": [
        {
          "internalType": "uint256",
          "name": "idContest",
          "type": "uint256"
        },
        {
          "internalType": "address",
          "name": "player",
          "type": "address"
        },
        {
          "internalType": "uint256",
          "name": "score",
          "type": "uint256"
        }
      ],
      "stateMutability": "view",
      "type": "function"
    },
    {
      "inputs": [
        {
          "internalType": "uint256",
          "name": "_amount",
          "type": "uint256"
        }
      ],
      "name": "depositOnAave",
      "outputs": [],
      "stateMutability": "nonpayable",
      "type": "function"
    },
    {
      "inputs": [],
      "name": "getCurrentIdContest",
      "outputs": [
        {
          "internalType": "uint256",
          "name": "",
          "type": "uint256"
        }
      ],
      "stateMutability": "view",
      "type": "function"
    },
    {
      "inputs": [],
      "name": "getGameFrequence",
      "outputs": [
        {
          "internalType": "uint256",
          "name": "",
          "type": "uint256"
        }
      ],
      "stateMutability": "view",
      "type": "function"
    },
    {
      "inputs": [
        {
          "internalType": "address",
          "name": "_account",
          "type": "address"
        }
      ],
      "name": "getMyBalance",
      "outputs": [
        {
          "internalType": "uint256",
          "name": "",
          "type": "uint256"
        }
      ],
      "stateMutability": "view",
      "type": "function"
    },
    {
      "inputs": [],
      "name": "getScore",
      "outputs": [
        {
          "components": [
            {
              "internalType": "uint256",
              "name": "idContest",
              "type": "uint256"
            },
            {
              "internalType": "address",
              "name": "player",
              "type": "address"
            },
            {
              "internalType": "uint256",
              "name": "score",
              "type": "uint256"
            }
          ],
          "internalType": "struct NpngGame.ContestsResult[]",
          "name": "",
          "type": "tuple[]"
        }
      ],
      "stateMutability": "view",
      "type": "function"
    },
    {
      "inputs": [
        {
          "internalType": "uint256",
          "name": "_idContest",
          "type": "uint256"
        }
      ],
      "name": "getTopPlayers",
      "outputs": [
        {
          "components": [
            {
              "internalType": "uint256",
              "name": "idContest",
              "type": "uint256"
            },
            {
              "internalType": "address",
              "name": "player",
              "type": "address"
            },
            {
              "internalType": "uint256",
              "name": "score",
              "type": "uint256"
            }
          ],
          "internalType": "struct NpngGame.ContestsResult[10]",
          "name": "",
          "type": "tuple[10]"
        }
      ],
      "stateMutability": "view",
      "type": "function"
    },
    {
      "inputs": [
        {
          "internalType": "uint256",
          "name": "_idContest",
          "type": "uint256"
        }
      ],
      "name": "getTotalAmountTopPlayers",
      "outputs": [
        {
          "internalType": "uint256",
          "name": "",
          "type": "uint256"
        }
      ],
      "stateMutability": "view",
      "type": "function"
    },
    {
      "inputs": [],
      "name": "interestEarned",
      "outputs": [
        {
          "internalType": "uint256",
          "name": "",
          "type": "uint256"
        }
      ],
      "stateMutability": "view",
      "type": "function"
    },
    {
      "inputs": [
        {
          "internalType": "uint256",
          "name": "",
          "type": "uint256"
        }
      ],
      "name": "numberOfPlayersPerContest",
      "outputs": [
        {
          "internalType": "uint256",
          "name": "",
          "type": "uint256"
        }
      ],
      "stateMutability": "view",
      "type": "function"
    },
    {
      "inputs": [],
      "name": "owner",
      "outputs": [
        {
          "internalType": "address",
          "name": "",
          "type": "address"
        }
      ],
      "stateMutability": "view",
      "type": "function"
    },
    {
      "inputs": [],
      "name": "renounceOwnership",
      "outputs": [],
      "stateMutability": "nonpayable",
      "type": "function"
    },
    {
      "inputs": [
        {
          "internalType": "address",
          "name": "player",
          "type": "address"
        },
        {
          "internalType": "uint256",
          "name": "score",
          "type": "uint256"
        }
      ],
      "name": "saveScore",
      "outputs": [],
      "stateMutability": "nonpayable",
      "type": "function"
    },
    {
      "inputs": [
        {
          "internalType": "address",
          "name": "newOwner",
          "type": "address"
        }
      ],
      "name": "transferOwnership",
      "outputs": [],
      "stateMutability": "nonpayable",
      "type": "function"
    },
    {
      "inputs": [],
      "name": "updateIdContest",
      "outputs": [],
      "stateMutability": "nonpayable",
      "type": "function"
    },
    {
      "inputs": [
        {
          "internalType": "uint256",
          "name": "_amount",
          "type": "uint256"
        }
      ],
      "name": "withdraw",
      "outputs": [],
      "stateMutability": "nonpayable",
      "type": "function"
    }
  ],
  "bytecode": "0x60806040523480156200001157600080fd5b506200003262000026620001ae60201b60201c565b620001b660201b60201c565b4260068190555060065460078190555060016005819055506201518060048190555073a2025b15a1757311bfd68cb14eaefcc237af5b43600a60006101000a81548173ffffffffffffffffffffffffffffffffffffffff021916908373ffffffffffffffffffffffffffffffffffffffff160217905550731ee669290939f8a8864497af3bc83728715265ff600b60006101000a81548173ffffffffffffffffffffffffffffffffffffffff021916908373ffffffffffffffffffffffffffffffffffffffff16021790555073368eedf3f56ad10b9bc57eed4dac65b26bb667f6600d60006101000a81548173ffffffffffffffffffffffffffffffffffffffff021916908373ffffffffffffffffffffffffffffffffffffffff160217905550736b39a5c970ac52c54d9008821bc06c8afc2bf16f600c60006101000a81548173ffffffffffffffffffffffffffffffffffffffff021916908373ffffffffffffffffffffffffffffffffffffffff1602179055506200027a565b600033905090565b60008060009054906101000a900473ffffffffffffffffffffffffffffffffffffffff169050816000806101000a81548173ffffffffffffffffffffffffffffffffffffffff021916908373ffffffffffffffffffffffffffffffffffffffff1602179055508173ffffffffffffffffffffffffffffffffffffffff168173ffffffffffffffffffffffffffffffffffffffff167f8be0079c531659141344cd1fd0a4f28419497f9722a3daafe3b4186f6b6457e060405160405180910390a35050565b612914806200028a6000396000f3fe608060405234801561001057600080fd5b506004361061012c5760003560e01c80638347f536116100ad578063e9d6999011610071578063e9d6999014610321578063f2fbee3f14610351578063f2fde38b1461036d578063fc04ca9414610389578063fd8d1909146103b95761012c565b80638347f536146102695780638c6ba47b146102855780638da5cb5b146102b5578063afd82067146102d3578063ba3c0067146102f15761012c565b806363072aab116100f457806363072aab146101eb578063695a651714610209578063715018a614610225578063771baacb1461022f5780637e3ef7cd146102395761012c565b806305e81bda14610131578063176864221461014f5780631b922c091461017f5780632e1a7d4d146101b1578063374261ab146101cd575b600080fd5b6101396103d5565b6040516101469190611d75565b60405180910390f35b61016960048036038101906101649190611e1f565b6103df565b6040516101769190611d75565b60405180910390f35b61019960048036038101906101949190611e5f565b610497565b6040516101a893929190611e9b565b60405180910390f35b6101cb60048036038101906101c69190611e5f565b6104f1565b005b6101d561090a565b6040516101e29190611d75565b60405180910390f35b6101f36109f7565b6040516102009190611d75565b60405180910390f35b610223600480360381019061021e9190611ed2565b610a01565b005b61022d610b0b565b005b610237610b1f565b005b610253600480360381019061024e9190611f12565b610b71565b6040516102609190611d75565b60405180910390f35b610283600480360381019061027e9190611f12565b610bba565b005b61029f600480360381019061029a9190611e1f565b610c06565b6040516102ac9190611d75565b60405180910390f35b6102bd610ca2565b6040516102ca9190611f3f565b60405180910390f35b6102db610ccb565b6040516102e89190612069565b60405180910390f35b61030b60048036038101906103069190611e5f565b610d94565b604051610318919061210f565b60405180910390f35b61033b60048036038101906103369190611e5f565b6114f6565b6040516103489190611d75565b60405180910390f35b61036b60048036038101906103669190611e5f565b61150e565b005b61038760048036038101906103829190611f12565b611520565b005b6103a3600480360381019061039e9190611e5f565b6115a3565b6040516103b09190611d75565b60405180910390f35b6103d360048036038101906103ce9190611e5f565b61160a565b005b6000600454905090565b6000806103ec8484610c06565b90506000600860008573ffffffffffffffffffffffffffffffffffffffff1673ffffffffffffffffffffffffffffffffffffffff168152602001908152602001600020549050600061043d866115a3565b9050600060056064856104509190612189565b600161045c91906121ba565b610466919061232e565b608b83856104749190612189565b61047e9190612379565b6104889190612379565b90508094505050505092915050565b600181815481106104a757600080fd5b90600052602060002090600302016000915090508060000154908060010160009054906101000a900473ffffffffffffffffffffffffffffffffffffffff16908060020154905083565b80600860003373ffffffffffffffffffffffffffffffffffffffff1673ffffffffffffffffffffffffffffffffffffffff168152602001908152602001600020541015610573576040517f08c379a000000000000000000000000000000000000000000000000000000000815260040161056a90612418565b60405180910390fd5b600261057d6109f7565b6105879190612438565b600960003373ffffffffffffffffffffffffffffffffffffffff1673ffffffffffffffffffffffffffffffffffffffff168152602001908152602001600020541115610608576040517f08c379a00000000000000000000000000000000000000000000000000000000081526004016105ff906124de565b60405180910390fd5b600d60009054906101000a900473ffffffffffffffffffffffffffffffffffffffff1673ffffffffffffffffffffffffffffffffffffffff166369328dec600a60009054906101000a900473ffffffffffffffffffffffffffffffffffffffff1683306040518463ffffffff1660e01b8152600401610689939291906124fe565b600060405180830381600087803b1580156106a357600080fd5b505af11580156106b7573d6000803e3d6000fd5b50505050600a60009054906101000a900473ffffffffffffffffffffffffffffffffffffffff1673ffffffffffffffffffffffffffffffffffffffff1663a9059cbb33836040518363ffffffff1660e01b8152600401610718929190612535565b6020604051808303816000875af1158015610737573d6000803e3d6000fd5b505050506040513d601f19601f8201168201806040525081019061075b9190612596565b5080600860003373ffffffffffffffffffffffffffffffffffffffff1673ffffffffffffffffffffffffffffffffffffffff168152602001908152602001600020546107a791906121ba565b600860003373ffffffffffffffffffffffffffffffffffffffff1673ffffffffffffffffffffffffffffffffffffffff1681526020019081526020016000208190555080600860003073ffffffffffffffffffffffffffffffffffffffff1673ffffffffffffffffffffffffffffffffffffffff1681526020019081526020016000205461083591906121ba565b600860003073ffffffffffffffffffffffffffffffffffffffff1673ffffffffffffffffffffffffffffffffffffffff16815260200190815260200160002081905550600c60009054906101000a900473ffffffffffffffffffffffffffffffffffffffff1673ffffffffffffffffffffffffffffffffffffffff16639dc29fac33836040518363ffffffff1660e01b81526004016108d5929190612535565b600060405180830381600087803b1580156108ef57600080fd5b505af1158015610903573d6000803e3d6000fd5b5050505050565b6000600860003073ffffffffffffffffffffffffffffffffffffffff1673ffffffffffffffffffffffffffffffffffffffff16815260200190815260200160002054600b60009054906101000a900473ffffffffffffffffffffffffffffffffffffffff1673ffffffffffffffffffffffffffffffffffffffff166370a08231306040518263ffffffff1660e01b81526004016109a79190611f3f565b602060405180830381865afa1580156109c4573d6000803e3d6000fd5b505050506040513d601f19601f820116820180604052508101906109e891906125d8565b6109f291906121ba565b905090565b6000600554905090565b610a09611bad565b610a11610b1f565b6001604051806060016040528060055481526020018473ffffffffffffffffffffffffffffffffffffffff1681526020018381525090806001815401808255809150506001900390600052602060002090600302016000909190919091506000820151816000015560208201518160010160006101000a81548173ffffffffffffffffffffffffffffffffffffffff021916908373ffffffffffffffffffffffffffffffffffffffff160217905550604082015181600201555050600160026000600554815260200190815260200160002054610aee9190612438565b600260006005548152602001908152602001600020819055505050565b610b13611bad565b610b1d6000611c2b565b565b6000429050600060045460075483610b3791906121ba565b610b419190612189565b90506000811115610b6d578060056000828254610b5e9190612438565b92505081905550816007819055505b5050565b6000600860008373ffffffffffffffffffffffffffffffffffffffff1673ffffffffffffffffffffffffffffffffffffffff168152602001908152602001600020549050919050565b610bc2611bad565b80600c60006101000a81548173ffffffffffffffffffffffffffffffffffffffff021916908373ffffffffffffffffffffffffffffffffffffffff16021790555050565b600080610c1284610d94565b90506000805b600a811015610c96578281600a8110610c3457610c33612605565b5b60200201516020015173ffffffffffffffffffffffffffffffffffffffff168573ffffffffffffffffffffffffffffffffffffffff1603610c8357600181610c7c9190612438565b9150610c96565b8080610c8e90612634565b915050610c18565b50809250505092915050565b60008060009054906101000a900473ffffffffffffffffffffffffffffffffffffffff16905090565b60606001805480602002602001604051908101604052809291908181526020016000905b82821015610d8b5783829060005260206000209060030201604051806060016040529081600082015481526020016001820160009054906101000a900473ffffffffffffffffffffffffffffffffffffffff1673ffffffffffffffffffffffffffffffffffffffff1673ffffffffffffffffffffffffffffffffffffffff16815260200160028201548152505081526020019060010190610cef565b50505050905090565b610d9c611cf7565b610da4611cf7565b60005b600a811015610e1257604051806060016040528085815260200161dead73ffffffffffffffffffffffffffffffffffffffff16815260200160008152508282600a8110610df757610df6612605565b5b60200201819052508080610e0a90612634565b915050610da7565b5060005b600a8110156114ec576000826009600a8110610e3557610e34612605565b5b6020020151905060005b6001805490508110156114bb578560018281548110610e6157610e60612605565b5b906000526020600020906003020160000154148015610f0d5750836000600a8110610e8f57610e8e612605565b5b60200201516020015173ffffffffffffffffffffffffffffffffffffffff1660018281548110610ec257610ec1612605565b5b906000526020600020906003020160010160009054906101000a900473ffffffffffffffffffffffffffffffffffffffff1673ffffffffffffffffffffffffffffffffffffffff1614155b8015610fa65750836001600a8110610f2857610f27612605565b5b60200201516020015173ffffffffffffffffffffffffffffffffffffffff1660018281548110610f5b57610f5a612605565b5b906000526020600020906003020160010160009054906101000a900473ffffffffffffffffffffffffffffffffffffffff1673ffffffffffffffffffffffffffffffffffffffff1614155b801561103f5750836002600a8110610fc157610fc0612605565b5b60200201516020015173ffffffffffffffffffffffffffffffffffffffff1660018281548110610ff457610ff3612605565b5b906000526020600020906003020160010160009054906101000a900473ffffffffffffffffffffffffffffffffffffffff1673ffffffffffffffffffffffffffffffffffffffff1614155b80156110d85750836003600a811061105a57611059612605565b5b60200201516020015173ffffffffffffffffffffffffffffffffffffffff166001828154811061108d5761108c612605565b5b906000526020600020906003020160010160009054906101000a900473ffffffffffffffffffffffffffffffffffffffff1673ffffffffffffffffffffffffffffffffffffffff1614155b80156111715750836004600a81106110f3576110f2612605565b5b60200201516020015173ffffffffffffffffffffffffffffffffffffffff166001828154811061112657611125612605565b5b906000526020600020906003020160010160009054906101000a900473ffffffffffffffffffffffffffffffffffffffff1673ffffffffffffffffffffffffffffffffffffffff1614155b801561120a5750836005600a811061118c5761118b612605565b5b60200201516020015173ffffffffffffffffffffffffffffffffffffffff16600182815481106111bf576111be612605565b5b906000526020600020906003020160010160009054906101000a900473ffffffffffffffffffffffffffffffffffffffff1673ffffffffffffffffffffffffffffffffffffffff1614155b80156112a35750836006600a811061122557611224612605565b5b60200201516020015173ffffffffffffffffffffffffffffffffffffffff166001828154811061125857611257612605565b5b906000526020600020906003020160010160009054906101000a900473ffffffffffffffffffffffffffffffffffffffff1673ffffffffffffffffffffffffffffffffffffffff1614155b801561133c5750836007600a81106112be576112bd612605565b5b60200201516020015173ffffffffffffffffffffffffffffffffffffffff16600182815481106112f1576112f0612605565b5b906000526020600020906003020160010160009054906101000a900473ffffffffffffffffffffffffffffffffffffffff1673ffffffffffffffffffffffffffffffffffffffff1614155b80156113d55750836008600a811061135757611356612605565b5b60200201516020015173ffffffffffffffffffffffffffffffffffffffff166001828154811061138a57611389612605565b5b906000526020600020906003020160010160009054906101000a900473ffffffffffffffffffffffffffffffffffffffff1673ffffffffffffffffffffffffffffffffffffffff1614155b801561140957508160400151600182815481106113f5576113f4612605565b5b906000526020600020906003020160020154115b156114a8576001818154811061142257611421612605565b5b9060005260206000209060030201604051806060016040529081600082015481526020016001820160009054906101000a900473ffffffffffffffffffffffffffffffffffffffff1673ffffffffffffffffffffffffffffffffffffffff1673ffffffffffffffffffffffffffffffffffffffff16815260200160028201548152505091505b80806114b390612634565b915050610e3f565b50808383600a81106114d0576114cf612605565b5b60200201819052505080806114e490612634565b915050610e16565b5080915050919050565b60026020528060005260406000206000915090505481565b611516611bad565b8060048190555050565b611528611bad565b600073ffffffffffffffffffffffffffffffffffffffff168173ffffffffffffffffffffffffffffffffffffffff1603611597576040517f08c379a000000000000000000000000000000000000000000000000000000000815260040161158e906126ee565b60405180910390fd5b6115a081611c2b565b50565b6000806000905060006115b584610d94565b905060005b600a8110156115ff578181600a81106115d6576115d5612605565b5b602002015160400151836115ea9190612438565b925080806115f790612634565b9150506115ba565b508192505050919050565b600a60009054906101000a900473ffffffffffffffffffffffffffffffffffffffff1673ffffffffffffffffffffffffffffffffffffffff166370a08231336040518263ffffffff1660e01b81526004016116659190611f3f565b602060405180830381865afa158015611682573d6000803e3d6000fd5b505050506040513d601f19601f820116820180604052508101906116a691906125d8565b81106116b157600080fd5b600a60009054906101000a900473ffffffffffffffffffffffffffffffffffffffff1673ffffffffffffffffffffffffffffffffffffffff1663dd62ed3e33306040518363ffffffff1660e01b815260040161170e92919061270e565b602060405180830381865afa15801561172b573d6000803e3d6000fd5b505050506040513d601f19601f8201168201806040525081019061174f91906125d8565b8110611790576040517f08c379a000000000000000000000000000000000000000000000000000000000815260040161178790612783565b60405180910390fd5b600a60009054906101000a900473ffffffffffffffffffffffffffffffffffffffff1673ffffffffffffffffffffffffffffffffffffffff166323b872dd3330846040518463ffffffff1660e01b81526004016117ef939291906127a3565b6020604051808303816000875af115801561180e573d6000803e3d6000fd5b505050506040513d601f19601f820116820180604052508101906118329190612596565b50600a60009054906101000a900473ffffffffffffffffffffffffffffffffffffffff1673ffffffffffffffffffffffffffffffffffffffff1663095ea7b3600d60009054906101000a900473ffffffffffffffffffffffffffffffffffffffff16836040518363ffffffff1660e01b81526004016118b2929190612535565b6020604051808303816000875af11580156118d1573d6000803e3d6000fd5b505050506040513d601f19601f820116820180604052508101906118f59190612596565b50600d60009054906101000a900473ffffffffffffffffffffffffffffffffffffffff1673ffffffffffffffffffffffffffffffffffffffff1663617ba037600a60009054906101000a900473ffffffffffffffffffffffffffffffffffffffff16833060006040518563ffffffff1660e01b815260040161197a949392919061282d565b600060405180830381600087803b15801561199457600080fd5b505af11580156119a8573d6000803e3d6000fd5b5050505080600860003373ffffffffffffffffffffffffffffffffffffffff1673ffffffffffffffffffffffffffffffffffffffff168152602001908152602001600020546119f79190612438565b600860003373ffffffffffffffffffffffffffffffffffffffff1673ffffffffffffffffffffffffffffffffffffffff1681526020019081526020016000208190555080600860003073ffffffffffffffffffffffffffffffffffffffff1673ffffffffffffffffffffffffffffffffffffffff16815260200190815260200160002054611a859190612438565b600860003073ffffffffffffffffffffffffffffffffffffffff1673ffffffffffffffffffffffffffffffffffffffff16815260200190815260200160002081905550600c60009054906101000a900473ffffffffffffffffffffffffffffffffffffffff1673ffffffffffffffffffffffffffffffffffffffff166340c10f1933836040518363ffffffff1660e01b8152600401611b25929190612535565b600060405180830381600087803b158015611b3f57600080fd5b505af1158015611b53573d6000803e3d6000fd5b50505050611b5f610b1f565b611b676109f7565b600960003373ffffffffffffffffffffffffffffffffffffffff1673ffffffffffffffffffffffffffffffffffffffff1681526020019081526020016000208190555050565b611bb5611cef565b73ffffffffffffffffffffffffffffffffffffffff16611bd3610ca2565b73ffffffffffffffffffffffffffffffffffffffff1614611c29576040517f08c379a0000000000000000000000000000000000000000000000000000000008152600401611c20906128be565b60405180910390fd5b565b60008060009054906101000a900473ffffffffffffffffffffffffffffffffffffffff169050816000806101000a81548173ffffffffffffffffffffffffffffffffffffffff021916908373ffffffffffffffffffffffffffffffffffffffff1602179055508173ffffffffffffffffffffffffffffffffffffffff168173ffffffffffffffffffffffffffffffffffffffff167f8be0079c531659141344cd1fd0a4f28419497f9722a3daafe3b4186f6b6457e060405160405180910390a35050565b600033905090565b604051806101400160405280600a905b611d0f611d25565b815260200190600190039081611d075790505090565b604051806060016040528060008152602001600073ffffffffffffffffffffffffffffffffffffffff168152602001600081525090565b6000819050919050565b611d6f81611d5c565b82525050565b6000602082019050611d8a6000830184611d66565b92915050565b600080fd5b611d9e81611d5c565b8114611da957600080fd5b50565b600081359050611dbb81611d95565b92915050565b600073ffffffffffffffffffffffffffffffffffffffff82169050919050565b6000611dec82611dc1565b9050919050565b611dfc81611de1565b8114611e0757600080fd5b50565b600081359050611e1981611df3565b92915050565b60008060408385031215611e3657611e35611d90565b5b6000611e4485828601611dac565b9250506020611e5585828601611e0a565b9150509250929050565b600060208284031215611e7557611e74611d90565b5b6000611e8384828501611dac565b91505092915050565b611e9581611de1565b82525050565b6000606082019050611eb06000830186611d66565b611ebd6020830185611e8c565b611eca6040830184611d66565b949350505050565b60008060408385031215611ee957611ee8611d90565b5b6000611ef785828601611e0a565b9250506020611f0885828601611dac565b9150509250929050565b600060208284031215611f2857611f27611d90565b5b6000611f3684828501611e0a565b91505092915050565b6000602082019050611f546000830184611e8c565b92915050565b600081519050919050565b600082825260208201905092915050565b6000819050602082019050919050565b611f8f81611d5c565b82525050565b611f9e81611de1565b82525050565b606082016000820151611fba6000850182611f86565b506020820151611fcd6020850182611f95565b506040820151611fe06040850182611f86565b50505050565b6000611ff28383611fa4565b60608301905092915050565b6000602082019050919050565b600061201682611f5a565b6120208185611f65565b935061202b83611f76565b8060005b8381101561205c5781516120438882611fe6565b975061204e83611ffe565b92505060018101905061202f565b5085935050505092915050565b60006020820190508181036000830152612083818461200b565b905092915050565b6000600a9050919050565b600081905092915050565b6000819050919050565b6000602082019050919050565b6120c18161208b565b6120cb8184612096565b92506120d6826120a1565b8060005b838110156121075781516120ee8782611fe6565b96506120f9836120ab565b9250506001810190506120da565b505050505050565b60006103c08201905061212560008301846120b8565b92915050565b7f4e487b7100000000000000000000000000000000000000000000000000000000600052601260045260246000fd5b7f4e487b7100000000000000000000000000000000000000000000000000000000600052601160045260246000fd5b600061219482611d5c565b915061219f83611d5c565b9250826121af576121ae61212b565b5b828204905092915050565b60006121c582611d5c565b91506121d083611d5c565b92508282039050818111156121e8576121e761215a565b5b92915050565b60008160011c9050919050565b6000808291508390505b6001851115612245578086048111156122215761222061215a565b5b60018516156122305780820291505b808102905061223e856121ee565b9450612205565b94509492505050565b60008261225e576001905061231a565b8161226c576000905061231a565b8160018114612282576002811461228c576122bb565b600191505061231a565b60ff84111561229e5761229d61215a565b5b8360020a9150848211156122b5576122b461215a565b5b5061231a565b5060208310610133831016604e8410600b84101617156122f05782820a9050838111156122eb576122ea61215a565b5b61231a565b6122fd84848460016121fb565b925090508184048111156123145761231361215a565b5b81810290505b9392505050565b600060ff82169050919050565b600061233982611d5c565b915061234483612321565b92506123717fffffffffffffffffffffffffffffffffffffffffffffffffffffffffffffffff848461224e565b905092915050565b600061238482611d5c565b915061238f83611d5c565b925082820261239d81611d5c565b915082820484148315176123b4576123b361215a565b5b5092915050565b600082825260208201905092915050565b7f496e73756666696369656e742062616c616e6365000000000000000000000000600082015250565b60006124026014836123bb565b915061240d826123cc565b602082019050919050565b60006020820190508181036000830152612431816123f5565b9050919050565b600061244382611d5c565b915061244e83611d5c565b92508282019050808211156124665761246561215a565b5b92915050565b7f506c656173652077616974203220636f6e746573747320616674657220796f7560008201527f72206465706f73697420746f2077697464726177000000000000000000000000602082015250565b60006124c86034836123bb565b91506124d38261246c565b604082019050919050565b600060208201905081810360008301526124f7816124bb565b9050919050565b60006060820190506125136000830186611e8c565b6125206020830185611d66565b61252d6040830184611e8c565b949350505050565b600060408201905061254a6000830185611e8c565b6125576020830184611d66565b9392505050565b60008115159050919050565b6125738161255e565b811461257e57600080fd5b50565b6000815190506125908161256a565b92915050565b6000602082840312156125ac576125ab611d90565b5b60006125ba84828501612581565b91505092915050565b6000815190506125d281611d95565b92915050565b6000602082840312156125ee576125ed611d90565b5b60006125fc848285016125c3565b91505092915050565b7f4e487b7100000000000000000000000000000000000000000000000000000000600052603260045260246000fd5b600061263f82611d5c565b91507fffffffffffffffffffffffffffffffffffffffffffffffffffffffffffffffff82036126715761267061215a565b5b600182019050919050565b7f4f776e61626c653a206e6577206f776e657220697320746865207a65726f206160008201527f6464726573730000000000000000000000000000000000000000000000000000602082015250565b60006126d86026836123bb565b91506126e38261267c565b604082019050919050565b60006020820190508181036000830152612707816126cb565b9050919050565b60006040820190506127236000830185611e8c565b6127306020830184611e8c565b9392505050565b7f496e73756666696369656e7420616c6c6f776564205553444300000000000000600082015250565b600061276d6019836123bb565b915061277882612737565b602082019050919050565b6000602082019050818103600083015261279c81612760565b9050919050565b60006060820190506127b86000830186611e8c565b6127c56020830185611e8c565b6127d26040830184611d66565b949350505050565b6000819050919050565b600061ffff82169050919050565b6000819050919050565b600061281761281261280d846127da565b6127f2565b6127e4565b9050919050565b612827816127fc565b82525050565b60006080820190506128426000830187611e8c565b61284f6020830186611d66565b61285c6040830185611e8c565b612869606083018461281e565b95945050505050565b7f4f776e61626c653a2063616c6c6572206973206e6f7420746865206f776e6572600082015250565b60006128a86020836123bb565b91506128b382612872565b602082019050919050565b600060208201905081810360008301526128d78161289b565b905091905056fea2646970667358221220f2ff2c47facf42b18004121baa550139e4e85d79e9b9929d486fe4819630618f64736f6c63430008110033",
  "linkReferences": {},
  "deployedLinkReferences": {}
}