{
  "_format": "hh-sol-artifact-1",
  "contractName": "NpngPool",
  "sourceName": "contracts/NpngPool.sol",
  "abi": [
    {
      "inputs": [],
      "stateMutability": "nonpayable",
      "type": "constructor"
    },
    {
      "anonymous": false,
      "inputs": [
        {
          "indexed": true,
          "internalType": "address",
          "name": "previousOwner",
          "type": "address"
        },
        {
          "indexed": true,
          "internalType": "address",
          "name": "newOwner",
          "type": "address"
        }
      ],
      "name": "OwnershipTransferred",
      "type": "event"
    },
    {
      "inputs": [
        {
          "internalType": "uint256",
          "name": "_idContest",
          "type": "uint256"
        },
        {
          "internalType": "address",
          "name": "_player",
          "type": "address"
        }
      ],
      "name": "calculateRewards",
      "outputs": [
        {
          "internalType": "uint256",
          "name": "",
          "type": "uint256"
        }
      ],
      "stateMutability": "view",
      "type": "function"
    },
    {
      "inputs": [
        {
          "internalType": "uint256",
          "name": "_newFrequence",
          "type": "uint256"
        }
      ],
      "name": "changeGameFrequence",
      "outputs": [],
      "stateMutability": "nonpayable",
      "type": "function"
    },
    {
      "inputs": [
        {
          "internalType": "address",
          "name": "_newAddress",
          "type": "address"
        }
      ],
      "name": "changeNpngTokenAddress",
      "outputs": [],
      "stateMutability": "nonpayable",
      "type": "function"
    },
    {
      "inputs": [],
      "name": "checkGamePlayed",
      "outputs": [
        {
          "internalType": "bool",
          "name": "",
          "type": "bool"
        }
      ],
      "stateMutability": "view",
      "type": "function"
    },
    {
      "inputs": [
        {
          "internalType": "uint256",
          "name": "_idContest",
          "type": "uint256"
        },
        {
          "internalType": "address",
          "name": "_player",
          "type": "address"
        }
      ],
      "name": "checkPlayerRank",
      "outputs": [
        {
          "internalType": "uint256",
          "name": "",
          "type": "uint256"
        }
      ],
      "stateMutability": "view",
      "type": "function"
    },
    {
      "inputs": [
        {
          "internalType": "uint256",
          "name": "",
          "type": "uint256"
        }
      ],
      "name": "contestsResult",
      "outputs": [
        {
          "internalType": "uint256",
          "name": "idContest",
          "type": "uint256"
        },
        {
          "internalType": "address",
          "name": "player",
          "type": "address"
        },
        {
          "internalType": "uint256",
          "name": "score",
          "type": "uint256"
        }
      ],
      "stateMutability": "view",
      "type": "function"
    },
    {
      "inputs": [
        {
          "internalType": "uint256",
          "name": "_amount",
          "type": "uint256"
        }
      ],
      "name": "depositOnAave",
      "outputs": [],
      "stateMutability": "nonpayable",
      "type": "function"
    },
    {
      "inputs": [],
      "name": "getCurrentIdContest",
      "outputs": [
        {
          "internalType": "uint256",
          "name": "",
          "type": "uint256"
        }
      ],
      "stateMutability": "view",
      "type": "function"
    },
    {
      "inputs": [],
      "name": "getGameFrequence",
      "outputs": [
        {
          "internalType": "uint256",
          "name": "",
          "type": "uint256"
        }
      ],
      "stateMutability": "view",
      "type": "function"
    },
    {
      "inputs": [
        {
          "internalType": "address",
          "name": "_account",
          "type": "address"
        }
      ],
      "name": "getMyBalance",
      "outputs": [
        {
          "internalType": "uint256",
          "name": "",
          "type": "uint256"
        }
      ],
      "stateMutability": "view",
      "type": "function"
    },
    {
      "inputs": [],
      "name": "getPlay",
      "outputs": [],
      "stateMutability": "nonpayable",
      "type": "function"
    },
    {
      "inputs": [],
      "name": "getScore",
      "outputs": [
        {
          "components": [
            {
              "internalType": "uint256",
              "name": "idContest",
              "type": "uint256"
            },
            {
              "internalType": "address",
              "name": "player",
              "type": "address"
            },
            {
              "internalType": "uint256",
              "name": "score",
              "type": "uint256"
            }
          ],
          "internalType": "struct NpngGame.ContestsResult[]",
          "name": "",
          "type": "tuple[]"
        }
      ],
      "stateMutability": "view",
      "type": "function"
    },
    {
      "inputs": [
        {
          "internalType": "uint256",
          "name": "_idContest",
          "type": "uint256"
        }
      ],
      "name": "getTopPlayers",
      "outputs": [
        {
          "components": [
            {
              "internalType": "uint256",
              "name": "idContest",
              "type": "uint256"
            },
            {
              "internalType": "address",
              "name": "player",
              "type": "address"
            },
            {
              "internalType": "uint256",
              "name": "score",
              "type": "uint256"
            }
          ],
          "internalType": "struct NpngGame.ContestsResult[10]",
          "name": "",
          "type": "tuple[10]"
        }
      ],
      "stateMutability": "view",
      "type": "function"
    },
    {
      "inputs": [
        {
          "internalType": "uint256",
          "name": "_idContest",
          "type": "uint256"
        }
      ],
      "name": "getTotalAmountTopPlayers",
      "outputs": [
        {
          "internalType": "uint256",
          "name": "",
          "type": "uint256"
        }
      ],
      "stateMutability": "view",
      "type": "function"
    },
    {
      "inputs": [],
      "name": "interestEarned",
      "outputs": [
        {
          "internalType": "uint256",
          "name": "",
          "type": "uint256"
        }
      ],
      "stateMutability": "view",
      "type": "function"
    },
    {
      "inputs": [
        {
          "internalType": "uint256",
          "name": "",
          "type": "uint256"
        }
      ],
      "name": "numberOfPlayersPerContest",
      "outputs": [
        {
          "internalType": "uint256",
          "name": "",
          "type": "uint256"
        }
      ],
      "stateMutability": "view",
      "type": "function"
    },
    {
      "inputs": [],
      "name": "owner",
      "outputs": [
        {
          "internalType": "address",
          "name": "",
          "type": "address"
        }
      ],
      "stateMutability": "view",
      "type": "function"
    },
    {
      "inputs": [],
      "name": "renounceOwnership",
      "outputs": [],
      "stateMutability": "nonpayable",
      "type": "function"
    },
    {
      "inputs": [
        {
          "internalType": "address",
          "name": "player",
          "type": "address"
        },
        {
          "internalType": "uint256",
          "name": "score",
          "type": "uint256"
        }
      ],
      "name": "saveScore",
      "outputs": [],
      "stateMutability": "nonpayable",
      "type": "function"
    },
    {
      "inputs": [
        {
          "internalType": "address",
          "name": "newOwner",
          "type": "address"
        }
      ],
      "name": "transferOwnership",
      "outputs": [],
      "stateMutability": "nonpayable",
      "type": "function"
    },
    {
      "inputs": [],
      "name": "updateIdContest",
      "outputs": [],
      "stateMutability": "nonpayable",
      "type": "function"
    },
    {
      "inputs": [
        {
          "internalType": "uint256",
          "name": "_amount",
          "type": "uint256"
        }
      ],
      "name": "withdraw",
      "outputs": [],
      "stateMutability": "nonpayable",
      "type": "function"
    }
  ],
  "bytecode": "0x60806040523480156200001157600080fd5b506200003262000026620001ae60201b60201c565b620001b660201b60201c565b42600681905550600654600781905550600160058190555062015180600481905550739aa7fec87ca69695dd1f879567ccf49f3ba417e2600b60006101000a81548173ffffffffffffffffffffffffffffffffffffffff021916908373ffffffffffffffffffffffffffffffffffffffff16021790555073cdc2854e97798afdc74bc420bd5060e022d14607600c60006101000a81548173ffffffffffffffffffffffffffffffffffffffff021916908373ffffffffffffffffffffffffffffffffffffffff160217905550736c9fb0d5bd9429eb9cd96b85b81d872281771e6b600e60006101000a81548173ffffffffffffffffffffffffffffffffffffffff021916908373ffffffffffffffffffffffffffffffffffffffff16021790555073c6993fdd6a8fe92f27192b7c8ccd8015b97fac86600d60006101000a81548173ffffffffffffffffffffffffffffffffffffffff021916908373ffffffffffffffffffffffffffffffffffffffff1602179055506200027a565b600033905090565b60008060009054906101000a900473ffffffffffffffffffffffffffffffffffffffff169050816000806101000a81548173ffffffffffffffffffffffffffffffffffffffff021916908373ffffffffffffffffffffffffffffffffffffffff1602179055508173ffffffffffffffffffffffffffffffffffffffff168173ffffffffffffffffffffffffffffffffffffffff167f8be0079c531659141344cd1fd0a4f28419497f9722a3daafe3b4186f6b6457e060405160405180910390a35050565b612c66806200028a6000396000f3fe608060405234801561001057600080fd5b50600436106101425760003560e01c80637e3ef7cd116100b8578063ba3c00671161007c578063ba3c00671461032f578063e9d699901461035f578063f2fbee3f1461038f578063f2fde38b146103ab578063fc04ca94146103c7578063fd8d1909146103f757610142565b80637e3ef7cd146102775780638347f536146102a75780638c6ba47b146102c35780638da5cb5b146102f3578063afd820671461031157610142565b8063374261ab1161010a578063374261ab146101ed5780635f9943d31461020b57806363072aab14610229578063695a651714610247578063715018a614610263578063771baacb1461026d57610142565b806305e81bda146101475780630bd5d28414610165578063176864221461016f5780631b922c091461019f5780632e1a7d4d146101d1575b600080fd5b61014f610413565b60405161015c9190611fc5565b60405180910390f35b61016d61041d565b005b6101896004803603810190610184919061206f565b6105bc565b6040516101969190611fc5565b60405180910390f35b6101b960048036038101906101b491906120af565b610674565b6040516101c8939291906120eb565b60405180910390f35b6101eb60048036038101906101e691906120af565b6106ce565b005b6101f5610ae7565b6040516102029190611fc5565b60405180910390f35b610213610bd4565b604051610220919061213d565b60405180910390f35b610231610c45565b60405161023e9190611fc5565b60405180910390f35b610261600480360381019061025c9190612158565b610c4f565b005b61026b610d59565b005b610275610d6d565b005b610291600480360381019061028c9190612198565b610dbf565b60405161029e9190611fc5565b60405180910390f35b6102c160048036038101906102bc9190612198565b610e08565b005b6102dd60048036038101906102d8919061206f565b610e54565b6040516102ea9190611fc5565b60405180910390f35b6102fb610ef0565b60405161030891906121c5565b60405180910390f35b610319610f19565b60405161032691906122ef565b60405180910390f35b610349600480360381019061034491906120af565b610fe2565b6040516103569190612395565b60405180910390f35b610379600480360381019061037491906120af565b611744565b6040516103869190611fc5565b60405180910390f35b6103a960048036038101906103a491906120af565b61175c565b005b6103c560048036038101906103c09190612198565b61176e565b005b6103e160048036038101906103dc91906120af565b6117f1565b6040516103ee9190611fc5565b60405180910390f35b610411600480360381019061040c91906120af565b611858565b005b6000600454905090565b6000600860003373ffffffffffffffffffffffffffffffffffffffff1673ffffffffffffffffffffffffffffffffffffffff168152602001908152602001600020541161049f576040517f08c379a00000000000000000000000000000000000000000000000000000000081526004016104969061240e565b60405180910390fd5b60011515600a60003373ffffffffffffffffffffffffffffffffffffffff1673ffffffffffffffffffffffffffffffffffffffff16815260200190815260200160002060006104ec610c45565b815260200190815260200160002060009054906101000a900460ff1615150361054a576040517f08c379a00000000000000000000000000000000000000000000000000000000081526004016105419061247a565b60405180910390fd5b6001600a60003373ffffffffffffffffffffffffffffffffffffffff1673ffffffffffffffffffffffffffffffffffffffff1681526020019081526020016000206000610595610c45565b815260200190815260200160002060006101000a81548160ff021916908315150217905550565b6000806105c98484610e54565b90506000600860008573ffffffffffffffffffffffffffffffffffffffff1673ffffffffffffffffffffffffffffffffffffffff168152602001908152602001600020549050600061061a866117f1565b90506000600560648561062d91906124f8565b60016106399190612529565b610643919061269d565b608b838561065191906124f8565b61065b91906126e8565b61066591906126e8565b90508094505050505092915050565b6001818154811061068457600080fd5b90600052602060002090600302016000915090508060000154908060010160009054906101000a900473ffffffffffffffffffffffffffffffffffffffff16908060020154905083565b80600860003373ffffffffffffffffffffffffffffffffffffffff1673ffffffffffffffffffffffffffffffffffffffff168152602001908152602001600020541015610750576040517f08c379a000000000000000000000000000000000000000000000000000000000815260040161074790612776565b60405180910390fd5b600261075a610c45565b6107649190612796565b600960003373ffffffffffffffffffffffffffffffffffffffff1673ffffffffffffffffffffffffffffffffffffffff1681526020019081526020016000205411156107e5576040517f08c379a00000000000000000000000000000000000000000000000000000000081526004016107dc9061283c565b60405180910390fd5b600e60009054906101000a900473ffffffffffffffffffffffffffffffffffffffff1673ffffffffffffffffffffffffffffffffffffffff166369328dec600b60009054906101000a900473ffffffffffffffffffffffffffffffffffffffff1683306040518463ffffffff1660e01b81526004016108669392919061285c565b600060405180830381600087803b15801561088057600080fd5b505af1158015610894573d6000803e3d6000fd5b50505050600b60009054906101000a900473ffffffffffffffffffffffffffffffffffffffff1673ffffffffffffffffffffffffffffffffffffffff1663a9059cbb33836040518363ffffffff1660e01b81526004016108f5929190612893565b6020604051808303816000875af1158015610914573d6000803e3d6000fd5b505050506040513d601f19601f8201168201806040525081019061093891906128e8565b5080600860003373ffffffffffffffffffffffffffffffffffffffff1673ffffffffffffffffffffffffffffffffffffffff168152602001908152602001600020546109849190612529565b600860003373ffffffffffffffffffffffffffffffffffffffff1673ffffffffffffffffffffffffffffffffffffffff1681526020019081526020016000208190555080600860003073ffffffffffffffffffffffffffffffffffffffff1673ffffffffffffffffffffffffffffffffffffffff16815260200190815260200160002054610a129190612529565b600860003073ffffffffffffffffffffffffffffffffffffffff1673ffffffffffffffffffffffffffffffffffffffff16815260200190815260200160002081905550600d60009054906101000a900473ffffffffffffffffffffffffffffffffffffffff1673ffffffffffffffffffffffffffffffffffffffff16639dc29fac33836040518363ffffffff1660e01b8152600401610ab2929190612893565b600060405180830381600087803b158015610acc57600080fd5b505af1158015610ae0573d6000803e3d6000fd5b5050505050565b6000600860003073ffffffffffffffffffffffffffffffffffffffff1673ffffffffffffffffffffffffffffffffffffffff16815260200190815260200160002054600c60009054906101000a900473ffffffffffffffffffffffffffffffffffffffff1673ffffffffffffffffffffffffffffffffffffffff166370a08231306040518263ffffffff1660e01b8152600401610b8491906121c5565b602060405180830381865afa158015610ba1573d6000803e3d6000fd5b505050506040513d601f19601f82011682018060405250810190610bc5919061292a565b610bcf9190612529565b905090565b600080610bdf610c45565b9050600a60003373ffffffffffffffffffffffffffffffffffffffff1673ffffffffffffffffffffffffffffffffffffffff168152602001908152602001600020600082815260200190815260200160002060009054906101000a900460ff1691505090565b6000600554905090565b610c57611dfd565b610c5f610d6d565b6001604051806060016040528060055481526020018473ffffffffffffffffffffffffffffffffffffffff1681526020018381525090806001815401808255809150506001900390600052602060002090600302016000909190919091506000820151816000015560208201518160010160006101000a81548173ffffffffffffffffffffffffffffffffffffffff021916908373ffffffffffffffffffffffffffffffffffffffff160217905550604082015181600201555050600160026000600554815260200190815260200160002054610d3c9190612796565b600260006005548152602001908152602001600020819055505050565b610d61611dfd565b610d6b6000611e7b565b565b6000429050600060045460075483610d859190612529565b610d8f91906124f8565b90506000811115610dbb578060056000828254610dac9190612796565b92505081905550816007819055505b5050565b6000600860008373ffffffffffffffffffffffffffffffffffffffff1673ffffffffffffffffffffffffffffffffffffffff168152602001908152602001600020549050919050565b610e10611dfd565b80600d60006101000a81548173ffffffffffffffffffffffffffffffffffffffff021916908373ffffffffffffffffffffffffffffffffffffffff16021790555050565b600080610e6084610fe2565b90506000805b600a811015610ee4578281600a8110610e8257610e81612957565b5b60200201516020015173ffffffffffffffffffffffffffffffffffffffff168573ffffffffffffffffffffffffffffffffffffffff1603610ed157600181610eca9190612796565b9150610ee4565b8080610edc90612986565b915050610e66565b50809250505092915050565b60008060009054906101000a900473ffffffffffffffffffffffffffffffffffffffff16905090565b60606001805480602002602001604051908101604052809291908181526020016000905b82821015610fd95783829060005260206000209060030201604051806060016040529081600082015481526020016001820160009054906101000a900473ffffffffffffffffffffffffffffffffffffffff1673ffffffffffffffffffffffffffffffffffffffff1673ffffffffffffffffffffffffffffffffffffffff16815260200160028201548152505081526020019060010190610f3d565b50505050905090565b610fea611f47565b610ff2611f47565b60005b600a81101561106057604051806060016040528085815260200161dead73ffffffffffffffffffffffffffffffffffffffff16815260200160008152508282600a811061104557611044612957565b5b6020020181905250808061105890612986565b915050610ff5565b5060005b600a81101561173a576000826009600a811061108357611082612957565b5b6020020151905060005b6001805490508110156117095785600182815481106110af576110ae612957565b5b90600052602060002090600302016000015414801561115b5750836000600a81106110dd576110dc612957565b5b60200201516020015173ffffffffffffffffffffffffffffffffffffffff16600182815481106111105761110f612957565b5b906000526020600020906003020160010160009054906101000a900473ffffffffffffffffffffffffffffffffffffffff1673ffffffffffffffffffffffffffffffffffffffff1614155b80156111f45750836001600a811061117657611175612957565b5b60200201516020015173ffffffffffffffffffffffffffffffffffffffff16600182815481106111a9576111a8612957565b5b906000526020600020906003020160010160009054906101000a900473ffffffffffffffffffffffffffffffffffffffff1673ffffffffffffffffffffffffffffffffffffffff1614155b801561128d5750836002600a811061120f5761120e612957565b5b60200201516020015173ffffffffffffffffffffffffffffffffffffffff166001828154811061124257611241612957565b5b906000526020600020906003020160010160009054906101000a900473ffffffffffffffffffffffffffffffffffffffff1673ffffffffffffffffffffffffffffffffffffffff1614155b80156113265750836003600a81106112a8576112a7612957565b5b60200201516020015173ffffffffffffffffffffffffffffffffffffffff16600182815481106112db576112da612957565b5b906000526020600020906003020160010160009054906101000a900473ffffffffffffffffffffffffffffffffffffffff1673ffffffffffffffffffffffffffffffffffffffff1614155b80156113bf5750836004600a811061134157611340612957565b5b60200201516020015173ffffffffffffffffffffffffffffffffffffffff166001828154811061137457611373612957565b5b906000526020600020906003020160010160009054906101000a900473ffffffffffffffffffffffffffffffffffffffff1673ffffffffffffffffffffffffffffffffffffffff1614155b80156114585750836005600a81106113da576113d9612957565b5b60200201516020015173ffffffffffffffffffffffffffffffffffffffff166001828154811061140d5761140c612957565b5b906000526020600020906003020160010160009054906101000a900473ffffffffffffffffffffffffffffffffffffffff1673ffffffffffffffffffffffffffffffffffffffff1614155b80156114f15750836006600a811061147357611472612957565b5b60200201516020015173ffffffffffffffffffffffffffffffffffffffff16600182815481106114a6576114a5612957565b5b906000526020600020906003020160010160009054906101000a900473ffffffffffffffffffffffffffffffffffffffff1673ffffffffffffffffffffffffffffffffffffffff1614155b801561158a5750836007600a811061150c5761150b612957565b5b60200201516020015173ffffffffffffffffffffffffffffffffffffffff166001828154811061153f5761153e612957565b5b906000526020600020906003020160010160009054906101000a900473ffffffffffffffffffffffffffffffffffffffff1673ffffffffffffffffffffffffffffffffffffffff1614155b80156116235750836008600a81106115a5576115a4612957565b5b60200201516020015173ffffffffffffffffffffffffffffffffffffffff16600182815481106115d8576115d7612957565b5b906000526020600020906003020160010160009054906101000a900473ffffffffffffffffffffffffffffffffffffffff1673ffffffffffffffffffffffffffffffffffffffff1614155b8015611657575081604001516001828154811061164357611642612957565b5b906000526020600020906003020160020154115b156116f657600181815481106116705761166f612957565b5b9060005260206000209060030201604051806060016040529081600082015481526020016001820160009054906101000a900473ffffffffffffffffffffffffffffffffffffffff1673ffffffffffffffffffffffffffffffffffffffff1673ffffffffffffffffffffffffffffffffffffffff16815260200160028201548152505091505b808061170190612986565b91505061108d565b50808383600a811061171e5761171d612957565b5b602002018190525050808061173290612986565b915050611064565b5080915050919050565b60026020528060005260406000206000915090505481565b611764611dfd565b8060048190555050565b611776611dfd565b600073ffffffffffffffffffffffffffffffffffffffff168173ffffffffffffffffffffffffffffffffffffffff16036117e5576040517f08c379a00000000000000000000000000000000000000000000000000000000081526004016117dc90612a40565b60405180910390fd5b6117ee81611e7b565b50565b60008060009050600061180384610fe2565b905060005b600a81101561184d578181600a811061182457611823612957565b5b602002015160400151836118389190612796565b9250808061184590612986565b915050611808565b508192505050919050565b600b60009054906101000a900473ffffffffffffffffffffffffffffffffffffffff1673ffffffffffffffffffffffffffffffffffffffff166370a08231336040518263ffffffff1660e01b81526004016118b391906121c5565b602060405180830381865afa1580156118d0573d6000803e3d6000fd5b505050506040513d601f19601f820116820180604052508101906118f4919061292a565b81111561190057600080fd5b600b60009054906101000a900473ffffffffffffffffffffffffffffffffffffffff1673ffffffffffffffffffffffffffffffffffffffff1663dd62ed3e33306040518363ffffffff1660e01b815260040161195d929190612a60565b602060405180830381865afa15801561197a573d6000803e3d6000fd5b505050506040513d601f19601f8201168201806040525081019061199e919061292a565b8111156119e0576040517f08c379a00000000000000000000000000000000000000000000000000000000081526004016119d790612ad5565b60405180910390fd5b600b60009054906101000a900473ffffffffffffffffffffffffffffffffffffffff1673ffffffffffffffffffffffffffffffffffffffff166323b872dd3330846040518463ffffffff1660e01b8152600401611a3f93929190612af5565b6020604051808303816000875af1158015611a5e573d6000803e3d6000fd5b505050506040513d601f19601f82011682018060405250810190611a8291906128e8565b50600b60009054906101000a900473ffffffffffffffffffffffffffffffffffffffff1673ffffffffffffffffffffffffffffffffffffffff1663095ea7b3600e60009054906101000a900473ffffffffffffffffffffffffffffffffffffffff16836040518363ffffffff1660e01b8152600401611b02929190612893565b6020604051808303816000875af1158015611b21573d6000803e3d6000fd5b505050506040513d601f19601f82011682018060405250810190611b4591906128e8565b50600e60009054906101000a900473ffffffffffffffffffffffffffffffffffffffff1673ffffffffffffffffffffffffffffffffffffffff1663617ba037600b60009054906101000a900473ffffffffffffffffffffffffffffffffffffffff16833060006040518563ffffffff1660e01b8152600401611bca9493929190612b7f565b600060405180830381600087803b158015611be457600080fd5b505af1158015611bf8573d6000803e3d6000fd5b5050505080600860003373ffffffffffffffffffffffffffffffffffffffff1673ffffffffffffffffffffffffffffffffffffffff16815260200190815260200160002054611c479190612796565b600860003373ffffffffffffffffffffffffffffffffffffffff1673ffffffffffffffffffffffffffffffffffffffff1681526020019081526020016000208190555080600860003073ffffffffffffffffffffffffffffffffffffffff1673ffffffffffffffffffffffffffffffffffffffff16815260200190815260200160002054611cd59190612796565b600860003073ffffffffffffffffffffffffffffffffffffffff1673ffffffffffffffffffffffffffffffffffffffff16815260200190815260200160002081905550600d60009054906101000a900473ffffffffffffffffffffffffffffffffffffffff1673ffffffffffffffffffffffffffffffffffffffff166340c10f1933836040518363ffffffff1660e01b8152600401611d75929190612893565b600060405180830381600087803b158015611d8f57600080fd5b505af1158015611da3573d6000803e3d6000fd5b50505050611daf610d6d565b611db7610c45565b600960003373ffffffffffffffffffffffffffffffffffffffff1673ffffffffffffffffffffffffffffffffffffffff1681526020019081526020016000208190555050565b611e05611f3f565b73ffffffffffffffffffffffffffffffffffffffff16611e23610ef0565b73ffffffffffffffffffffffffffffffffffffffff1614611e79576040517f08c379a0000000000000000000000000000000000000000000000000000000008152600401611e7090612c10565b60405180910390fd5b565b60008060009054906101000a900473ffffffffffffffffffffffffffffffffffffffff169050816000806101000a81548173ffffffffffffffffffffffffffffffffffffffff021916908373ffffffffffffffffffffffffffffffffffffffff1602179055508173ffffffffffffffffffffffffffffffffffffffff168173ffffffffffffffffffffffffffffffffffffffff167f8be0079c531659141344cd1fd0a4f28419497f9722a3daafe3b4186f6b6457e060405160405180910390a35050565b600033905090565b604051806101400160405280600a905b611f5f611f75565b815260200190600190039081611f575790505090565b604051806060016040528060008152602001600073ffffffffffffffffffffffffffffffffffffffff168152602001600081525090565b6000819050919050565b611fbf81611fac565b82525050565b6000602082019050611fda6000830184611fb6565b92915050565b600080fd5b611fee81611fac565b8114611ff957600080fd5b50565b60008135905061200b81611fe5565b92915050565b600073ffffffffffffffffffffffffffffffffffffffff82169050919050565b600061203c82612011565b9050919050565b61204c81612031565b811461205757600080fd5b50565b60008135905061206981612043565b92915050565b6000806040838503121561208657612085611fe0565b5b600061209485828601611ffc565b92505060206120a58582860161205a565b9150509250929050565b6000602082840312156120c5576120c4611fe0565b5b60006120d384828501611ffc565b91505092915050565b6120e581612031565b82525050565b60006060820190506121006000830186611fb6565b61210d60208301856120dc565b61211a6040830184611fb6565b949350505050565b60008115159050919050565b61213781612122565b82525050565b6000602082019050612152600083018461212e565b92915050565b6000806040838503121561216f5761216e611fe0565b5b600061217d8582860161205a565b925050602061218e85828601611ffc565b9150509250929050565b6000602082840312156121ae576121ad611fe0565b5b60006121bc8482850161205a565b91505092915050565b60006020820190506121da60008301846120dc565b92915050565b600081519050919050565b600082825260208201905092915050565b6000819050602082019050919050565b61221581611fac565b82525050565b61222481612031565b82525050565b606082016000820151612240600085018261220c565b506020820151612253602085018261221b565b506040820151612266604085018261220c565b50505050565b6000612278838361222a565b60608301905092915050565b6000602082019050919050565b600061229c826121e0565b6122a681856121eb565b93506122b1836121fc565b8060005b838110156122e25781516122c9888261226c565b97506122d483612284565b9250506001810190506122b5565b5085935050505092915050565b600060208201905081810360008301526123098184612291565b905092915050565b6000600a9050919050565b600081905092915050565b6000819050919050565b6000602082019050919050565b61234781612311565b612351818461231c565b925061235c82612327565b8060005b8381101561238d578151612374878261226c565b965061237f83612331565b925050600181019050612360565b505050505050565b60006103c0820190506123ab600083018461233e565b92915050565b600082825260208201905092915050565b7f4e6f206465706f7369742c204e6f2047616d6521000000000000000000000000600082015250565b60006123f86014836123b1565b9150612403826123c2565b602082019050919050565b60006020820190508181036000830152612427816123eb565b9050919050565b7f596f7520616c726561647920706c617965642100000000000000000000000000600082015250565b60006124646013836123b1565b915061246f8261242e565b602082019050919050565b6000602082019050818103600083015261249381612457565b9050919050565b7f4e487b7100000000000000000000000000000000000000000000000000000000600052601260045260246000fd5b7f4e487b7100000000000000000000000000000000000000000000000000000000600052601160045260246000fd5b600061250382611fac565b915061250e83611fac565b92508261251e5761251d61249a565b5b828204905092915050565b600061253482611fac565b915061253f83611fac565b9250828203905081811115612557576125566124c9565b5b92915050565b60008160011c9050919050565b6000808291508390505b60018511156125b4578086048111156125905761258f6124c9565b5b600185161561259f5780820291505b80810290506125ad8561255d565b9450612574565b94509492505050565b6000826125cd5760019050612689565b816125db5760009050612689565b81600181146125f157600281146125fb5761262a565b6001915050612689565b60ff84111561260d5761260c6124c9565b5b8360020a915084821115612624576126236124c9565b5b50612689565b5060208310610133831016604e8410600b841016171561265f5782820a90508381111561265a576126596124c9565b5b612689565b61266c848484600161256a565b92509050818404811115612683576126826124c9565b5b81810290505b9392505050565b600060ff82169050919050565b60006126a882611fac565b91506126b383612690565b92506126e07fffffffffffffffffffffffffffffffffffffffffffffffffffffffffffffffff84846125bd565b905092915050565b60006126f382611fac565b91506126fe83611fac565b925082820261270c81611fac565b91508282048414831517612723576127226124c9565b5b5092915050565b7f496e73756666696369656e742062616c616e6365000000000000000000000000600082015250565b60006127606014836123b1565b915061276b8261272a565b602082019050919050565b6000602082019050818103600083015261278f81612753565b9050919050565b60006127a182611fac565b91506127ac83611fac565b92508282019050808211156127c4576127c36124c9565b5b92915050565b7f506c656173652077616974203220636f6e746573747320616674657220796f7560008201527f72206465706f73697420746f2077697464726177000000000000000000000000602082015250565b60006128266034836123b1565b9150612831826127ca565b604082019050919050565b6000602082019050818103600083015261285581612819565b9050919050565b600060608201905061287160008301866120dc565b61287e6020830185611fb6565b61288b60408301846120dc565b949350505050565b60006040820190506128a860008301856120dc565b6128b56020830184611fb6565b9392505050565b6128c581612122565b81146128d057600080fd5b50565b6000815190506128e2816128bc565b92915050565b6000602082840312156128fe576128fd611fe0565b5b600061290c848285016128d3565b91505092915050565b60008151905061292481611fe5565b92915050565b6000602082840312156129405761293f611fe0565b5b600061294e84828501612915565b91505092915050565b7f4e487b7100000000000000000000000000000000000000000000000000000000600052603260045260246000fd5b600061299182611fac565b91507fffffffffffffffffffffffffffffffffffffffffffffffffffffffffffffffff82036129c3576129c26124c9565b5b600182019050919050565b7f4f776e61626c653a206e6577206f776e657220697320746865207a65726f206160008201527f6464726573730000000000000000000000000000000000000000000000000000602082015250565b6000612a2a6026836123b1565b9150612a35826129ce565b604082019050919050565b60006020820190508181036000830152612a5981612a1d565b9050919050565b6000604082019050612a7560008301856120dc565b612a8260208301846120dc565b9392505050565b7f496e73756666696369656e7420616c6c6f776564205553444300000000000000600082015250565b6000612abf6019836123b1565b9150612aca82612a89565b602082019050919050565b60006020820190508181036000830152612aee81612ab2565b9050919050565b6000606082019050612b0a60008301866120dc565b612b1760208301856120dc565b612b246040830184611fb6565b949350505050565b6000819050919050565b600061ffff82169050919050565b6000819050919050565b6000612b69612b64612b5f84612b2c565b612b44565b612b36565b9050919050565b612b7981612b4e565b82525050565b6000608082019050612b9460008301876120dc565b612ba16020830186611fb6565b612bae60408301856120dc565b612bbb6060830184612b70565b95945050505050565b7f4f776e61626c653a2063616c6c6572206973206e6f7420746865206f776e6572600082015250565b6000612bfa6020836123b1565b9150612c0582612bc4565b602082019050919050565b60006020820190508181036000830152612c2981612bed565b905091905056fea2646970667358221220bcd6cb929ceb4adf6ded8353c8299e149f8c49b6d308d428945cc44b2db8ee0364736f6c63430008110033",
  "linkReferences": {},
  "deployedLinkReferences": {}
}