{
  "_format": "hh-sol-artifact-1",
  "contractName": "NpngPool",
  "sourceName": "contracts/NpngPool.sol",
  "abi": [
    {
      "inputs": [],
      "stateMutability": "nonpayable",
      "type": "constructor"
    },
    {
      "anonymous": false,
      "inputs": [
        {
          "indexed": true,
          "internalType": "address",
          "name": "previousOwner",
          "type": "address"
        },
        {
          "indexed": true,
          "internalType": "address",
          "name": "newOwner",
          "type": "address"
        }
      ],
      "name": "OwnershipTransferred",
      "type": "event"
    },
    {
      "anonymous": false,
      "inputs": [
        {
          "indexed": false,
          "internalType": "address",
          "name": "account",
          "type": "address"
        }
      ],
      "name": "Paused",
      "type": "event"
    },
    {
      "anonymous": false,
      "inputs": [
        {
          "indexed": false,
          "internalType": "address",
          "name": "account",
          "type": "address"
        }
      ],
      "name": "Unpaused",
      "type": "event"
    },
    {
      "inputs": [
        {
          "internalType": "uint256",
          "name": "_newFrequence",
          "type": "uint256"
        }
      ],
      "name": "changeGameFrequence",
      "outputs": [],
      "stateMutability": "nonpayable",
      "type": "function"
    },
    {
      "inputs": [
        {
          "internalType": "address",
          "name": "_newAddress",
          "type": "address"
        }
      ],
      "name": "changeNpngTokenAddress",
      "outputs": [],
      "stateMutability": "nonpayable",
      "type": "function"
    },
    {
      "inputs": [
        {
          "internalType": "address",
          "name": "_newRecorderAddress",
          "type": "address"
        }
      ],
      "name": "changeRecorder",
      "outputs": [],
      "stateMutability": "nonpayable",
      "type": "function"
    },
    {
      "inputs": [
        {
          "internalType": "uint256",
          "name": "_idContest",
          "type": "uint256"
        }
      ],
      "name": "claimRewards",
      "outputs": [],
      "stateMutability": "nonpayable",
      "type": "function"
    },
    {
      "inputs": [
        {
          "internalType": "uint256",
          "name": "",
          "type": "uint256"
        }
      ],
      "name": "contestsResult",
      "outputs": [
        {
          "internalType": "uint256",
          "name": "idContest",
          "type": "uint256"
        },
        {
          "internalType": "address",
          "name": "player",
          "type": "address"
        },
        {
          "internalType": "uint256",
          "name": "score",
          "type": "uint256"
        }
      ],
      "stateMutability": "view",
      "type": "function"
    },
    {
      "inputs": [
        {
          "internalType": "uint256",
          "name": "_amount",
          "type": "uint256"
        }
      ],
      "name": "depositOnAave",
      "outputs": [],
      "stateMutability": "nonpayable",
      "type": "function"
    },
    {
      "inputs": [
        {
          "internalType": "uint256",
          "name": "_idContest",
          "type": "uint256"
        },
        {
          "internalType": "address",
          "name": "_player",
          "type": "address"
        }
      ],
      "name": "getContestRank",
      "outputs": [
        {
          "internalType": "uint256",
          "name": "",
          "type": "uint256"
        }
      ],
      "stateMutability": "view",
      "type": "function"
    },
    {
      "inputs": [],
      "name": "getEndOfContest",
      "outputs": [
        {
          "internalType": "uint256",
          "name": "",
          "type": "uint256"
        }
      ],
      "stateMutability": "view",
      "type": "function"
    },
    {
      "inputs": [],
      "name": "getIdContest",
      "outputs": [
        {
          "internalType": "uint256",
          "name": "",
          "type": "uint256"
        }
      ],
      "stateMutability": "view",
      "type": "function"
    },
    {
      "inputs": [],
      "name": "getListScores",
      "outputs": [
        {
          "components": [
            {
              "internalType": "uint256",
              "name": "idContest",
              "type": "uint256"
            },
            {
              "internalType": "address",
              "name": "player",
              "type": "address"
            },
            {
              "internalType": "uint256",
              "name": "score",
              "type": "uint256"
            }
          ],
          "internalType": "struct NpngGame.ContestsResult[]",
          "name": "",
          "type": "tuple[]"
        }
      ],
      "stateMutability": "view",
      "type": "function"
    },
    {
      "inputs": [
        {
          "internalType": "address",
          "name": "_account",
          "type": "address"
        }
      ],
      "name": "getMyBalance",
      "outputs": [
        {
          "internalType": "uint256",
          "name": "",
          "type": "uint256"
        }
      ],
      "stateMutability": "view",
      "type": "function"
    },
    {
      "inputs": [],
      "name": "getPlay",
      "outputs": [],
      "stateMutability": "nonpayable",
      "type": "function"
    },
    {
      "inputs": [
        {
          "internalType": "uint256",
          "name": "_idContest",
          "type": "uint256"
        },
        {
          "internalType": "address",
          "name": "_player",
          "type": "address"
        }
      ],
      "name": "getRewardsPerPlayer",
      "outputs": [
        {
          "internalType": "uint256",
          "name": "",
          "type": "uint256"
        }
      ],
      "stateMutability": "view",
      "type": "function"
    },
    {
      "inputs": [],
      "name": "interestEarned",
      "outputs": [
        {
          "internalType": "uint256",
          "name": "",
          "type": "uint256"
        }
      ],
      "stateMutability": "view",
      "type": "function"
    },
    {
      "inputs": [
        {
          "internalType": "uint256",
          "name": "",
          "type": "uint256"
        }
      ],
      "name": "numberOfPlayersPerContest",
      "outputs": [
        {
          "internalType": "uint256",
          "name": "",
          "type": "uint256"
        }
      ],
      "stateMutability": "view",
      "type": "function"
    },
    {
      "inputs": [],
      "name": "owner",
      "outputs": [
        {
          "internalType": "address",
          "name": "",
          "type": "address"
        }
      ],
      "stateMutability": "view",
      "type": "function"
    },
    {
      "inputs": [],
      "name": "pause",
      "outputs": [],
      "stateMutability": "nonpayable",
      "type": "function"
    },
    {
      "inputs": [],
      "name": "paused",
      "outputs": [
        {
          "internalType": "bool",
          "name": "",
          "type": "bool"
        }
      ],
      "stateMutability": "view",
      "type": "function"
    },
    {
      "inputs": [],
      "name": "renounceOwnership",
      "outputs": [],
      "stateMutability": "nonpayable",
      "type": "function"
    },
    {
      "inputs": [
        {
          "internalType": "address",
          "name": "_player",
          "type": "address"
        },
        {
          "internalType": "uint256",
          "name": "_score",
          "type": "uint256"
        }
      ],
      "name": "saveScore",
      "outputs": [],
      "stateMutability": "nonpayable",
      "type": "function"
    },
    {
      "inputs": [
        {
          "internalType": "address",
          "name": "newOwner",
          "type": "address"
        }
      ],
      "name": "transferOwnership",
      "outputs": [],
      "stateMutability": "nonpayable",
      "type": "function"
    },
    {
      "inputs": [],
      "name": "unpause",
      "outputs": [],
      "stateMutability": "nonpayable",
      "type": "function"
    },
    {
      "inputs": [
        {
          "internalType": "uint256",
          "name": "_amount",
          "type": "uint256"
        }
      ],
      "name": "withdraw",
      "outputs": [],
      "stateMutability": "nonpayable",
      "type": "function"
    }
  ],
  "bytecode": "0x60806040523480156200001157600080fd5b5060008060006101000a81548160ff0219169083151502179055506200004c62000040620001ff60201b60201c565b6200020760201b60201c565b42600681905550600160058190555061012c60048190555030600760006101000a81548173ffffffffffffffffffffffffffffffffffffffff021916908373ffffffffffffffffffffffffffffffffffffffff16021790555073a2025b15a1757311bfd68cb14eaefcc237af5b43600c60006101000a81548173ffffffffffffffffffffffffffffffffffffffff021916908373ffffffffffffffffffffffffffffffffffffffff16021790555073368eedf3f56ad10b9bc57eed4dac65b26bb667f6600f60006101000a81548173ffffffffffffffffffffffffffffffffffffffff021916908373ffffffffffffffffffffffffffffffffffffffff160217905550731ee669290939f8a8864497af3bc83728715265ff600d60006101000a81548173ffffffffffffffffffffffffffffffffffffffff021916908373ffffffffffffffffffffffffffffffffffffffff160217905550738ad6d963600f5c45dabd5ff6faa04d51a6d549f0600e60006101000a81548173ffffffffffffffffffffffffffffffffffffffff021916908373ffffffffffffffffffffffffffffffffffffffff160217905550620002cc565b600033905090565b60008060019054906101000a900473ffffffffffffffffffffffffffffffffffffffff16905081600060016101000a81548173ffffffffffffffffffffffffffffffffffffffff021916908373ffffffffffffffffffffffffffffffffffffffff1602179055508173ffffffffffffffffffffffffffffffffffffffff168173ffffffffffffffffffffffffffffffffffffffff167f8be0079c531659141344cd1fd0a4f28419497f9722a3daafe3b4186f6b6457e060405160405180910390a35050565b612dca80620002dc6000396000f3fe608060405234801561001057600080fd5b506004361061014d5760003560e01c80637e3ef7cd116100c3578063ddb01a521161007c578063ddb01a5214610342578063e064613e14610360578063e9d699901461037c578063f2fbee3f146103ac578063f2fde38b146103c8578063fd8d1909146103e45761014d565b80637e3ef7cd146102805780638347f536146102b05780638456cb59146102cc5780638da5cb5b146102d6578063c85785d6146102f4578063cad7ebce146103125761014d565b80632e1a7d4d116101155780632e1a7d4d146101f8578063374261ab146102145780633f4ba83a146102325780635c975abb1461023c578063695a65171461025a578063715018a6146102765761014d565b80630962ef79146101525780630bd5d2841461016e57806312b946bc146101785780631b922c09146101965780631eadace9146101c8575b600080fd5b61016c60048036038101906101679190611e65565b610400565b005b6101766105d8565b005b61018061066c565b60405161018d9190611ea1565b60405180910390f35b6101b060048036038101906101ab9190611e65565b610688565b6040516101bf93929190611efd565b60405180910390f35b6101e260048036038101906101dd9190611f60565b6106e2565b6040516101ef9190611ea1565b60405180910390f35b610212600480360381019061020d9190611e65565b610828565b005b61021c610b8f565b6040516102299190611ea1565b60405180910390f35b61023a610c3f565b005b610244610c51565b6040516102519190611fbb565b60405180910390f35b610274600480360381019061026f9190611fd6565b610c67565b005b61027e610fa1565b005b61029a60048036038101906102959190612016565b610fb5565b6040516102a79190611ea1565b60405180910390f35b6102ca60048036038101906102c59190612016565b610ffe565b005b6102d461104a565b005b6102de61105c565b6040516102eb9190612043565b60405180910390f35b6102fc611085565b6040516103099190611ea1565b60405180910390f35b61032c60048036038101906103279190611f60565b61108f565b6040516103399190611ea1565b60405180910390f35b61034a611232565b604051610357919061216d565b60405180910390f35b61037a60048036038101906103759190612016565b6112fb565b005b61039660048036038101906103919190611e65565b611347565b6040516103a39190611ea1565b60405180910390f35b6103c660048036038101906103c19190611e65565b61135f565b005b6103e260048036038101906103dd9190612016565b611371565b005b6103fe60048036038101906103f99190611e65565b6113f4565b005b6005548110610444576040517f08c379a000000000000000000000000000000000000000000000000000000000815260040161043b906121ec565b60405180910390fd5b60001515600360003373ffffffffffffffffffffffffffffffffffffffff1673ffffffffffffffffffffffffffffffffffffffff168152602001908152602001600020600083815260200190815260200160002060000160029054906101000a900460ff161515146104eb576040517f08c379a00000000000000000000000000000000000000000000000000000000081526004016104e290612258565b60405180910390fd5b60006104f782336106e2565b905080600860003373ffffffffffffffffffffffffffffffffffffffff1673ffffffffffffffffffffffffffffffffffffffff168152602001908152602001600020600082825461054891906122a7565b92505081905550806009600082825461056191906122a7565b925050819055506001600360003373ffffffffffffffffffffffffffffffffffffffff1673ffffffffffffffffffffffffffffffffffffffff168152602001908152602001600020600084815260200190815260200160002060000160026101000a81548160ff0219169083151502179055505050565b6000600860003373ffffffffffffffffffffffffffffffffffffffff1673ffffffffffffffffffffffffffffffffffffffff168152602001908152602001600020541161065a576040517f08c379a000000000000000000000000000000000000000000000000000000000815260040161065190612327565b60405180910390fd5b610662611974565b61066a6119c6565b565b60008060045460065461067f91906122a7565b90508091505090565b6001818154811061069857600080fd5b90600052602060002090600302016000915090508060000154908060010160009054906101000a900473ffffffffffffffffffffffffffffffffffffffff16908060020154905083565b60008060011515600360003373ffffffffffffffffffffffffffffffffffffffff1673ffffffffffffffffffffffffffffffffffffffff168152602001908152602001600020600086815260200190815260200160002060000160029054906101000a900460ff1615150361081957600061075d858561108f565b9050600a811161080e576000610771610b8f565b9050600560646001846107849190612347565b61078e91906123aa565b600161079a9190612347565b6107a4919061251b565b600954600860008873ffffffffffffffffffffffffffffffffffffffff1673ffffffffffffffffffffffffffffffffffffffff168152602001908152602001600020546107f191906123aa565b826107fc9190612566565b6108069190612566565b925050610813565b600091505b5061081e565b600090505b8091505092915050565b80600860003373ffffffffffffffffffffffffffffffffffffffff1673ffffffffffffffffffffffffffffffffffffffff1681526020019081526020016000205410156108aa576040517f08c379a00000000000000000000000000000000000000000000000000000000081526004016108a1906125f4565b60405180910390fd5b6005546002600a60003373ffffffffffffffffffffffffffffffffffffffff1673ffffffffffffffffffffffffffffffffffffffff168152602001908152602001600020546108f991906122a7565b111561093a576040517f08c379a000000000000000000000000000000000000000000000000000000000815260040161093190612686565b60405180910390fd5b600f60009054906101000a900473ffffffffffffffffffffffffffffffffffffffff1673ffffffffffffffffffffffffffffffffffffffff166369328dec600c60009054906101000a900473ffffffffffffffffffffffffffffffffffffffff1683306040518463ffffffff1660e01b81526004016109bb939291906126a6565b600060405180830381600087803b1580156109d557600080fd5b505af11580156109e9573d6000803e3d6000fd5b50505050600c60009054906101000a900473ffffffffffffffffffffffffffffffffffffffff1673ffffffffffffffffffffffffffffffffffffffff1663a9059cbb33836040518363ffffffff1660e01b8152600401610a4a9291906126dd565b6020604051808303816000875af1158015610a69573d6000803e3d6000fd5b505050506040513d601f19601f82011682018060405250810190610a8d9190612732565b5080600860003373ffffffffffffffffffffffffffffffffffffffff1673ffffffffffffffffffffffffffffffffffffffff1681526020019081526020016000206000828254610add9190612347565b925050819055508060096000828254610af69190612347565b92505081905550600e60009054906101000a900473ffffffffffffffffffffffffffffffffffffffff1673ffffffffffffffffffffffffffffffffffffffff16639dc29fac33836040518363ffffffff1660e01b8152600401610b5a9291906126dd565b600060405180830381600087803b158015610b7457600080fd5b505af1158015610b88573d6000803e3d6000fd5b5050505050565b6000600954600d60009054906101000a900473ffffffffffffffffffffffffffffffffffffffff1673ffffffffffffffffffffffffffffffffffffffff166370a08231306040518263ffffffff1660e01b8152600401610bef9190612043565b602060405180830381865afa158015610c0c573d6000803e3d6000fd5b505050506040513d601f19601f82011682018060405250810190610c309190612774565b610c3a9190612347565b905090565b610c47611b88565b610c4f611c06565b565b60008060009054906101000a900460ff16905090565b600760009054906101000a900473ffffffffffffffffffffffffffffffffffffffff1673ffffffffffffffffffffffffffffffffffffffff163373ffffffffffffffffffffffffffffffffffffffff1614610cf7576040517f08c379a0000000000000000000000000000000000000000000000000000000008152600401610cee90612813565b60405180910390fd5b60011515600360008473ffffffffffffffffffffffffffffffffffffffff1673ffffffffffffffffffffffffffffffffffffffff1681526020019081526020016000206000600554815260200190815260200160002060000160009054906101000a900460ff16151514610da0576040517f08c379a0000000000000000000000000000000000000000000000000000000008152600401610d979061287f565b60405180910390fd5b60001515600360008473ffffffffffffffffffffffffffffffffffffffff1673ffffffffffffffffffffffffffffffffffffffff1681526020019081526020016000206000600554815260200190815260200160002060000160019054906101000a900460ff16151514610e49576040517f08c379a0000000000000000000000000000000000000000000000000000000008152600401610e40906128eb565b60405180910390fd5b6001604051806060016040528060055481526020018473ffffffffffffffffffffffffffffffffffffffff1681526020018381525090806001815401808255809150506001900390600052602060002090600302016000909190919091506000820151816000015560208201518160010160006101000a81548173ffffffffffffffffffffffffffffffffffffffff021916908373ffffffffffffffffffffffffffffffffffffffff1602179055506040820151816002015550506001600360008473ffffffffffffffffffffffffffffffffffffffff1673ffffffffffffffffffffffffffffffffffffffff1681526020019081526020016000206000600554815260200190815260200160002060000160016101000a81548160ff0219169083151502179055506002600060055481526020019081526020016000206000815480929190610f989061290b565b91905055505050565b610fa9611b88565b610fb36000611c68565b565b6000600860008373ffffffffffffffffffffffffffffffffffffffff1673ffffffffffffffffffffffffffffffffffffffff168152602001908152602001600020549050919050565b611006611b88565b80600e60006101000a81548173ffffffffffffffffffffffffffffffffffffffff021916908373ffffffffffffffffffffffffffffffffffffffff16021790555050565b611052611b88565b61105a611d2d565b565b60008060019054906101000a900473ffffffffffffffffffffffffffffffffffffffff16905090565b6000600554905090565b6000806000806001905060005b60018054905081101561119557600181815481106110bd576110bc612953565b5b9060005260206000209060030201600001548714801561114d5750600181815481106110ec576110eb612953565b5b906000526020600020906003020160010160009054906101000a900473ffffffffffffffffffffffffffffffffffffffff1673ffffffffffffffffffffffffffffffffffffffff168673ffffffffffffffffffffffffffffffffffffffff16145b15611182578093506001818154811061116957611168612953565b5b9060005260206000209060030201600201549250611195565b808061118d9061290b565b91505061109c565b5060005b60018054905081101561122557600181815481106111ba576111b9612953565b5b906000526020600020906003020160000154871480156111fe5750600181815481106111e9576111e8612953565b5b90600052602060002090600302016002015483115b1561121257818061120e9061290b565b9250505b808061121d9061290b565b915050611199565b5080935050505092915050565b60606001805480602002602001604051908101604052809291908181526020016000905b828210156112f25783829060005260206000209060030201604051806060016040529081600082015481526020016001820160009054906101000a900473ffffffffffffffffffffffffffffffffffffffff1673ffffffffffffffffffffffffffffffffffffffff1673ffffffffffffffffffffffffffffffffffffffff16815260200160028201548152505081526020019060010190611256565b50505050905090565b611303611b88565b80600760006101000a81548173ffffffffffffffffffffffffffffffffffffffff021916908373ffffffffffffffffffffffffffffffffffffffff16021790555050565b60026020528060005260406000206000915090505481565b611367611b88565b8060048190555050565b611379611b88565b600073ffffffffffffffffffffffffffffffffffffffff168173ffffffffffffffffffffffffffffffffffffffff16036113e8576040517f08c379a00000000000000000000000000000000000000000000000000000000081526004016113df906129f4565b60405180910390fd5b6113f181611c68565b50565b600c60009054906101000a900473ffffffffffffffffffffffffffffffffffffffff1673ffffffffffffffffffffffffffffffffffffffff166370a08231336040518263ffffffff1660e01b815260040161144f9190612043565b602060405180830381865afa15801561146c573d6000803e3d6000fd5b505050506040513d601f19601f820116820180604052508101906114909190612774565b8111156114d2576040517f08c379a00000000000000000000000000000000000000000000000000000000081526004016114c990612a60565b60405180910390fd5b600c60009054906101000a900473ffffffffffffffffffffffffffffffffffffffff1673ffffffffffffffffffffffffffffffffffffffff1663dd62ed3e33306040518363ffffffff1660e01b815260040161152f929190612a80565b602060405180830381865afa15801561154c573d6000803e3d6000fd5b505050506040513d601f19601f820116820180604052508101906115709190612774565b8111156115b2576040517f08c379a00000000000000000000000000000000000000000000000000000000081526004016115a990612af5565b60405180910390fd5b600c60009054906101000a900473ffffffffffffffffffffffffffffffffffffffff1673ffffffffffffffffffffffffffffffffffffffff166323b872dd3330846040518463ffffffff1660e01b815260040161161193929190612b15565b6020604051808303816000875af1158015611630573d6000803e3d6000fd5b505050506040513d601f19601f820116820180604052508101906116549190612732565b50600c60009054906101000a900473ffffffffffffffffffffffffffffffffffffffff1673ffffffffffffffffffffffffffffffffffffffff1663095ea7b3600f60009054906101000a900473ffffffffffffffffffffffffffffffffffffffff16836040518363ffffffff1660e01b81526004016116d49291906126dd565b6020604051808303816000875af11580156116f3573d6000803e3d6000fd5b505050506040513d601f19601f820116820180604052508101906117179190612732565b50600f60009054906101000a900473ffffffffffffffffffffffffffffffffffffffff1673ffffffffffffffffffffffffffffffffffffffff1663617ba037600c60009054906101000a900473ffffffffffffffffffffffffffffffffffffffff16833060006040518563ffffffff1660e01b815260040161179c9493929190612b9f565b600060405180830381600087803b1580156117b657600080fd5b505af11580156117ca573d6000803e3d6000fd5b5050505080600860003373ffffffffffffffffffffffffffffffffffffffff1673ffffffffffffffffffffffffffffffffffffffff168152602001908152602001600020600082825461181d91906122a7565b92505081905550806009600082825461183691906122a7565b92505081905550600e60009054906101000a900473ffffffffffffffffffffffffffffffffffffffff1673ffffffffffffffffffffffffffffffffffffffff166340c10f1933836040518363ffffffff1660e01b815260040161189a9291906126dd565b600060405180830381600087803b1580156118b457600080fd5b505af11580156118c8573d6000803e3d6000fd5b505050506118d4611974565b600554600a60003373ffffffffffffffffffffffffffffffffffffffff1673ffffffffffffffffffffffffffffffffffffffff1681526020019081526020016000208190555080600b60003373ffffffffffffffffffffffffffffffffffffffff1673ffffffffffffffffffffffffffffffffffffffff168152602001908152602001600020600060055481526020019081526020016000208190555050565b600042905060006004546006548361198c9190612347565b61199691906123aa565b905060008111156119c25780600560008282546119b391906122a7565b92505081905550816006819055505b5050565b60001515600360003373ffffffffffffffffffffffffffffffffffffffff1673ffffffffffffffffffffffffffffffffffffffff1681526020019081526020016000206000600554815260200190815260200160002060000160009054906101000a900460ff16151514611a6f576040517f08c379a0000000000000000000000000000000000000000000000000000000008152600401611a6690612c30565b60405180910390fd5b60001515600360003373ffffffffffffffffffffffffffffffffffffffff1673ffffffffffffffffffffffffffffffffffffffff1681526020019081526020016000206000600554815260200190815260200160002060000160019054906101000a900460ff16151514611b18576040517f08c379a0000000000000000000000000000000000000000000000000000000008152600401611b0f906128eb565b60405180910390fd5b6001600360003373ffffffffffffffffffffffffffffffffffffffff1673ffffffffffffffffffffffffffffffffffffffff1681526020019081526020016000206000600554815260200190815260200160002060000160006101000a81548160ff021916908315150217905550565b611b90611d8f565b73ffffffffffffffffffffffffffffffffffffffff16611bae61105c565b73ffffffffffffffffffffffffffffffffffffffff1614611c04576040517f08c379a0000000000000000000000000000000000000000000000000000000008152600401611bfb90612c9c565b60405180910390fd5b565b611c0e611d97565b60008060006101000a81548160ff0219169083151502179055507f5db9ee0a495bf2e6ff9c91a7834c1ba4fdd244a5e8aa4e537bd38aeae4b073aa611c51611d8f565b604051611c5e9190612043565b60405180910390a1565b60008060019054906101000a900473ffffffffffffffffffffffffffffffffffffffff16905081600060016101000a81548173ffffffffffffffffffffffffffffffffffffffff021916908373ffffffffffffffffffffffffffffffffffffffff1602179055508173ffffffffffffffffffffffffffffffffffffffff168173ffffffffffffffffffffffffffffffffffffffff167f8be0079c531659141344cd1fd0a4f28419497f9722a3daafe3b4186f6b6457e060405160405180910390a35050565b611d35611de0565b60016000806101000a81548160ff0219169083151502179055507f62e78cea01bee320cd4e420270b5ea74000d11b0c9f74754ebdbfc544b05a258611d78611d8f565b604051611d859190612043565b60405180910390a1565b600033905090565b611d9f610c51565b611dde576040517f08c379a0000000000000000000000000000000000000000000000000000000008152600401611dd590612d08565b60405180910390fd5b565b611de8610c51565b15611e28576040517f08c379a0000000000000000000000000000000000000000000000000000000008152600401611e1f90612d74565b60405180910390fd5b565b600080fd5b6000819050919050565b611e4281611e2f565b8114611e4d57600080fd5b50565b600081359050611e5f81611e39565b92915050565b600060208284031215611e7b57611e7a611e2a565b5b6000611e8984828501611e50565b91505092915050565b611e9b81611e2f565b82525050565b6000602082019050611eb66000830184611e92565b92915050565b600073ffffffffffffffffffffffffffffffffffffffff82169050919050565b6000611ee782611ebc565b9050919050565b611ef781611edc565b82525050565b6000606082019050611f126000830186611e92565b611f1f6020830185611eee565b611f2c6040830184611e92565b949350505050565b611f3d81611edc565b8114611f4857600080fd5b50565b600081359050611f5a81611f34565b92915050565b60008060408385031215611f7757611f76611e2a565b5b6000611f8585828601611e50565b9250506020611f9685828601611f4b565b9150509250929050565b60008115159050919050565b611fb581611fa0565b82525050565b6000602082019050611fd06000830184611fac565b92915050565b60008060408385031215611fed57611fec611e2a565b5b6000611ffb85828601611f4b565b925050602061200c85828601611e50565b9150509250929050565b60006020828403121561202c5761202b611e2a565b5b600061203a84828501611f4b565b91505092915050565b60006020820190506120586000830184611eee565b92915050565b600081519050919050565b600082825260208201905092915050565b6000819050602082019050919050565b61209381611e2f565b82525050565b6120a281611edc565b82525050565b6060820160008201516120be600085018261208a565b5060208201516120d16020850182612099565b5060408201516120e4604085018261208a565b50505050565b60006120f683836120a8565b60608301905092915050565b6000602082019050919050565b600061211a8261205e565b6121248185612069565b935061212f8361207a565b8060005b8381101561216057815161214788826120ea565b975061215283612102565b925050600181019050612133565b5085935050505092915050565b60006020820190508181036000830152612187818461210f565b905092915050565b600082825260208201905092915050565b7f54686520636f6e74657374206973206e6f7420636c6f73656400000000000000600082015250565b60006121d660198361218f565b91506121e1826121a0565b602082019050919050565b60006020820190508181036000830152612205816121c9565b9050919050565b7f596f7520616c726561647920636c61696d656400000000000000000000000000600082015250565b600061224260138361218f565b915061224d8261220c565b602082019050919050565b6000602082019050818103600083015261227181612235565b9050919050565b7f4e487b7100000000000000000000000000000000000000000000000000000000600052601160045260246000fd5b60006122b282611e2f565b91506122bd83611e2f565b92508282019050808211156122d5576122d4612278565b5b92915050565b7f4e6f206465706f7369742c204e6f2047616d6521000000000000000000000000600082015250565b600061231160148361218f565b915061231c826122db565b602082019050919050565b6000602082019050818103600083015261234081612304565b9050919050565b600061235282611e2f565b915061235d83611e2f565b925082820390508181111561237557612374612278565b5b92915050565b7f4e487b7100000000000000000000000000000000000000000000000000000000600052601260045260246000fd5b60006123b582611e2f565b91506123c083611e2f565b9250826123d0576123cf61237b565b5b828204905092915050565b60008160011c9050919050565b6000808291508390505b60018511156124325780860481111561240e5761240d612278565b5b600185161561241d5780820291505b808102905061242b856123db565b94506123f2565b94509492505050565b60008261244b5760019050612507565b816124595760009050612507565b816001811461246f5760028114612479576124a8565b6001915050612507565b60ff84111561248b5761248a612278565b5b8360020a9150848211156124a2576124a1612278565b5b50612507565b5060208310610133831016604e8410600b84101617156124dd5782820a9050838111156124d8576124d7612278565b5b612507565b6124ea84848460016123e8565b9250905081840481111561250157612500612278565b5b81810290505b9392505050565b600060ff82169050919050565b600061252682611e2f565b91506125318361250e565b925061255e7fffffffffffffffffffffffffffffffffffffffffffffffffffffffffffffffff848461243b565b905092915050565b600061257182611e2f565b915061257c83611e2f565b925082820261258a81611e2f565b915082820484148315176125a1576125a0612278565b5b5092915050565b7f496e73756666696369656e742062616c616e6365000000000000000000000000600082015250565b60006125de60148361218f565b91506125e9826125a8565b602082019050919050565b6000602082019050818103600083015261260d816125d1565b9050919050565b7f506c656173652077616974203220636f6e746573747320616674657220796f7560008201527f72206465706f73697420746f2077697464726177000000000000000000000000602082015250565b600061267060348361218f565b915061267b82612614565b604082019050919050565b6000602082019050818103600083015261269f81612663565b9050919050565b60006060820190506126bb6000830186611eee565b6126c86020830185611e92565b6126d56040830184611eee565b949350505050565b60006040820190506126f26000830185611eee565b6126ff6020830184611e92565b9392505050565b61270f81611fa0565b811461271a57600080fd5b50565b60008151905061272c81612706565b92915050565b60006020828403121561274857612747611e2a565b5b60006127568482850161271d565b91505092915050565b60008151905061276e81611e39565b92915050565b60006020828403121561278a57612789611e2a565b5b60006127988482850161275f565b91505092915050565b7f596f7520617265206e6f7420616c6c6f77656420746f2073617665206120736360008201527f6f72652100000000000000000000000000000000000000000000000000000000602082015250565b60006127fd60248361218f565b9150612808826127a1565b604082019050919050565b6000602082019050818103600083015261282c816127f0565b9050919050565b7f4e6f20726571756573742066726f6d20706c6179657200000000000000000000600082015250565b600061286960168361218f565b915061287482612833565b602082019050919050565b600060208201905081810360008301526128988161285c565b9050919050565b7f506c6179657220616c726561647920706c617965640000000000000000000000600082015250565b60006128d560158361218f565b91506128e08261289f565b602082019050919050565b60006020820190508181036000830152612904816128c8565b9050919050565b600061291682611e2f565b91507fffffffffffffffffffffffffffffffffffffffffffffffffffffffffffffffff820361294857612947612278565b5b600182019050919050565b7f4e487b7100000000000000000000000000000000000000000000000000000000600052603260045260246000fd5b7f4f776e61626c653a206e6577206f776e657220697320746865207a65726f206160008201527f6464726573730000000000000000000000000000000000000000000000000000602082015250565b60006129de60268361218f565b91506129e982612982565b604082019050919050565b60006020820190508181036000830152612a0d816129d1565b9050919050565b7f496e737566666963656e7420616d6f756e74206f662055534443000000000000600082015250565b6000612a4a601a8361218f565b9150612a5582612a14565b602082019050919050565b60006020820190508181036000830152612a7981612a3d565b9050919050565b6000604082019050612a956000830185611eee565b612aa26020830184611eee565b9392505050565b7f496e73756666696369656e7420616c6c6f776564205553444300000000000000600082015250565b6000612adf60198361218f565b9150612aea82612aa9565b602082019050919050565b60006020820190508181036000830152612b0e81612ad2565b9050919050565b6000606082019050612b2a6000830186611eee565b612b376020830185611eee565b612b446040830184611e92565b949350505050565b6000819050919050565b600061ffff82169050919050565b6000819050919050565b6000612b89612b84612b7f84612b4c565b612b64565b612b56565b9050919050565b612b9981612b6e565b82525050565b6000608082019050612bb46000830187611eee565b612bc16020830186611e92565b612bce6040830185611eee565b612bdb6060830184612b90565b95945050505050565b7f596f7520616c7265616479207265717565737465640000000000000000000000600082015250565b6000612c1a60158361218f565b9150612c2582612be4565b602082019050919050565b60006020820190508181036000830152612c4981612c0d565b9050919050565b7f4f776e61626c653a2063616c6c6572206973206e6f7420746865206f776e6572600082015250565b6000612c8660208361218f565b9150612c9182612c50565b602082019050919050565b60006020820190508181036000830152612cb581612c79565b9050919050565b7f5061757361626c653a206e6f7420706175736564000000000000000000000000600082015250565b6000612cf260148361218f565b9150612cfd82612cbc565b602082019050919050565b60006020820190508181036000830152612d2181612ce5565b9050919050565b7f5061757361626c653a2070617573656400000000000000000000000000000000600082015250565b6000612d5e60108361218f565b9150612d6982612d28565b602082019050919050565b60006020820190508181036000830152612d8d81612d51565b905091905056fea2646970667358221220e2d1c68838b3ab44157816c00cf43a9df94980adaed1864375e071bd6e0a9c7b64736f6c63430008110033",
  "linkReferences": {},
  "deployedLinkReferences": {}
}