{
  "_format": "hh-sol-artifact-1",
  "contractName": "NpngPool",
  "sourceName": "contracts/NpngPool.sol",
  "abi": [
    {
      "inputs": [],
      "stateMutability": "nonpayable",
      "type": "constructor"
    },
    {
      "anonymous": false,
      "inputs": [
        {
          "indexed": true,
          "internalType": "address",
          "name": "previousOwner",
          "type": "address"
        },
        {
          "indexed": true,
          "internalType": "address",
          "name": "newOwner",
          "type": "address"
        }
      ],
      "name": "OwnershipTransferred",
      "type": "event"
    },
    {
      "inputs": [
        {
          "internalType": "uint256",
          "name": "_idContest",
          "type": "uint256"
        },
        {
          "internalType": "address",
          "name": "_player",
          "type": "address"
        }
      ],
      "name": "calculateRewards",
      "outputs": [
        {
          "internalType": "uint256",
          "name": "",
          "type": "uint256"
        }
      ],
      "stateMutability": "view",
      "type": "function"
    },
    {
      "inputs": [
        {
          "internalType": "uint256",
          "name": "_newFrequence",
          "type": "uint256"
        }
      ],
      "name": "changeGameFrequence",
      "outputs": [],
      "stateMutability": "nonpayable",
      "type": "function"
    },
    {
      "inputs": [
        {
          "internalType": "address",
          "name": "_newAddress",
          "type": "address"
        }
      ],
      "name": "changeNpngTokenAddress",
      "outputs": [],
      "stateMutability": "nonpayable",
      "type": "function"
    },
    {
      "inputs": [],
      "name": "checkGamePlayed",
      "outputs": [
        {
          "internalType": "bool",
          "name": "",
          "type": "bool"
        }
      ],
      "stateMutability": "view",
      "type": "function"
    },
    {
      "inputs": [
        {
          "internalType": "uint256",
          "name": "_idContest",
          "type": "uint256"
        },
        {
          "internalType": "address",
          "name": "_player",
          "type": "address"
        }
      ],
      "name": "checkPlayerRank",
      "outputs": [
        {
          "internalType": "uint256",
          "name": "",
          "type": "uint256"
        }
      ],
      "stateMutability": "view",
      "type": "function"
    },
    {
      "inputs": [
        {
          "internalType": "uint256",
          "name": "",
          "type": "uint256"
        }
      ],
      "name": "contestsResult",
      "outputs": [
        {
          "internalType": "uint256",
          "name": "idContest",
          "type": "uint256"
        },
        {
          "internalType": "address",
          "name": "player",
          "type": "address"
        },
        {
          "internalType": "uint256",
          "name": "score",
          "type": "uint256"
        }
      ],
      "stateMutability": "view",
      "type": "function"
    },
    {
      "inputs": [
        {
          "internalType": "uint256",
          "name": "_amount",
          "type": "uint256"
        }
      ],
      "name": "depositOnAave",
      "outputs": [],
      "stateMutability": "nonpayable",
      "type": "function"
    },
    {
      "inputs": [],
      "name": "getCurrentIdContest",
      "outputs": [
        {
          "internalType": "uint256",
          "name": "",
          "type": "uint256"
        }
      ],
      "stateMutability": "view",
      "type": "function"
    },
    {
      "inputs": [],
      "name": "getGameFrequence",
      "outputs": [
        {
          "internalType": "uint256",
          "name": "",
          "type": "uint256"
        }
      ],
      "stateMutability": "view",
      "type": "function"
    },
    {
      "inputs": [
        {
          "internalType": "address",
          "name": "_account",
          "type": "address"
        }
      ],
      "name": "getMyBalance",
      "outputs": [
        {
          "internalType": "uint256",
          "name": "",
          "type": "uint256"
        }
      ],
      "stateMutability": "view",
      "type": "function"
    },
    {
      "inputs": [],
      "name": "getPlay",
      "outputs": [],
      "stateMutability": "nonpayable",
      "type": "function"
    },
    {
      "inputs": [],
      "name": "getScore",
      "outputs": [
        {
          "components": [
            {
              "internalType": "uint256",
              "name": "idContest",
              "type": "uint256"
            },
            {
              "internalType": "address",
              "name": "player",
              "type": "address"
            },
            {
              "internalType": "uint256",
              "name": "score",
              "type": "uint256"
            }
          ],
          "internalType": "struct NpngGame.ContestsResult[]",
          "name": "",
          "type": "tuple[]"
        }
      ],
      "stateMutability": "view",
      "type": "function"
    },
    {
      "inputs": [
        {
          "internalType": "uint256",
          "name": "_idContest",
          "type": "uint256"
        }
      ],
      "name": "getTopPlayers",
      "outputs": [
        {
          "components": [
            {
              "internalType": "uint256",
              "name": "idContest",
              "type": "uint256"
            },
            {
              "internalType": "address",
              "name": "player",
              "type": "address"
            },
            {
              "internalType": "uint256",
              "name": "score",
              "type": "uint256"
            }
          ],
          "internalType": "struct NpngGame.ContestsResult[10]",
          "name": "",
          "type": "tuple[10]"
        }
      ],
      "stateMutability": "view",
      "type": "function"
    },
    {
      "inputs": [
        {
          "internalType": "uint256",
          "name": "_idContest",
          "type": "uint256"
        }
      ],
      "name": "getTotalAmountTopPlayers",
      "outputs": [
        {
          "internalType": "uint256",
          "name": "",
          "type": "uint256"
        }
      ],
      "stateMutability": "view",
      "type": "function"
    },
    {
      "inputs": [],
      "name": "interestEarned",
      "outputs": [
        {
          "internalType": "uint256",
          "name": "",
          "type": "uint256"
        }
      ],
      "stateMutability": "view",
      "type": "function"
    },
    {
      "inputs": [
        {
          "internalType": "uint256",
          "name": "",
          "type": "uint256"
        }
      ],
      "name": "numberOfPlayersPerContest",
      "outputs": [
        {
          "internalType": "uint256",
          "name": "",
          "type": "uint256"
        }
      ],
      "stateMutability": "view",
      "type": "function"
    },
    {
      "inputs": [],
      "name": "owner",
      "outputs": [
        {
          "internalType": "address",
          "name": "",
          "type": "address"
        }
      ],
      "stateMutability": "view",
      "type": "function"
    },
    {
      "inputs": [],
      "name": "renounceOwnership",
      "outputs": [],
      "stateMutability": "nonpayable",
      "type": "function"
    },
    {
      "inputs": [
        {
          "internalType": "address",
          "name": "player",
          "type": "address"
        },
        {
          "internalType": "uint256",
          "name": "score",
          "type": "uint256"
        }
      ],
      "name": "saveScore",
      "outputs": [],
      "stateMutability": "nonpayable",
      "type": "function"
    },
    {
      "inputs": [
        {
          "internalType": "address",
          "name": "newOwner",
          "type": "address"
        }
      ],
      "name": "transferOwnership",
      "outputs": [],
      "stateMutability": "nonpayable",
      "type": "function"
    },
    {
      "inputs": [],
      "name": "updateIdContest",
      "outputs": [],
      "stateMutability": "nonpayable",
      "type": "function"
    },
    {
      "inputs": [
        {
          "internalType": "uint256",
          "name": "_amount",
          "type": "uint256"
        }
      ],
      "name": "withdraw",
      "outputs": [],
      "stateMutability": "nonpayable",
      "type": "function"
    }
  ],
  "bytecode": "0x60806040523480156200001157600080fd5b506200003262000026620001ae60201b60201c565b620001b660201b60201c565b4260078190555060075460088190555060016006819055506201518060058190555073a2025b15a1757311bfd68cb14eaefcc237af5b43600b60006101000a81548173ffffffffffffffffffffffffffffffffffffffff021916908373ffffffffffffffffffffffffffffffffffffffff160217905550731ee669290939f8a8864497af3bc83728715265ff600c60006101000a81548173ffffffffffffffffffffffffffffffffffffffff021916908373ffffffffffffffffffffffffffffffffffffffff16021790555073368eedf3f56ad10b9bc57eed4dac65b26bb667f6600e60006101000a81548173ffffffffffffffffffffffffffffffffffffffff021916908373ffffffffffffffffffffffffffffffffffffffff160217905550738ad6d963600f5c45dabd5ff6faa04d51a6d549f0600d60006101000a81548173ffffffffffffffffffffffffffffffffffffffff021916908373ffffffffffffffffffffffffffffffffffffffff1602179055506200027a565b600033905090565b60008060009054906101000a900473ffffffffffffffffffffffffffffffffffffffff169050816000806101000a81548173ffffffffffffffffffffffffffffffffffffffff021916908373ffffffffffffffffffffffffffffffffffffffff1602179055508173ffffffffffffffffffffffffffffffffffffffff168173ffffffffffffffffffffffffffffffffffffffff167f8be0079c531659141344cd1fd0a4f28419497f9722a3daafe3b4186f6b6457e060405160405180910390a35050565b612a64806200028a6000396000f3fe608060405234801561001057600080fd5b50600436106101425760003560e01c80637e3ef7cd116100b8578063ba3c00671161007c578063ba3c00671461032f578063e9d699901461035f578063f2fbee3f1461038f578063f2fde38b146103ab578063fc04ca94146103c7578063fd8d1909146103f757610142565b80637e3ef7cd146102775780638347f536146102a75780638c6ba47b146102c35780638da5cb5b146102f3578063afd820671461031157610142565b8063374261ab1161010a578063374261ab146101ed5780635f9943d31461020b57806363072aab14610229578063695a651714610247578063715018a614610263578063771baacb1461026d57610142565b806305e81bda146101475780630bd5d28414610165578063176864221461016f5780631b922c091461019f5780632e1a7d4d146101d1575b600080fd5b61014f610413565b60405161015c9190611e9b565b60405180910390f35b61016d61041d565b005b61018960048036038101906101849190611f45565b610492565b6040516101969190611e9b565b60405180910390f35b6101b960048036038101906101b49190611f85565b61054a565b6040516101c893929190611fc1565b60405180910390f35b6101eb60048036038101906101e69190611f85565b6105a4565b005b6101f56109bd565b6040516102029190611e9b565b60405180910390f35b610213610aaa565b6040516102209190612013565b60405180910390f35b610231610b1b565b60405161023e9190611e9b565b60405180910390f35b610261600480360381019061025c919061202e565b610b25565b005b61026b610c2f565b005b610275610c43565b005b610291600480360381019061028c919061206e565b610c95565b60405161029e9190611e9b565b60405180910390f35b6102c160048036038101906102bc919061206e565b610cde565b005b6102dd60048036038101906102d89190611f45565b610d2a565b6040516102ea9190611e9b565b60405180910390f35b6102fb610dc6565b604051610308919061209b565b60405180910390f35b610319610def565b60405161032691906121c5565b60405180910390f35b61034960048036038101906103449190611f85565b610eb8565b604051610356919061226b565b60405180910390f35b61037960048036038101906103749190611f85565b61161a565b6040516103869190611e9b565b60405180910390f35b6103a960048036038101906103a49190611f85565b611632565b005b6103c560048036038101906103c0919061206e565b611644565b005b6103e160048036038101906103dc9190611f85565b6116c7565b6040516103ee9190611e9b565b60405180910390f35b610411600480360381019061040c9190611f85565b61172e565b005b6000600554905090565b610425610c43565b6001600260003373ffffffffffffffffffffffffffffffffffffffff1673ffffffffffffffffffffffffffffffffffffffff1681526020019081526020016000206000600654815260200190815260200160002060006101000a81548160ff021916908315150217905550565b60008061049f8484610d2a565b90506000600960008573ffffffffffffffffffffffffffffffffffffffff1673ffffffffffffffffffffffffffffffffffffffff16815260200190815260200160002054905060006104f0866116c7565b90506000600560648561050391906122e5565b600161050f9190612316565b610519919061248a565b608b838561052791906122e5565b61053191906124d5565b61053b91906124d5565b90508094505050505092915050565b6001818154811061055a57600080fd5b90600052602060002090600302016000915090508060000154908060010160009054906101000a900473ffffffffffffffffffffffffffffffffffffffff16908060020154905083565b80600960003373ffffffffffffffffffffffffffffffffffffffff1673ffffffffffffffffffffffffffffffffffffffff168152602001908152602001600020541015610626576040517f08c379a000000000000000000000000000000000000000000000000000000000815260040161061d90612574565b60405180910390fd5b6002610630610b1b565b61063a9190612594565b600a60003373ffffffffffffffffffffffffffffffffffffffff1673ffffffffffffffffffffffffffffffffffffffff1681526020019081526020016000205411156106bb576040517f08c379a00000000000000000000000000000000000000000000000000000000081526004016106b29061263a565b60405180910390fd5b600e60009054906101000a900473ffffffffffffffffffffffffffffffffffffffff1673ffffffffffffffffffffffffffffffffffffffff166369328dec600b60009054906101000a900473ffffffffffffffffffffffffffffffffffffffff1683306040518463ffffffff1660e01b815260040161073c9392919061265a565b600060405180830381600087803b15801561075657600080fd5b505af115801561076a573d6000803e3d6000fd5b50505050600b60009054906101000a900473ffffffffffffffffffffffffffffffffffffffff1673ffffffffffffffffffffffffffffffffffffffff1663a9059cbb33836040518363ffffffff1660e01b81526004016107cb929190612691565b6020604051808303816000875af11580156107ea573d6000803e3d6000fd5b505050506040513d601f19601f8201168201806040525081019061080e91906126e6565b5080600960003373ffffffffffffffffffffffffffffffffffffffff1673ffffffffffffffffffffffffffffffffffffffff1681526020019081526020016000205461085a9190612316565b600960003373ffffffffffffffffffffffffffffffffffffffff1673ffffffffffffffffffffffffffffffffffffffff1681526020019081526020016000208190555080600960003073ffffffffffffffffffffffffffffffffffffffff1673ffffffffffffffffffffffffffffffffffffffff168152602001908152602001600020546108e89190612316565b600960003073ffffffffffffffffffffffffffffffffffffffff1673ffffffffffffffffffffffffffffffffffffffff16815260200190815260200160002081905550600d60009054906101000a900473ffffffffffffffffffffffffffffffffffffffff1673ffffffffffffffffffffffffffffffffffffffff16639dc29fac33836040518363ffffffff1660e01b8152600401610988929190612691565b600060405180830381600087803b1580156109a257600080fd5b505af11580156109b6573d6000803e3d6000fd5b5050505050565b6000600960003073ffffffffffffffffffffffffffffffffffffffff1673ffffffffffffffffffffffffffffffffffffffff16815260200190815260200160002054600c60009054906101000a900473ffffffffffffffffffffffffffffffffffffffff1673ffffffffffffffffffffffffffffffffffffffff166370a08231306040518263ffffffff1660e01b8152600401610a5a919061209b565b602060405180830381865afa158015610a77573d6000803e3d6000fd5b505050506040513d601f19601f82011682018060405250810190610a9b9190612728565b610aa59190612316565b905090565b600080610ab5610b1b565b9050600260003373ffffffffffffffffffffffffffffffffffffffff1673ffffffffffffffffffffffffffffffffffffffff168152602001908152602001600020600082815260200190815260200160002060009054906101000a900460ff1691505090565b6000600654905090565b610b2d611cd3565b610b35610c43565b6001604051806060016040528060065481526020018473ffffffffffffffffffffffffffffffffffffffff1681526020018381525090806001815401808255809150506001900390600052602060002090600302016000909190919091506000820151816000015560208201518160010160006101000a81548173ffffffffffffffffffffffffffffffffffffffff021916908373ffffffffffffffffffffffffffffffffffffffff160217905550604082015181600201555050600160036000600654815260200190815260200160002054610c129190612594565b600360006006548152602001908152602001600020819055505050565b610c37611cd3565b610c416000611d51565b565b6000429050600060055460085483610c5b9190612316565b610c6591906122e5565b90506000811115610c91578060066000828254610c829190612594565b92505081905550816008819055505b5050565b6000600960008373ffffffffffffffffffffffffffffffffffffffff1673ffffffffffffffffffffffffffffffffffffffff168152602001908152602001600020549050919050565b610ce6611cd3565b80600d60006101000a81548173ffffffffffffffffffffffffffffffffffffffff021916908373ffffffffffffffffffffffffffffffffffffffff16021790555050565b600080610d3684610eb8565b90506000805b600a811015610dba578281600a8110610d5857610d57612755565b5b60200201516020015173ffffffffffffffffffffffffffffffffffffffff168573ffffffffffffffffffffffffffffffffffffffff1603610da757600181610da09190612594565b9150610dba565b8080610db290612784565b915050610d3c565b50809250505092915050565b60008060009054906101000a900473ffffffffffffffffffffffffffffffffffffffff16905090565b60606001805480602002602001604051908101604052809291908181526020016000905b82821015610eaf5783829060005260206000209060030201604051806060016040529081600082015481526020016001820160009054906101000a900473ffffffffffffffffffffffffffffffffffffffff1673ffffffffffffffffffffffffffffffffffffffff1673ffffffffffffffffffffffffffffffffffffffff16815260200160028201548152505081526020019060010190610e13565b50505050905090565b610ec0611e1d565b610ec8611e1d565b60005b600a811015610f3657604051806060016040528085815260200161dead73ffffffffffffffffffffffffffffffffffffffff16815260200160008152508282600a8110610f1b57610f1a612755565b5b60200201819052508080610f2e90612784565b915050610ecb565b5060005b600a811015611610576000826009600a8110610f5957610f58612755565b5b6020020151905060005b6001805490508110156115df578560018281548110610f8557610f84612755565b5b9060005260206000209060030201600001541480156110315750836000600a8110610fb357610fb2612755565b5b60200201516020015173ffffffffffffffffffffffffffffffffffffffff1660018281548110610fe657610fe5612755565b5b906000526020600020906003020160010160009054906101000a900473ffffffffffffffffffffffffffffffffffffffff1673ffffffffffffffffffffffffffffffffffffffff1614155b80156110ca5750836001600a811061104c5761104b612755565b5b60200201516020015173ffffffffffffffffffffffffffffffffffffffff166001828154811061107f5761107e612755565b5b906000526020600020906003020160010160009054906101000a900473ffffffffffffffffffffffffffffffffffffffff1673ffffffffffffffffffffffffffffffffffffffff1614155b80156111635750836002600a81106110e5576110e4612755565b5b60200201516020015173ffffffffffffffffffffffffffffffffffffffff166001828154811061111857611117612755565b5b906000526020600020906003020160010160009054906101000a900473ffffffffffffffffffffffffffffffffffffffff1673ffffffffffffffffffffffffffffffffffffffff1614155b80156111fc5750836003600a811061117e5761117d612755565b5b60200201516020015173ffffffffffffffffffffffffffffffffffffffff16600182815481106111b1576111b0612755565b5b906000526020600020906003020160010160009054906101000a900473ffffffffffffffffffffffffffffffffffffffff1673ffffffffffffffffffffffffffffffffffffffff1614155b80156112955750836004600a811061121757611216612755565b5b60200201516020015173ffffffffffffffffffffffffffffffffffffffff166001828154811061124a57611249612755565b5b906000526020600020906003020160010160009054906101000a900473ffffffffffffffffffffffffffffffffffffffff1673ffffffffffffffffffffffffffffffffffffffff1614155b801561132e5750836005600a81106112b0576112af612755565b5b60200201516020015173ffffffffffffffffffffffffffffffffffffffff16600182815481106112e3576112e2612755565b5b906000526020600020906003020160010160009054906101000a900473ffffffffffffffffffffffffffffffffffffffff1673ffffffffffffffffffffffffffffffffffffffff1614155b80156113c75750836006600a811061134957611348612755565b5b60200201516020015173ffffffffffffffffffffffffffffffffffffffff166001828154811061137c5761137b612755565b5b906000526020600020906003020160010160009054906101000a900473ffffffffffffffffffffffffffffffffffffffff1673ffffffffffffffffffffffffffffffffffffffff1614155b80156114605750836007600a81106113e2576113e1612755565b5b60200201516020015173ffffffffffffffffffffffffffffffffffffffff166001828154811061141557611414612755565b5b906000526020600020906003020160010160009054906101000a900473ffffffffffffffffffffffffffffffffffffffff1673ffffffffffffffffffffffffffffffffffffffff1614155b80156114f95750836008600a811061147b5761147a612755565b5b60200201516020015173ffffffffffffffffffffffffffffffffffffffff16600182815481106114ae576114ad612755565b5b906000526020600020906003020160010160009054906101000a900473ffffffffffffffffffffffffffffffffffffffff1673ffffffffffffffffffffffffffffffffffffffff1614155b801561152d575081604001516001828154811061151957611518612755565b5b906000526020600020906003020160020154115b156115cc576001818154811061154657611545612755565b5b9060005260206000209060030201604051806060016040529081600082015481526020016001820160009054906101000a900473ffffffffffffffffffffffffffffffffffffffff1673ffffffffffffffffffffffffffffffffffffffff1673ffffffffffffffffffffffffffffffffffffffff16815260200160028201548152505091505b80806115d790612784565b915050610f63565b50808383600a81106115f4576115f3612755565b5b602002018190525050808061160890612784565b915050610f3a565b5080915050919050565b60036020528060005260406000206000915090505481565b61163a611cd3565b8060058190555050565b61164c611cd3565b600073ffffffffffffffffffffffffffffffffffffffff168173ffffffffffffffffffffffffffffffffffffffff16036116bb576040517f08c379a00000000000000000000000000000000000000000000000000000000081526004016116b29061283e565b60405180910390fd5b6116c481611d51565b50565b6000806000905060006116d984610eb8565b905060005b600a811015611723578181600a81106116fa576116f9612755565b5b6020020151604001518361170e9190612594565b9250808061171b90612784565b9150506116de565b508192505050919050565b600b60009054906101000a900473ffffffffffffffffffffffffffffffffffffffff1673ffffffffffffffffffffffffffffffffffffffff166370a08231336040518263ffffffff1660e01b8152600401611789919061209b565b602060405180830381865afa1580156117a6573d6000803e3d6000fd5b505050506040513d601f19601f820116820180604052508101906117ca9190612728565b8111156117d657600080fd5b600b60009054906101000a900473ffffffffffffffffffffffffffffffffffffffff1673ffffffffffffffffffffffffffffffffffffffff1663dd62ed3e33306040518363ffffffff1660e01b815260040161183392919061285e565b602060405180830381865afa158015611850573d6000803e3d6000fd5b505050506040513d601f19601f820116820180604052508101906118749190612728565b8111156118b6576040517f08c379a00000000000000000000000000000000000000000000000000000000081526004016118ad906128d3565b60405180910390fd5b600b60009054906101000a900473ffffffffffffffffffffffffffffffffffffffff1673ffffffffffffffffffffffffffffffffffffffff166323b872dd3330846040518463ffffffff1660e01b8152600401611915939291906128f3565b6020604051808303816000875af1158015611934573d6000803e3d6000fd5b505050506040513d601f19601f8201168201806040525081019061195891906126e6565b50600b60009054906101000a900473ffffffffffffffffffffffffffffffffffffffff1673ffffffffffffffffffffffffffffffffffffffff1663095ea7b3600e60009054906101000a900473ffffffffffffffffffffffffffffffffffffffff16836040518363ffffffff1660e01b81526004016119d8929190612691565b6020604051808303816000875af11580156119f7573d6000803e3d6000fd5b505050506040513d601f19601f82011682018060405250810190611a1b91906126e6565b50600e60009054906101000a900473ffffffffffffffffffffffffffffffffffffffff1673ffffffffffffffffffffffffffffffffffffffff1663617ba037600b60009054906101000a900473ffffffffffffffffffffffffffffffffffffffff16833060006040518563ffffffff1660e01b8152600401611aa0949392919061297d565b600060405180830381600087803b158015611aba57600080fd5b505af1158015611ace573d6000803e3d6000fd5b5050505080600960003373ffffffffffffffffffffffffffffffffffffffff1673ffffffffffffffffffffffffffffffffffffffff16815260200190815260200160002054611b1d9190612594565b600960003373ffffffffffffffffffffffffffffffffffffffff1673ffffffffffffffffffffffffffffffffffffffff1681526020019081526020016000208190555080600960003073ffffffffffffffffffffffffffffffffffffffff1673ffffffffffffffffffffffffffffffffffffffff16815260200190815260200160002054611bab9190612594565b600960003073ffffffffffffffffffffffffffffffffffffffff1673ffffffffffffffffffffffffffffffffffffffff16815260200190815260200160002081905550600d60009054906101000a900473ffffffffffffffffffffffffffffffffffffffff1673ffffffffffffffffffffffffffffffffffffffff166340c10f1933836040518363ffffffff1660e01b8152600401611c4b929190612691565b600060405180830381600087803b158015611c6557600080fd5b505af1158015611c79573d6000803e3d6000fd5b50505050611c85610c43565b611c8d610b1b565b600a60003373ffffffffffffffffffffffffffffffffffffffff1673ffffffffffffffffffffffffffffffffffffffff1681526020019081526020016000208190555050565b611cdb611e15565b73ffffffffffffffffffffffffffffffffffffffff16611cf9610dc6565b73ffffffffffffffffffffffffffffffffffffffff1614611d4f576040517f08c379a0000000000000000000000000000000000000000000000000000000008152600401611d4690612a0e565b60405180910390fd5b565b60008060009054906101000a900473ffffffffffffffffffffffffffffffffffffffff169050816000806101000a81548173ffffffffffffffffffffffffffffffffffffffff021916908373ffffffffffffffffffffffffffffffffffffffff1602179055508173ffffffffffffffffffffffffffffffffffffffff168173ffffffffffffffffffffffffffffffffffffffff167f8be0079c531659141344cd1fd0a4f28419497f9722a3daafe3b4186f6b6457e060405160405180910390a35050565b600033905090565b604051806101400160405280600a905b611e35611e4b565b815260200190600190039081611e2d5790505090565b604051806060016040528060008152602001600073ffffffffffffffffffffffffffffffffffffffff168152602001600081525090565b6000819050919050565b611e9581611e82565b82525050565b6000602082019050611eb06000830184611e8c565b92915050565b600080fd5b611ec481611e82565b8114611ecf57600080fd5b50565b600081359050611ee181611ebb565b92915050565b600073ffffffffffffffffffffffffffffffffffffffff82169050919050565b6000611f1282611ee7565b9050919050565b611f2281611f07565b8114611f2d57600080fd5b50565b600081359050611f3f81611f19565b92915050565b60008060408385031215611f5c57611f5b611eb6565b5b6000611f6a85828601611ed2565b9250506020611f7b85828601611f30565b9150509250929050565b600060208284031215611f9b57611f9a611eb6565b5b6000611fa984828501611ed2565b91505092915050565b611fbb81611f07565b82525050565b6000606082019050611fd66000830186611e8c565b611fe36020830185611fb2565b611ff06040830184611e8c565b949350505050565b60008115159050919050565b61200d81611ff8565b82525050565b60006020820190506120286000830184612004565b92915050565b6000806040838503121561204557612044611eb6565b5b600061205385828601611f30565b925050602061206485828601611ed2565b9150509250929050565b60006020828403121561208457612083611eb6565b5b600061209284828501611f30565b91505092915050565b60006020820190506120b06000830184611fb2565b92915050565b600081519050919050565b600082825260208201905092915050565b6000819050602082019050919050565b6120eb81611e82565b82525050565b6120fa81611f07565b82525050565b60608201600082015161211660008501826120e2565b50602082015161212960208501826120f1565b50604082015161213c60408501826120e2565b50505050565b600061214e8383612100565b60608301905092915050565b6000602082019050919050565b6000612172826120b6565b61217c81856120c1565b9350612187836120d2565b8060005b838110156121b857815161219f8882612142565b97506121aa8361215a565b92505060018101905061218b565b5085935050505092915050565b600060208201905081810360008301526121df8184612167565b905092915050565b6000600a9050919050565b600081905092915050565b6000819050919050565b6000602082019050919050565b61221d816121e7565b61222781846121f2565b9250612232826121fd565b8060005b8381101561226357815161224a8782612142565b965061225583612207565b925050600181019050612236565b505050505050565b60006103c0820190506122816000830184612214565b92915050565b7f4e487b7100000000000000000000000000000000000000000000000000000000600052601260045260246000fd5b7f4e487b7100000000000000000000000000000000000000000000000000000000600052601160045260246000fd5b60006122f082611e82565b91506122fb83611e82565b92508261230b5761230a612287565b5b828204905092915050565b600061232182611e82565b915061232c83611e82565b9250828203905081811115612344576123436122b6565b5b92915050565b60008160011c9050919050565b6000808291508390505b60018511156123a15780860481111561237d5761237c6122b6565b5b600185161561238c5780820291505b808102905061239a8561234a565b9450612361565b94509492505050565b6000826123ba5760019050612476565b816123c85760009050612476565b81600181146123de57600281146123e857612417565b6001915050612476565b60ff8411156123fa576123f96122b6565b5b8360020a915084821115612411576124106122b6565b5b50612476565b5060208310610133831016604e8410600b841016171561244c5782820a905083811115612447576124466122b6565b5b612476565b6124598484846001612357565b925090508184048111156124705761246f6122b6565b5b81810290505b9392505050565b600060ff82169050919050565b600061249582611e82565b91506124a08361247d565b92506124cd7fffffffffffffffffffffffffffffffffffffffffffffffffffffffffffffffff84846123aa565b905092915050565b60006124e082611e82565b91506124eb83611e82565b92508282026124f981611e82565b915082820484148315176125105761250f6122b6565b5b5092915050565b600082825260208201905092915050565b7f496e73756666696369656e742062616c616e6365000000000000000000000000600082015250565b600061255e601483612517565b915061256982612528565b602082019050919050565b6000602082019050818103600083015261258d81612551565b9050919050565b600061259f82611e82565b91506125aa83611e82565b92508282019050808211156125c2576125c16122b6565b5b92915050565b7f506c656173652077616974203220636f6e746573747320616674657220796f7560008201527f72206465706f73697420746f2077697464726177000000000000000000000000602082015250565b6000612624603483612517565b915061262f826125c8565b604082019050919050565b6000602082019050818103600083015261265381612617565b9050919050565b600060608201905061266f6000830186611fb2565b61267c6020830185611e8c565b6126896040830184611fb2565b949350505050565b60006040820190506126a66000830185611fb2565b6126b36020830184611e8c565b9392505050565b6126c381611ff8565b81146126ce57600080fd5b50565b6000815190506126e0816126ba565b92915050565b6000602082840312156126fc576126fb611eb6565b5b600061270a848285016126d1565b91505092915050565b60008151905061272281611ebb565b92915050565b60006020828403121561273e5761273d611eb6565b5b600061274c84828501612713565b91505092915050565b7f4e487b7100000000000000000000000000000000000000000000000000000000600052603260045260246000fd5b600061278f82611e82565b91507fffffffffffffffffffffffffffffffffffffffffffffffffffffffffffffffff82036127c1576127c06122b6565b5b600182019050919050565b7f4f776e61626c653a206e6577206f776e657220697320746865207a65726f206160008201527f6464726573730000000000000000000000000000000000000000000000000000602082015250565b6000612828602683612517565b9150612833826127cc565b604082019050919050565b600060208201905081810360008301526128578161281b565b9050919050565b60006040820190506128736000830185611fb2565b6128806020830184611fb2565b9392505050565b7f496e73756666696369656e7420616c6c6f776564205553444300000000000000600082015250565b60006128bd601983612517565b91506128c882612887565b602082019050919050565b600060208201905081810360008301526128ec816128b0565b9050919050565b60006060820190506129086000830186611fb2565b6129156020830185611fb2565b6129226040830184611e8c565b949350505050565b6000819050919050565b600061ffff82169050919050565b6000819050919050565b600061296761296261295d8461292a565b612942565b612934565b9050919050565b6129778161294c565b82525050565b60006080820190506129926000830187611fb2565b61299f6020830186611e8c565b6129ac6040830185611fb2565b6129b9606083018461296e565b95945050505050565b7f4f776e61626c653a2063616c6c6572206973206e6f7420746865206f776e6572600082015250565b60006129f8602083612517565b9150612a03826129c2565b602082019050919050565b60006020820190508181036000830152612a27816129eb565b905091905056fea2646970667358221220abf055e7824dbfb41bfee257b6529a2385450a27a808fe8533691913bc88554064736f6c63430008110033",
  "linkReferences": {},
  "deployedLinkReferences": {}
}