{
  "_format": "hh-sol-artifact-1",
  "contractName": "NpngPool",
  "sourceName": "contracts/NpngPool.sol",
  "abi": [
    {
      "inputs": [],
      "stateMutability": "nonpayable",
      "type": "constructor"
    },
    {
      "anonymous": false,
      "inputs": [
        {
          "indexed": true,
          "internalType": "address",
          "name": "previousOwner",
          "type": "address"
        },
        {
          "indexed": true,
          "internalType": "address",
          "name": "newOwner",
          "type": "address"
        }
      ],
      "name": "OwnershipTransferred",
      "type": "event"
    },
    {
      "anonymous": false,
      "inputs": [
        {
          "indexed": false,
          "internalType": "address",
          "name": "account",
          "type": "address"
        }
      ],
      "name": "Paused",
      "type": "event"
    },
    {
      "anonymous": false,
      "inputs": [
        {
          "indexed": false,
          "internalType": "address",
          "name": "account",
          "type": "address"
        }
      ],
      "name": "Unpaused",
      "type": "event"
    },
    {
      "inputs": [
        {
          "internalType": "uint256",
          "name": "_newFrequence",
          "type": "uint256"
        }
      ],
      "name": "changeGameFrequence",
      "outputs": [],
      "stateMutability": "nonpayable",
      "type": "function"
    },
    {
      "inputs": [
        {
          "internalType": "address",
          "name": "_newAddress",
          "type": "address"
        }
      ],
      "name": "changeNpngTokenAddress",
      "outputs": [],
      "stateMutability": "nonpayable",
      "type": "function"
    },
    {
      "inputs": [
        {
          "internalType": "address",
          "name": "_newRecorderAddress",
          "type": "address"
        }
      ],
      "name": "changeRecorder",
      "outputs": [],
      "stateMutability": "nonpayable",
      "type": "function"
    },
    {
      "inputs": [],
      "name": "claim",
      "outputs": [],
      "stateMutability": "nonpayable",
      "type": "function"
    },
    {
      "inputs": [
        {
          "internalType": "uint256",
          "name": "_amount",
          "type": "uint256"
        }
      ],
      "name": "depositOnAave",
      "outputs": [],
      "stateMutability": "nonpayable",
      "type": "function"
    },
    {
      "inputs": [
        {
          "internalType": "address",
          "name": "_player",
          "type": "address"
        }
      ],
      "name": "getAccountTable",
      "outputs": [
        {
          "components": [
            {
              "internalType": "uint256",
              "name": "idContest",
              "type": "uint256"
            },
            {
              "internalType": "uint256",
              "name": "rank",
              "type": "uint256"
            },
            {
              "internalType": "uint256",
              "name": "participant",
              "type": "uint256"
            },
            {
              "internalType": "uint256",
              "name": "prize",
              "type": "uint256"
            }
          ],
          "internalType": "struct NpngGame.AccountTable[10]",
          "name": "",
          "type": "tuple[10]"
        }
      ],
      "stateMutability": "view",
      "type": "function"
    },
    {
      "inputs": [
        {
          "internalType": "uint256",
          "name": "_idContest",
          "type": "uint256"
        },
        {
          "internalType": "address",
          "name": "_player",
          "type": "address"
        }
      ],
      "name": "getContestRank",
      "outputs": [
        {
          "internalType": "uint256",
          "name": "",
          "type": "uint256"
        }
      ],
      "stateMutability": "view",
      "type": "function"
    },
    {
      "inputs": [
        {
          "internalType": "uint256",
          "name": "_idContest",
          "type": "uint256"
        }
      ],
      "name": "getContestRewards",
      "outputs": [
        {
          "internalType": "uint256",
          "name": "",
          "type": "uint256"
        }
      ],
      "stateMutability": "view",
      "type": "function"
    },
    {
      "inputs": [
        {
          "internalType": "uint256",
          "name": "_idContest",
          "type": "uint256"
        }
      ],
      "name": "getContestTable",
      "outputs": [
        {
          "components": [
            {
              "internalType": "uint256",
              "name": "rank",
              "type": "uint256"
            },
            {
              "internalType": "uint256",
              "name": "score",
              "type": "uint256"
            },
            {
              "internalType": "address",
              "name": "player",
              "type": "address"
            },
            {
              "internalType": "uint256",
              "name": "prize",
              "type": "uint256"
            }
          ],
          "internalType": "struct NpngPool.ContestTable[10]",
          "name": "",
          "type": "tuple[10]"
        }
      ],
      "stateMutability": "view",
      "type": "function"
    },
    {
      "inputs": [],
      "name": "getEndOfContest",
      "outputs": [
        {
          "internalType": "uint256",
          "name": "",
          "type": "uint256"
        }
      ],
      "stateMutability": "view",
      "type": "function"
    },
    {
      "inputs": [],
      "name": "getGlobalPrizePool",
      "outputs": [
        {
          "internalType": "uint256",
          "name": "",
          "type": "uint256"
        }
      ],
      "stateMutability": "view",
      "type": "function"
    },
    {
      "inputs": [],
      "name": "getIdContest",
      "outputs": [
        {
          "internalType": "uint256",
          "name": "",
          "type": "uint256"
        }
      ],
      "stateMutability": "view",
      "type": "function"
    },
    {
      "inputs": [
        {
          "internalType": "address",
          "name": "_account",
          "type": "address"
        }
      ],
      "name": "getPendingRewards",
      "outputs": [
        {
          "internalType": "uint256",
          "name": "",
          "type": "uint256"
        }
      ],
      "stateMutability": "view",
      "type": "function"
    },
    {
      "inputs": [],
      "name": "getPlay",
      "outputs": [],
      "stateMutability": "nonpayable",
      "type": "function"
    },
    {
      "inputs": [
        {
          "internalType": "address",
          "name": "_account",
          "type": "address"
        },
        {
          "internalType": "uint256",
          "name": "_idContest",
          "type": "uint256"
        }
      ],
      "name": "getPlayerStatus",
      "outputs": [
        {
          "components": [
            {
              "internalType": "bool",
              "name": "requested",
              "type": "bool"
            },
            {
              "internalType": "bool",
              "name": "played",
              "type": "bool"
            },
            {
              "internalType": "bool",
              "name": "claimed",
              "type": "bool"
            }
          ],
          "internalType": "struct NpngGame.RequestPlaying",
          "name": "",
          "type": "tuple"
        }
      ],
      "stateMutability": "view",
      "type": "function"
    },
    {
      "inputs": [],
      "name": "getPoolStatus",
      "outputs": [
        {
          "components": [
            {
              "internalType": "uint256",
              "name": "idContest",
              "type": "uint256"
            },
            {
              "internalType": "uint256",
              "name": "endContestPoolValue",
              "type": "uint256"
            },
            {
              "internalType": "uint256",
              "name": "globalPrizePool",
              "type": "uint256"
            },
            {
              "internalType": "uint256",
              "name": "contestRewards",
              "type": "uint256"
            },
            {
              "internalType": "uint256",
              "name": "winnersDeposit",
              "type": "uint256"
            }
          ],
          "internalType": "struct NpngPool.PoolStatus[]",
          "name": "",
          "type": "tuple[]"
        }
      ],
      "stateMutability": "view",
      "type": "function"
    },
    {
      "inputs": [
        {
          "internalType": "uint256",
          "name": "_idContest",
          "type": "uint256"
        },
        {
          "internalType": "address",
          "name": "_player",
          "type": "address"
        }
      ],
      "name": "getRewardsPerPlayer",
      "outputs": [
        {
          "internalType": "uint256",
          "name": "",
          "type": "uint256"
        }
      ],
      "stateMutability": "view",
      "type": "function"
    },
    {
      "inputs": [
        {
          "internalType": "address",
          "name": "_account",
          "type": "address"
        }
      ],
      "name": "getTotalClaimedRewards",
      "outputs": [
        {
          "internalType": "uint256",
          "name": "",
          "type": "uint256"
        }
      ],
      "stateMutability": "view",
      "type": "function"
    },
    {
      "inputs": [
        {
          "internalType": "address",
          "name": "_account",
          "type": "address"
        }
      ],
      "name": "getUserBalance",
      "outputs": [
        {
          "internalType": "uint256",
          "name": "",
          "type": "uint256"
        }
      ],
      "stateMutability": "view",
      "type": "function"
    },
    {
      "inputs": [],
      "name": "getWinnersDeposit",
      "outputs": [
        {
          "internalType": "uint256",
          "name": "",
          "type": "uint256"
        }
      ],
      "stateMutability": "view",
      "type": "function"
    },
    {
      "inputs": [
        {
          "internalType": "uint256",
          "name": "",
          "type": "uint256"
        }
      ],
      "name": "numberOfPlayersPerContest",
      "outputs": [
        {
          "internalType": "uint256",
          "name": "",
          "type": "uint256"
        }
      ],
      "stateMutability": "view",
      "type": "function"
    },
    {
      "inputs": [],
      "name": "owner",
      "outputs": [
        {
          "internalType": "address",
          "name": "",
          "type": "address"
        }
      ],
      "stateMutability": "view",
      "type": "function"
    },
    {
      "inputs": [],
      "name": "pause",
      "outputs": [],
      "stateMutability": "nonpayable",
      "type": "function"
    },
    {
      "inputs": [],
      "name": "paused",
      "outputs": [
        {
          "internalType": "bool",
          "name": "",
          "type": "bool"
        }
      ],
      "stateMutability": "view",
      "type": "function"
    },
    {
      "inputs": [],
      "name": "renounceOwnership",
      "outputs": [],
      "stateMutability": "nonpayable",
      "type": "function"
    },
    {
      "inputs": [
        {
          "internalType": "address",
          "name": "_player",
          "type": "address"
        },
        {
          "internalType": "uint256",
          "name": "_score",
          "type": "uint256"
        }
      ],
      "name": "saveScore",
      "outputs": [],
      "stateMutability": "nonpayable",
      "type": "function"
    },
    {
      "inputs": [
        {
          "internalType": "address",
          "name": "newOwner",
          "type": "address"
        }
      ],
      "name": "transferOwnership",
      "outputs": [],
      "stateMutability": "nonpayable",
      "type": "function"
    },
    {
      "inputs": [],
      "name": "unpause",
      "outputs": [],
      "stateMutability": "nonpayable",
      "type": "function"
    },
    {
      "inputs": [],
      "name": "updateContest",
      "outputs": [],
      "stateMutability": "nonpayable",
      "type": "function"
    },
    {
      "inputs": [
        {
          "internalType": "uint256",
          "name": "_amount",
          "type": "uint256"
        }
      ],
      "name": "withdraw",
      "outputs": [],
      "stateMutability": "nonpayable",
      "type": "function"
    }
  ],
  "bytecode": "0x60806040523480156200001157600080fd5b5060008060006101000a81548160ff0219169083151502179055506200004c620000406200028c60201b60201c565b6200029460201b60201c565b426007819055506001600681905550610e1060048190555061dead600860006101000a81548173ffffffffffffffffffffffffffffffffffffffff021916908373ffffffffffffffffffffffffffffffffffffffff16021790555073a2025b15a1757311bfd68cb14eaefcc237af5b43600f60006101000a81548173ffffffffffffffffffffffffffffffffffffffff021916908373ffffffffffffffffffffffffffffffffffffffff16021790555073368eedf3f56ad10b9bc57eed4dac65b26bb667f6601260006101000a81548173ffffffffffffffffffffffffffffffffffffffff021916908373ffffffffffffffffffffffffffffffffffffffff160217905550731ee669290939f8a8864497af3bc83728715265ff601060006101000a81548173ffffffffffffffffffffffffffffffffffffffff021916908373ffffffffffffffffffffffffffffffffffffffff160217905550738ad6d963600f5c45dabd5ff6faa04d51a6d549f0601160006101000a81548173ffffffffffffffffffffffffffffffffffffffff021916908373ffffffffffffffffffffffffffffffffffffffff16021790555060096040518060a0016040528060008152602001600081526020016000815260200160008152602001600081525090806001815401808255809150506001900390600052602060002090600502016000909190919091506000820151816000015560208201518160010155604082015181600201556060820151816003015560808201518160040155505062000359565b600033905090565b60008060019054906101000a900473ffffffffffffffffffffffffffffffffffffffff16905081600060016101000a81548173ffffffffffffffffffffffffffffffffffffffff021916908373ffffffffffffffffffffffffffffffffffffffff1602179055508173ffffffffffffffffffffffffffffffffffffffff168173ffffffffffffffffffffffffffffffffffffffff167f8be0079c531659141344cd1fd0a4f28419497f9722a3daafe3b4186f6b6457e060405160405180910390a35050565b61404480620003696000396000f3fe608060405234801561001057600080fd5b50600436106101da5760003560e01c80638456cb5911610104578063cad7ebce116100a2578063f2fbee3f11610071578063f2fbee3f1461050d578063f2fde38b14610529578063f6ed201714610545578063fd8d190914610575576101da565b8063cad7ebce14610473578063e064613e146104a3578063e864d000146104bf578063e9d69990146104dd576101da565b8063b2e85b67116100de578063b2e85b67146103d7578063b4ace15814610407578063bb2922e614610425578063c85785d614610455576101da565b80638456cb591461037f5780638da5cb5b146103895780639cfc8b8c146103a7576101da565b8063477348921161017c578063695a65171161014b578063695a65171461031f578063715018a61461033b5780637f79496c146103455780638347f53614610363576101da565b806347734892146102bd5780634e499acd146102ed5780634e71d92d146102f75780635c975abb14610301576101da565b80632452a7e3116101b85780632452a7e3146102375780632d75acbc146102675780632e1a7d4d146102975780633f4ba83a146102b3576101da565b80630bd5d284146101df57806312b946bc146101e95780631eadace914610207575b600080fd5b6101e7610591565b005b6101f161061d565b6040516101fe9190612db3565b60405180910390f35b610221600480360381019061021c9190612e5d565b610639565b60405161022e9190612db3565b60405180910390f35b610251600480360381019061024c9190612e9d565b610851565b60405161025e9190612fd9565b60405180910390f35b610281600480360381019061027c9190612e9d565b610a40565b60405161028e9190612db3565b60405180910390f35b6102b160048036038101906102ac9190612e9d565b610aa9565b005b6102bb610e10565b005b6102d760048036038101906102d29190612ff5565b610e22565b6040516102e49190612db3565b60405180910390f35b6102f5610e6b565b005b6102ff611192565b005b61030961145f565b604051610316919061303d565b60405180910390f35b61033960048036038101906103349190613058565b611475565b005b6103436117fe565b005b61034d611812565b60405161035a91906131af565b60405180910390f35b61037d60048036038101906103789190612ff5565b6118a3565b005b6103876118ef565b005b610391611901565b60405161039e91906131e0565b60405180910390f35b6103c160048036038101906103bc9190612ff5565b61192a565b6040516103ce9190612db3565b60405180910390f35b6103f160048036038101906103ec9190613058565b611973565b6040516103fe919061324c565b60405180910390f35b61040f611a2f565b60405161041c9190612db3565b60405180910390f35b61043f600480360381019061043a9190612ff5565b611b6d565b60405161044c9190613358565b60405180910390f35b61045d611c55565b60405161046a9190612db3565b60405180910390f35b61048d60048036038101906104889190612e5d565b611c5f565b60405161049a9190612db3565b60405180910390f35b6104bd60048036038101906104b89190612ff5565b611e28565b005b6104c7611e74565b6040516104d49190612db3565b60405180910390f35b6104f760048036038101906104f29190612e9d565b611f66565b6040516105049190612db3565b60405180910390f35b61052760048036038101906105229190612e9d565b611f7e565b005b610543600480360381019061053e9190612ff5565b611f90565b005b61055f600480360381019061055a9190612ff5565b612013565b60405161056c9190612db3565b60405180910390f35b61058f600480360381019061058a9190612e9d565b61210b565b005b6000600a60003373ffffffffffffffffffffffffffffffffffffffff1673ffffffffffffffffffffffffffffffffffffffff1681526020019081526020016000205411610613576040517f08c379a000000000000000000000000000000000000000000000000000000000815260040161060a906133d1565b60405180910390fd5b61061b61262c565b565b6000806004546007546106309190613420565b90508091505090565b6000826006541161067f576040517f08c379a0000000000000000000000000000000000000000000000000000000008152600401610676906134a0565b60405180910390fd5b60008061068c8585611c5f565b9050600080600090505b60018054905081101561078c5786600182815481106106b8576106b76134c0565b5b90600052602060002090600402016000015414801561074757508573ffffffffffffffffffffffffffffffffffffffff16600182815481106106fd576106fc6134c0565b5b906000526020600020906004020160010160009054906101000a900473ffffffffffffffffffffffffffffffffffffffff1673ffffffffffffffffffffffffffffffffffffffff16145b1561077957600181815481106107605761075f6134c0565b5b906000526020600020906004020160030154915061078c565b8080610784906134ef565b915050610696565b50600a821161084057662386f26fc1000060058360656107ac9190613537565b6107b691906136ab565b600988815481106107ca576107c96134c0565b5b906000526020600020906005020160040154620f4240846107eb91906136f6565b6107f59190613767565b60098981548110610809576108086134c0565b5b90600052602060002090600502016002015461082591906136f6565b61082f91906136f6565b6108399190613767565b9250610845565b600092505b82935050505092915050565b610859612cb1565b610861612cb1565b600080600090505b600180549050811015610a35576001818154811061088a576108896134c0565b5b9060005260206000209060040201600001548503610a22576108f185600183815481106108ba576108b96134c0565b5b906000526020600020906004020160010160009054906101000a900473ffffffffffffffffffffffffffffffffffffffff16611c5f565b9150600082141580156109055750600a8211155b15610a215760405180608001604052808381526020016001838154811061092f5761092e6134c0565b5b90600052602060002090600402016002015481526020016001838154811061095a576109596134c0565b5b906000526020600020906004020160010160009054906101000a900473ffffffffffffffffffffffffffffffffffffffff1673ffffffffffffffffffffffffffffffffffffffff1681526020016109f687600185815481106109bf576109be6134c0565b5b906000526020600020906004020160010160009054906101000a900473ffffffffffffffffffffffffffffffffffffffff16610639565b81525083600184610a079190613537565b600a8110610a1857610a176134c0565b5b60200201819052505b5b8080610a2d906134ef565b915050610869565b508192505050919050565b600080610a4b612cb1565b610a5484610851565b905060005b600a811015610a9e578181600a8110610a7557610a746134c0565b5b60200201516060015183610a899190613420565b92508080610a96906134ef565b915050610a59565b508192505050919050565b80600a60003373ffffffffffffffffffffffffffffffffffffffff1673ffffffffffffffffffffffffffffffffffffffff168152602001908152602001600020541015610b2b576040517f08c379a0000000000000000000000000000000000000000000000000000000008152600401610b22906137e4565b60405180910390fd5b6006546002600d60003373ffffffffffffffffffffffffffffffffffffffff1673ffffffffffffffffffffffffffffffffffffffff16815260200190815260200160002054610b7a9190613420565b1115610bbb576040517f08c379a0000000000000000000000000000000000000000000000000000000008152600401610bb290613876565b60405180910390fd5b601260009054906101000a900473ffffffffffffffffffffffffffffffffffffffff1673ffffffffffffffffffffffffffffffffffffffff166369328dec600f60009054906101000a900473ffffffffffffffffffffffffffffffffffffffff1683306040518463ffffffff1660e01b8152600401610c3c93929190613896565b600060405180830381600087803b158015610c5657600080fd5b505af1158015610c6a573d6000803e3d6000fd5b50505050600f60009054906101000a900473ffffffffffffffffffffffffffffffffffffffff1673ffffffffffffffffffffffffffffffffffffffff1663a9059cbb33836040518363ffffffff1660e01b8152600401610ccb9291906138cd565b6020604051808303816000875af1158015610cea573d6000803e3d6000fd5b505050506040513d601f19601f82011682018060405250810190610d0e9190613922565b5080600a60003373ffffffffffffffffffffffffffffffffffffffff1673ffffffffffffffffffffffffffffffffffffffff1681526020019081526020016000206000828254610d5e9190613537565b9250508190555080600c6000828254610d779190613420565b92505081905550601160009054906101000a900473ffffffffffffffffffffffffffffffffffffffff1673ffffffffffffffffffffffffffffffffffffffff16639dc29fac33836040518363ffffffff1660e01b8152600401610ddb9291906138cd565b600060405180830381600087803b158015610df557600080fd5b505af1158015610e09573d6000803e3d6000fd5b5050505050565b610e186127ee565b610e2061286c565b565b6000600a60008373ffffffffffffffffffffffffffffffffffffffff1673ffffffffffffffffffffffffffffffffffffffff168152602001908152602001600020549050919050565b600454600754610e7b9190613420565b421015610ebd576040517f08c379a0000000000000000000000000000000000000000000000000000000008152600401610eb49061399b565b60405180910390fd5b426007819055506000601060009054906101000a900473ffffffffffffffffffffffffffffffffffffffff1673ffffffffffffffffffffffffffffffffffffffff166370a08231306040518263ffffffff1660e01b8152600401610f2191906131e0565b602060405180830381865afa158015610f3e573d6000803e3d6000fd5b505050506040513d601f19601f82011682018060405250810190610f6291906139d0565b905060096040518060a00160405280600654815260200160096001600654610f8a9190613537565b81548110610f9b57610f9a6134c0565b5b906000526020600020906005020160030154600c54600b5460096001600654610fc49190613537565b81548110610fd557610fd46134c0565b5b906000526020600020906005020160010154610ff19190613420565b610ffb9190613537565b6110059190613420565b81526020016009600160065461101b9190613537565b8154811061102c5761102b6134c0565b5b906000526020600020906005020160030154600c54600b54600960016006546110559190613537565b81548110611066576110656134c0565b5b9060005260206000209060050201600101546110829190613420565b61108c9190613537565b6110969190613420565b846110a19190613537565b81526020016110b1600654610a40565b81526020016110be611e74565b8152509080600181540180825580915050600190039060005260206000209060050201600090919091909150600082015181600001556020820151816001015560408201518160020155606082015181600301556080820151816004015550506000600b819055506000600c81905550600960065481548110611144576111436134c0565b5b906000526020600020906005020160030154600e600060065481526020019081526020016000208190555060066000815480929190611182906134ef565b919050555061118f6128ce565b50565b600080806000603c6006546111a79190613537565b11156111c357603c6006546111bc9190613537565b90506111c8565b600090505b600060016006546111d99190613537565b90505b818111156113145760011515600360003373ffffffffffffffffffffffffffffffffffffffff1673ffffffffffffffffffffffffffffffffffffffff168152602001908152602001600020600083815260200190815260200160002060000160029054906101000a900460ff16151503156113145761125b8133610639565b925082846112699190613420565b935082600e6000838152602001908152602001600020600082825461128e9190613537565b925050819055506001600360003373ffffffffffffffffffffffffffffffffffffffff1673ffffffffffffffffffffffffffffffffffffffff168152602001908152602001600020600083815260200190815260200160002060000160026101000a81548160ff021916908315150217905550808061130c906139fd565b9150506111dc565b50600183111561145a5782600a60003373ffffffffffffffffffffffffffffffffffffffff1673ffffffffffffffffffffffffffffffffffffffff168152602001908152602001600020600082825461136d9190613420565b9250508190555082600560003373ffffffffffffffffffffffffffffffffffffffff1673ffffffffffffffffffffffffffffffffffffffff16815260200190815260200160002060008282546113c39190613420565b92505081905550601160009054906101000a900473ffffffffffffffffffffffffffffffffffffffff1673ffffffffffffffffffffffffffffffffffffffff166340c10f1933856040518363ffffffff1660e01b81526004016114279291906138cd565b600060405180830381600087803b15801561144157600080fd5b505af1158015611455573d6000803e3d6000fd5b505050505b505050565b60008060009054906101000a900460ff16905090565b600860009054906101000a900473ffffffffffffffffffffffffffffffffffffffff1673ffffffffffffffffffffffffffffffffffffffff163373ffffffffffffffffffffffffffffffffffffffff1614611505576040517f08c379a00000000000000000000000000000000000000000000000000000000081526004016114fc90613a98565b60405180910390fd5b60011515600360008473ffffffffffffffffffffffffffffffffffffffff1673ffffffffffffffffffffffffffffffffffffffff1681526020019081526020016000206000600654815260200190815260200160002060000160009054906101000a900460ff161515146115ae576040517f08c379a00000000000000000000000000000000000000000000000000000000081526004016115a590613b04565b60405180910390fd5b60001515600360008473ffffffffffffffffffffffffffffffffffffffff1673ffffffffffffffffffffffffffffffffffffffff1681526020019081526020016000206000600654815260200190815260200160002060000160019054906101000a900460ff16151514611657576040517f08c379a000000000000000000000000000000000000000000000000000000000815260040161164e90613b70565b60405180910390fd5b6001604051806080016040528060065481526020018473ffffffffffffffffffffffffffffffffffffffff168152602001838152602001600a60008673ffffffffffffffffffffffffffffffffffffffff1673ffffffffffffffffffffffffffffffffffffffff1681526020019081526020016000205481525090806001815401808255809150506001900390600052602060002090600402016000909190919091506000820151816000015560208201518160010160006101000a81548173ffffffffffffffffffffffffffffffffffffffff021916908373ffffffffffffffffffffffffffffffffffffffff160217905550604082015181600201556060820151816003015550506001600360008473ffffffffffffffffffffffffffffffffffffffff1673ffffffffffffffffffffffffffffffffffffffff1681526020019081526020016000206000600654815260200190815260200160002060000160016101000a81548160ff02191690831515021790555060026000600654815260200190815260200160002060008154809291906117f5906134ef565b91905055505050565b6118066127ee565b6118106000612aef565b565b60606009805480602002602001604051908101604052809291908181526020016000905b8282101561189a57838290600052602060002090600502016040518060a00160405290816000820154815260200160018201548152602001600282015481526020016003820154815260200160048201548152505081526020019060010190611836565b50505050905090565b6118ab6127ee565b80601160006101000a81548173ffffffffffffffffffffffffffffffffffffffff021916908373ffffffffffffffffffffffffffffffffffffffff16021790555050565b6118f76127ee565b6118ff612bb4565b565b60008060019054906101000a900473ffffffffffffffffffffffffffffffffffffffff16905090565b6000600560008373ffffffffffffffffffffffffffffffffffffffff1673ffffffffffffffffffffffffffffffffffffffff168152602001908152602001600020549050919050565b61197b612cdf565b600360008473ffffffffffffffffffffffffffffffffffffffff1673ffffffffffffffffffffffffffffffffffffffff16815260200190815260200160002060008381526020019081526020016000206040518060600160405290816000820160009054906101000a900460ff161515151581526020016000820160019054906101000a900460ff161515151581526020016000820160029054906101000a900460ff161515151581525050905092915050565b600080601060009054906101000a900473ffffffffffffffffffffffffffffffffffffffff1673ffffffffffffffffffffffffffffffffffffffff166370a08231306040518263ffffffff1660e01b8152600401611a8d91906131e0565b602060405180830381865afa158015611aaa573d6000803e3d6000fd5b505050506040513d601f19601f82011682018060405250810190611ace91906139d0565b905060096001600654611ae19190613537565b81548110611af257611af16134c0565b5b906000526020600020906005020160030154600c54600b5460096001600654611b1b9190613537565b81548110611b2c57611b2b6134c0565b5b906000526020600020906005020160010154611b489190613420565b611b529190613537565b611b5c9190613420565b81611b679190613537565b91505090565b611b75612d06565b611b7d612d06565b6000806000905060006001600654611b959190613537565b9050600a811015611ba857809250611bad565b600a92505b60008190505b8382611bbf9190613537565b811115611c48576040518060800160405280828152602001611be1838a611c5f565b815260200160026000848152602001908152602001600020548152602001611c09838a610639565b8152508584600a8110611c1f57611c1e6134c0565b5b60200201819052508280611c32906134ef565b9350508080611c40906139fd565b915050611bb3565b5083945050505050919050565b6000600654905090565b6000806000806001905060005b600180549050811015611d8a5760018181548110611c8d57611c8c6134c0565b5b90600052602060002090600402016000015487148015611d1d575060018181548110611cbc57611cbb6134c0565b5b906000526020600020906004020160010160009054906101000a900473ffffffffffffffffffffffffffffffffffffffff1673ffffffffffffffffffffffffffffffffffffffff168673ffffffffffffffffffffffffffffffffffffffff16145b15611d525780935060018181548110611d3957611d386134c0565b5b9060005260206000209060040201600201549250611d8a565b600180549050600182611d659190613420565b03611d77576000945050505050611e22565b8080611d82906134ef565b915050611c6c565b5060005b600180549050811015611e1a5760018181548110611daf57611dae6134c0565b5b90600052602060002090600402016000015487148015611df3575060018181548110611dde57611ddd6134c0565b5b90600052602060002090600402016002015483115b15611e07578180611e03906134ef565b9250505b8080611e12906134ef565b915050611d8e565b508093505050505b92915050565b611e306127ee565b80600860006101000a81548173ffffffffffffffffffffffffffffffffffffffff021916908373ffffffffffffffffffffffffffffffffffffffff16021790555050565b6000806000905060005b600180549050811015611f5e5760018181548110611e9f57611e9e6134c0565b5b906000526020600020906004020160000154600654148015611f125750600a611f0f60065460018481548110611ed857611ed76134c0565b5b906000526020600020906004020160010160009054906101000a900473ffffffffffffffffffffffffffffffffffffffff16611c5f565b11155b15611f4b5760018181548110611f2b57611f2a6134c0565b5b90600052602060002090600402016003015482611f489190613420565b91505b8080611f56906134ef565b915050611e7e565b508091505090565b60026020528060005260406000206000915090505481565b611f866127ee565b8060048190555050565b611f986127ee565b600073ffffffffffffffffffffffffffffffffffffffff168173ffffffffffffffffffffffffffffffffffffffff1603612007576040517f08c379a0000000000000000000000000000000000000000000000000000000008152600401611ffe90613c02565b60405180910390fd5b61201081612aef565b50565b60008060009050600080603c60065461202c9190613537565b111561204857603c6006546120419190613537565b905061204d565b600090505b6000600160065461205e9190613537565b90505b818111156121005760011515600360008773ffffffffffffffffffffffffffffffffffffffff1673ffffffffffffffffffffffffffffffffffffffff168152602001908152602001600020600083815260200190815260200160002060000160029054906101000a900460ff1615150315612100576120e08186610639565b836120eb9190613420565b925080806120f8906139fd565b915050612061565b508192505050919050565b600f60009054906101000a900473ffffffffffffffffffffffffffffffffffffffff1673ffffffffffffffffffffffffffffffffffffffff166370a08231336040518263ffffffff1660e01b815260040161216691906131e0565b602060405180830381865afa158015612183573d6000803e3d6000fd5b505050506040513d601f19601f820116820180604052508101906121a791906139d0565b8111156121e9576040517f08c379a00000000000000000000000000000000000000000000000000000000081526004016121e090613c6e565b60405180910390fd5b600f60009054906101000a900473ffffffffffffffffffffffffffffffffffffffff1673ffffffffffffffffffffffffffffffffffffffff1663dd62ed3e33306040518363ffffffff1660e01b8152600401612246929190613c8e565b602060405180830381865afa158015612263573d6000803e3d6000fd5b505050506040513d601f19601f8201168201806040525081019061228791906139d0565b8111156122c9576040517f08c379a00000000000000000000000000000000000000000000000000000000081526004016122c090613d03565b60405180910390fd5b600f60009054906101000a900473ffffffffffffffffffffffffffffffffffffffff1673ffffffffffffffffffffffffffffffffffffffff166323b872dd3330846040518463ffffffff1660e01b815260040161232893929190613d23565b6020604051808303816000875af1158015612347573d6000803e3d6000fd5b505050506040513d601f19601f8201168201806040525081019061236b9190613922565b50600f60009054906101000a900473ffffffffffffffffffffffffffffffffffffffff1673ffffffffffffffffffffffffffffffffffffffff1663095ea7b3601260009054906101000a900473ffffffffffffffffffffffffffffffffffffffff16836040518363ffffffff1660e01b81526004016123eb9291906138cd565b6020604051808303816000875af115801561240a573d6000803e3d6000fd5b505050506040513d601f19601f8201168201806040525081019061242e9190613922565b50601260009054906101000a900473ffffffffffffffffffffffffffffffffffffffff1673ffffffffffffffffffffffffffffffffffffffff1663617ba037600f60009054906101000a900473ffffffffffffffffffffffffffffffffffffffff16833060006040518563ffffffff1660e01b81526004016124b39493929190613dad565b600060405180830381600087803b1580156124cd57600080fd5b505af11580156124e1573d6000803e3d6000fd5b5050505080600a60003373ffffffffffffffffffffffffffffffffffffffff1673ffffffffffffffffffffffffffffffffffffffff16815260200190815260200160002060008282546125349190613420565b9250508190555080600b600082825461254d9190613420565b92505081905550601160009054906101000a900473ffffffffffffffffffffffffffffffffffffffff1673ffffffffffffffffffffffffffffffffffffffff166340c10f1933836040518363ffffffff1660e01b81526004016125b19291906138cd565b600060405180830381600087803b1580156125cb57600080fd5b505af11580156125df573d6000803e3d6000fd5b50505050600654600d60003373ffffffffffffffffffffffffffffffffffffffff1673ffffffffffffffffffffffffffffffffffffffff1681526020019081526020016000208190555050565b60001515600360003373ffffffffffffffffffffffffffffffffffffffff1673ffffffffffffffffffffffffffffffffffffffff1681526020019081526020016000206000600654815260200190815260200160002060000160009054906101000a900460ff161515146126d5576040517f08c379a00000000000000000000000000000000000000000000000000000000081526004016126cc90613e3e565b60405180910390fd5b60001515600360003373ffffffffffffffffffffffffffffffffffffffff1673ffffffffffffffffffffffffffffffffffffffff1681526020019081526020016000206000600654815260200190815260200160002060000160019054906101000a900460ff1615151461277e576040517f08c379a000000000000000000000000000000000000000000000000000000000815260040161277590613b70565b60405180910390fd5b6001600360003373ffffffffffffffffffffffffffffffffffffffff1673ffffffffffffffffffffffffffffffffffffffff1681526020019081526020016000206000600654815260200190815260200160002060000160006101000a81548160ff021916908315150217905550565b6127f6612c16565b73ffffffffffffffffffffffffffffffffffffffff16612814611901565b73ffffffffffffffffffffffffffffffffffffffff161461286a576040517f08c379a000000000000000000000000000000000000000000000000000000000815260040161286190613eaa565b60405180910390fd5b565b612874612c1e565b60008060006101000a81548160ff0219169083151502179055507f5db9ee0a495bf2e6ff9c91a7834c1ba4fdd244a5e8aa4e537bd38aeae4b073aa6128b7612c16565b6040516128c491906131e0565b60405180910390a1565b600860009054906101000a900473ffffffffffffffffffffffffffffffffffffffff1673ffffffffffffffffffffffffffffffffffffffff163373ffffffffffffffffffffffffffffffffffffffff161461295e576040517f08c379a000000000000000000000000000000000000000000000000000000000815260040161295590613f16565b60405180910390fd5b6000603c60065461296f9190613537565b1115612aed576000600e6000603c60065461298a9190613537565b815260200190815260200160002054905080600a6000600860009054906101000a900473ffffffffffffffffffffffffffffffffffffffff1673ffffffffffffffffffffffffffffffffffffffff1673ffffffffffffffffffffffffffffffffffffffff1681526020019081526020016000206000828254612a0c9190613420565b92505081905550601160009054906101000a900473ffffffffffffffffffffffffffffffffffffffff1673ffffffffffffffffffffffffffffffffffffffff166340c10f19600860009054906101000a900473ffffffffffffffffffffffffffffffffffffffff16836040518363ffffffff1660e01b8152600401612a929291906138cd565b600060405180830381600087803b158015612aac57600080fd5b505af1158015612ac0573d6000803e3d6000fd5b505050506000600e6000603c600654612ad99190613537565b815260200190815260200160002081905550505b565b60008060019054906101000a900473ffffffffffffffffffffffffffffffffffffffff16905081600060016101000a81548173ffffffffffffffffffffffffffffffffffffffff021916908373ffffffffffffffffffffffffffffffffffffffff1602179055508173ffffffffffffffffffffffffffffffffffffffff168173ffffffffffffffffffffffffffffffffffffffff167f8be0079c531659141344cd1fd0a4f28419497f9722a3daafe3b4186f6b6457e060405160405180910390a35050565b612bbc612c67565b60016000806101000a81548160ff0219169083151502179055507f62e78cea01bee320cd4e420270b5ea74000d11b0c9f74754ebdbfc544b05a258612bff612c16565b604051612c0c91906131e0565b60405180910390a1565b600033905090565b612c2661145f565b612c65576040517f08c379a0000000000000000000000000000000000000000000000000000000008152600401612c5c90613f82565b60405180910390fd5b565b612c6f61145f565b15612caf576040517f08c379a0000000000000000000000000000000000000000000000000000000008152600401612ca690613fee565b60405180910390fd5b565b604051806101400160405280600a905b612cc9612d34565b815260200190600190039081612cc15790505090565b60405180606001604052806000151581526020016000151581526020016000151581525090565b604051806101400160405280600a905b612d1e612d72565b815260200190600190039081612d165790505090565b60405180608001604052806000815260200160008152602001600073ffffffffffffffffffffffffffffffffffffffff168152602001600081525090565b6040518060800160405280600081526020016000815260200160008152602001600081525090565b6000819050919050565b612dad81612d9a565b82525050565b6000602082019050612dc86000830184612da4565b92915050565b600080fd5b612ddc81612d9a565b8114612de757600080fd5b50565b600081359050612df981612dd3565b92915050565b600073ffffffffffffffffffffffffffffffffffffffff82169050919050565b6000612e2a82612dff565b9050919050565b612e3a81612e1f565b8114612e4557600080fd5b50565b600081359050612e5781612e31565b92915050565b60008060408385031215612e7457612e73612dce565b5b6000612e8285828601612dea565b9250506020612e9385828601612e48565b9150509250929050565b600060208284031215612eb357612eb2612dce565b5b6000612ec184828501612dea565b91505092915050565b6000600a9050919050565b600081905092915050565b6000819050919050565b612ef381612d9a565b82525050565b612f0281612e1f565b82525050565b608082016000820151612f1e6000850182612eea565b506020820151612f316020850182612eea565b506040820151612f446040850182612ef9565b506060820151612f576060850182612eea565b50505050565b6000612f698383612f08565b60808301905092915050565b6000602082019050919050565b612f8b81612eca565b612f958184612ed5565b9250612fa082612ee0565b8060005b83811015612fd1578151612fb88782612f5d565b9650612fc383612f75565b925050600181019050612fa4565b505050505050565b600061050082019050612fef6000830184612f82565b92915050565b60006020828403121561300b5761300a612dce565b5b600061301984828501612e48565b91505092915050565b60008115159050919050565b61303781613022565b82525050565b6000602082019050613052600083018461302e565b92915050565b6000806040838503121561306f5761306e612dce565b5b600061307d85828601612e48565b925050602061308e85828601612dea565b9150509250929050565b600081519050919050565b600082825260208201905092915050565b6000819050602082019050919050565b60a0820160008201516130da6000850182612eea565b5060208201516130ed6020850182612eea565b5060408201516131006040850182612eea565b5060608201516131136060850182612eea565b5060808201516131266080850182612eea565b50505050565b600061313883836130c4565b60a08301905092915050565b6000602082019050919050565b600061315c82613098565b61316681856130a3565b9350613171836130b4565b8060005b838110156131a2578151613189888261312c565b975061319483613144565b925050600181019050613175565b5085935050505092915050565b600060208201905081810360008301526131c98184613151565b905092915050565b6131da81612e1f565b82525050565b60006020820190506131f560008301846131d1565b92915050565b61320481613022565b82525050565b60608201600082015161322060008501826131fb565b50602082015161323360208501826131fb565b50604082015161324660408501826131fb565b50505050565b6000606082019050613261600083018461320a565b92915050565b6000600a9050919050565b600081905092915050565b6000819050919050565b60808201600082015161329d6000850182612eea565b5060208201516132b06020850182612eea565b5060408201516132c36040850182612eea565b5060608201516132d66060850182612eea565b50505050565b60006132e88383613287565b60808301905092915050565b6000602082019050919050565b61330a81613267565b6133148184613272565b925061331f8261327d565b8060005b8381101561335057815161333787826132dc565b9650613342836132f4565b925050600181019050613323565b505050505050565b60006105008201905061336e6000830184613301565b92915050565b600082825260208201905092915050565b7f4e6f206465706f7369742c204e6f2047616d6521000000000000000000000000600082015250565b60006133bb601483613374565b91506133c682613385565b602082019050919050565b600060208201905081810360008301526133ea816133ae565b9050919050565b7f4e487b7100000000000000000000000000000000000000000000000000000000600052601160045260246000fd5b600061342b82612d9a565b915061343683612d9a565b925082820190508082111561344e5761344d6133f1565b5b92915050565b7f4e6f7420706f737369626c65206f6e20756e636c6f73656420636f6e74657374600082015250565b600061348a602083613374565b915061349582613454565b602082019050919050565b600060208201905081810360008301526134b98161347d565b9050919050565b7f4e487b7100000000000000000000000000000000000000000000000000000000600052603260045260246000fd5b60006134fa82612d9a565b91507fffffffffffffffffffffffffffffffffffffffffffffffffffffffffffffffff820361352c5761352b6133f1565b5b600182019050919050565b600061354282612d9a565b915061354d83612d9a565b9250828203905081811115613565576135646133f1565b5b92915050565b60008160011c9050919050565b6000808291508390505b60018511156135c25780860481111561359e5761359d6133f1565b5b60018516156135ad5780820291505b80810290506135bb8561356b565b9450613582565b94509492505050565b6000826135db5760019050613697565b816135e95760009050613697565b81600181146135ff576002811461360957613638565b6001915050613697565b60ff84111561361b5761361a6133f1565b5b8360020a915084821115613632576136316133f1565b5b50613697565b5060208310610133831016604e8410600b841016171561366d5782820a905083811115613668576136676133f1565b5b613697565b61367a8484846001613578565b92509050818404811115613691576136906133f1565b5b81810290505b9392505050565b600060ff82169050919050565b60006136b682612d9a565b91506136c18361369e565b92506136ee7fffffffffffffffffffffffffffffffffffffffffffffffffffffffffffffffff84846135cb565b905092915050565b600061370182612d9a565b915061370c83612d9a565b925082820261371a81612d9a565b91508282048414831517613731576137306133f1565b5b5092915050565b7f4e487b7100000000000000000000000000000000000000000000000000000000600052601260045260246000fd5b600061377282612d9a565b915061377d83612d9a565b92508261378d5761378c613738565b5b828204905092915050565b7f496e73756666696369656e742062616c616e6365000000000000000000000000600082015250565b60006137ce601483613374565b91506137d982613798565b602082019050919050565b600060208201905081810360008301526137fd816137c1565b9050919050565b7f506c656173652077616974203220636f6e746573747320616674657220796f7560008201527f72206465706f73697420746f2077697464726177000000000000000000000000602082015250565b6000613860603483613374565b915061386b82613804565b604082019050919050565b6000602082019050818103600083015261388f81613853565b9050919050565b60006060820190506138ab60008301866131d1565b6138b86020830185612da4565b6138c560408301846131d1565b949350505050565b60006040820190506138e260008301856131d1565b6138ef6020830184612da4565b9392505050565b6138ff81613022565b811461390a57600080fd5b50565b60008151905061391c816138f6565b92915050565b60006020828403121561393857613937612dce565b5b60006139468482850161390d565b91505092915050565b7f4e6f20636f6e7465737420757064617465210000000000000000000000000000600082015250565b6000613985601283613374565b91506139908261394f565b602082019050919050565b600060208201905081810360008301526139b481613978565b9050919050565b6000815190506139ca81612dd3565b92915050565b6000602082840312156139e6576139e5612dce565b5b60006139f4848285016139bb565b91505092915050565b6000613a0882612d9a565b915060008203613a1b57613a1a6133f1565b5b600182039050919050565b7f596f7520617265206e6f7420616c6c6f77656420746f2073617665206120736360008201527f6f72652100000000000000000000000000000000000000000000000000000000602082015250565b6000613a82602483613374565b9150613a8d82613a26565b604082019050919050565b60006020820190508181036000830152613ab181613a75565b9050919050565b7f4e6f20726571756573742066726f6d20706c6179657200000000000000000000600082015250565b6000613aee601683613374565b9150613af982613ab8565b602082019050919050565b60006020820190508181036000830152613b1d81613ae1565b9050919050565b7f506c6179657220616c726561647920706c617965640000000000000000000000600082015250565b6000613b5a601583613374565b9150613b6582613b24565b602082019050919050565b60006020820190508181036000830152613b8981613b4d565b9050919050565b7f4f776e61626c653a206e6577206f776e657220697320746865207a65726f206160008201527f6464726573730000000000000000000000000000000000000000000000000000602082015250565b6000613bec602683613374565b9150613bf782613b90565b604082019050919050565b60006020820190508181036000830152613c1b81613bdf565b9050919050565b7f496e737566666963656e7420616d6f756e74206f662055534443000000000000600082015250565b6000613c58601a83613374565b9150613c6382613c22565b602082019050919050565b60006020820190508181036000830152613c8781613c4b565b9050919050565b6000604082019050613ca360008301856131d1565b613cb060208301846131d1565b9392505050565b7f496e73756666696369656e7420616c6c6f776564205553444300000000000000600082015250565b6000613ced601983613374565b9150613cf882613cb7565b602082019050919050565b60006020820190508181036000830152613d1c81613ce0565b9050919050565b6000606082019050613d3860008301866131d1565b613d4560208301856131d1565b613d526040830184612da4565b949350505050565b6000819050919050565b600061ffff82169050919050565b6000819050919050565b6000613d97613d92613d8d84613d5a565b613d72565b613d64565b9050919050565b613da781613d7c565b82525050565b6000608082019050613dc260008301876131d1565b613dcf6020830186612da4565b613ddc60408301856131d1565b613de96060830184613d9e565b95945050505050565b7f596f7520616c7265616479207265717565737465640000000000000000000000600082015250565b6000613e28601583613374565b9150613e3382613df2565b602082019050919050565b60006020820190508181036000830152613e5781613e1b565b9050919050565b7f4f776e61626c653a2063616c6c6572206973206e6f7420746865206f776e6572600082015250565b6000613e94602083613374565b9150613e9f82613e5e565b602082019050919050565b60006020820190508181036000830152613ec381613e87565b9050919050565b7f596f7520617265206e6f7420616c6c6f77656420746f20636c61696d21000000600082015250565b6000613f00601d83613374565b9150613f0b82613eca565b602082019050919050565b60006020820190508181036000830152613f2f81613ef3565b9050919050565b7f5061757361626c653a206e6f7420706175736564000000000000000000000000600082015250565b6000613f6c601483613374565b9150613f7782613f36565b602082019050919050565b60006020820190508181036000830152613f9b81613f5f565b9050919050565b7f5061757361626c653a2070617573656400000000000000000000000000000000600082015250565b6000613fd8601083613374565b9150613fe382613fa2565b602082019050919050565b6000602082019050818103600083015261400781613fcb565b905091905056fea2646970667358221220a85331b1e3fcdd779fd162ba23ea0bd550ae9f13a5f6081503e39d672688647464736f6c63430008110033",
  "linkReferences": {},
  "deployedLinkReferences": {}
}