{"contracts/NpngPool.sol":{"NpngPool":{"abi":[{"inputs":[],"stateMutability":"nonpayable","type":"constructor"},{"anonymous":false,"inputs":[{"indexed":true,"internalType":"address","name":"previousOwner","type":"address"},{"indexed":true,"internalType":"address","name":"newOwner","type":"address"}],"name":"OwnershipTransferred","type":"event"},{"inputs":[{"internalType":"uint256","name":"_idContest","type":"uint256"},{"internalType":"address","name":"_player","type":"address"}],"name":"calculateRewards","outputs":[{"internalType":"uint256","name":"","type":"uint256"}],"stateMutability":"view","type":"function"},{"inputs":[{"internalType":"uint256","name":"_newFrequence","type":"uint256"}],"name":"changeGameFrequence","outputs":[],"stateMutability":"nonpayable","type":"function"},{"inputs":[{"internalType":"address","name":"_newAddress","type":"address"}],"name":"changeNpngTokenAddress","outputs":[],"stateMutability":"nonpayable","type":"function"},{"inputs":[{"internalType":"uint256","name":"_idContest","type":"uint256"},{"internalType":"address","name":"_player","type":"address"}],"name":"checkPlayerRank","outputs":[{"internalType":"uint256","name":"","type":"uint256"}],"stateMutability":"view","type":"function"},{"inputs":[{"internalType":"uint256","name":"","type":"uint256"}],"name":"contestsResult","outputs":[{"internalType":"uint256","name":"idContest","type":"uint256"},{"internalType":"address","name":"player","type":"address"},{"internalType":"uint256","name":"score","type":"uint256"}],"stateMutability":"view","type":"function"},{"inputs":[{"internalType":"uint256","name":"_amount","type":"uint256"}],"name":"depositOnAave","outputs":[],"stateMutability":"nonpayable","type":"function"},{"inputs":[],"name":"getCurrentIdContest","outputs":[{"internalType":"uint256","name":"","type":"uint256"}],"stateMutability":"view","type":"function"},{"inputs":[],"name":"getGameFrequence","outputs":[{"internalType":"uint256","name":"","type":"uint256"}],"stateMutability":"view","type":"function"},{"inputs":[{"internalType":"address","name":"_account","type":"address"}],"name":"getMyBalance","outputs":[{"internalType":"uint256","name":"","type":"uint256"}],"stateMutability":"view","type":"function"},{"inputs":[],"name":"getScore","outputs":[{"components":[{"internalType":"uint256","name":"idContest","type":"uint256"},{"internalType":"address","name":"player","type":"address"},{"internalType":"uint256","name":"score","type":"uint256"}],"internalType":"struct NpngGame.ContestsResult[]","name":"","type":"tuple[]"}],"stateMutability":"view","type":"function"},{"inputs":[{"internalType":"uint256","name":"_idContest","type":"uint256"}],"name":"getTopPlayers","outputs":[{"components":[{"internalType":"uint256","name":"idContest","type":"uint256"},{"internalType":"address","name":"player","type":"address"},{"internalType":"uint256","name":"score","type":"uint256"}],"internalType":"struct NpngGame.ContestsResult[10]","name":"","type":"tuple[10]"}],"stateMutability":"view","type":"function"},{"inputs":[{"internalType":"uint256","name":"_idContest","type":"uint256"}],"name":"getTotalAmountTopPlayers","outputs":[{"internalType":"uint256","name":"","type":"uint256"}],"stateMutability":"view","type":"function"},{"inputs":[],"name":"interestEarned","outputs":[{"internalType":"uint256","name":"","type":"uint256"}],"stateMutability":"view","type":"function"},{"inputs":[{"internalType":"uint256","name":"","type":"uint256"}],"name":"numberOfPlayersPerContest","outputs":[{"internalType":"uint256","name":"","type":"uint256"}],"stateMutability":"view","type":"function"},{"inputs":[],"name":"owner","outputs":[{"internalType":"address","name":"","type":"address"}],"stateMutability":"view","type":"function"},{"inputs":[],"name":"renounceOwnership","outputs":[],"stateMutability":"nonpayable","type":"function"},{"inputs":[{"internalType":"address","name":"player","type":"address"},{"internalType":"uint256","name":"score","type":"uint256"}],"name":"saveScore","outputs":[],"stateMutability":"nonpayable","type":"function"},{"inputs":[{"internalType":"address","name":"newOwner","type":"address"}],"name":"transferOwnership","outputs":[],"stateMutability":"nonpayable","type":"function"},{"inputs":[],"name":"updateIdContest","outputs":[],"stateMutability":"nonpayable","type":"function"},{"inputs":[{"internalType":"uint256","name":"_amount","type":"uint256"}],"name":"withdraw","outputs":[],"stateMutability":"nonpayable","type":"function"}],"evm":{"bytecode":{"linkReferences":{},"object":"60806040523480156200001157600080fd5b506200003262000026620001ae60201b60201c565b620001b660201b60201c565b4260068190555060065460078190555060016005819055506201518060048190555073a2025b15a1757311bfd68cb14eaefcc237af5b43600a60006101000a81548173ffffffffffffffffffffffffffffffffffffffff021916908373ffffffffffffffffffffffffffffffffffffffff160217905550731ee669290939f8a8864497af3bc83728715265ff600b60006101000a81548173ffffffffffffffffffffffffffffffffffffffff021916908373ffffffffffffffffffffffffffffffffffffffff16021790555073368eedf3f56ad10b9bc57eed4dac65b26bb667f6600d60006101000a81548173ffffffffffffffffffffffffffffffffffffffff021916908373ffffffffffffffffffffffffffffffffffffffff160217905550738ad6d963600f5c45dabd5ff6faa04d51a6d549f0600c60006101000a81548173ffffffffffffffffffffffffffffffffffffffff021916908373ffffffffffffffffffffffffffffffffffffffff1602179055506200027a565b600033905090565b60008060009054906101000a900473ffffffffffffffffffffffffffffffffffffffff169050816000806101000a81548173ffffffffffffffffffffffffffffffffffffffff021916908373ffffffffffffffffffffffffffffffffffffffff1602179055508173ffffffffffffffffffffffffffffffffffffffff168173ffffffffffffffffffffffffffffffffffffffff167f8be0079c531659141344cd1fd0a4f28419497f9722a3daafe3b4186f6b6457e060405160405180910390a35050565b612916806200028a6000396000f3fe608060405234801561001057600080fd5b506004361061012c5760003560e01c80638347f536116100ad578063e9d6999011610071578063e9d6999014610321578063f2fbee3f14610351578063f2fde38b1461036d578063fc04ca9414610389578063fd8d1909146103b95761012c565b80638347f536146102695780638c6ba47b146102855780638da5cb5b146102b5578063afd82067146102d3578063ba3c0067146102f15761012c565b806363072aab116100f457806363072aab146101eb578063695a651714610209578063715018a614610225578063771baacb1461022f5780637e3ef7cd146102395761012c565b806305e81bda14610131578063176864221461014f5780631b922c091461017f5780632e1a7d4d146101b1578063374261ab146101cd575b600080fd5b6101396103d5565b6040516101469190611d77565b60405180910390f35b61016960048036038101906101649190611e21565b6103df565b6040516101769190611d77565b60405180910390f35b61019960048036038101906101949190611e61565b610497565b6040516101a893929190611e9d565b60405180910390f35b6101cb60048036038101906101c69190611e61565b6104f1565b005b6101d561090a565b6040516101e29190611d77565b60405180910390f35b6101f36109f7565b6040516102009190611d77565b60405180910390f35b610223600480360381019061021e9190611ed4565b610a01565b005b61022d610b0b565b005b610237610b1f565b005b610253600480360381019061024e9190611f14565b610b71565b6040516102609190611d77565b60405180910390f35b610283600480360381019061027e9190611f14565b610bba565b005b61029f600480360381019061029a9190611e21565b610c06565b6040516102ac9190611d77565b60405180910390f35b6102bd610ca2565b6040516102ca9190611f41565b60405180910390f35b6102db610ccb565b6040516102e8919061206b565b60405180910390f35b61030b60048036038101906103069190611e61565b610d94565b6040516103189190612111565b60405180910390f35b61033b60048036038101906103369190611e61565b6114f6565b6040516103489190611d77565b60405180910390f35b61036b60048036038101906103669190611e61565b61150e565b005b61038760048036038101906103829190611f14565b611520565b005b6103a3600480360381019061039e9190611e61565b6115a3565b6040516103b09190611d77565b60405180910390f35b6103d360048036038101906103ce9190611e61565b61160a565b005b6000600454905090565b6000806103ec8484610c06565b90506000600860008573ffffffffffffffffffffffffffffffffffffffff1673ffffffffffffffffffffffffffffffffffffffff168152602001908152602001600020549050600061043d866115a3565b905060006005606485610450919061218b565b600161045c91906121bc565b6104669190612330565b608b8385610474919061218b565b61047e919061237b565b610488919061237b565b90508094505050505092915050565b600181815481106104a757600080fd5b90600052602060002090600302016000915090508060000154908060010160009054906101000a900473ffffffffffffffffffffffffffffffffffffffff16908060020154905083565b80600860003373ffffffffffffffffffffffffffffffffffffffff1673ffffffffffffffffffffffffffffffffffffffff168152602001908152602001600020541015610573576040517f08c379a000000000000000000000000000000000000000000000000000000000815260040161056a9061241a565b60405180910390fd5b600261057d6109f7565b610587919061243a565b600960003373ffffffffffffffffffffffffffffffffffffffff1673ffffffffffffffffffffffffffffffffffffffff168152602001908152602001600020541115610608576040517f08c379a00000000000000000000000000000000000000000000000000000000081526004016105ff906124e0565b60405180910390fd5b600d60009054906101000a900473ffffffffffffffffffffffffffffffffffffffff1673ffffffffffffffffffffffffffffffffffffffff166369328dec600a60009054906101000a900473ffffffffffffffffffffffffffffffffffffffff1683306040518463ffffffff1660e01b815260040161068993929190612500565b600060405180830381600087803b1580156106a357600080fd5b505af11580156106b7573d6000803e3d6000fd5b50505050600a60009054906101000a900473ffffffffffffffffffffffffffffffffffffffff1673ffffffffffffffffffffffffffffffffffffffff1663a9059cbb33836040518363ffffffff1660e01b8152600401610718929190612537565b6020604051808303816000875af1158015610737573d6000803e3d6000fd5b505050506040513d601f19601f8201168201806040525081019061075b9190612598565b5080600860003373ffffffffffffffffffffffffffffffffffffffff1673ffffffffffffffffffffffffffffffffffffffff168152602001908152602001600020546107a791906121bc565b600860003373ffffffffffffffffffffffffffffffffffffffff1673ffffffffffffffffffffffffffffffffffffffff1681526020019081526020016000208190555080600860003073ffffffffffffffffffffffffffffffffffffffff1673ffffffffffffffffffffffffffffffffffffffff1681526020019081526020016000205461083591906121bc565b600860003073ffffffffffffffffffffffffffffffffffffffff1673ffffffffffffffffffffffffffffffffffffffff16815260200190815260200160002081905550600c60009054906101000a900473ffffffffffffffffffffffffffffffffffffffff1673ffffffffffffffffffffffffffffffffffffffff16639dc29fac33836040518363ffffffff1660e01b81526004016108d5929190612537565b600060405180830381600087803b1580156108ef57600080fd5b505af1158015610903573d6000803e3d6000fd5b5050505050565b6000600860003073ffffffffffffffffffffffffffffffffffffffff1673ffffffffffffffffffffffffffffffffffffffff16815260200190815260200160002054600b60009054906101000a900473ffffffffffffffffffffffffffffffffffffffff1673ffffffffffffffffffffffffffffffffffffffff166370a08231306040518263ffffffff1660e01b81526004016109a79190611f41565b602060405180830381865afa1580156109c4573d6000803e3d6000fd5b505050506040513d601f19601f820116820180604052508101906109e891906125da565b6109f291906121bc565b905090565b6000600554905090565b610a09611baf565b610a11610b1f565b6001604051806060016040528060055481526020018473ffffffffffffffffffffffffffffffffffffffff1681526020018381525090806001815401808255809150506001900390600052602060002090600302016000909190919091506000820151816000015560208201518160010160006101000a81548173ffffffffffffffffffffffffffffffffffffffff021916908373ffffffffffffffffffffffffffffffffffffffff160217905550604082015181600201555050600160026000600554815260200190815260200160002054610aee919061243a565b600260006005548152602001908152602001600020819055505050565b610b13611baf565b610b1d6000611c2d565b565b6000429050600060045460075483610b3791906121bc565b610b41919061218b565b90506000811115610b6d578060056000828254610b5e919061243a565b92505081905550816007819055505b5050565b6000600860008373ffffffffffffffffffffffffffffffffffffffff1673ffffffffffffffffffffffffffffffffffffffff168152602001908152602001600020549050919050565b610bc2611baf565b80600c60006101000a81548173ffffffffffffffffffffffffffffffffffffffff021916908373ffffffffffffffffffffffffffffffffffffffff16021790555050565b600080610c1284610d94565b90506000805b600a811015610c96578281600a8110610c3457610c33612607565b5b60200201516020015173ffffffffffffffffffffffffffffffffffffffff168573ffffffffffffffffffffffffffffffffffffffff1603610c8357600181610c7c919061243a565b9150610c96565b8080610c8e90612636565b915050610c18565b50809250505092915050565b60008060009054906101000a900473ffffffffffffffffffffffffffffffffffffffff16905090565b60606001805480602002602001604051908101604052809291908181526020016000905b82821015610d8b5783829060005260206000209060030201604051806060016040529081600082015481526020016001820160009054906101000a900473ffffffffffffffffffffffffffffffffffffffff1673ffffffffffffffffffffffffffffffffffffffff1673ffffffffffffffffffffffffffffffffffffffff16815260200160028201548152505081526020019060010190610cef565b50505050905090565b610d9c611cf9565b610da4611cf9565b60005b600a811015610e1257604051806060016040528085815260200161dead73ffffffffffffffffffffffffffffffffffffffff16815260200160008152508282600a8110610df757610df6612607565b5b60200201819052508080610e0a90612636565b915050610da7565b5060005b600a8110156114ec576000826009600a8110610e3557610e34612607565b5b6020020151905060005b6001805490508110156114bb578560018281548110610e6157610e60612607565b5b906000526020600020906003020160000154148015610f0d5750836000600a8110610e8f57610e8e612607565b5b60200201516020015173ffffffffffffffffffffffffffffffffffffffff1660018281548110610ec257610ec1612607565b5b906000526020600020906003020160010160009054906101000a900473ffffffffffffffffffffffffffffffffffffffff1673ffffffffffffffffffffffffffffffffffffffff1614155b8015610fa65750836001600a8110610f2857610f27612607565b5b60200201516020015173ffffffffffffffffffffffffffffffffffffffff1660018281548110610f5b57610f5a612607565b5b906000526020600020906003020160010160009054906101000a900473ffffffffffffffffffffffffffffffffffffffff1673ffffffffffffffffffffffffffffffffffffffff1614155b801561103f5750836002600a8110610fc157610fc0612607565b5b60200201516020015173ffffffffffffffffffffffffffffffffffffffff1660018281548110610ff457610ff3612607565b5b906000526020600020906003020160010160009054906101000a900473ffffffffffffffffffffffffffffffffffffffff1673ffffffffffffffffffffffffffffffffffffffff1614155b80156110d85750836003600a811061105a57611059612607565b5b60200201516020015173ffffffffffffffffffffffffffffffffffffffff166001828154811061108d5761108c612607565b5b906000526020600020906003020160010160009054906101000a900473ffffffffffffffffffffffffffffffffffffffff1673ffffffffffffffffffffffffffffffffffffffff1614155b80156111715750836004600a81106110f3576110f2612607565b5b60200201516020015173ffffffffffffffffffffffffffffffffffffffff166001828154811061112657611125612607565b5b906000526020600020906003020160010160009054906101000a900473ffffffffffffffffffffffffffffffffffffffff1673ffffffffffffffffffffffffffffffffffffffff1614155b801561120a5750836005600a811061118c5761118b612607565b5b60200201516020015173ffffffffffffffffffffffffffffffffffffffff16600182815481106111bf576111be612607565b5b906000526020600020906003020160010160009054906101000a900473ffffffffffffffffffffffffffffffffffffffff1673ffffffffffffffffffffffffffffffffffffffff1614155b80156112a35750836006600a811061122557611224612607565b5b60200201516020015173ffffffffffffffffffffffffffffffffffffffff166001828154811061125857611257612607565b5b906000526020600020906003020160010160009054906101000a900473ffffffffffffffffffffffffffffffffffffffff1673ffffffffffffffffffffffffffffffffffffffff1614155b801561133c5750836007600a81106112be576112bd612607565b5b60200201516020015173ffffffffffffffffffffffffffffffffffffffff16600182815481106112f1576112f0612607565b5b906000526020600020906003020160010160009054906101000a900473ffffffffffffffffffffffffffffffffffffffff1673ffffffffffffffffffffffffffffffffffffffff1614155b80156113d55750836008600a811061135757611356612607565b5b60200201516020015173ffffffffffffffffffffffffffffffffffffffff166001828154811061138a57611389612607565b5b906000526020600020906003020160010160009054906101000a900473ffffffffffffffffffffffffffffffffffffffff1673ffffffffffffffffffffffffffffffffffffffff1614155b801561140957508160400151600182815481106113f5576113f4612607565b5b906000526020600020906003020160020154115b156114a8576001818154811061142257611421612607565b5b9060005260206000209060030201604051806060016040529081600082015481526020016001820160009054906101000a900473ffffffffffffffffffffffffffffffffffffffff1673ffffffffffffffffffffffffffffffffffffffff1673ffffffffffffffffffffffffffffffffffffffff16815260200160028201548152505091505b80806114b390612636565b915050610e3f565b50808383600a81106114d0576114cf612607565b5b60200201819052505080806114e490612636565b915050610e16565b5080915050919050565b60026020528060005260406000206000915090505481565b611516611baf565b8060048190555050565b611528611baf565b600073ffffffffffffffffffffffffffffffffffffffff168173ffffffffffffffffffffffffffffffffffffffff1603611597576040517f08c379a000000000000000000000000000000000000000000000000000000000815260040161158e906126f0565b60405180910390fd5b6115a081611c2d565b50565b6000806000905060006115b584610d94565b905060005b600a8110156115ff578181600a81106115d6576115d5612607565b5b602002015160400151836115ea919061243a565b925080806115f790612636565b9150506115ba565b508192505050919050565b600a60009054906101000a900473ffffffffffffffffffffffffffffffffffffffff1673ffffffffffffffffffffffffffffffffffffffff166370a08231336040518263ffffffff1660e01b81526004016116659190611f41565b602060405180830381865afa158015611682573d6000803e3d6000fd5b505050506040513d601f19601f820116820180604052508101906116a691906125da565b8111156116b257600080fd5b600a60009054906101000a900473ffffffffffffffffffffffffffffffffffffffff1673ffffffffffffffffffffffffffffffffffffffff1663dd62ed3e33306040518363ffffffff1660e01b815260040161170f929190612710565b602060405180830381865afa15801561172c573d6000803e3d6000fd5b505050506040513d601f19601f8201168201806040525081019061175091906125da565b811115611792576040517f08c379a000000000000000000000000000000000000000000000000000000000815260040161178990612785565b60405180910390fd5b600a60009054906101000a900473ffffffffffffffffffffffffffffffffffffffff1673ffffffffffffffffffffffffffffffffffffffff166323b872dd3330846040518463ffffffff1660e01b81526004016117f1939291906127a5565b6020604051808303816000875af1158015611810573d6000803e3d6000fd5b505050506040513d601f19601f820116820180604052508101906118349190612598565b50600a60009054906101000a900473ffffffffffffffffffffffffffffffffffffffff1673ffffffffffffffffffffffffffffffffffffffff1663095ea7b3600d60009054906101000a900473ffffffffffffffffffffffffffffffffffffffff16836040518363ffffffff1660e01b81526004016118b4929190612537565b6020604051808303816000875af11580156118d3573d6000803e3d6000fd5b505050506040513d601f19601f820116820180604052508101906118f79190612598565b50600d60009054906101000a900473ffffffffffffffffffffffffffffffffffffffff1673ffffffffffffffffffffffffffffffffffffffff1663617ba037600a60009054906101000a900473ffffffffffffffffffffffffffffffffffffffff16833060006040518563ffffffff1660e01b815260040161197c949392919061282f565b600060405180830381600087803b15801561199657600080fd5b505af11580156119aa573d6000803e3d6000fd5b5050505080600860003373ffffffffffffffffffffffffffffffffffffffff1673ffffffffffffffffffffffffffffffffffffffff168152602001908152602001600020546119f9919061243a565b600860003373ffffffffffffffffffffffffffffffffffffffff1673ffffffffffffffffffffffffffffffffffffffff1681526020019081526020016000208190555080600860003073ffffffffffffffffffffffffffffffffffffffff1673ffffffffffffffffffffffffffffffffffffffff16815260200190815260200160002054611a87919061243a565b600860003073ffffffffffffffffffffffffffffffffffffffff1673ffffffffffffffffffffffffffffffffffffffff16815260200190815260200160002081905550600c60009054906101000a900473ffffffffffffffffffffffffffffffffffffffff1673ffffffffffffffffffffffffffffffffffffffff166340c10f1933836040518363ffffffff1660e01b8152600401611b27929190612537565b600060405180830381600087803b158015611b4157600080fd5b505af1158015611b55573d6000803e3d6000fd5b50505050611b61610b1f565b611b696109f7565b600960003373ffffffffffffffffffffffffffffffffffffffff1673ffffffffffffffffffffffffffffffffffffffff1681526020019081526020016000208190555050565b611bb7611cf1565b73ffffffffffffffffffffffffffffffffffffffff16611bd5610ca2565b73ffffffffffffffffffffffffffffffffffffffff1614611c2b576040517f08c379a0000000000000000000000000000000000000000000000000000000008152600401611c22906128c0565b60405180910390fd5b565b60008060009054906101000a900473ffffffffffffffffffffffffffffffffffffffff169050816000806101000a81548173ffffffffffffffffffffffffffffffffffffffff021916908373ffffffffffffffffffffffffffffffffffffffff1602179055508173ffffffffffffffffffffffffffffffffffffffff168173ffffffffffffffffffffffffffffffffffffffff167f8be0079c531659141344cd1fd0a4f28419497f9722a3daafe3b4186f6b6457e060405160405180910390a35050565b600033905090565b604051806101400160405280600a905b611d11611d27565b815260200190600190039081611d095790505090565b604051806060016040528060008152602001600073ffffffffffffffffffffffffffffffffffffffff168152602001600081525090565b6000819050919050565b611d7181611d5e565b82525050565b6000602082019050611d8c6000830184611d68565b92915050565b600080fd5b611da081611d5e565b8114611dab57600080fd5b50565b600081359050611dbd81611d97565b92915050565b600073ffffffffffffffffffffffffffffffffffffffff82169050919050565b6000611dee82611dc3565b9050919050565b611dfe81611de3565b8114611e0957600080fd5b50565b600081359050611e1b81611df5565b92915050565b60008060408385031215611e3857611e37611d92565b5b6000611e4685828601611dae565b9250506020611e5785828601611e0c565b9150509250929050565b600060208284031215611e7757611e76611d92565b5b6000611e8584828501611dae565b91505092915050565b611e9781611de3565b82525050565b6000606082019050611eb26000830186611d68565b611ebf6020830185611e8e565b611ecc6040830184611d68565b949350505050565b60008060408385031215611eeb57611eea611d92565b5b6000611ef985828601611e0c565b9250506020611f0a85828601611dae565b9150509250929050565b600060208284031215611f2a57611f29611d92565b5b6000611f3884828501611e0c565b91505092915050565b6000602082019050611f566000830184611e8e565b92915050565b600081519050919050565b600082825260208201905092915050565b6000819050602082019050919050565b611f9181611d5e565b82525050565b611fa081611de3565b82525050565b606082016000820151611fbc6000850182611f88565b506020820151611fcf6020850182611f97565b506040820151611fe26040850182611f88565b50505050565b6000611ff48383611fa6565b60608301905092915050565b6000602082019050919050565b600061201882611f5c565b6120228185611f67565b935061202d83611f78565b8060005b8381101561205e5781516120458882611fe8565b975061205083612000565b925050600181019050612031565b5085935050505092915050565b60006020820190508181036000830152612085818461200d565b905092915050565b6000600a9050919050565b600081905092915050565b6000819050919050565b6000602082019050919050565b6120c38161208d565b6120cd8184612098565b92506120d8826120a3565b8060005b838110156121095781516120f08782611fe8565b96506120fb836120ad565b9250506001810190506120dc565b505050505050565b60006103c08201905061212760008301846120ba565b92915050565b7f4e487b7100000000000000000000000000000000000000000000000000000000600052601260045260246000fd5b7f4e487b7100000000000000000000000000000000000000000000000000000000600052601160045260246000fd5b600061219682611d5e565b91506121a183611d5e565b9250826121b1576121b061212d565b5b828204905092915050565b60006121c782611d5e565b91506121d283611d5e565b92508282039050818111156121ea576121e961215c565b5b92915050565b60008160011c9050919050565b6000808291508390505b6001851115612247578086048111156122235761222261215c565b5b60018516156122325780820291505b8081029050612240856121f0565b9450612207565b94509492505050565b600082612260576001905061231c565b8161226e576000905061231c565b8160018114612284576002811461228e576122bd565b600191505061231c565b60ff8411156122a05761229f61215c565b5b8360020a9150848211156122b7576122b661215c565b5b5061231c565b5060208310610133831016604e8410600b84101617156122f25782820a9050838111156122ed576122ec61215c565b5b61231c565b6122ff84848460016121fd565b925090508184048111156123165761231561215c565b5b81810290505b9392505050565b600060ff82169050919050565b600061233b82611d5e565b915061234683612323565b92506123737fffffffffffffffffffffffffffffffffffffffffffffffffffffffffffffffff8484612250565b905092915050565b600061238682611d5e565b915061239183611d5e565b925082820261239f81611d5e565b915082820484148315176123b6576123b561215c565b5b5092915050565b600082825260208201905092915050565b7f496e73756666696369656e742062616c616e6365000000000000000000000000600082015250565b60006124046014836123bd565b915061240f826123ce565b602082019050919050565b60006020820190508181036000830152612433816123f7565b9050919050565b600061244582611d5e565b915061245083611d5e565b92508282019050808211156124685761246761215c565b5b92915050565b7f506c656173652077616974203220636f6e746573747320616674657220796f7560008201527f72206465706f73697420746f2077697464726177000000000000000000000000602082015250565b60006124ca6034836123bd565b91506124d58261246e565b604082019050919050565b600060208201905081810360008301526124f9816124bd565b9050919050565b60006060820190506125156000830186611e8e565b6125226020830185611d68565b61252f6040830184611e8e565b949350505050565b600060408201905061254c6000830185611e8e565b6125596020830184611d68565b9392505050565b60008115159050919050565b61257581612560565b811461258057600080fd5b50565b6000815190506125928161256c565b92915050565b6000602082840312156125ae576125ad611d92565b5b60006125bc84828501612583565b91505092915050565b6000815190506125d481611d97565b92915050565b6000602082840312156125f0576125ef611d92565b5b60006125fe848285016125c5565b91505092915050565b7f4e487b7100000000000000000000000000000000000000000000000000000000600052603260045260246000fd5b600061264182611d5e565b91507fffffffffffffffffffffffffffffffffffffffffffffffffffffffffffffffff82036126735761267261215c565b5b600182019050919050565b7f4f776e61626c653a206e6577206f776e657220697320746865207a65726f206160008201527f6464726573730000000000000000000000000000000000000000000000000000602082015250565b60006126da6026836123bd565b91506126e58261267e565b604082019050919050565b60006020820190508181036000830152612709816126cd565b9050919050565b60006040820190506127256000830185611e8e565b6127326020830184611e8e565b9392505050565b7f496e73756666696369656e7420616c6c6f776564205553444300000000000000600082015250565b600061276f6019836123bd565b915061277a82612739565b602082019050919050565b6000602082019050818103600083015261279e81612762565b9050919050565b60006060820190506127ba6000830186611e8e565b6127c76020830185611e8e565b6127d46040830184611d68565b949350505050565b6000819050919050565b600061ffff82169050919050565b6000819050919050565b600061281961281461280f846127dc565b6127f4565b6127e6565b9050919050565b612829816127fe565b82525050565b60006080820190506128446000830187611e8e565b6128516020830186611d68565b61285e6040830185611e8e565b61286b6060830184612820565b95945050505050565b7f4f776e61626c653a2063616c6c6572206973206e6f7420746865206f776e6572600082015250565b60006128aa6020836123bd565b91506128b582612874565b602082019050919050565b600060208201905081810360008301526128d98161289d565b905091905056fea26469706673582212202c3e404e3a9ee62b5809c1318cbe451b5a30aa18d8f808ebe0c953a788c193f364736f6c63430008110033","opcodes":"PUSH1 0x80 PUSH1 0x40 MSTORE CALLVALUE DUP1 ISZERO PUSH3 0x11 JUMPI PUSH1 0x0 DUP1 REVERT JUMPDEST POP PUSH3 0x32 PUSH3 0x26 PUSH3 0x1AE PUSH1 0x20 SHL PUSH1 0x20 SHR JUMP JUMPDEST PUSH3 0x1B6 PUSH1 0x20 SHL PUSH1 0x20 SHR JUMP JUMPDEST TIMESTAMP PUSH1 0x6 DUP2 SWAP1 SSTORE POP PUSH1 0x6 SLOAD PUSH1 0x7 DUP2 SWAP1 SSTORE POP PUSH1 0x1 PUSH1 0x5 DUP2 SWAP1 SSTORE POP PUSH3 0x15180 PUSH1 0x4 DUP2 SWAP1 SSTORE POP PUSH20 0xA2025B15A1757311BFD68CB14EAEFCC237AF5B43 PUSH1 0xA PUSH1 0x0 PUSH2 0x100 EXP DUP2 SLOAD DUP2 PUSH20 0xFFFFFFFFFFFFFFFFFFFFFFFFFFFFFFFFFFFFFFFF MUL NOT AND SWAP1 DUP4 PUSH20 0xFFFFFFFFFFFFFFFFFFFFFFFFFFFFFFFFFFFFFFFF AND MUL OR SWAP1 SSTORE POP PUSH20 0x1EE669290939F8A8864497AF3BC83728715265FF PUSH1 0xB PUSH1 0x0 PUSH2 0x100 EXP DUP2 SLOAD DUP2 PUSH20 0xFFFFFFFFFFFFFFFFFFFFFFFFFFFFFFFFFFFFFFFF MUL NOT AND SWAP1 DUP4 PUSH20 0xFFFFFFFFFFFFFFFFFFFFFFFFFFFFFFFFFFFFFFFF AND MUL OR SWAP1 SSTORE POP PUSH20 0x368EEDF3F56AD10B9BC57EED4DAC65B26BB667F6 PUSH1 0xD PUSH1 0x0 PUSH2 0x100 EXP DUP2 SLOAD DUP2 PUSH20 0xFFFFFFFFFFFFFFFFFFFFFFFFFFFFFFFFFFFFFFFF MUL NOT AND SWAP1 DUP4 PUSH20 0xFFFFFFFFFFFFFFFFFFFFFFFFFFFFFFFFFFFFFFFF AND MUL OR SWAP1 SSTORE POP PUSH20 0x8AD6D963600F5C45DABD5FF6FAA04D51A6D549F0 PUSH1 0xC PUSH1 0x0 PUSH2 0x100 EXP DUP2 SLOAD DUP2 PUSH20 0xFFFFFFFFFFFFFFFFFFFFFFFFFFFFFFFFFFFFFFFF MUL NOT AND SWAP1 DUP4 PUSH20 0xFFFFFFFFFFFFFFFFFFFFFFFFFFFFFFFFFFFFFFFF AND MUL OR SWAP1 SSTORE POP PUSH3 0x27A JUMP JUMPDEST PUSH1 0x0 CALLER SWAP1 POP SWAP1 JUMP JUMPDEST PUSH1 0x0 DUP1 PUSH1 0x0 SWAP1 SLOAD SWAP1 PUSH2 0x100 EXP SWAP1 DIV PUSH20 0xFFFFFFFFFFFFFFFFFFFFFFFFFFFFFFFFFFFFFFFF AND SWAP1 POP DUP2 PUSH1 0x0 DUP1 PUSH2 0x100 EXP DUP2 SLOAD DUP2 PUSH20 0xFFFFFFFFFFFFFFFFFFFFFFFFFFFFFFFFFFFFFFFF MUL NOT AND SWAP1 DUP4 PUSH20 0xFFFFFFFFFFFFFFFFFFFFFFFFFFFFFFFFFFFFFFFF AND MUL OR SWAP1 SSTORE POP DUP2 PUSH20 0xFFFFFFFFFFFFFFFFFFFFFFFFFFFFFFFFFFFFFFFF AND DUP2 PUSH20 0xFFFFFFFFFFFFFFFFFFFFFFFFFFFFFFFFFFFFFFFF AND PUSH32 0x8BE0079C531659141344CD1FD0A4F28419497F9722A3DAAFE3B4186F6B6457E0 PUSH1 0x40 MLOAD PUSH1 0x40 MLOAD DUP1 SWAP2 SUB SWAP1 LOG3 POP POP JUMP JUMPDEST PUSH2 0x2916 DUP1 PUSH3 0x28A PUSH1 0x0 CODECOPY PUSH1 0x0 RETURN INVALID PUSH1 0x80 PUSH1 0x40 MSTORE CALLVALUE DUP1 ISZERO PUSH2 0x10 JUMPI PUSH1 0x0 DUP1 REVERT JUMPDEST POP PUSH1 0x4 CALLDATASIZE LT PUSH2 0x12C JUMPI PUSH1 0x0 CALLDATALOAD PUSH1 0xE0 SHR DUP1 PUSH4 0x8347F536 GT PUSH2 0xAD JUMPI DUP1 PUSH4 0xE9D69990 GT PUSH2 0x71 JUMPI DUP1 PUSH4 0xE9D69990 EQ PUSH2 0x321 JUMPI DUP1 PUSH4 0xF2FBEE3F EQ PUSH2 0x351 JUMPI DUP1 PUSH4 0xF2FDE38B EQ PUSH2 0x36D JUMPI DUP1 PUSH4 0xFC04CA94 EQ PUSH2 0x389 JUMPI DUP1 PUSH4 0xFD8D1909 EQ PUSH2 0x3B9 JUMPI PUSH2 0x12C JUMP JUMPDEST DUP1 PUSH4 0x8347F536 EQ PUSH2 0x269 JUMPI DUP1 PUSH4 0x8C6BA47B EQ PUSH2 0x285 JUMPI DUP1 PUSH4 0x8DA5CB5B EQ PUSH2 0x2B5 JUMPI DUP1 PUSH4 0xAFD82067 EQ PUSH2 0x2D3 JUMPI DUP1 PUSH4 0xBA3C0067 EQ PUSH2 0x2F1 JUMPI PUSH2 0x12C JUMP JUMPDEST DUP1 PUSH4 0x63072AAB GT PUSH2 0xF4 JUMPI DUP1 PUSH4 0x63072AAB EQ PUSH2 0x1EB JUMPI DUP1 PUSH4 0x695A6517 EQ PUSH2 0x209 JUMPI DUP1 PUSH4 0x715018A6 EQ PUSH2 0x225 JUMPI DUP1 PUSH4 0x771BAACB EQ PUSH2 0x22F JUMPI DUP1 PUSH4 0x7E3EF7CD EQ PUSH2 0x239 JUMPI PUSH2 0x12C JUMP JUMPDEST DUP1 PUSH4 0x5E81BDA EQ PUSH2 0x131 JUMPI DUP1 PUSH4 0x17686422 EQ PUSH2 0x14F JUMPI DUP1 PUSH4 0x1B922C09 EQ PUSH2 0x17F JUMPI DUP1 PUSH4 0x2E1A7D4D EQ PUSH2 0x1B1 JUMPI DUP1 PUSH4 0x374261AB EQ PUSH2 0x1CD JUMPI JUMPDEST PUSH1 0x0 DUP1 REVERT JUMPDEST PUSH2 0x139 PUSH2 0x3D5 JUMP JUMPDEST PUSH1 0x40 MLOAD PUSH2 0x146 SWAP2 SWAP1 PUSH2 0x1D77 JUMP JUMPDEST PUSH1 0x40 MLOAD DUP1 SWAP2 SUB SWAP1 RETURN JUMPDEST PUSH2 0x169 PUSH1 0x4 DUP1 CALLDATASIZE SUB DUP2 ADD SWAP1 PUSH2 0x164 SWAP2 SWAP1 PUSH2 0x1E21 JUMP JUMPDEST PUSH2 0x3DF JUMP JUMPDEST PUSH1 0x40 MLOAD PUSH2 0x176 SWAP2 SWAP1 PUSH2 0x1D77 JUMP JUMPDEST PUSH1 0x40 MLOAD DUP1 SWAP2 SUB SWAP1 RETURN JUMPDEST PUSH2 0x199 PUSH1 0x4 DUP1 CALLDATASIZE SUB DUP2 ADD SWAP1 PUSH2 0x194 SWAP2 SWAP1 PUSH2 0x1E61 JUMP JUMPDEST PUSH2 0x497 JUMP JUMPDEST PUSH1 0x40 MLOAD PUSH2 0x1A8 SWAP4 SWAP3 SWAP2 SWAP1 PUSH2 0x1E9D JUMP JUMPDEST PUSH1 0x40 MLOAD DUP1 SWAP2 SUB SWAP1 RETURN JUMPDEST PUSH2 0x1CB PUSH1 0x4 DUP1 CALLDATASIZE SUB DUP2 ADD SWAP1 PUSH2 0x1C6 SWAP2 SWAP1 PUSH2 0x1E61 JUMP JUMPDEST PUSH2 0x4F1 JUMP JUMPDEST STOP JUMPDEST PUSH2 0x1D5 PUSH2 0x90A JUMP JUMPDEST PUSH1 0x40 MLOAD PUSH2 0x1E2 SWAP2 SWAP1 PUSH2 0x1D77 JUMP JUMPDEST PUSH1 0x40 MLOAD DUP1 SWAP2 SUB SWAP1 RETURN JUMPDEST PUSH2 0x1F3 PUSH2 0x9F7 JUMP JUMPDEST PUSH1 0x40 MLOAD PUSH2 0x200 SWAP2 SWAP1 PUSH2 0x1D77 JUMP JUMPDEST PUSH1 0x40 MLOAD DUP1 SWAP2 SUB SWAP1 RETURN JUMPDEST PUSH2 0x223 PUSH1 0x4 DUP1 CALLDATASIZE SUB DUP2 ADD SWAP1 PUSH2 0x21E SWAP2 SWAP1 PUSH2 0x1ED4 JUMP JUMPDEST PUSH2 0xA01 JUMP JUMPDEST STOP JUMPDEST PUSH2 0x22D PUSH2 0xB0B JUMP JUMPDEST STOP JUMPDEST PUSH2 0x237 PUSH2 0xB1F JUMP JUMPDEST STOP JUMPDEST PUSH2 0x253 PUSH1 0x4 DUP1 CALLDATASIZE SUB DUP2 ADD SWAP1 PUSH2 0x24E SWAP2 SWAP1 PUSH2 0x1F14 JUMP JUMPDEST PUSH2 0xB71 JUMP JUMPDEST PUSH1 0x40 MLOAD PUSH2 0x260 SWAP2 SWAP1 PUSH2 0x1D77 JUMP JUMPDEST PUSH1 0x40 MLOAD DUP1 SWAP2 SUB SWAP1 RETURN JUMPDEST PUSH2 0x283 PUSH1 0x4 DUP1 CALLDATASIZE SUB DUP2 ADD SWAP1 PUSH2 0x27E SWAP2 SWAP1 PUSH2 0x1F14 JUMP JUMPDEST PUSH2 0xBBA JUMP JUMPDEST STOP JUMPDEST PUSH2 0x29F PUSH1 0x4 DUP1 CALLDATASIZE SUB DUP2 ADD SWAP1 PUSH2 0x29A SWAP2 SWAP1 PUSH2 0x1E21 JUMP JUMPDEST PUSH2 0xC06 JUMP JUMPDEST PUSH1 0x40 MLOAD PUSH2 0x2AC SWAP2 SWAP1 PUSH2 0x1D77 JUMP JUMPDEST PUSH1 0x40 MLOAD DUP1 SWAP2 SUB SWAP1 RETURN JUMPDEST PUSH2 0x2BD PUSH2 0xCA2 JUMP JUMPDEST PUSH1 0x40 MLOAD PUSH2 0x2CA SWAP2 SWAP1 PUSH2 0x1F41 JUMP JUMPDEST PUSH1 0x40 MLOAD DUP1 SWAP2 SUB SWAP1 RETURN JUMPDEST PUSH2 0x2DB PUSH2 0xCCB JUMP JUMPDEST PUSH1 0x40 MLOAD PUSH2 0x2E8 SWAP2 SWAP1 PUSH2 0x206B JUMP JUMPDEST PUSH1 0x40 MLOAD DUP1 SWAP2 SUB SWAP1 RETURN JUMPDEST PUSH2 0x30B PUSH1 0x4 DUP1 CALLDATASIZE SUB DUP2 ADD SWAP1 PUSH2 0x306 SWAP2 SWAP1 PUSH2 0x1E61 JUMP JUMPDEST PUSH2 0xD94 JUMP JUMPDEST PUSH1 0x40 MLOAD PUSH2 0x318 SWAP2 SWAP1 PUSH2 0x2111 JUMP JUMPDEST PUSH1 0x40 MLOAD DUP1 SWAP2 SUB SWAP1 RETURN JUMPDEST PUSH2 0x33B PUSH1 0x4 DUP1 CALLDATASIZE SUB DUP2 ADD SWAP1 PUSH2 0x336 SWAP2 SWAP1 PUSH2 0x1E61 JUMP JUMPDEST PUSH2 0x14F6 JUMP JUMPDEST PUSH1 0x40 MLOAD PUSH2 0x348 SWAP2 SWAP1 PUSH2 0x1D77 JUMP JUMPDEST PUSH1 0x40 MLOAD DUP1 SWAP2 SUB SWAP1 RETURN JUMPDEST PUSH2 0x36B PUSH1 0x4 DUP1 CALLDATASIZE SUB DUP2 ADD SWAP1 PUSH2 0x366 SWAP2 SWAP1 PUSH2 0x1E61 JUMP JUMPDEST PUSH2 0x150E JUMP JUMPDEST STOP JUMPDEST PUSH2 0x387 PUSH1 0x4 DUP1 CALLDATASIZE SUB DUP2 ADD SWAP1 PUSH2 0x382 SWAP2 SWAP1 PUSH2 0x1F14 JUMP JUMPDEST PUSH2 0x1520 JUMP JUMPDEST STOP JUMPDEST PUSH2 0x3A3 PUSH1 0x4 DUP1 CALLDATASIZE SUB DUP2 ADD SWAP1 PUSH2 0x39E SWAP2 SWAP1 PUSH2 0x1E61 JUMP JUMPDEST PUSH2 0x15A3 JUMP JUMPDEST PUSH1 0x40 MLOAD PUSH2 0x3B0 SWAP2 SWAP1 PUSH2 0x1D77 JUMP JUMPDEST PUSH1 0x40 MLOAD DUP1 SWAP2 SUB SWAP1 RETURN JUMPDEST PUSH2 0x3D3 PUSH1 0x4 DUP1 CALLDATASIZE SUB DUP2 ADD SWAP1 PUSH2 0x3CE SWAP2 SWAP1 PUSH2 0x1E61 JUMP JUMPDEST PUSH2 0x160A JUMP JUMPDEST STOP JUMPDEST PUSH1 0x0 PUSH1 0x4 SLOAD SWAP1 POP SWAP1 JUMP JUMPDEST PUSH1 0x0 DUP1 PUSH2 0x3EC DUP5 DUP5 PUSH2 0xC06 JUMP JUMPDEST SWAP1 POP PUSH1 0x0 PUSH1 0x8 PUSH1 0x0 DUP6 PUSH20 0xFFFFFFFFFFFFFFFFFFFFFFFFFFFFFFFFFFFFFFFF AND PUSH20 0xFFFFFFFFFFFFFFFFFFFFFFFFFFFFFFFFFFFFFFFF AND DUP2 MSTORE PUSH1 0x20 ADD SWAP1 DUP2 MSTORE PUSH1 0x20 ADD PUSH1 0x0 KECCAK256 SLOAD SWAP1 POP PUSH1 0x0 PUSH2 0x43D DUP7 PUSH2 0x15A3 JUMP JUMPDEST SWAP1 POP PUSH1 0x0 PUSH1 0x5 PUSH1 0x64 DUP6 PUSH2 0x450 SWAP2 SWAP1 PUSH2 0x218B JUMP JUMPDEST PUSH1 0x1 PUSH2 0x45C SWAP2 SWAP1 PUSH2 0x21BC JUMP JUMPDEST PUSH2 0x466 SWAP2 SWAP1 PUSH2 0x2330 JUMP JUMPDEST PUSH1 0x8B DUP4 DUP6 PUSH2 0x474 SWAP2 SWAP1 PUSH2 0x218B JUMP JUMPDEST PUSH2 0x47E SWAP2 SWAP1 PUSH2 0x237B JUMP JUMPDEST PUSH2 0x488 SWAP2 SWAP1 PUSH2 0x237B JUMP JUMPDEST SWAP1 POP DUP1 SWAP5 POP POP POP POP POP SWAP3 SWAP2 POP POP JUMP JUMPDEST PUSH1 0x1 DUP2 DUP2 SLOAD DUP2 LT PUSH2 0x4A7 JUMPI PUSH1 0x0 DUP1 REVERT JUMPDEST SWAP1 PUSH1 0x0 MSTORE PUSH1 0x20 PUSH1 0x0 KECCAK256 SWAP1 PUSH1 0x3 MUL ADD PUSH1 0x0 SWAP2 POP SWAP1 POP DUP1 PUSH1 0x0 ADD SLOAD SWAP1 DUP1 PUSH1 0x1 ADD PUSH1 0x0 SWAP1 SLOAD SWAP1 PUSH2 0x100 EXP SWAP1 DIV PUSH20 0xFFFFFFFFFFFFFFFFFFFFFFFFFFFFFFFFFFFFFFFF AND SWAP1 DUP1 PUSH1 0x2 ADD SLOAD SWAP1 POP DUP4 JUMP JUMPDEST DUP1 PUSH1 0x8 PUSH1 0x0 CALLER PUSH20 0xFFFFFFFFFFFFFFFFFFFFFFFFFFFFFFFFFFFFFFFF AND PUSH20 0xFFFFFFFFFFFFFFFFFFFFFFFFFFFFFFFFFFFFFFFF AND DUP2 MSTORE PUSH1 0x20 ADD SWAP1 DUP2 MSTORE PUSH1 0x20 ADD PUSH1 0x0 KECCAK256 SLOAD LT ISZERO PUSH2 0x573 JUMPI PUSH1 0x40 MLOAD PUSH32 0x8C379A000000000000000000000000000000000000000000000000000000000 DUP2 MSTORE PUSH1 0x4 ADD PUSH2 0x56A SWAP1 PUSH2 0x241A JUMP JUMPDEST PUSH1 0x40 MLOAD DUP1 SWAP2 SUB SWAP1 REVERT JUMPDEST PUSH1 0x2 PUSH2 0x57D PUSH2 0x9F7 JUMP JUMPDEST PUSH2 0x587 SWAP2 SWAP1 PUSH2 0x243A JUMP JUMPDEST PUSH1 0x9 PUSH1 0x0 CALLER PUSH20 0xFFFFFFFFFFFFFFFFFFFFFFFFFFFFFFFFFFFFFFFF AND PUSH20 0xFFFFFFFFFFFFFFFFFFFFFFFFFFFFFFFFFFFFFFFF AND DUP2 MSTORE PUSH1 0x20 ADD SWAP1 DUP2 MSTORE PUSH1 0x20 ADD PUSH1 0x0 KECCAK256 SLOAD GT ISZERO PUSH2 0x608 JUMPI PUSH1 0x40 MLOAD PUSH32 0x8C379A000000000000000000000000000000000000000000000000000000000 DUP2 MSTORE PUSH1 0x4 ADD PUSH2 0x5FF SWAP1 PUSH2 0x24E0 JUMP JUMPDEST PUSH1 0x40 MLOAD DUP1 SWAP2 SUB SWAP1 REVERT JUMPDEST PUSH1 0xD PUSH1 0x0 SWAP1 SLOAD SWAP1 PUSH2 0x100 EXP SWAP1 DIV PUSH20 0xFFFFFFFFFFFFFFFFFFFFFFFFFFFFFFFFFFFFFFFF AND PUSH20 0xFFFFFFFFFFFFFFFFFFFFFFFFFFFFFFFFFFFFFFFF AND PUSH4 0x69328DEC PUSH1 0xA PUSH1 0x0 SWAP1 SLOAD SWAP1 PUSH2 0x100 EXP SWAP1 DIV PUSH20 0xFFFFFFFFFFFFFFFFFFFFFFFFFFFFFFFFFFFFFFFF AND DUP4 ADDRESS PUSH1 0x40 MLOAD DUP5 PUSH4 0xFFFFFFFF AND PUSH1 0xE0 SHL DUP2 MSTORE PUSH1 0x4 ADD PUSH2 0x689 SWAP4 SWAP3 SWAP2 SWAP1 PUSH2 0x2500 JUMP JUMPDEST PUSH1 0x0 PUSH1 0x40 MLOAD DUP1 DUP4 SUB DUP2 PUSH1 0x0 DUP8 DUP1 EXTCODESIZE ISZERO DUP1 ISZERO PUSH2 0x6A3 JUMPI PUSH1 0x0 DUP1 REVERT JUMPDEST POP GAS CALL ISZERO DUP1 ISZERO PUSH2 0x6B7 JUMPI RETURNDATASIZE PUSH1 0x0 DUP1 RETURNDATACOPY RETURNDATASIZE PUSH1 0x0 REVERT JUMPDEST POP POP POP POP PUSH1 0xA PUSH1 0x0 SWAP1 SLOAD SWAP1 PUSH2 0x100 EXP SWAP1 DIV PUSH20 0xFFFFFFFFFFFFFFFFFFFFFFFFFFFFFFFFFFFFFFFF AND PUSH20 0xFFFFFFFFFFFFFFFFFFFFFFFFFFFFFFFFFFFFFFFF AND PUSH4 0xA9059CBB CALLER DUP4 PUSH1 0x40 MLOAD DUP4 PUSH4 0xFFFFFFFF AND PUSH1 0xE0 SHL DUP2 MSTORE PUSH1 0x4 ADD PUSH2 0x718 SWAP3 SWAP2 SWAP1 PUSH2 0x2537 JUMP JUMPDEST PUSH1 0x20 PUSH1 0x40 MLOAD DUP1 DUP4 SUB DUP2 PUSH1 0x0 DUP8 GAS CALL ISZERO DUP1 ISZERO PUSH2 0x737 JUMPI RETURNDATASIZE PUSH1 0x0 DUP1 RETURNDATACOPY RETURNDATASIZE PUSH1 0x0 REVERT JUMPDEST POP POP POP POP PUSH1 0x40 MLOAD RETURNDATASIZE PUSH1 0x1F NOT PUSH1 0x1F DUP3 ADD AND DUP3 ADD DUP1 PUSH1 0x40 MSTORE POP DUP2 ADD SWAP1 PUSH2 0x75B SWAP2 SWAP1 PUSH2 0x2598 JUMP JUMPDEST POP DUP1 PUSH1 0x8 PUSH1 0x0 CALLER PUSH20 0xFFFFFFFFFFFFFFFFFFFFFFFFFFFFFFFFFFFFFFFF AND PUSH20 0xFFFFFFFFFFFFFFFFFFFFFFFFFFFFFFFFFFFFFFFF AND DUP2 MSTORE PUSH1 0x20 ADD SWAP1 DUP2 MSTORE PUSH1 0x20 ADD PUSH1 0x0 KECCAK256 SLOAD PUSH2 0x7A7 SWAP2 SWAP1 PUSH2 0x21BC JUMP JUMPDEST PUSH1 0x8 PUSH1 0x0 CALLER PUSH20 0xFFFFFFFFFFFFFFFFFFFFFFFFFFFFFFFFFFFFFFFF AND PUSH20 0xFFFFFFFFFFFFFFFFFFFFFFFFFFFFFFFFFFFFFFFF AND DUP2 MSTORE PUSH1 0x20 ADD SWAP1 DUP2 MSTORE PUSH1 0x20 ADD PUSH1 0x0 KECCAK256 DUP2 SWAP1 SSTORE POP DUP1 PUSH1 0x8 PUSH1 0x0 ADDRESS PUSH20 0xFFFFFFFFFFFFFFFFFFFFFFFFFFFFFFFFFFFFFFFF AND PUSH20 0xFFFFFFFFFFFFFFFFFFFFFFFFFFFFFFFFFFFFFFFF AND DUP2 MSTORE PUSH1 0x20 ADD SWAP1 DUP2 MSTORE PUSH1 0x20 ADD PUSH1 0x0 KECCAK256 SLOAD PUSH2 0x835 SWAP2 SWAP1 PUSH2 0x21BC JUMP JUMPDEST PUSH1 0x8 PUSH1 0x0 ADDRESS PUSH20 0xFFFFFFFFFFFFFFFFFFFFFFFFFFFFFFFFFFFFFFFF AND PUSH20 0xFFFFFFFFFFFFFFFFFFFFFFFFFFFFFFFFFFFFFFFF AND DUP2 MSTORE PUSH1 0x20 ADD SWAP1 DUP2 MSTORE PUSH1 0x20 ADD PUSH1 0x0 KECCAK256 DUP2 SWAP1 SSTORE POP PUSH1 0xC PUSH1 0x0 SWAP1 SLOAD SWAP1 PUSH2 0x100 EXP SWAP1 DIV PUSH20 0xFFFFFFFFFFFFFFFFFFFFFFFFFFFFFFFFFFFFFFFF AND PUSH20 0xFFFFFFFFFFFFFFFFFFFFFFFFFFFFFFFFFFFFFFFF AND PUSH4 0x9DC29FAC CALLER DUP4 PUSH1 0x40 MLOAD DUP4 PUSH4 0xFFFFFFFF AND PUSH1 0xE0 SHL DUP2 MSTORE PUSH1 0x4 ADD PUSH2 0x8D5 SWAP3 SWAP2 SWAP1 PUSH2 0x2537 JUMP JUMPDEST PUSH1 0x0 PUSH1 0x40 MLOAD DUP1 DUP4 SUB DUP2 PUSH1 0x0 DUP8 DUP1 EXTCODESIZE ISZERO DUP1 ISZERO PUSH2 0x8EF JUMPI PUSH1 0x0 DUP1 REVERT JUMPDEST POP GAS CALL ISZERO DUP1 ISZERO PUSH2 0x903 JUMPI RETURNDATASIZE PUSH1 0x0 DUP1 RETURNDATACOPY RETURNDATASIZE PUSH1 0x0 REVERT JUMPDEST POP POP POP POP POP JUMP JUMPDEST PUSH1 0x0 PUSH1 0x8 PUSH1 0x0 ADDRESS PUSH20 0xFFFFFFFFFFFFFFFFFFFFFFFFFFFFFFFFFFFFFFFF AND PUSH20 0xFFFFFFFFFFFFFFFFFFFFFFFFFFFFFFFFFFFFFFFF AND DUP2 MSTORE PUSH1 0x20 ADD SWAP1 DUP2 MSTORE PUSH1 0x20 ADD PUSH1 0x0 KECCAK256 SLOAD PUSH1 0xB PUSH1 0x0 SWAP1 SLOAD SWAP1 PUSH2 0x100 EXP SWAP1 DIV PUSH20 0xFFFFFFFFFFFFFFFFFFFFFFFFFFFFFFFFFFFFFFFF AND PUSH20 0xFFFFFFFFFFFFFFFFFFFFFFFFFFFFFFFFFFFFFFFF AND PUSH4 0x70A08231 ADDRESS PUSH1 0x40 MLOAD DUP3 PUSH4 0xFFFFFFFF AND PUSH1 0xE0 SHL DUP2 MSTORE PUSH1 0x4 ADD PUSH2 0x9A7 SWAP2 SWAP1 PUSH2 0x1F41 JUMP JUMPDEST PUSH1 0x20 PUSH1 0x40 MLOAD DUP1 DUP4 SUB DUP2 DUP7 GAS STATICCALL ISZERO DUP1 ISZERO PUSH2 0x9C4 JUMPI RETURNDATASIZE PUSH1 0x0 DUP1 RETURNDATACOPY RETURNDATASIZE PUSH1 0x0 REVERT JUMPDEST POP POP POP POP PUSH1 0x40 MLOAD RETURNDATASIZE PUSH1 0x1F NOT PUSH1 0x1F DUP3 ADD AND DUP3 ADD DUP1 PUSH1 0x40 MSTORE POP DUP2 ADD SWAP1 PUSH2 0x9E8 SWAP2 SWAP1 PUSH2 0x25DA JUMP JUMPDEST PUSH2 0x9F2 SWAP2 SWAP1 PUSH2 0x21BC JUMP JUMPDEST SWAP1 POP SWAP1 JUMP JUMPDEST PUSH1 0x0 PUSH1 0x5 SLOAD SWAP1 POP SWAP1 JUMP JUMPDEST PUSH2 0xA09 PUSH2 0x1BAF JUMP JUMPDEST PUSH2 0xA11 PUSH2 0xB1F JUMP JUMPDEST PUSH1 0x1 PUSH1 0x40 MLOAD DUP1 PUSH1 0x60 ADD PUSH1 0x40 MSTORE DUP1 PUSH1 0x5 SLOAD DUP2 MSTORE PUSH1 0x20 ADD DUP5 PUSH20 0xFFFFFFFFFFFFFFFFFFFFFFFFFFFFFFFFFFFFFFFF AND DUP2 MSTORE PUSH1 0x20 ADD DUP4 DUP2 MSTORE POP SWAP1 DUP1 PUSH1 0x1 DUP2 SLOAD ADD DUP1 DUP3 SSTORE DUP1 SWAP2 POP POP PUSH1 0x1 SWAP1 SUB SWAP1 PUSH1 0x0 MSTORE PUSH1 0x20 PUSH1 0x0 KECCAK256 SWAP1 PUSH1 0x3 MUL ADD PUSH1 0x0 SWAP1 SWAP2 SWAP1 SWAP2 SWAP1 SWAP2 POP PUSH1 0x0 DUP3 ADD MLOAD DUP2 PUSH1 0x0 ADD SSTORE PUSH1 0x20 DUP3 ADD MLOAD DUP2 PUSH1 0x1 ADD PUSH1 0x0 PUSH2 0x100 EXP DUP2 SLOAD DUP2 PUSH20 0xFFFFFFFFFFFFFFFFFFFFFFFFFFFFFFFFFFFFFFFF MUL NOT AND SWAP1 DUP4 PUSH20 0xFFFFFFFFFFFFFFFFFFFFFFFFFFFFFFFFFFFFFFFF AND MUL OR SWAP1 SSTORE POP PUSH1 0x40 DUP3 ADD MLOAD DUP2 PUSH1 0x2 ADD SSTORE POP POP PUSH1 0x1 PUSH1 0x2 PUSH1 0x0 PUSH1 0x5 SLOAD DUP2 MSTORE PUSH1 0x20 ADD SWAP1 DUP2 MSTORE PUSH1 0x20 ADD PUSH1 0x0 KECCAK256 SLOAD PUSH2 0xAEE SWAP2 SWAP1 PUSH2 0x243A JUMP JUMPDEST PUSH1 0x2 PUSH1 0x0 PUSH1 0x5 SLOAD DUP2 MSTORE PUSH1 0x20 ADD SWAP1 DUP2 MSTORE PUSH1 0x20 ADD PUSH1 0x0 KECCAK256 DUP2 SWAP1 SSTORE POP POP POP JUMP JUMPDEST PUSH2 0xB13 PUSH2 0x1BAF JUMP JUMPDEST PUSH2 0xB1D PUSH1 0x0 PUSH2 0x1C2D JUMP JUMPDEST JUMP JUMPDEST PUSH1 0x0 TIMESTAMP SWAP1 POP PUSH1 0x0 PUSH1 0x4 SLOAD PUSH1 0x7 SLOAD DUP4 PUSH2 0xB37 SWAP2 SWAP1 PUSH2 0x21BC JUMP JUMPDEST PUSH2 0xB41 SWAP2 SWAP1 PUSH2 0x218B JUMP JUMPDEST SWAP1 POP PUSH1 0x0 DUP2 GT ISZERO PUSH2 0xB6D JUMPI DUP1 PUSH1 0x5 PUSH1 0x0 DUP3 DUP3 SLOAD PUSH2 0xB5E SWAP2 SWAP1 PUSH2 0x243A JUMP JUMPDEST SWAP3 POP POP DUP2 SWAP1 SSTORE POP DUP2 PUSH1 0x7 DUP2 SWAP1 SSTORE POP JUMPDEST POP POP JUMP JUMPDEST PUSH1 0x0 PUSH1 0x8 PUSH1 0x0 DUP4 PUSH20 0xFFFFFFFFFFFFFFFFFFFFFFFFFFFFFFFFFFFFFFFF AND PUSH20 0xFFFFFFFFFFFFFFFFFFFFFFFFFFFFFFFFFFFFFFFF AND DUP2 MSTORE PUSH1 0x20 ADD SWAP1 DUP2 MSTORE PUSH1 0x20 ADD PUSH1 0x0 KECCAK256 SLOAD SWAP1 POP SWAP2 SWAP1 POP JUMP JUMPDEST PUSH2 0xBC2 PUSH2 0x1BAF JUMP JUMPDEST DUP1 PUSH1 0xC PUSH1 0x0 PUSH2 0x100 EXP DUP2 SLOAD DUP2 PUSH20 0xFFFFFFFFFFFFFFFFFFFFFFFFFFFFFFFFFFFFFFFF MUL NOT AND SWAP1 DUP4 PUSH20 0xFFFFFFFFFFFFFFFFFFFFFFFFFFFFFFFFFFFFFFFF AND MUL OR SWAP1 SSTORE POP POP JUMP JUMPDEST PUSH1 0x0 DUP1 PUSH2 0xC12 DUP5 PUSH2 0xD94 JUMP JUMPDEST SWAP1 POP PUSH1 0x0 DUP1 JUMPDEST PUSH1 0xA DUP2 LT ISZERO PUSH2 0xC96 JUMPI DUP3 DUP2 PUSH1 0xA DUP2 LT PUSH2 0xC34 JUMPI PUSH2 0xC33 PUSH2 0x2607 JUMP JUMPDEST JUMPDEST PUSH1 0x20 MUL ADD MLOAD PUSH1 0x20 ADD MLOAD PUSH20 0xFFFFFFFFFFFFFFFFFFFFFFFFFFFFFFFFFFFFFFFF AND DUP6 PUSH20 0xFFFFFFFFFFFFFFFFFFFFFFFFFFFFFFFFFFFFFFFF AND SUB PUSH2 0xC83 JUMPI PUSH1 0x1 DUP2 PUSH2 0xC7C SWAP2 SWAP1 PUSH2 0x243A JUMP JUMPDEST SWAP2 POP PUSH2 0xC96 JUMP JUMPDEST DUP1 DUP1 PUSH2 0xC8E SWAP1 PUSH2 0x2636 JUMP JUMPDEST SWAP2 POP POP PUSH2 0xC18 JUMP JUMPDEST POP DUP1 SWAP3 POP POP POP SWAP3 SWAP2 POP POP JUMP JUMPDEST PUSH1 0x0 DUP1 PUSH1 0x0 SWAP1 SLOAD SWAP1 PUSH2 0x100 EXP SWAP1 DIV PUSH20 0xFFFFFFFFFFFFFFFFFFFFFFFFFFFFFFFFFFFFFFFF AND SWAP1 POP SWAP1 JUMP JUMPDEST PUSH1 0x60 PUSH1 0x1 DUP1 SLOAD DUP1 PUSH1 0x20 MUL PUSH1 0x20 ADD PUSH1 0x40 MLOAD SWAP1 DUP2 ADD PUSH1 0x40 MSTORE DUP1 SWAP3 SWAP2 SWAP1 DUP2 DUP2 MSTORE PUSH1 0x20 ADD PUSH1 0x0 SWAP1 JUMPDEST DUP3 DUP3 LT ISZERO PUSH2 0xD8B JUMPI DUP4 DUP3 SWAP1 PUSH1 0x0 MSTORE PUSH1 0x20 PUSH1 0x0 KECCAK256 SWAP1 PUSH1 0x3 MUL ADD PUSH1 0x40 MLOAD DUP1 PUSH1 0x60 ADD PUSH1 0x40 MSTORE SWAP1 DUP2 PUSH1 0x0 DUP3 ADD SLOAD DUP2 MSTORE PUSH1 0x20 ADD PUSH1 0x1 DUP3 ADD PUSH1 0x0 SWAP1 SLOAD SWAP1 PUSH2 0x100 EXP SWAP1 DIV PUSH20 0xFFFFFFFFFFFFFFFFFFFFFFFFFFFFFFFFFFFFFFFF AND PUSH20 0xFFFFFFFFFFFFFFFFFFFFFFFFFFFFFFFFFFFFFFFF AND PUSH20 0xFFFFFFFFFFFFFFFFFFFFFFFFFFFFFFFFFFFFFFFF AND DUP2 MSTORE PUSH1 0x20 ADD PUSH1 0x2 DUP3 ADD SLOAD DUP2 MSTORE POP POP DUP2 MSTORE PUSH1 0x20 ADD SWAP1 PUSH1 0x1 ADD SWAP1 PUSH2 0xCEF JUMP JUMPDEST POP POP POP POP SWAP1 POP SWAP1 JUMP JUMPDEST PUSH2 0xD9C PUSH2 0x1CF9 JUMP JUMPDEST PUSH2 0xDA4 PUSH2 0x1CF9 JUMP JUMPDEST PUSH1 0x0 JUMPDEST PUSH1 0xA DUP2 LT ISZERO PUSH2 0xE12 JUMPI PUSH1 0x40 MLOAD DUP1 PUSH1 0x60 ADD PUSH1 0x40 MSTORE DUP1 DUP6 DUP2 MSTORE PUSH1 0x20 ADD PUSH2 0xDEAD PUSH20 0xFFFFFFFFFFFFFFFFFFFFFFFFFFFFFFFFFFFFFFFF AND DUP2 MSTORE PUSH1 0x20 ADD PUSH1 0x0 DUP2 MSTORE POP DUP3 DUP3 PUSH1 0xA DUP2 LT PUSH2 0xDF7 JUMPI PUSH2 0xDF6 PUSH2 0x2607 JUMP JUMPDEST JUMPDEST PUSH1 0x20 MUL ADD DUP2 SWAP1 MSTORE POP DUP1 DUP1 PUSH2 0xE0A SWAP1 PUSH2 0x2636 JUMP JUMPDEST SWAP2 POP POP PUSH2 0xDA7 JUMP JUMPDEST POP PUSH1 0x0 JUMPDEST PUSH1 0xA DUP2 LT ISZERO PUSH2 0x14EC JUMPI PUSH1 0x0 DUP3 PUSH1 0x9 PUSH1 0xA DUP2 LT PUSH2 0xE35 JUMPI PUSH2 0xE34 PUSH2 0x2607 JUMP JUMPDEST JUMPDEST PUSH1 0x20 MUL ADD MLOAD SWAP1 POP PUSH1 0x0 JUMPDEST PUSH1 0x1 DUP1 SLOAD SWAP1 POP DUP2 LT ISZERO PUSH2 0x14BB JUMPI DUP6 PUSH1 0x1 DUP3 DUP2 SLOAD DUP2 LT PUSH2 0xE61 JUMPI PUSH2 0xE60 PUSH2 0x2607 JUMP JUMPDEST JUMPDEST SWAP1 PUSH1 0x0 MSTORE PUSH1 0x20 PUSH1 0x0 KECCAK256 SWAP1 PUSH1 0x3 MUL ADD PUSH1 0x0 ADD SLOAD EQ DUP1 ISZERO PUSH2 0xF0D JUMPI POP DUP4 PUSH1 0x0 PUSH1 0xA DUP2 LT PUSH2 0xE8F JUMPI PUSH2 0xE8E PUSH2 0x2607 JUMP JUMPDEST JUMPDEST PUSH1 0x20 MUL ADD MLOAD PUSH1 0x20 ADD MLOAD PUSH20 0xFFFFFFFFFFFFFFFFFFFFFFFFFFFFFFFFFFFFFFFF AND PUSH1 0x1 DUP3 DUP2 SLOAD DUP2 LT PUSH2 0xEC2 JUMPI PUSH2 0xEC1 PUSH2 0x2607 JUMP JUMPDEST JUMPDEST SWAP1 PUSH1 0x0 MSTORE PUSH1 0x20 PUSH1 0x0 KECCAK256 SWAP1 PUSH1 0x3 MUL ADD PUSH1 0x1 ADD PUSH1 0x0 SWAP1 SLOAD SWAP1 PUSH2 0x100 EXP SWAP1 DIV PUSH20 0xFFFFFFFFFFFFFFFFFFFFFFFFFFFFFFFFFFFFFFFF AND PUSH20 0xFFFFFFFFFFFFFFFFFFFFFFFFFFFFFFFFFFFFFFFF AND EQ ISZERO JUMPDEST DUP1 ISZERO PUSH2 0xFA6 JUMPI POP DUP4 PUSH1 0x1 PUSH1 0xA DUP2 LT PUSH2 0xF28 JUMPI PUSH2 0xF27 PUSH2 0x2607 JUMP JUMPDEST JUMPDEST PUSH1 0x20 MUL ADD MLOAD PUSH1 0x20 ADD MLOAD PUSH20 0xFFFFFFFFFFFFFFFFFFFFFFFFFFFFFFFFFFFFFFFF AND PUSH1 0x1 DUP3 DUP2 SLOAD DUP2 LT PUSH2 0xF5B JUMPI PUSH2 0xF5A PUSH2 0x2607 JUMP JUMPDEST JUMPDEST SWAP1 PUSH1 0x0 MSTORE PUSH1 0x20 PUSH1 0x0 KECCAK256 SWAP1 PUSH1 0x3 MUL ADD PUSH1 0x1 ADD PUSH1 0x0 SWAP1 SLOAD SWAP1 PUSH2 0x100 EXP SWAP1 DIV PUSH20 0xFFFFFFFFFFFFFFFFFFFFFFFFFFFFFFFFFFFFFFFF AND PUSH20 0xFFFFFFFFFFFFFFFFFFFFFFFFFFFFFFFFFFFFFFFF AND EQ ISZERO JUMPDEST DUP1 ISZERO PUSH2 0x103F JUMPI POP DUP4 PUSH1 0x2 PUSH1 0xA DUP2 LT PUSH2 0xFC1 JUMPI PUSH2 0xFC0 PUSH2 0x2607 JUMP JUMPDEST JUMPDEST PUSH1 0x20 MUL ADD MLOAD PUSH1 0x20 ADD MLOAD PUSH20 0xFFFFFFFFFFFFFFFFFFFFFFFFFFFFFFFFFFFFFFFF AND PUSH1 0x1 DUP3 DUP2 SLOAD DUP2 LT PUSH2 0xFF4 JUMPI PUSH2 0xFF3 PUSH2 0x2607 JUMP JUMPDEST JUMPDEST SWAP1 PUSH1 0x0 MSTORE PUSH1 0x20 PUSH1 0x0 KECCAK256 SWAP1 PUSH1 0x3 MUL ADD PUSH1 0x1 ADD PUSH1 0x0 SWAP1 SLOAD SWAP1 PUSH2 0x100 EXP SWAP1 DIV PUSH20 0xFFFFFFFFFFFFFFFFFFFFFFFFFFFFFFFFFFFFFFFF AND PUSH20 0xFFFFFFFFFFFFFFFFFFFFFFFFFFFFFFFFFFFFFFFF AND EQ ISZERO JUMPDEST DUP1 ISZERO PUSH2 0x10D8 JUMPI POP DUP4 PUSH1 0x3 PUSH1 0xA DUP2 LT PUSH2 0x105A JUMPI PUSH2 0x1059 PUSH2 0x2607 JUMP JUMPDEST JUMPDEST PUSH1 0x20 MUL ADD MLOAD PUSH1 0x20 ADD MLOAD PUSH20 0xFFFFFFFFFFFFFFFFFFFFFFFFFFFFFFFFFFFFFFFF AND PUSH1 0x1 DUP3 DUP2 SLOAD DUP2 LT PUSH2 0x108D JUMPI PUSH2 0x108C PUSH2 0x2607 JUMP JUMPDEST JUMPDEST SWAP1 PUSH1 0x0 MSTORE PUSH1 0x20 PUSH1 0x0 KECCAK256 SWAP1 PUSH1 0x3 MUL ADD PUSH1 0x1 ADD PUSH1 0x0 SWAP1 SLOAD SWAP1 PUSH2 0x100 EXP SWAP1 DIV PUSH20 0xFFFFFFFFFFFFFFFFFFFFFFFFFFFFFFFFFFFFFFFF AND PUSH20 0xFFFFFFFFFFFFFFFFFFFFFFFFFFFFFFFFFFFFFFFF AND EQ ISZERO JUMPDEST DUP1 ISZERO PUSH2 0x1171 JUMPI POP DUP4 PUSH1 0x4 PUSH1 0xA DUP2 LT PUSH2 0x10F3 JUMPI PUSH2 0x10F2 PUSH2 0x2607 JUMP JUMPDEST JUMPDEST PUSH1 0x20 MUL ADD MLOAD PUSH1 0x20 ADD MLOAD PUSH20 0xFFFFFFFFFFFFFFFFFFFFFFFFFFFFFFFFFFFFFFFF AND PUSH1 0x1 DUP3 DUP2 SLOAD DUP2 LT PUSH2 0x1126 JUMPI PUSH2 0x1125 PUSH2 0x2607 JUMP JUMPDEST JUMPDEST SWAP1 PUSH1 0x0 MSTORE PUSH1 0x20 PUSH1 0x0 KECCAK256 SWAP1 PUSH1 0x3 MUL ADD PUSH1 0x1 ADD PUSH1 0x0 SWAP1 SLOAD SWAP1 PUSH2 0x100 EXP SWAP1 DIV PUSH20 0xFFFFFFFFFFFFFFFFFFFFFFFFFFFFFFFFFFFFFFFF AND PUSH20 0xFFFFFFFFFFFFFFFFFFFFFFFFFFFFFFFFFFFFFFFF AND EQ ISZERO JUMPDEST DUP1 ISZERO PUSH2 0x120A JUMPI POP DUP4 PUSH1 0x5 PUSH1 0xA DUP2 LT PUSH2 0x118C JUMPI PUSH2 0x118B PUSH2 0x2607 JUMP JUMPDEST JUMPDEST PUSH1 0x20 MUL ADD MLOAD PUSH1 0x20 ADD MLOAD PUSH20 0xFFFFFFFFFFFFFFFFFFFFFFFFFFFFFFFFFFFFFFFF AND PUSH1 0x1 DUP3 DUP2 SLOAD DUP2 LT PUSH2 0x11BF JUMPI PUSH2 0x11BE PUSH2 0x2607 JUMP JUMPDEST JUMPDEST SWAP1 PUSH1 0x0 MSTORE PUSH1 0x20 PUSH1 0x0 KECCAK256 SWAP1 PUSH1 0x3 MUL ADD PUSH1 0x1 ADD PUSH1 0x0 SWAP1 SLOAD SWAP1 PUSH2 0x100 EXP SWAP1 DIV PUSH20 0xFFFFFFFFFFFFFFFFFFFFFFFFFFFFFFFFFFFFFFFF AND PUSH20 0xFFFFFFFFFFFFFFFFFFFFFFFFFFFFFFFFFFFFFFFF AND EQ ISZERO JUMPDEST DUP1 ISZERO PUSH2 0x12A3 JUMPI POP DUP4 PUSH1 0x6 PUSH1 0xA DUP2 LT PUSH2 0x1225 JUMPI PUSH2 0x1224 PUSH2 0x2607 JUMP JUMPDEST JUMPDEST PUSH1 0x20 MUL ADD MLOAD PUSH1 0x20 ADD MLOAD PUSH20 0xFFFFFFFFFFFFFFFFFFFFFFFFFFFFFFFFFFFFFFFF AND PUSH1 0x1 DUP3 DUP2 SLOAD DUP2 LT PUSH2 0x1258 JUMPI PUSH2 0x1257 PUSH2 0x2607 JUMP JUMPDEST JUMPDEST SWAP1 PUSH1 0x0 MSTORE PUSH1 0x20 PUSH1 0x0 KECCAK256 SWAP1 PUSH1 0x3 MUL ADD PUSH1 0x1 ADD PUSH1 0x0 SWAP1 SLOAD SWAP1 PUSH2 0x100 EXP SWAP1 DIV PUSH20 0xFFFFFFFFFFFFFFFFFFFFFFFFFFFFFFFFFFFFFFFF AND PUSH20 0xFFFFFFFFFFFFFFFFFFFFFFFFFFFFFFFFFFFFFFFF AND EQ ISZERO JUMPDEST DUP1 ISZERO PUSH2 0x133C JUMPI POP DUP4 PUSH1 0x7 PUSH1 0xA DUP2 LT PUSH2 0x12BE JUMPI PUSH2 0x12BD PUSH2 0x2607 JUMP JUMPDEST JUMPDEST PUSH1 0x20 MUL ADD MLOAD PUSH1 0x20 ADD MLOAD PUSH20 0xFFFFFFFFFFFFFFFFFFFFFFFFFFFFFFFFFFFFFFFF AND PUSH1 0x1 DUP3 DUP2 SLOAD DUP2 LT PUSH2 0x12F1 JUMPI PUSH2 0x12F0 PUSH2 0x2607 JUMP JUMPDEST JUMPDEST SWAP1 PUSH1 0x0 MSTORE PUSH1 0x20 PUSH1 0x0 KECCAK256 SWAP1 PUSH1 0x3 MUL ADD PUSH1 0x1 ADD PUSH1 0x0 SWAP1 SLOAD SWAP1 PUSH2 0x100 EXP SWAP1 DIV PUSH20 0xFFFFFFFFFFFFFFFFFFFFFFFFFFFFFFFFFFFFFFFF AND PUSH20 0xFFFFFFFFFFFFFFFFFFFFFFFFFFFFFFFFFFFFFFFF AND EQ ISZERO JUMPDEST DUP1 ISZERO PUSH2 0x13D5 JUMPI POP DUP4 PUSH1 0x8 PUSH1 0xA DUP2 LT PUSH2 0x1357 JUMPI PUSH2 0x1356 PUSH2 0x2607 JUMP JUMPDEST JUMPDEST PUSH1 0x20 MUL ADD MLOAD PUSH1 0x20 ADD MLOAD PUSH20 0xFFFFFFFFFFFFFFFFFFFFFFFFFFFFFFFFFFFFFFFF AND PUSH1 0x1 DUP3 DUP2 SLOAD DUP2 LT PUSH2 0x138A JUMPI PUSH2 0x1389 PUSH2 0x2607 JUMP JUMPDEST JUMPDEST SWAP1 PUSH1 0x0 MSTORE PUSH1 0x20 PUSH1 0x0 KECCAK256 SWAP1 PUSH1 0x3 MUL ADD PUSH1 0x1 ADD PUSH1 0x0 SWAP1 SLOAD SWAP1 PUSH2 0x100 EXP SWAP1 DIV PUSH20 0xFFFFFFFFFFFFFFFFFFFFFFFFFFFFFFFFFFFFFFFF AND PUSH20 0xFFFFFFFFFFFFFFFFFFFFFFFFFFFFFFFFFFFFFFFF AND EQ ISZERO JUMPDEST DUP1 ISZERO PUSH2 0x1409 JUMPI POP DUP2 PUSH1 0x40 ADD MLOAD PUSH1 0x1 DUP3 DUP2 SLOAD DUP2 LT PUSH2 0x13F5 JUMPI PUSH2 0x13F4 PUSH2 0x2607 JUMP JUMPDEST JUMPDEST SWAP1 PUSH1 0x0 MSTORE PUSH1 0x20 PUSH1 0x0 KECCAK256 SWAP1 PUSH1 0x3 MUL ADD PUSH1 0x2 ADD SLOAD GT JUMPDEST ISZERO PUSH2 0x14A8 JUMPI PUSH1 0x1 DUP2 DUP2 SLOAD DUP2 LT PUSH2 0x1422 JUMPI PUSH2 0x1421 PUSH2 0x2607 JUMP JUMPDEST JUMPDEST SWAP1 PUSH1 0x0 MSTORE PUSH1 0x20 PUSH1 0x0 KECCAK256 SWAP1 PUSH1 0x3 MUL ADD PUSH1 0x40 MLOAD DUP1 PUSH1 0x60 ADD PUSH1 0x40 MSTORE SWAP1 DUP2 PUSH1 0x0 DUP3 ADD SLOAD DUP2 MSTORE PUSH1 0x20 ADD PUSH1 0x1 DUP3 ADD PUSH1 0x0 SWAP1 SLOAD SWAP1 PUSH2 0x100 EXP SWAP1 DIV PUSH20 0xFFFFFFFFFFFFFFFFFFFFFFFFFFFFFFFFFFFFFFFF AND PUSH20 0xFFFFFFFFFFFFFFFFFFFFFFFFFFFFFFFFFFFFFFFF AND PUSH20 0xFFFFFFFFFFFFFFFFFFFFFFFFFFFFFFFFFFFFFFFF AND DUP2 MSTORE PUSH1 0x20 ADD PUSH1 0x2 DUP3 ADD SLOAD DUP2 MSTORE POP POP SWAP2 POP JUMPDEST DUP1 DUP1 PUSH2 0x14B3 SWAP1 PUSH2 0x2636 JUMP JUMPDEST SWAP2 POP POP PUSH2 0xE3F JUMP JUMPDEST POP DUP1 DUP4 DUP4 PUSH1 0xA DUP2 LT PUSH2 0x14D0 JUMPI PUSH2 0x14CF PUSH2 0x2607 JUMP JUMPDEST JUMPDEST PUSH1 0x20 MUL ADD DUP2 SWAP1 MSTORE POP POP DUP1 DUP1 PUSH2 0x14E4 SWAP1 PUSH2 0x2636 JUMP JUMPDEST SWAP2 POP POP PUSH2 0xE16 JUMP JUMPDEST POP DUP1 SWAP2 POP POP SWAP2 SWAP1 POP JUMP JUMPDEST PUSH1 0x2 PUSH1 0x20 MSTORE DUP1 PUSH1 0x0 MSTORE PUSH1 0x40 PUSH1 0x0 KECCAK256 PUSH1 0x0 SWAP2 POP SWAP1 POP SLOAD DUP2 JUMP JUMPDEST PUSH2 0x1516 PUSH2 0x1BAF JUMP JUMPDEST DUP1 PUSH1 0x4 DUP2 SWAP1 SSTORE POP POP JUMP JUMPDEST PUSH2 0x1528 PUSH2 0x1BAF JUMP JUMPDEST PUSH1 0x0 PUSH20 0xFFFFFFFFFFFFFFFFFFFFFFFFFFFFFFFFFFFFFFFF AND DUP2 PUSH20 0xFFFFFFFFFFFFFFFFFFFFFFFFFFFFFFFFFFFFFFFF AND SUB PUSH2 0x1597 JUMPI PUSH1 0x40 MLOAD PUSH32 0x8C379A000000000000000000000000000000000000000000000000000000000 DUP2 MSTORE PUSH1 0x4 ADD PUSH2 0x158E SWAP1 PUSH2 0x26F0 JUMP JUMPDEST PUSH1 0x40 MLOAD DUP1 SWAP2 SUB SWAP1 REVERT JUMPDEST PUSH2 0x15A0 DUP2 PUSH2 0x1C2D JUMP JUMPDEST POP JUMP JUMPDEST PUSH1 0x0 DUP1 PUSH1 0x0 SWAP1 POP PUSH1 0x0 PUSH2 0x15B5 DUP5 PUSH2 0xD94 JUMP JUMPDEST SWAP1 POP PUSH1 0x0 JUMPDEST PUSH1 0xA DUP2 LT ISZERO PUSH2 0x15FF JUMPI DUP2 DUP2 PUSH1 0xA DUP2 LT PUSH2 0x15D6 JUMPI PUSH2 0x15D5 PUSH2 0x2607 JUMP JUMPDEST JUMPDEST PUSH1 0x20 MUL ADD MLOAD PUSH1 0x40 ADD MLOAD DUP4 PUSH2 0x15EA SWAP2 SWAP1 PUSH2 0x243A JUMP JUMPDEST SWAP3 POP DUP1 DUP1 PUSH2 0x15F7 SWAP1 PUSH2 0x2636 JUMP JUMPDEST SWAP2 POP POP PUSH2 0x15BA JUMP JUMPDEST POP DUP2 SWAP3 POP POP POP SWAP2 SWAP1 POP JUMP JUMPDEST PUSH1 0xA PUSH1 0x0 SWAP1 SLOAD SWAP1 PUSH2 0x100 EXP SWAP1 DIV PUSH20 0xFFFFFFFFFFFFFFFFFFFFFFFFFFFFFFFFFFFFFFFF AND PUSH20 0xFFFFFFFFFFFFFFFFFFFFFFFFFFFFFFFFFFFFFFFF AND PUSH4 0x70A08231 CALLER PUSH1 0x40 MLOAD DUP3 PUSH4 0xFFFFFFFF AND PUSH1 0xE0 SHL DUP2 MSTORE PUSH1 0x4 ADD PUSH2 0x1665 SWAP2 SWAP1 PUSH2 0x1F41 JUMP JUMPDEST PUSH1 0x20 PUSH1 0x40 MLOAD DUP1 DUP4 SUB DUP2 DUP7 GAS STATICCALL ISZERO DUP1 ISZERO PUSH2 0x1682 JUMPI RETURNDATASIZE PUSH1 0x0 DUP1 RETURNDATACOPY RETURNDATASIZE PUSH1 0x0 REVERT JUMPDEST POP POP POP POP PUSH1 0x40 MLOAD RETURNDATASIZE PUSH1 0x1F NOT PUSH1 0x1F DUP3 ADD AND DUP3 ADD DUP1 PUSH1 0x40 MSTORE POP DUP2 ADD SWAP1 PUSH2 0x16A6 SWAP2 SWAP1 PUSH2 0x25DA JUMP JUMPDEST DUP2 GT ISZERO PUSH2 0x16B2 JUMPI PUSH1 0x0 DUP1 REVERT JUMPDEST PUSH1 0xA PUSH1 0x0 SWAP1 SLOAD SWAP1 PUSH2 0x100 EXP SWAP1 DIV PUSH20 0xFFFFFFFFFFFFFFFFFFFFFFFFFFFFFFFFFFFFFFFF AND PUSH20 0xFFFFFFFFFFFFFFFFFFFFFFFFFFFFFFFFFFFFFFFF AND PUSH4 0xDD62ED3E CALLER ADDRESS PUSH1 0x40 MLOAD DUP4 PUSH4 0xFFFFFFFF AND PUSH1 0xE0 SHL DUP2 MSTORE PUSH1 0x4 ADD PUSH2 0x170F SWAP3 SWAP2 SWAP1 PUSH2 0x2710 JUMP JUMPDEST PUSH1 0x20 PUSH1 0x40 MLOAD DUP1 DUP4 SUB DUP2 DUP7 GAS STATICCALL ISZERO DUP1 ISZERO PUSH2 0x172C JUMPI RETURNDATASIZE PUSH1 0x0 DUP1 RETURNDATACOPY RETURNDATASIZE PUSH1 0x0 REVERT JUMPDEST POP POP POP POP PUSH1 0x40 MLOAD RETURNDATASIZE PUSH1 0x1F NOT PUSH1 0x1F DUP3 ADD AND DUP3 ADD DUP1 PUSH1 0x40 MSTORE POP DUP2 ADD SWAP1 PUSH2 0x1750 SWAP2 SWAP1 PUSH2 0x25DA JUMP JUMPDEST DUP2 GT ISZERO PUSH2 0x1792 JUMPI PUSH1 0x40 MLOAD PUSH32 0x8C379A000000000000000000000000000000000000000000000000000000000 DUP2 MSTORE PUSH1 0x4 ADD PUSH2 0x1789 SWAP1 PUSH2 0x2785 JUMP JUMPDEST PUSH1 0x40 MLOAD DUP1 SWAP2 SUB SWAP1 REVERT JUMPDEST PUSH1 0xA PUSH1 0x0 SWAP1 SLOAD SWAP1 PUSH2 0x100 EXP SWAP1 DIV PUSH20 0xFFFFFFFFFFFFFFFFFFFFFFFFFFFFFFFFFFFFFFFF AND PUSH20 0xFFFFFFFFFFFFFFFFFFFFFFFFFFFFFFFFFFFFFFFF AND PUSH4 0x23B872DD CALLER ADDRESS DUP5 PUSH1 0x40 MLOAD DUP5 PUSH4 0xFFFFFFFF AND PUSH1 0xE0 SHL DUP2 MSTORE PUSH1 0x4 ADD PUSH2 0x17F1 SWAP4 SWAP3 SWAP2 SWAP1 PUSH2 0x27A5 JUMP JUMPDEST PUSH1 0x20 PUSH1 0x40 MLOAD DUP1 DUP4 SUB DUP2 PUSH1 0x0 DUP8 GAS CALL ISZERO DUP1 ISZERO PUSH2 0x1810 JUMPI RETURNDATASIZE PUSH1 0x0 DUP1 RETURNDATACOPY RETURNDATASIZE PUSH1 0x0 REVERT JUMPDEST POP POP POP POP PUSH1 0x40 MLOAD RETURNDATASIZE PUSH1 0x1F NOT PUSH1 0x1F DUP3 ADD AND DUP3 ADD DUP1 PUSH1 0x40 MSTORE POP DUP2 ADD SWAP1 PUSH2 0x1834 SWAP2 SWAP1 PUSH2 0x2598 JUMP JUMPDEST POP PUSH1 0xA PUSH1 0x0 SWAP1 SLOAD SWAP1 PUSH2 0x100 EXP SWAP1 DIV PUSH20 0xFFFFFFFFFFFFFFFFFFFFFFFFFFFFFFFFFFFFFFFF AND PUSH20 0xFFFFFFFFFFFFFFFFFFFFFFFFFFFFFFFFFFFFFFFF AND PUSH4 0x95EA7B3 PUSH1 0xD PUSH1 0x0 SWAP1 SLOAD SWAP1 PUSH2 0x100 EXP SWAP1 DIV PUSH20 0xFFFFFFFFFFFFFFFFFFFFFFFFFFFFFFFFFFFFFFFF AND DUP4 PUSH1 0x40 MLOAD DUP4 PUSH4 0xFFFFFFFF AND PUSH1 0xE0 SHL DUP2 MSTORE PUSH1 0x4 ADD PUSH2 0x18B4 SWAP3 SWAP2 SWAP1 PUSH2 0x2537 JUMP JUMPDEST PUSH1 0x20 PUSH1 0x40 MLOAD DUP1 DUP4 SUB DUP2 PUSH1 0x0 DUP8 GAS CALL ISZERO DUP1 ISZERO PUSH2 0x18D3 JUMPI RETURNDATASIZE PUSH1 0x0 DUP1 RETURNDATACOPY RETURNDATASIZE PUSH1 0x0 REVERT JUMPDEST POP POP POP POP PUSH1 0x40 MLOAD RETURNDATASIZE PUSH1 0x1F NOT PUSH1 0x1F DUP3 ADD AND DUP3 ADD DUP1 PUSH1 0x40 MSTORE POP DUP2 ADD SWAP1 PUSH2 0x18F7 SWAP2 SWAP1 PUSH2 0x2598 JUMP JUMPDEST POP PUSH1 0xD PUSH1 0x0 SWAP1 SLOAD SWAP1 PUSH2 0x100 EXP SWAP1 DIV PUSH20 0xFFFFFFFFFFFFFFFFFFFFFFFFFFFFFFFFFFFFFFFF AND PUSH20 0xFFFFFFFFFFFFFFFFFFFFFFFFFFFFFFFFFFFFFFFF AND PUSH4 0x617BA037 PUSH1 0xA PUSH1 0x0 SWAP1 SLOAD SWAP1 PUSH2 0x100 EXP SWAP1 DIV PUSH20 0xFFFFFFFFFFFFFFFFFFFFFFFFFFFFFFFFFFFFFFFF AND DUP4 ADDRESS PUSH1 0x0 PUSH1 0x40 MLOAD DUP6 PUSH4 0xFFFFFFFF AND PUSH1 0xE0 SHL DUP2 MSTORE PUSH1 0x4 ADD PUSH2 0x197C SWAP5 SWAP4 SWAP3 SWAP2 SWAP1 PUSH2 0x282F JUMP JUMPDEST PUSH1 0x0 PUSH1 0x40 MLOAD DUP1 DUP4 SUB DUP2 PUSH1 0x0 DUP8 DUP1 EXTCODESIZE ISZERO DUP1 ISZERO PUSH2 0x1996 JUMPI PUSH1 0x0 DUP1 REVERT JUMPDEST POP GAS CALL ISZERO DUP1 ISZERO PUSH2 0x19AA JUMPI RETURNDATASIZE PUSH1 0x0 DUP1 RETURNDATACOPY RETURNDATASIZE PUSH1 0x0 REVERT JUMPDEST POP POP POP POP DUP1 PUSH1 0x8 PUSH1 0x0 CALLER PUSH20 0xFFFFFFFFFFFFFFFFFFFFFFFFFFFFFFFFFFFFFFFF AND PUSH20 0xFFFFFFFFFFFFFFFFFFFFFFFFFFFFFFFFFFFFFFFF AND DUP2 MSTORE PUSH1 0x20 ADD SWAP1 DUP2 MSTORE PUSH1 0x20 ADD PUSH1 0x0 KECCAK256 SLOAD PUSH2 0x19F9 SWAP2 SWAP1 PUSH2 0x243A JUMP JUMPDEST PUSH1 0x8 PUSH1 0x0 CALLER PUSH20 0xFFFFFFFFFFFFFFFFFFFFFFFFFFFFFFFFFFFFFFFF AND PUSH20 0xFFFFFFFFFFFFFFFFFFFFFFFFFFFFFFFFFFFFFFFF AND DUP2 MSTORE PUSH1 0x20 ADD SWAP1 DUP2 MSTORE PUSH1 0x20 ADD PUSH1 0x0 KECCAK256 DUP2 SWAP1 SSTORE POP DUP1 PUSH1 0x8 PUSH1 0x0 ADDRESS PUSH20 0xFFFFFFFFFFFFFFFFFFFFFFFFFFFFFFFFFFFFFFFF AND PUSH20 0xFFFFFFFFFFFFFFFFFFFFFFFFFFFFFFFFFFFFFFFF AND DUP2 MSTORE PUSH1 0x20 ADD SWAP1 DUP2 MSTORE PUSH1 0x20 ADD PUSH1 0x0 KECCAK256 SLOAD PUSH2 0x1A87 SWAP2 SWAP1 PUSH2 0x243A JUMP JUMPDEST PUSH1 0x8 PUSH1 0x0 ADDRESS PUSH20 0xFFFFFFFFFFFFFFFFFFFFFFFFFFFFFFFFFFFFFFFF AND PUSH20 0xFFFFFFFFFFFFFFFFFFFFFFFFFFFFFFFFFFFFFFFF AND DUP2 MSTORE PUSH1 0x20 ADD SWAP1 DUP2 MSTORE PUSH1 0x20 ADD PUSH1 0x0 KECCAK256 DUP2 SWAP1 SSTORE POP PUSH1 0xC PUSH1 0x0 SWAP1 SLOAD SWAP1 PUSH2 0x100 EXP SWAP1 DIV PUSH20 0xFFFFFFFFFFFFFFFFFFFFFFFFFFFFFFFFFFFFFFFF AND PUSH20 0xFFFFFFFFFFFFFFFFFFFFFFFFFFFFFFFFFFFFFFFF AND PUSH4 0x40C10F19 CALLER DUP4 PUSH1 0x40 MLOAD DUP4 PUSH4 0xFFFFFFFF AND PUSH1 0xE0 SHL DUP2 MSTORE PUSH1 0x4 ADD PUSH2 0x1B27 SWAP3 SWAP2 SWAP1 PUSH2 0x2537 JUMP JUMPDEST PUSH1 0x0 PUSH1 0x40 MLOAD DUP1 DUP4 SUB DUP2 PUSH1 0x0 DUP8 DUP1 EXTCODESIZE ISZERO DUP1 ISZERO PUSH2 0x1B41 JUMPI PUSH1 0x0 DUP1 REVERT JUMPDEST POP GAS CALL ISZERO DUP1 ISZERO PUSH2 0x1B55 JUMPI RETURNDATASIZE PUSH1 0x0 DUP1 RETURNDATACOPY RETURNDATASIZE PUSH1 0x0 REVERT JUMPDEST POP POP POP POP PUSH2 0x1B61 PUSH2 0xB1F JUMP JUMPDEST PUSH2 0x1B69 PUSH2 0x9F7 JUMP JUMPDEST PUSH1 0x9 PUSH1 0x0 CALLER PUSH20 0xFFFFFFFFFFFFFFFFFFFFFFFFFFFFFFFFFFFFFFFF AND PUSH20 0xFFFFFFFFFFFFFFFFFFFFFFFFFFFFFFFFFFFFFFFF AND DUP2 MSTORE PUSH1 0x20 ADD SWAP1 DUP2 MSTORE PUSH1 0x20 ADD PUSH1 0x0 KECCAK256 DUP2 SWAP1 SSTORE POP POP JUMP JUMPDEST PUSH2 0x1BB7 PUSH2 0x1CF1 JUMP JUMPDEST PUSH20 0xFFFFFFFFFFFFFFFFFFFFFFFFFFFFFFFFFFFFFFFF AND PUSH2 0x1BD5 PUSH2 0xCA2 JUMP JUMPDEST PUSH20 0xFFFFFFFFFFFFFFFFFFFFFFFFFFFFFFFFFFFFFFFF AND EQ PUSH2 0x1C2B JUMPI PUSH1 0x40 MLOAD PUSH32 0x8C379A000000000000000000000000000000000000000000000000000000000 DUP2 MSTORE PUSH1 0x4 ADD PUSH2 0x1C22 SWAP1 PUSH2 0x28C0 JUMP JUMPDEST PUSH1 0x40 MLOAD DUP1 SWAP2 SUB SWAP1 REVERT JUMPDEST JUMP JUMPDEST PUSH1 0x0 DUP1 PUSH1 0x0 SWAP1 SLOAD SWAP1 PUSH2 0x100 EXP SWAP1 DIV PUSH20 0xFFFFFFFFFFFFFFFFFFFFFFFFFFFFFFFFFFFFFFFF AND SWAP1 POP DUP2 PUSH1 0x0 DUP1 PUSH2 0x100 EXP DUP2 SLOAD DUP2 PUSH20 0xFFFFFFFFFFFFFFFFFFFFFFFFFFFFFFFFFFFFFFFF MUL NOT AND SWAP1 DUP4 PUSH20 0xFFFFFFFFFFFFFFFFFFFFFFFFFFFFFFFFFFFFFFFF AND MUL OR SWAP1 SSTORE POP DUP2 PUSH20 0xFFFFFFFFFFFFFFFFFFFFFFFFFFFFFFFFFFFFFFFF AND DUP2 PUSH20 0xFFFFFFFFFFFFFFFFFFFFFFFFFFFFFFFFFFFFFFFF AND PUSH32 0x8BE0079C531659141344CD1FD0A4F28419497F9722A3DAAFE3B4186F6B6457E0 PUSH1 0x40 MLOAD PUSH1 0x40 MLOAD DUP1 SWAP2 SUB SWAP1 LOG3 POP POP JUMP JUMPDEST PUSH1 0x0 CALLER SWAP1 POP SWAP1 JUMP JUMPDEST PUSH1 0x40 MLOAD DUP1 PUSH2 0x140 ADD PUSH1 0x40 MSTORE DUP1 PUSH1 0xA SWAP1 JUMPDEST PUSH2 0x1D11 PUSH2 0x1D27 JUMP JUMPDEST DUP2 MSTORE PUSH1 0x20 ADD SWAP1 PUSH1 0x1 SWAP1 SUB SWAP1 DUP2 PUSH2 0x1D09 JUMPI SWAP1 POP POP SWAP1 JUMP JUMPDEST PUSH1 0x40 MLOAD DUP1 PUSH1 0x60 ADD PUSH1 0x40 MSTORE DUP1 PUSH1 0x0 DUP2 MSTORE PUSH1 0x20 ADD PUSH1 0x0 PUSH20 0xFFFFFFFFFFFFFFFFFFFFFFFFFFFFFFFFFFFFFFFF AND DUP2 MSTORE PUSH1 0x20 ADD PUSH1 0x0 DUP2 MSTORE POP SWAP1 JUMP JUMPDEST PUSH1 0x0 DUP2 SWAP1 POP SWAP2 SWAP1 POP JUMP JUMPDEST PUSH2 0x1D71 DUP2 PUSH2 0x1D5E JUMP JUMPDEST DUP3 MSTORE POP POP JUMP JUMPDEST PUSH1 0x0 PUSH1 0x20 DUP3 ADD SWAP1 POP PUSH2 0x1D8C PUSH1 0x0 DUP4 ADD DUP5 PUSH2 0x1D68 JUMP JUMPDEST SWAP3 SWAP2 POP POP JUMP JUMPDEST PUSH1 0x0 DUP1 REVERT JUMPDEST PUSH2 0x1DA0 DUP2 PUSH2 0x1D5E JUMP JUMPDEST DUP2 EQ PUSH2 0x1DAB JUMPI PUSH1 0x0 DUP1 REVERT JUMPDEST POP JUMP JUMPDEST PUSH1 0x0 DUP2 CALLDATALOAD SWAP1 POP PUSH2 0x1DBD DUP2 PUSH2 0x1D97 JUMP JUMPDEST SWAP3 SWAP2 POP POP JUMP JUMPDEST PUSH1 0x0 PUSH20 0xFFFFFFFFFFFFFFFFFFFFFFFFFFFFFFFFFFFFFFFF DUP3 AND SWAP1 POP SWAP2 SWAP1 POP JUMP JUMPDEST PUSH1 0x0 PUSH2 0x1DEE DUP3 PUSH2 0x1DC3 JUMP JUMPDEST SWAP1 POP SWAP2 SWAP1 POP JUMP JUMPDEST PUSH2 0x1DFE DUP2 PUSH2 0x1DE3 JUMP JUMPDEST DUP2 EQ PUSH2 0x1E09 JUMPI PUSH1 0x0 DUP1 REVERT JUMPDEST POP JUMP JUMPDEST PUSH1 0x0 DUP2 CALLDATALOAD SWAP1 POP PUSH2 0x1E1B DUP2 PUSH2 0x1DF5 JUMP JUMPDEST SWAP3 SWAP2 POP POP JUMP JUMPDEST PUSH1 0x0 DUP1 PUSH1 0x40 DUP4 DUP6 SUB SLT ISZERO PUSH2 0x1E38 JUMPI PUSH2 0x1E37 PUSH2 0x1D92 JUMP JUMPDEST JUMPDEST PUSH1 0x0 PUSH2 0x1E46 DUP6 DUP3 DUP7 ADD PUSH2 0x1DAE JUMP JUMPDEST SWAP3 POP POP PUSH1 0x20 PUSH2 0x1E57 DUP6 DUP3 DUP7 ADD PUSH2 0x1E0C JUMP JUMPDEST SWAP2 POP POP SWAP3 POP SWAP3 SWAP1 POP JUMP JUMPDEST PUSH1 0x0 PUSH1 0x20 DUP3 DUP5 SUB SLT ISZERO PUSH2 0x1E77 JUMPI PUSH2 0x1E76 PUSH2 0x1D92 JUMP JUMPDEST JUMPDEST PUSH1 0x0 PUSH2 0x1E85 DUP5 DUP3 DUP6 ADD PUSH2 0x1DAE JUMP JUMPDEST SWAP2 POP POP SWAP3 SWAP2 POP POP JUMP JUMPDEST PUSH2 0x1E97 DUP2 PUSH2 0x1DE3 JUMP JUMPDEST DUP3 MSTORE POP POP JUMP JUMPDEST PUSH1 0x0 PUSH1 0x60 DUP3 ADD SWAP1 POP PUSH2 0x1EB2 PUSH1 0x0 DUP4 ADD DUP7 PUSH2 0x1D68 JUMP JUMPDEST PUSH2 0x1EBF PUSH1 0x20 DUP4 ADD DUP6 PUSH2 0x1E8E JUMP JUMPDEST PUSH2 0x1ECC PUSH1 0x40 DUP4 ADD DUP5 PUSH2 0x1D68 JUMP JUMPDEST SWAP5 SWAP4 POP POP POP POP JUMP JUMPDEST PUSH1 0x0 DUP1 PUSH1 0x40 DUP4 DUP6 SUB SLT ISZERO PUSH2 0x1EEB JUMPI PUSH2 0x1EEA PUSH2 0x1D92 JUMP JUMPDEST JUMPDEST PUSH1 0x0 PUSH2 0x1EF9 DUP6 DUP3 DUP7 ADD PUSH2 0x1E0C JUMP JUMPDEST SWAP3 POP POP PUSH1 0x20 PUSH2 0x1F0A DUP6 DUP3 DUP7 ADD PUSH2 0x1DAE JUMP JUMPDEST SWAP2 POP POP SWAP3 POP SWAP3 SWAP1 POP JUMP JUMPDEST PUSH1 0x0 PUSH1 0x20 DUP3 DUP5 SUB SLT ISZERO PUSH2 0x1F2A JUMPI PUSH2 0x1F29 PUSH2 0x1D92 JUMP JUMPDEST JUMPDEST PUSH1 0x0 PUSH2 0x1F38 DUP5 DUP3 DUP6 ADD PUSH2 0x1E0C JUMP JUMPDEST SWAP2 POP POP SWAP3 SWAP2 POP POP JUMP JUMPDEST PUSH1 0x0 PUSH1 0x20 DUP3 ADD SWAP1 POP PUSH2 0x1F56 PUSH1 0x0 DUP4 ADD DUP5 PUSH2 0x1E8E JUMP JUMPDEST SWAP3 SWAP2 POP POP JUMP JUMPDEST PUSH1 0x0 DUP2 MLOAD SWAP1 POP SWAP2 SWAP1 POP JUMP JUMPDEST PUSH1 0x0 DUP3 DUP3 MSTORE PUSH1 0x20 DUP3 ADD SWAP1 POP SWAP3 SWAP2 POP POP JUMP JUMPDEST PUSH1 0x0 DUP2 SWAP1 POP PUSH1 0x20 DUP3 ADD SWAP1 POP SWAP2 SWAP1 POP JUMP JUMPDEST PUSH2 0x1F91 DUP2 PUSH2 0x1D5E JUMP JUMPDEST DUP3 MSTORE POP POP JUMP JUMPDEST PUSH2 0x1FA0 DUP2 PUSH2 0x1DE3 JUMP JUMPDEST DUP3 MSTORE POP POP JUMP JUMPDEST PUSH1 0x60 DUP3 ADD PUSH1 0x0 DUP3 ADD MLOAD PUSH2 0x1FBC PUSH1 0x0 DUP6 ADD DUP3 PUSH2 0x1F88 JUMP JUMPDEST POP PUSH1 0x20 DUP3 ADD MLOAD PUSH2 0x1FCF PUSH1 0x20 DUP6 ADD DUP3 PUSH2 0x1F97 JUMP JUMPDEST POP PUSH1 0x40 DUP3 ADD MLOAD PUSH2 0x1FE2 PUSH1 0x40 DUP6 ADD DUP3 PUSH2 0x1F88 JUMP JUMPDEST POP POP POP POP JUMP JUMPDEST PUSH1 0x0 PUSH2 0x1FF4 DUP4 DUP4 PUSH2 0x1FA6 JUMP JUMPDEST PUSH1 0x60 DUP4 ADD SWAP1 POP SWAP3 SWAP2 POP POP JUMP JUMPDEST PUSH1 0x0 PUSH1 0x20 DUP3 ADD SWAP1 POP SWAP2 SWAP1 POP JUMP JUMPDEST PUSH1 0x0 PUSH2 0x2018 DUP3 PUSH2 0x1F5C JUMP JUMPDEST PUSH2 0x2022 DUP2 DUP6 PUSH2 0x1F67 JUMP JUMPDEST SWAP4 POP PUSH2 0x202D DUP4 PUSH2 0x1F78 JUMP JUMPDEST DUP1 PUSH1 0x0 JUMPDEST DUP4 DUP2 LT ISZERO PUSH2 0x205E JUMPI DUP2 MLOAD PUSH2 0x2045 DUP9 DUP3 PUSH2 0x1FE8 JUMP JUMPDEST SWAP8 POP PUSH2 0x2050 DUP4 PUSH2 0x2000 JUMP JUMPDEST SWAP3 POP POP PUSH1 0x1 DUP2 ADD SWAP1 POP PUSH2 0x2031 JUMP JUMPDEST POP DUP6 SWAP4 POP POP POP POP SWAP3 SWAP2 POP POP JUMP JUMPDEST PUSH1 0x0 PUSH1 0x20 DUP3 ADD SWAP1 POP DUP2 DUP2 SUB PUSH1 0x0 DUP4 ADD MSTORE PUSH2 0x2085 DUP2 DUP5 PUSH2 0x200D JUMP JUMPDEST SWAP1 POP SWAP3 SWAP2 POP POP JUMP JUMPDEST PUSH1 0x0 PUSH1 0xA SWAP1 POP SWAP2 SWAP1 POP JUMP JUMPDEST PUSH1 0x0 DUP2 SWAP1 POP SWAP3 SWAP2 POP POP JUMP JUMPDEST PUSH1 0x0 DUP2 SWAP1 POP SWAP2 SWAP1 POP JUMP JUMPDEST PUSH1 0x0 PUSH1 0x20 DUP3 ADD SWAP1 POP SWAP2 SWAP1 POP JUMP JUMPDEST PUSH2 0x20C3 DUP2 PUSH2 0x208D JUMP JUMPDEST PUSH2 0x20CD DUP2 DUP5 PUSH2 0x2098 JUMP JUMPDEST SWAP3 POP PUSH2 0x20D8 DUP3 PUSH2 0x20A3 JUMP JUMPDEST DUP1 PUSH1 0x0 JUMPDEST DUP4 DUP2 LT ISZERO PUSH2 0x2109 JUMPI DUP2 MLOAD PUSH2 0x20F0 DUP8 DUP3 PUSH2 0x1FE8 JUMP JUMPDEST SWAP7 POP PUSH2 0x20FB DUP4 PUSH2 0x20AD JUMP JUMPDEST SWAP3 POP POP PUSH1 0x1 DUP2 ADD SWAP1 POP PUSH2 0x20DC JUMP JUMPDEST POP POP POP POP POP POP JUMP JUMPDEST PUSH1 0x0 PUSH2 0x3C0 DUP3 ADD SWAP1 POP PUSH2 0x2127 PUSH1 0x0 DUP4 ADD DUP5 PUSH2 0x20BA JUMP JUMPDEST SWAP3 SWAP2 POP POP JUMP JUMPDEST PUSH32 0x4E487B7100000000000000000000000000000000000000000000000000000000 PUSH1 0x0 MSTORE PUSH1 0x12 PUSH1 0x4 MSTORE PUSH1 0x24 PUSH1 0x0 REVERT JUMPDEST PUSH32 0x4E487B7100000000000000000000000000000000000000000000000000000000 PUSH1 0x0 MSTORE PUSH1 0x11 PUSH1 0x4 MSTORE PUSH1 0x24 PUSH1 0x0 REVERT JUMPDEST PUSH1 0x0 PUSH2 0x2196 DUP3 PUSH2 0x1D5E JUMP JUMPDEST SWAP2 POP PUSH2 0x21A1 DUP4 PUSH2 0x1D5E JUMP JUMPDEST SWAP3 POP DUP3 PUSH2 0x21B1 JUMPI PUSH2 0x21B0 PUSH2 0x212D JUMP JUMPDEST JUMPDEST DUP3 DUP3 DIV SWAP1 POP SWAP3 SWAP2 POP POP JUMP JUMPDEST PUSH1 0x0 PUSH2 0x21C7 DUP3 PUSH2 0x1D5E JUMP JUMPDEST SWAP2 POP PUSH2 0x21D2 DUP4 PUSH2 0x1D5E JUMP JUMPDEST SWAP3 POP DUP3 DUP3 SUB SWAP1 POP DUP2 DUP2 GT ISZERO PUSH2 0x21EA JUMPI PUSH2 0x21E9 PUSH2 0x215C JUMP JUMPDEST JUMPDEST SWAP3 SWAP2 POP POP JUMP JUMPDEST PUSH1 0x0 DUP2 PUSH1 0x1 SHR SWAP1 POP SWAP2 SWAP1 POP JUMP JUMPDEST PUSH1 0x0 DUP1 DUP3 SWAP2 POP DUP4 SWAP1 POP JUMPDEST PUSH1 0x1 DUP6 GT ISZERO PUSH2 0x2247 JUMPI DUP1 DUP7 DIV DUP2 GT ISZERO PUSH2 0x2223 JUMPI PUSH2 0x2222 PUSH2 0x215C JUMP JUMPDEST JUMPDEST PUSH1 0x1 DUP6 AND ISZERO PUSH2 0x2232 JUMPI DUP1 DUP3 MUL SWAP2 POP JUMPDEST DUP1 DUP2 MUL SWAP1 POP PUSH2 0x2240 DUP6 PUSH2 0x21F0 JUMP JUMPDEST SWAP5 POP PUSH2 0x2207 JUMP JUMPDEST SWAP5 POP SWAP5 SWAP3 POP POP POP JUMP JUMPDEST PUSH1 0x0 DUP3 PUSH2 0x2260 JUMPI PUSH1 0x1 SWAP1 POP PUSH2 0x231C JUMP JUMPDEST DUP2 PUSH2 0x226E JUMPI PUSH1 0x0 SWAP1 POP PUSH2 0x231C JUMP JUMPDEST DUP2 PUSH1 0x1 DUP2 EQ PUSH2 0x2284 JUMPI PUSH1 0x2 DUP2 EQ PUSH2 0x228E JUMPI PUSH2 0x22BD JUMP JUMPDEST PUSH1 0x1 SWAP2 POP POP PUSH2 0x231C JUMP JUMPDEST PUSH1 0xFF DUP5 GT ISZERO PUSH2 0x22A0 JUMPI PUSH2 0x229F PUSH2 0x215C JUMP JUMPDEST JUMPDEST DUP4 PUSH1 0x2 EXP SWAP2 POP DUP5 DUP3 GT ISZERO PUSH2 0x22B7 JUMPI PUSH2 0x22B6 PUSH2 0x215C JUMP JUMPDEST JUMPDEST POP PUSH2 0x231C JUMP JUMPDEST POP PUSH1 0x20 DUP4 LT PUSH2 0x133 DUP4 LT AND PUSH1 0x4E DUP5 LT PUSH1 0xB DUP5 LT AND OR ISZERO PUSH2 0x22F2 JUMPI DUP3 DUP3 EXP SWAP1 POP DUP4 DUP2 GT ISZERO PUSH2 0x22ED JUMPI PUSH2 0x22EC PUSH2 0x215C JUMP JUMPDEST JUMPDEST PUSH2 0x231C JUMP JUMPDEST PUSH2 0x22FF DUP5 DUP5 DUP5 PUSH1 0x1 PUSH2 0x21FD JUMP JUMPDEST SWAP3 POP SWAP1 POP DUP2 DUP5 DIV DUP2 GT ISZERO PUSH2 0x2316 JUMPI PUSH2 0x2315 PUSH2 0x215C JUMP JUMPDEST JUMPDEST DUP2 DUP2 MUL SWAP1 POP JUMPDEST SWAP4 SWAP3 POP POP POP JUMP JUMPDEST PUSH1 0x0 PUSH1 0xFF DUP3 AND SWAP1 POP SWAP2 SWAP1 POP JUMP JUMPDEST PUSH1 0x0 PUSH2 0x233B DUP3 PUSH2 0x1D5E JUMP JUMPDEST SWAP2 POP PUSH2 0x2346 DUP4 PUSH2 0x2323 JUMP JUMPDEST SWAP3 POP PUSH2 0x2373 PUSH32 0xFFFFFFFFFFFFFFFFFFFFFFFFFFFFFFFFFFFFFFFFFFFFFFFFFFFFFFFFFFFFFFFF DUP5 DUP5 PUSH2 0x2250 JUMP JUMPDEST SWAP1 POP SWAP3 SWAP2 POP POP JUMP JUMPDEST PUSH1 0x0 PUSH2 0x2386 DUP3 PUSH2 0x1D5E JUMP JUMPDEST SWAP2 POP PUSH2 0x2391 DUP4 PUSH2 0x1D5E JUMP JUMPDEST SWAP3 POP DUP3 DUP3 MUL PUSH2 0x239F DUP2 PUSH2 0x1D5E JUMP JUMPDEST SWAP2 POP DUP3 DUP3 DIV DUP5 EQ DUP4 ISZERO OR PUSH2 0x23B6 JUMPI PUSH2 0x23B5 PUSH2 0x215C JUMP JUMPDEST JUMPDEST POP SWAP3 SWAP2 POP POP JUMP JUMPDEST PUSH1 0x0 DUP3 DUP3 MSTORE PUSH1 0x20 DUP3 ADD SWAP1 POP SWAP3 SWAP2 POP POP JUMP JUMPDEST PUSH32 0x496E73756666696369656E742062616C616E6365000000000000000000000000 PUSH1 0x0 DUP3 ADD MSTORE POP JUMP JUMPDEST PUSH1 0x0 PUSH2 0x2404 PUSH1 0x14 DUP4 PUSH2 0x23BD JUMP JUMPDEST SWAP2 POP PUSH2 0x240F DUP3 PUSH2 0x23CE JUMP JUMPDEST PUSH1 0x20 DUP3 ADD SWAP1 POP SWAP2 SWAP1 POP JUMP JUMPDEST PUSH1 0x0 PUSH1 0x20 DUP3 ADD SWAP1 POP DUP2 DUP2 SUB PUSH1 0x0 DUP4 ADD MSTORE PUSH2 0x2433 DUP2 PUSH2 0x23F7 JUMP JUMPDEST SWAP1 POP SWAP2 SWAP1 POP JUMP JUMPDEST PUSH1 0x0 PUSH2 0x2445 DUP3 PUSH2 0x1D5E JUMP JUMPDEST SWAP2 POP PUSH2 0x2450 DUP4 PUSH2 0x1D5E JUMP JUMPDEST SWAP3 POP DUP3 DUP3 ADD SWAP1 POP DUP1 DUP3 GT ISZERO PUSH2 0x2468 JUMPI PUSH2 0x2467 PUSH2 0x215C JUMP JUMPDEST JUMPDEST SWAP3 SWAP2 POP POP JUMP JUMPDEST PUSH32 0x506C656173652077616974203220636F6E746573747320616674657220796F75 PUSH1 0x0 DUP3 ADD MSTORE PUSH32 0x72206465706F73697420746F2077697464726177000000000000000000000000 PUSH1 0x20 DUP3 ADD MSTORE POP JUMP JUMPDEST PUSH1 0x0 PUSH2 0x24CA PUSH1 0x34 DUP4 PUSH2 0x23BD JUMP JUMPDEST SWAP2 POP PUSH2 0x24D5 DUP3 PUSH2 0x246E JUMP JUMPDEST PUSH1 0x40 DUP3 ADD SWAP1 POP SWAP2 SWAP1 POP JUMP JUMPDEST PUSH1 0x0 PUSH1 0x20 DUP3 ADD SWAP1 POP DUP2 DUP2 SUB PUSH1 0x0 DUP4 ADD MSTORE PUSH2 0x24F9 DUP2 PUSH2 0x24BD JUMP JUMPDEST SWAP1 POP SWAP2 SWAP1 POP JUMP JUMPDEST PUSH1 0x0 PUSH1 0x60 DUP3 ADD SWAP1 POP PUSH2 0x2515 PUSH1 0x0 DUP4 ADD DUP7 PUSH2 0x1E8E JUMP JUMPDEST PUSH2 0x2522 PUSH1 0x20 DUP4 ADD DUP6 PUSH2 0x1D68 JUMP JUMPDEST PUSH2 0x252F PUSH1 0x40 DUP4 ADD DUP5 PUSH2 0x1E8E JUMP JUMPDEST SWAP5 SWAP4 POP POP POP POP JUMP JUMPDEST PUSH1 0x0 PUSH1 0x40 DUP3 ADD SWAP1 POP PUSH2 0x254C PUSH1 0x0 DUP4 ADD DUP6 PUSH2 0x1E8E JUMP JUMPDEST PUSH2 0x2559 PUSH1 0x20 DUP4 ADD DUP5 PUSH2 0x1D68 JUMP JUMPDEST SWAP4 SWAP3 POP POP POP JUMP JUMPDEST PUSH1 0x0 DUP2 ISZERO ISZERO SWAP1 POP SWAP2 SWAP1 POP JUMP JUMPDEST PUSH2 0x2575 DUP2 PUSH2 0x2560 JUMP JUMPDEST DUP2 EQ PUSH2 0x2580 JUMPI PUSH1 0x0 DUP1 REVERT JUMPDEST POP JUMP JUMPDEST PUSH1 0x0 DUP2 MLOAD SWAP1 POP PUSH2 0x2592 DUP2 PUSH2 0x256C JUMP JUMPDEST SWAP3 SWAP2 POP POP JUMP JUMPDEST PUSH1 0x0 PUSH1 0x20 DUP3 DUP5 SUB SLT ISZERO PUSH2 0x25AE JUMPI PUSH2 0x25AD PUSH2 0x1D92 JUMP JUMPDEST JUMPDEST PUSH1 0x0 PUSH2 0x25BC DUP5 DUP3 DUP6 ADD PUSH2 0x2583 JUMP JUMPDEST SWAP2 POP POP SWAP3 SWAP2 POP POP JUMP JUMPDEST PUSH1 0x0 DUP2 MLOAD SWAP1 POP PUSH2 0x25D4 DUP2 PUSH2 0x1D97 JUMP JUMPDEST SWAP3 SWAP2 POP POP JUMP JUMPDEST PUSH1 0x0 PUSH1 0x20 DUP3 DUP5 SUB SLT ISZERO PUSH2 0x25F0 JUMPI PUSH2 0x25EF PUSH2 0x1D92 JUMP JUMPDEST JUMPDEST PUSH1 0x0 PUSH2 0x25FE DUP5 DUP3 DUP6 ADD PUSH2 0x25C5 JUMP JUMPDEST SWAP2 POP POP SWAP3 SWAP2 POP POP JUMP JUMPDEST PUSH32 0x4E487B7100000000000000000000000000000000000000000000000000000000 PUSH1 0x0 MSTORE PUSH1 0x32 PUSH1 0x4 MSTORE PUSH1 0x24 PUSH1 0x0 REVERT JUMPDEST PUSH1 0x0 PUSH2 0x2641 DUP3 PUSH2 0x1D5E JUMP JUMPDEST SWAP2 POP PUSH32 0xFFFFFFFFFFFFFFFFFFFFFFFFFFFFFFFFFFFFFFFFFFFFFFFFFFFFFFFFFFFFFFFF DUP3 SUB PUSH2 0x2673 JUMPI PUSH2 0x2672 PUSH2 0x215C JUMP JUMPDEST JUMPDEST PUSH1 0x1 DUP3 ADD SWAP1 POP SWAP2 SWAP1 POP JUMP JUMPDEST PUSH32 0x4F776E61626C653A206E6577206F776E657220697320746865207A65726F2061 PUSH1 0x0 DUP3 ADD MSTORE PUSH32 0x6464726573730000000000000000000000000000000000000000000000000000 PUSH1 0x20 DUP3 ADD MSTORE POP JUMP JUMPDEST PUSH1 0x0 PUSH2 0x26DA PUSH1 0x26 DUP4 PUSH2 0x23BD JUMP JUMPDEST SWAP2 POP PUSH2 0x26E5 DUP3 PUSH2 0x267E JUMP JUMPDEST PUSH1 0x40 DUP3 ADD SWAP1 POP SWAP2 SWAP1 POP JUMP JUMPDEST PUSH1 0x0 PUSH1 0x20 DUP3 ADD SWAP1 POP DUP2 DUP2 SUB PUSH1 0x0 DUP4 ADD MSTORE PUSH2 0x2709 DUP2 PUSH2 0x26CD JUMP JUMPDEST SWAP1 POP SWAP2 SWAP1 POP JUMP JUMPDEST PUSH1 0x0 PUSH1 0x40 DUP3 ADD SWAP1 POP PUSH2 0x2725 PUSH1 0x0 DUP4 ADD DUP6 PUSH2 0x1E8E JUMP JUMPDEST PUSH2 0x2732 PUSH1 0x20 DUP4 ADD DUP5 PUSH2 0x1E8E JUMP JUMPDEST SWAP4 SWAP3 POP POP POP JUMP JUMPDEST PUSH32 0x496E73756666696369656E7420616C6C6F776564205553444300000000000000 PUSH1 0x0 DUP3 ADD MSTORE POP JUMP JUMPDEST PUSH1 0x0 PUSH2 0x276F PUSH1 0x19 DUP4 PUSH2 0x23BD JUMP JUMPDEST SWAP2 POP PUSH2 0x277A DUP3 PUSH2 0x2739 JUMP JUMPDEST PUSH1 0x20 DUP3 ADD SWAP1 POP SWAP2 SWAP1 POP JUMP JUMPDEST PUSH1 0x0 PUSH1 0x20 DUP3 ADD SWAP1 POP DUP2 DUP2 SUB PUSH1 0x0 DUP4 ADD MSTORE PUSH2 0x279E DUP2 PUSH2 0x2762 JUMP JUMPDEST SWAP1 POP SWAP2 SWAP1 POP JUMP JUMPDEST PUSH1 0x0 PUSH1 0x60 DUP3 ADD SWAP1 POP PUSH2 0x27BA PUSH1 0x0 DUP4 ADD DUP7 PUSH2 0x1E8E JUMP JUMPDEST PUSH2 0x27C7 PUSH1 0x20 DUP4 ADD DUP6 PUSH2 0x1E8E JUMP JUMPDEST PUSH2 0x27D4 PUSH1 0x40 DUP4 ADD DUP5 PUSH2 0x1D68 JUMP JUMPDEST SWAP5 SWAP4 POP POP POP POP JUMP JUMPDEST PUSH1 0x0 DUP2 SWAP1 POP SWAP2 SWAP1 POP JUMP JUMPDEST PUSH1 0x0 PUSH2 0xFFFF DUP3 AND SWAP1 POP SWAP2 SWAP1 POP JUMP JUMPDEST PUSH1 0x0 DUP2 SWAP1 POP SWAP2 SWAP1 POP JUMP JUMPDEST PUSH1 0x0 PUSH2 0x2819 PUSH2 0x2814 PUSH2 0x280F DUP5 PUSH2 0x27DC JUMP JUMPDEST PUSH2 0x27F4 JUMP JUMPDEST PUSH2 0x27E6 JUMP JUMPDEST SWAP1 POP SWAP2 SWAP1 POP JUMP JUMPDEST PUSH2 0x2829 DUP2 PUSH2 0x27FE JUMP JUMPDEST DUP3 MSTORE POP POP JUMP JUMPDEST PUSH1 0x0 PUSH1 0x80 DUP3 ADD SWAP1 POP PUSH2 0x2844 PUSH1 0x0 DUP4 ADD DUP8 PUSH2 0x1E8E JUMP JUMPDEST PUSH2 0x2851 PUSH1 0x20 DUP4 ADD DUP7 PUSH2 0x1D68 JUMP JUMPDEST PUSH2 0x285E PUSH1 0x40 DUP4 ADD DUP6 PUSH2 0x1E8E JUMP JUMPDEST PUSH2 0x286B PUSH1 0x60 DUP4 ADD DUP5 PUSH2 0x2820 JUMP JUMPDEST SWAP6 SWAP5 POP POP POP POP POP JUMP JUMPDEST PUSH32 0x4F776E61626C653A2063616C6C6572206973206E6F7420746865206F776E6572 PUSH1 0x0 DUP3 ADD MSTORE POP JUMP JUMPDEST PUSH1 0x0 PUSH2 0x28AA PUSH1 0x20 DUP4 PUSH2 0x23BD JUMP JUMPDEST SWAP2 POP PUSH2 0x28B5 DUP3 PUSH2 0x2874 JUMP JUMPDEST PUSH1 0x20 DUP3 ADD SWAP1 POP SWAP2 SWAP1 POP JUMP JUMPDEST PUSH1 0x0 PUSH1 0x20 DUP3 ADD SWAP1 POP DUP2 DUP2 SUB PUSH1 0x0 DUP4 ADD MSTORE PUSH2 0x28D9 DUP2 PUSH2 0x289D JUMP JUMPDEST SWAP1 POP SWAP2 SWAP1 POP JUMP INVALID LOG2 PUSH5 0x6970667358 0x22 SLT KECCAK256 0x2C RETURNDATACOPY BLOCKHASH 0x4E GASPRICE SWAP15 0xE6 0x2B PC MULMOD 0xC1 BALANCE DUP13 0xBE GASLIMIT SHL GAS ADDRESS 0xAA XOR 0xD8 0xF8 ADDMOD 0xEB 0xE0 0xC9 MSTORE8 0xA7 DUP9 0xC1 SWAP4 RETURN PUSH5 0x736F6C6343 STOP ADDMOD GT STOP CALLER "},"methodIdentifiers":{"calculateRewards(uint256,address)":"17686422","changeGameFrequence(uint256)":"f2fbee3f","changeNpngTokenAddress(address)":"8347f536","checkPlayerRank(uint256,address)":"8c6ba47b","contestsResult(uint256)":"1b922c09","depositOnAave(uint256)":"fd8d1909","getCurrentIdContest()":"63072aab","getGameFrequence()":"05e81bda","getMyBalance(address)":"7e3ef7cd","getScore()":"afd82067","getTopPlayers(uint256)":"ba3c0067","getTotalAmountTopPlayers(uint256)":"fc04ca94","interestEarned()":"374261ab","numberOfPlayersPerContest(uint256)":"e9d69990","owner()":"8da5cb5b","renounceOwnership()":"715018a6","saveScore(address,uint256)":"695a6517","transferOwnership(address)":"f2fde38b","updateIdContest()":"771baacb","withdraw(uint256)":"2e1a7d4d"}}}}}